{
	"src/contract/Lottery.sol": {
		"Lottery": {
			"abi": [
				{
					"inputs": [],
					"stateMutability": "nonpayable",
					"type": "constructor"
				},
				{
					"anonymous": false,
					"inputs": [
						{
							"indexed": false,
							"internalType": "uint256",
							"name": "_itemId",
							"type": "uint256"
						},
						{
							"indexed": false,
							"internalType": "uint256",
							"name": "newBidTotal",
							"type": "uint256"
						}
					],
					"name": "bidEvent",
					"type": "event"
				},
				{
					"anonymous": false,
					"inputs": [
						{
							"indexed": false,
							"internalType": "uint256",
							"name": "_itemId",
							"type": "uint256"
						},
						{
							"indexed": false,
							"internalType": "address",
							"name": "winner",
							"type": "address"
						}
					],
					"name": "winnerEvent",
					"type": "event"
				},
				{
					"inputs": [],
					"name": "DeclareAllWinners",
					"outputs": [],
					"stateMutability": "nonpayable",
					"type": "function"
				},
				{
					"inputs": [
						{
							"internalType": "uint256",
							"name": "_itemId",
							"type": "uint256"
						}
					],
					"name": "DeclareWinner",
					"outputs": [],
					"stateMutability": "nonpayable",
					"type": "function"
				},
				{
					"inputs": [
						{
							"internalType": "address",
							"name": "newOwner",
							"type": "address"
						}
					],
					"name": "addOwner",
					"outputs": [],
					"stateMutability": "nonpayable",
					"type": "function"
				},
				{
					"inputs": [
						{
							"internalType": "uint256",
							"name": "_itemId",
							"type": "uint256"
						}
					],
					"name": "bid",
					"outputs": [],
					"stateMutability": "payable",
					"type": "function"
				},
				{
					"inputs": [],
					"name": "getAllItemBidNumber",
					"outputs": [
						{
							"internalType": "uint256[3]",
							"name": "",
							"type": "uint256[3]"
						}
					],
					"stateMutability": "view",
					"type": "function"
				},
				{
					"inputs": [],
					"name": "getBalance",
					"outputs": [
						{
							"internalType": "uint256",
							"name": "",
							"type": "uint256"
						}
					],
					"stateMutability": "view",
					"type": "function"
				},
				{
					"inputs": [
						{
							"internalType": "uint256",
							"name": "_itemId",
							"type": "uint256"
						}
					],
					"name": "getItemBidNumber",
					"outputs": [
						{
							"internalType": "uint256",
							"name": "",
							"type": "uint256"
						}
					],
					"stateMutability": "view",
					"type": "function"
				},
				{
					"inputs": [],
					"name": "getItems",
					"outputs": [
						{
							"components": [
								{
									"internalType": "uint256",
									"name": "itemId",
									"type": "uint256"
								},
								{
									"internalType": "address[]",
									"name": "itemTokens",
									"type": "address[]"
								},
								{
									"internalType": "address",
									"name": "winner",
									"type": "address"
								}
							],
							"internalType": "struct Lottery.Item[3]",
							"name": "",
							"type": "tuple[3]"
						}
					],
					"stateMutability": "view",
					"type": "function"
				},
				{
					"inputs": [],
					"name": "getOwners",
					"outputs": [
						{
							"internalType": "address[]",
							"name": "",
							"type": "address[]"
						}
					],
					"stateMutability": "view",
					"type": "function"
				},
				{
					"inputs": [],
					"name": "getPerson",
					"outputs": [
						{
							"components": [
								{
									"internalType": "uint256",
									"name": "personId",
									"type": "uint256"
								},
								{
									"internalType": "address",
									"name": "addr",
									"type": "address"
								}
							],
							"internalType": "struct Lottery.Person",
							"name": "",
							"type": "tuple"
						}
					],
					"stateMutability": "view",
					"type": "function"
				},
				{
					"inputs": [
						{
							"internalType": "uint256",
							"name": "",
							"type": "uint256"
						}
					],
					"name": "items",
					"outputs": [
						{
							"internalType": "uint256",
							"name": "itemId",
							"type": "uint256"
						},
						{
							"internalType": "address",
							"name": "winner",
							"type": "address"
						}
					],
					"stateMutability": "view",
					"type": "function"
				},
				{
					"inputs": [
						{
							"internalType": "uint256",
							"name": "",
							"type": "uint256"
						}
					],
					"name": "owners",
					"outputs": [
						{
							"internalType": "address",
							"name": "",
							"type": "address"
						}
					],
					"stateMutability": "view",
					"type": "function"
				},
				{
					"inputs": [],
					"name": "reset",
					"outputs": [],
					"stateMutability": "nonpayable",
					"type": "function"
				},
				{
					"inputs": [],
					"name": "selfDestruct",
					"outputs": [],
					"stateMutability": "nonpayable",
					"type": "function"
				},
				{
					"inputs": [
						{
							"internalType": "address",
							"name": "newOwner",
							"type": "address"
						}
					],
					"name": "transferOwnership",
					"outputs": [],
					"stateMutability": "nonpayable",
					"type": "function"
				},
				{
					"inputs": [],
					"name": "withdraw",
					"outputs": [],
					"stateMutability": "nonpayable",
					"type": "function"
				}
			],
			"devdoc": {
				"kind": "dev",
				"methods": {},
				"version": 1
			},
			"evm": {
				"assembly": "    /* \"src/contract/Lottery.sol\":57:3927  contract Lottery {... */\n  mstore(0x40, 0x80)\n    /* \"src/contract/Lottery.sol\":1314:1545  constructor() {... */\n  callvalue\n  dup1\n  iszero\n  tag_1\n  jumpi\n  0x00\n  dup1\n  revert\ntag_1:\n  pop\n    /* \"src/contract/Lottery.sol\":1338:1344  owners */\n  0x00\n    /* \"src/contract/Lottery.sol\":1350:1360  msg.sender */\n  caller\n    /* \"src/contract/Lottery.sol\":1338:1361  owners.push(msg.sender) */\n  swap1\n  dup1\n  0x01\n  dup2\n  sload\n  add\n  dup1\n  dup3\n  sstore\n  dup1\n  swap2\n  pop\n  pop\n  0x01\n  swap1\n  sub\n  swap1\n  0x00\n  mstore\n  keccak256(0x00, 0x20)\n  add\n  0x00\n  swap1\n  swap2\n  swap1\n  swap2\n  swap1\n  swap2\n  0x0100\n  exp\n  dup2\n  sload\n  dup2\n  0xffffffffffffffffffffffffffffffffffffffff\n  mul\n  not\n  and\n  swap1\n  dup4\n  0xffffffffffffffffffffffffffffffffffffffff\n  and\n  mul\n  or\n  swap1\n  sstore\n  pop\n    /* \"src/contract/Lottery.sol\":1376:1382  uint i */\n  0x00\n    /* \"src/contract/Lottery.sol\":1371:1538  for (uint i = 0; i < 3; i++) {... */\ntag_5:\n    /* \"src/contract/Lottery.sol\":1392:1393  3 */\n  0x03\n    /* \"src/contract/Lottery.sol\":1388:1389  i */\n  dup2\n    /* \"src/contract/Lottery.sol\":1388:1393  i < 3 */\n  lt\n    /* \"src/contract/Lottery.sol\":1371:1538  for (uint i = 0; i < 3; i++) {... */\n  iszero\n  tag_6\n  jumpi\n    /* \"src/contract/Lottery.sol\":1432:1433  i */\n  dup1\n    /* \"src/contract/Lottery.sol\":1414:1419  items */\n  0x01\n    /* \"src/contract/Lottery.sol\":1420:1421  i */\n  dup3\n    /* \"src/contract/Lottery.sol\":1414:1422  items[i] */\n  0x03\n  dup2\n  lt\n  tag_8\n  jumpi\n  mstore(0x00, 0x4e487b7100000000000000000000000000000000000000000000000000000000)\n  mstore(0x04, 0x32)\n  revert(0x00, 0x24)\ntag_8:\n  0x03\n  mul\n  add\n    /* \"src/contract/Lottery.sol\":1414:1429  items[i].itemId */\n  0x00\n  add\n    /* \"src/contract/Lottery.sol\":1414:1433  items[i].itemId = i */\n  dup2\n  swap1\n  sstore\n  pop\n    /* \"src/contract/Lottery.sol\":1473:1474  0 */\n  0x00\n    /* \"src/contract/Lottery.sol\":1447:1452  items */\n  0x01\n    /* \"src/contract/Lottery.sol\":1453:1454  i */\n  dup3\n    /* \"src/contract/Lottery.sol\":1447:1455  items[i] */\n  0x03\n  dup2\n  lt\n  tag_10\n  jumpi\n  mstore(0x00, 0x4e487b7100000000000000000000000000000000000000000000000000000000)\n  mstore(0x04, 0x32)\n  revert(0x00, 0x24)\ntag_10:\n  0x03\n  mul\n  add\n    /* \"src/contract/Lottery.sol\":1447:1462  items[i].winner */\n  0x02\n  add\n  0x00\n    /* \"src/contract/Lottery.sol\":1447:1475  items[i].winner = address(0) */\n  0x0100\n  exp\n  dup2\n  sload\n  dup2\n  0xffffffffffffffffffffffffffffffffffffffff\n  mul\n  not\n  and\n  swap1\n  dup4\n  0xffffffffffffffffffffffffffffffffffffffff\n  and\n  mul\n  or\n  swap1\n  sstore\n  pop\n    /* \"src/contract/Lottery.sol\":1525:1526  0 */\n  0x00\n    /* \"src/contract/Lottery.sol\":1511:1527  new address[](0) */\n  0xffffffffffffffff\n  dup2\n  gt\n  iszero\n  tag_12\n  jumpi\n  mstore(0x00, 0x4e487b7100000000000000000000000000000000000000000000000000000000)\n  mstore(0x04, 0x41)\n  revert(0x00, 0x24)\ntag_12:\n  mload(0x40)\n  swap1\n  dup1\n  dup3\n  mstore\n  dup1\n  0x20\n  mul\n  0x20\n  add\n  dup3\n  add\n  0x40\n  mstore\n  dup1\n  iszero\n  tag_13\n  jumpi\n  dup2\n  0x20\n  add\n  0x20\n  dup3\n  mul\n  dup1\n  calldatasize\n  dup4\n  calldatacopy\n  dup1\n  dup3\n  add\n  swap2\n  pop\n  pop\n  swap1\n  pop\ntag_13:\n  pop\n    /* \"src/contract/Lottery.sol\":1489:1494  items */\n  0x01\n    /* \"src/contract/Lottery.sol\":1495:1496  i */\n  dup3\n    /* \"src/contract/Lottery.sol\":1489:1497  items[i] */\n  0x03\n  dup2\n  lt\n  tag_14\n  jumpi\n  mstore(0x00, 0x4e487b7100000000000000000000000000000000000000000000000000000000)\n  mstore(0x04, 0x32)\n  revert(0x00, 0x24)\ntag_14:\n  0x03\n  mul\n  add\n    /* \"src/contract/Lottery.sol\":1489:1508  items[i].itemTokens */\n  0x01\n  add\n    /* \"src/contract/Lottery.sol\":1489:1527  items[i].itemTokens = new address[](0) */\n  swap1\n  dup1\n  mload\n  swap1\n  0x20\n  add\n  swap1\n  tag_16\n  swap3\n  swap2\n  swap1\n  tag_17\n  jump\t// in\ntag_16:\n  pop\n    /* \"src/contract/Lottery.sol\":1395:1398  i++ */\n  dup1\n  dup1\n  tag_18\n  swap1\n  tag_19\n  jump\t// in\ntag_18:\n  swap2\n  pop\n  pop\n    /* \"src/contract/Lottery.sol\":1371:1538  for (uint i = 0; i < 3; i++) {... */\n  jump(tag_5)\ntag_6:\n  pop\n    /* \"src/contract/Lottery.sol\":57:3927  contract Lottery {... */\n  jump(tag_20)\ntag_17:\n  dup3\n  dup1\n  sload\n  dup3\n  dup3\n  sstore\n  swap1\n  0x00\n  mstore\n  keccak256(0x00, 0x20)\n  swap1\n  dup2\n  add\n  swap3\n  dup3\n  iszero\n  tag_21\n  jumpi\n  swap2\n  0x20\n  mul\n  dup3\n  add\ntag_22:\n  dup3\n  dup2\n  gt\n  iszero\n  tag_23\n  jumpi\n  dup3\n  mload\n  dup3\n  exp(0x0100, 0x00)\n  dup2\n  sload\n  dup2\n  0xffffffffffffffffffffffffffffffffffffffff\n  mul\n  not\n  and\n  swap1\n  dup4\n  0xffffffffffffffffffffffffffffffffffffffff\n  and\n  mul\n  or\n  swap1\n  sstore\n  pop\n  swap2\n  0x20\n  add\n  swap2\n  swap1\n  0x01\n  add\n  swap1\n  jump(tag_22)\ntag_23:\ntag_21:\n  pop\n  swap1\n  pop\n  tag_24\n  swap2\n  swap1\n  tag_25\n  jump\t// in\ntag_24:\n  pop\n  swap1\n  jump\t// out\ntag_25:\ntag_26:\n  dup1\n  dup3\n  gt\n  iszero\n  tag_27\n  jumpi\n  0x00\n  dup2\n  0x00\n  swap1\n  sstore\n  pop\n  0x01\n  add\n  jump(tag_26)\ntag_27:\n  pop\n  swap1\n  jump\t// out\n    /* \"#utility.yul\":7:84   */\ntag_29:\n    /* \"#utility.yul\":44:51   */\n  0x00\n    /* \"#utility.yul\":73:78   */\n  dup2\n    /* \"#utility.yul\":62:78   */\n  swap1\n  pop\n    /* \"#utility.yul\":52:84   */\n  swap2\n  swap1\n  pop\n  jump\t// out\n    /* \"#utility.yul\":90:323   */\ntag_19:\n    /* \"#utility.yul\":129:132   */\n  0x00\n    /* \"#utility.yul\":152:176   */\n  tag_32\n    /* \"#utility.yul\":170:175   */\n  dup3\n    /* \"#utility.yul\":152:176   */\n  tag_29\n  jump\t// in\ntag_32:\n    /* \"#utility.yul\":143:176   */\n  swap2\n  pop\n    /* \"#utility.yul\":198:264   */\n  0xffffffffffffffffffffffffffffffffffffffffffffffffffffffffffffffff\n    /* \"#utility.yul\":191:196   */\n  dup3\n    /* \"#utility.yul\":188:265   */\n  eq\n    /* \"#utility.yul\":185:187   */\n  iszero\n  tag_33\n  jumpi\n    /* \"#utility.yul\":268:286   */\n  tag_34\n  tag_35\n  jump\t// in\ntag_34:\n    /* \"#utility.yul\":185:187   */\ntag_33:\n    /* \"#utility.yul\":315:316   */\n  0x01\n    /* \"#utility.yul\":308:313   */\n  dup3\n    /* \"#utility.yul\":304:317   */\n  add\n    /* \"#utility.yul\":297:317   */\n  swap1\n  pop\n    /* \"#utility.yul\":133:323   */\n  swap2\n  swap1\n  pop\n  jump\t// out\n    /* \"#utility.yul\":329:509   */\ntag_35:\n    /* \"#utility.yul\":377:454   */\n  0x4e487b7100000000000000000000000000000000000000000000000000000000\n    /* \"#utility.yul\":374:375   */\n  0x00\n    /* \"#utility.yul\":367:455   */\n  mstore\n    /* \"#utility.yul\":474:478   */\n  0x11\n    /* \"#utility.yul\":471:472   */\n  0x04\n    /* \"#utility.yul\":464:479   */\n  mstore\n    /* \"#utility.yul\":498:502   */\n  0x24\n    /* \"#utility.yul\":495:496   */\n  0x00\n    /* \"#utility.yul\":488:503   */\n  revert\n    /* \"src/contract/Lottery.sol\":57:3927  contract Lottery {... */\ntag_20:\n  dataSize(sub_0)\n  dup1\n  dataOffset(sub_0)\n  0x00\n  codecopy\n  0x00\n  return\nstop\n\nsub_0: assembly {\n        /* \"src/contract/Lottery.sol\":57:3927  contract Lottery {... */\n      mstore(0x40, 0x80)\n      jumpi(tag_1, lt(calldatasize, 0x04))\n      shr(0xe0, calldataload(0x00))\n      dup1\n      0x9cb8a26a\n      gt\n      tag_18\n      jumpi\n      dup1\n      0xf2fde38b\n      gt\n      tag_19\n      jumpi\n      dup1\n      0xf2fde38b\n      eq\n      tag_14\n      jumpi\n      dup1\n      0xf405cd51\n      eq\n      tag_15\n      jumpi\n      dup1\n      0xff3665c7\n      eq\n      tag_16\n      jumpi\n      dup1\n      0xff7782de\n      eq\n      tag_17\n      jumpi\n      jump(tag_1)\n    tag_19:\n      dup1\n      0x9cb8a26a\n      eq\n      tag_10\n      jumpi\n      dup1\n      0xa0e67e2b\n      eq\n      tag_11\n      jumpi\n      dup1\n      0xbfb231d2\n      eq\n      tag_12\n      jumpi\n      dup1\n      0xd826f88f\n      eq\n      tag_13\n      jumpi\n      jump(tag_1)\n    tag_18:\n      dup1\n      0x454a2ab3\n      gt\n      tag_20\n      jumpi\n      dup1\n      0x454a2ab3\n      eq\n      tag_6\n      jumpi\n      dup1\n      0x7065cb48\n      eq\n      tag_7\n      jumpi\n      dup1\n      0x83a9e969\n      eq\n      tag_8\n      jumpi\n      dup1\n      0x8ec4dc95\n      eq\n      tag_9\n      jumpi\n      jump(tag_1)\n    tag_20:\n      dup1\n      0x025e7c27\n      eq\n      tag_2\n      jumpi\n      dup1\n      0x12065fe0\n      eq\n      tag_3\n      jumpi\n      dup1\n      0x3ccfd60b\n      eq\n      tag_4\n      jumpi\n      dup1\n      0x410d59cc\n      eq\n      tag_5\n      jumpi\n    tag_1:\n      0x00\n      dup1\n      revert\n        /* \"src/contract/Lottery.sol\":940:963  address[] public owners */\n    tag_2:\n      callvalue\n      dup1\n      iszero\n      tag_21\n      jumpi\n      0x00\n      dup1\n      revert\n    tag_21:\n      pop\n      tag_22\n      0x04\n      dup1\n      calldatasize\n      sub\n      dup2\n      add\n      swap1\n      tag_23\n      swap2\n      swap1\n      tag_24\n      jump\t// in\n    tag_23:\n      tag_25\n      jump\t// in\n    tag_22:\n      mload(0x40)\n      tag_26\n      swap2\n      swap1\n      tag_27\n      jump\t// in\n    tag_26:\n      mload(0x40)\n      dup1\n      swap2\n      sub\n      swap1\n      return\n        /* \"src/contract/Lottery.sol\":3831:3925  function getBalance() public view returns (uint) {... */\n    tag_3:\n      callvalue\n      dup1\n      iszero\n      tag_28\n      jumpi\n      0x00\n      dup1\n      revert\n    tag_28:\n      pop\n      tag_29\n      tag_30\n      jump\t// in\n    tag_29:\n      mload(0x40)\n      tag_31\n      swap2\n      swap1\n      tag_32\n      jump\t// in\n    tag_31:\n      mload(0x40)\n      dup1\n      swap2\n      sub\n      swap1\n      return\n        /* \"src/contract/Lottery.sol\":2321:2428  function withdraw() public onlyOwner() {... */\n    tag_4:\n      callvalue\n      dup1\n      iszero\n      tag_33\n      jumpi\n      0x00\n      dup1\n      revert\n    tag_33:\n      pop\n      tag_34\n      tag_35\n      jump\t// in\n    tag_34:\n      stop\n        /* \"src/contract/Lottery.sol\":357:443  function getItems() public view returns (Item[3] memory) {... */\n    tag_5:\n      callvalue\n      dup1\n      iszero\n      tag_36\n      jumpi\n      0x00\n      dup1\n      revert\n    tag_36:\n      pop\n      tag_37\n      tag_38\n      jump\t// in\n    tag_37:\n      mload(0x40)\n      tag_39\n      swap2\n      swap1\n      tag_40\n      jump\t// in\n    tag_39:\n      mload(0x40)\n      dup1\n      swap2\n      sub\n      swap1\n      return\n        /* \"src/contract/Lottery.sol\":1911:2315  function bid(uint _itemId) public payable notForOwners() {... */\n    tag_6:\n      tag_41\n      0x04\n      dup1\n      calldatasize\n      sub\n      dup2\n      add\n      swap1\n      tag_42\n      swap2\n      swap1\n      tag_24\n      jump\t// in\n    tag_42:\n      tag_43\n      jump\t// in\n    tag_41:\n      stop\n        /* \"src/contract/Lottery.sol\":3732:3825  function addOwner(address newOwner) public onlyOwner() {... */\n    tag_7:\n      callvalue\n      dup1\n      iszero\n      tag_44\n      jumpi\n      0x00\n      dup1\n      revert\n    tag_44:\n      pop\n      tag_45\n      0x04\n      dup1\n      calldatasize\n      sub\n      dup2\n      add\n      swap1\n      tag_46\n      swap2\n      swap1\n      tag_47\n      jump\t// in\n    tag_46:\n      tag_48\n      jump\t// in\n    tag_45:\n      stop\n        /* \"src/contract/Lottery.sol\":3067:3201  function DeclareAllWinners() public onlyOwner() {... */\n    tag_8:\n      callvalue\n      dup1\n      iszero\n      tag_49\n      jumpi\n      0x00\n      dup1\n      revert\n    tag_49:\n      pop\n      tag_50\n      tag_51\n      jump\t// in\n    tag_50:\n      stop\n        /* \"src/contract/Lottery.sol\":449:569  function getPerson() public view returns (Person memory) {... */\n    tag_9:\n      callvalue\n      dup1\n      iszero\n      tag_52\n      jumpi\n      0x00\n      dup1\n      revert\n    tag_52:\n      pop\n      tag_53\n      tag_54\n      jump\t// in\n    tag_53:\n      mload(0x40)\n      tag_55\n      swap2\n      swap1\n      tag_56\n      jump\t// in\n    tag_55:\n      mload(0x40)\n      dup1\n      swap2\n      sub\n      swap1\n      return\n        /* \"src/contract/Lottery.sol\":3207:3350  function selfDestruct() public onlyOwner() {... */\n    tag_10:\n      callvalue\n      dup1\n      iszero\n      tag_57\n      jumpi\n      0x00\n      dup1\n      revert\n    tag_57:\n      pop\n      tag_58\n      tag_59\n      jump\t// in\n    tag_58:\n      stop\n        /* \"src/contract/Lottery.sol\":261:351  function getOwners() public view returns (address[] memory) {... */\n    tag_11:\n      callvalue\n      dup1\n      iszero\n      tag_60\n      jumpi\n      0x00\n      dup1\n      revert\n    tag_60:\n      pop\n      tag_61\n      tag_62\n      jump\t// in\n    tag_61:\n      mload(0x40)\n      tag_63\n      swap2\n      swap1\n      tag_64\n      jump\t// in\n    tag_63:\n      mload(0x40)\n      dup1\n      swap2\n      sub\n      swap1\n      return\n        /* \"src/contract/Lottery.sol\":970:990  Item[3] public items */\n    tag_12:\n      callvalue\n      dup1\n      iszero\n      tag_65\n      jumpi\n      0x00\n      dup1\n      revert\n    tag_65:\n      pop\n      tag_66\n      0x04\n      dup1\n      calldatasize\n      sub\n      dup2\n      add\n      swap1\n      tag_67\n      swap2\n      swap1\n      tag_24\n      jump\t// in\n    tag_67:\n      tag_68\n      jump\t// in\n    tag_66:\n      mload(0x40)\n      tag_69\n      swap3\n      swap2\n      swap1\n      tag_70\n      jump\t// in\n    tag_69:\n      mload(0x40)\n      dup1\n      swap2\n      sub\n      swap1\n      return\n        /* \"src/contract/Lottery.sol\":3356:3542  function reset() public onlyOwner() {... */\n    tag_13:\n      callvalue\n      dup1\n      iszero\n      tag_71\n      jumpi\n      0x00\n      dup1\n      revert\n    tag_71:\n      pop\n      tag_72\n      tag_73\n      jump\t// in\n    tag_72:\n      stop\n        /* \"src/contract/Lottery.sol\":3548:3726  function transferOwnership(address newOwner) public onlyOwner() {... */\n    tag_14:\n      callvalue\n      dup1\n      iszero\n      tag_74\n      jumpi\n      0x00\n      dup1\n      revert\n    tag_74:\n      pop\n      tag_75\n      0x04\n      dup1\n      calldatasize\n      sub\n      dup2\n      add\n      swap1\n      tag_76\n      swap2\n      swap1\n      tag_47\n      jump\t// in\n    tag_76:\n      tag_77\n      jump\t// in\n    tag_75:\n      stop\n        /* \"src/contract/Lottery.sol\":704:934  function getAllItemBidNumber() public view returns (uint[3] memory) {... */\n    tag_15:\n      callvalue\n      dup1\n      iszero\n      tag_78\n      jumpi\n      0x00\n      dup1\n      revert\n    tag_78:\n      pop\n      tag_79\n      tag_80\n      jump\t// in\n    tag_79:\n      mload(0x40)\n      tag_81\n      swap2\n      swap1\n      tag_82\n      jump\t// in\n    tag_81:\n      mload(0x40)\n      dup1\n      swap2\n      sub\n      swap1\n      return\n        /* \"src/contract/Lottery.sol\":575:698  function getItemBidNumber(uint _itemId) public view returns (uint) {... */\n    tag_16:\n      callvalue\n      dup1\n      iszero\n      tag_83\n      jumpi\n      0x00\n      dup1\n      revert\n    tag_83:\n      pop\n      tag_84\n      0x04\n      dup1\n      calldatasize\n      sub\n      dup2\n      add\n      swap1\n      tag_85\n      swap2\n      swap1\n      tag_24\n      jump\t// in\n    tag_85:\n      tag_86\n      jump\t// in\n    tag_84:\n      mload(0x40)\n      tag_87\n      swap2\n      swap1\n      tag_32\n      jump\t// in\n    tag_87:\n      mload(0x40)\n      dup1\n      swap2\n      sub\n      swap1\n      return\n        /* \"src/contract/Lottery.sol\":2492:3061  function DeclareWinner(uint _itemId) public onlyOwner() {... */\n    tag_17:\n      callvalue\n      dup1\n      iszero\n      tag_88\n      jumpi\n      0x00\n      dup1\n      revert\n    tag_88:\n      pop\n      tag_89\n      0x04\n      dup1\n      calldatasize\n      sub\n      dup2\n      add\n      swap1\n      tag_90\n      swap2\n      swap1\n      tag_24\n      jump\t// in\n    tag_90:\n      tag_91\n      jump\t// in\n    tag_89:\n      stop\n        /* \"src/contract/Lottery.sol\":940:963  address[] public owners */\n    tag_25:\n      0x00\n      dup2\n      dup2\n      sload\n      dup2\n      lt\n      tag_92\n      jumpi\n      0x00\n      dup1\n      revert\n    tag_92:\n      swap1\n      0x00\n      mstore\n      keccak256(0x00, 0x20)\n      add\n      0x00\n      swap2\n      pop\n      sload\n      swap1\n      0x0100\n      exp\n      swap1\n      div\n      0xffffffffffffffffffffffffffffffffffffffff\n      and\n      dup2\n      jump\t// out\n        /* \"src/contract/Lottery.sol\":3831:3925  function getBalance() public view returns (uint) {... */\n    tag_30:\n        /* \"src/contract/Lottery.sol\":3874:3878  uint */\n      0x00\n        /* \"src/contract/Lottery.sol\":3897:3918  address(this).balance */\n      selfbalance\n        /* \"src/contract/Lottery.sol\":3890:3918  return address(this).balance */\n      swap1\n      pop\n        /* \"src/contract/Lottery.sol\":3831:3925  function getBalance() public view returns (uint) {... */\n      swap1\n      jump\t// out\n        /* \"src/contract/Lottery.sol\":2321:2428  function withdraw() public onlyOwner() {... */\n    tag_35:\n        /* \"src/contract/Lottery.sol\":1028:1042  bool ownerFlag */\n      0x00\n        /* \"src/contract/Lottery.sol\":1065:1071  uint i */\n      dup1\n        /* \"src/contract/Lottery.sol\":1060:1226  for (uint i = 0; i < owners.length; i++) {... */\n    tag_96:\n        /* \"src/contract/Lottery.sol\":1081:1087  owners */\n      0x00\n        /* \"src/contract/Lottery.sol\":1081:1094  owners.length */\n      dup1\n      sload\n      swap1\n      pop\n        /* \"src/contract/Lottery.sol\":1077:1078  i */\n      dup2\n        /* \"src/contract/Lottery.sol\":1077:1094  i < owners.length */\n      lt\n        /* \"src/contract/Lottery.sol\":1060:1226  for (uint i = 0; i < owners.length; i++) {... */\n      iszero\n      tag_97\n      jumpi\n        /* \"src/contract/Lottery.sol\":1132:1142  msg.sender */\n      caller\n        /* \"src/contract/Lottery.sol\":1119:1142  owners[i] == msg.sender */\n      0xffffffffffffffffffffffffffffffffffffffff\n      and\n        /* \"src/contract/Lottery.sol\":1119:1125  owners */\n      0x00\n        /* \"src/contract/Lottery.sol\":1126:1127  i */\n      dup3\n        /* \"src/contract/Lottery.sol\":1119:1128  owners[i] */\n      dup2\n      sload\n      dup2\n      lt\n      tag_99\n      jumpi\n      mstore(0x00, 0x4e487b7100000000000000000000000000000000000000000000000000000000)\n      mstore(0x04, 0x32)\n      revert(0x00, 0x24)\n    tag_99:\n      swap1\n      0x00\n      mstore\n      keccak256(0x00, 0x20)\n      add\n      0x00\n      swap1\n      sload\n      swap1\n      0x0100\n      exp\n      swap1\n      div\n      0xffffffffffffffffffffffffffffffffffffffff\n      and\n        /* \"src/contract/Lottery.sol\":1119:1142  owners[i] == msg.sender */\n      0xffffffffffffffffffffffffffffffffffffffff\n      and\n      eq\n        /* \"src/contract/Lottery.sol\":1115:1216  if (owners[i] == msg.sender) {... */\n      iszero\n      tag_101\n      jumpi\n        /* \"src/contract/Lottery.sol\":1174:1178  true */\n      0x01\n        /* \"src/contract/Lottery.sol\":1162:1178  ownerFlag = true */\n      swap2\n      pop\n        /* \"src/contract/Lottery.sol\":1196:1201  break */\n      jump(tag_97)\n        /* \"src/contract/Lottery.sol\":1115:1216  if (owners[i] == msg.sender) {... */\n    tag_101:\n        /* \"src/contract/Lottery.sol\":1096:1099  i++ */\n      dup1\n      dup1\n      tag_102\n      swap1\n      tag_103\n      jump\t// in\n    tag_102:\n      swap2\n      pop\n      pop\n        /* \"src/contract/Lottery.sol\":1060:1226  for (uint i = 0; i < owners.length; i++) {... */\n      jump(tag_96)\n    tag_97:\n      pop\n        /* \"src/contract/Lottery.sol\":1243:1252  ownerFlag */\n      dup1\n        /* \"src/contract/Lottery.sol\":1235:1290  require(ownerFlag, \"Only owner can call this function\") */\n      tag_104\n      jumpi\n      mload(0x40)\n      0x08c379a000000000000000000000000000000000000000000000000000000000\n      dup2\n      mstore\n      0x04\n      add\n      tag_105\n      swap1\n      tag_106\n      jump\t// in\n    tag_105:\n      mload(0x40)\n      dup1\n      swap2\n      sub\n      swap1\n      revert\n    tag_104:\n        /* \"src/contract/Lottery.sol\":2378:2388  msg.sender */\n      caller\n        /* \"src/contract/Lottery.sol\":2370:2398  payable(msg.sender).transfer */\n      0xffffffffffffffffffffffffffffffffffffffff\n      and\n        /* \"src/contract/Lottery.sol\":2370:2421  payable(msg.sender).transfer(address(this).balance) */\n      0x08fc\n        /* \"src/contract/Lottery.sol\":2399:2420  address(this).balance */\n      selfbalance\n        /* \"src/contract/Lottery.sol\":2370:2421  payable(msg.sender).transfer(address(this).balance) */\n      swap1\n      dup2\n      iszero\n      mul\n      swap1\n      mload(0x40)\n      0x00\n      mload(0x40)\n      dup1\n      dup4\n      sub\n      dup2\n      dup6\n      dup9\n      dup9\n      call\n      swap4\n      pop\n      pop\n      pop\n      pop\n      iszero\n      dup1\n      iszero\n      tag_109\n      jumpi\n      returndatasize\n      0x00\n      dup1\n      returndatacopy\n      revert(0x00, returndatasize)\n    tag_109:\n      pop\n        /* \"src/contract/Lottery.sol\":2321:2428  function withdraw() public onlyOwner() {... */\n      pop\n      jump\t// out\n        /* \"src/contract/Lottery.sol\":357:443  function getItems() public view returns (Item[3] memory) {... */\n    tag_38:\n        /* \"src/contract/Lottery.sol\":398:412  Item[3] memory */\n      tag_110\n      tag_111\n      jump\t// in\n    tag_110:\n        /* \"src/contract/Lottery.sol\":431:436  items */\n      0x01\n        /* \"src/contract/Lottery.sol\":424:436  return items */\n      0x03\n      dup1\n      0x20\n      mul\n      mload(0x40)\n      swap1\n      dup2\n      add\n      0x40\n      mstore\n      dup1\n      swap3\n      swap2\n      swap1\n      0x00\n      swap1\n    tag_113:\n      dup3\n      dup3\n      lt\n      iszero\n      tag_114\n      jumpi\n      dup4\n      dup3\n      0x03\n      mul\n      add\n      mload(0x40)\n      dup1\n      0x60\n      add\n      0x40\n      mstore\n      swap1\n      dup2\n      0x00\n      dup3\n      add\n      sload\n      dup2\n      mstore\n      0x20\n      add\n      0x01\n      dup3\n      add\n      dup1\n      sload\n      dup1\n      0x20\n      mul\n      0x20\n      add\n      mload(0x40)\n      swap1\n      dup2\n      add\n      0x40\n      mstore\n      dup1\n      swap3\n      swap2\n      swap1\n      dup2\n      dup2\n      mstore\n      0x20\n      add\n      dup3\n      dup1\n      sload\n      dup1\n      iszero\n      tag_116\n      jumpi\n      0x20\n      mul\n      dup3\n      add\n      swap2\n      swap1\n      0x00\n      mstore\n      keccak256(0x00, 0x20)\n      swap1\n    tag_117:\n      dup2\n      0x00\n      swap1\n      sload\n      swap1\n      0x0100\n      exp\n      swap1\n      div\n      0xffffffffffffffffffffffffffffffffffffffff\n      and\n      0xffffffffffffffffffffffffffffffffffffffff\n      and\n      dup2\n      mstore\n      0x20\n      add\n      swap1\n      0x01\n      add\n      swap1\n      dup1\n      dup4\n      gt\n      tag_117\n      jumpi\n    tag_116:\n      pop\n      pop\n      pop\n      pop\n      pop\n      dup2\n      mstore\n      0x20\n      add\n      0x02\n      dup3\n      add\n      0x00\n      swap1\n      sload\n      swap1\n      0x0100\n      exp\n      swap1\n      div\n      0xffffffffffffffffffffffffffffffffffffffff\n      and\n      0xffffffffffffffffffffffffffffffffffffffff\n      and\n      0xffffffffffffffffffffffffffffffffffffffff\n      and\n      dup2\n      mstore\n      pop\n      pop\n      dup2\n      mstore\n      0x20\n      add\n      swap1\n      0x01\n      add\n      swap1\n      jump(tag_113)\n    tag_114:\n      pop\n      pop\n      pop\n      pop\n      swap1\n      pop\n        /* \"src/contract/Lottery.sol\":357:443  function getItems() public view returns (Item[3] memory) {... */\n      swap1\n      jump\t// out\n        /* \"src/contract/Lottery.sol\":1911:2315  function bid(uint _itemId) public payable notForOwners() {... */\n    tag_43:\n        /* \"src/contract/Lottery.sol\":1641:1655  bool ownerFlag */\n      0x00\n        /* \"src/contract/Lottery.sol\":1678:1684  uint i */\n      dup1\n        /* \"src/contract/Lottery.sol\":1673:1839  for (uint i = 0; i < owners.length; i++) {... */\n    tag_119:\n        /* \"src/contract/Lottery.sol\":1694:1700  owners */\n      0x00\n        /* \"src/contract/Lottery.sol\":1694:1707  owners.length */\n      dup1\n      sload\n      swap1\n      pop\n        /* \"src/contract/Lottery.sol\":1690:1691  i */\n      dup2\n        /* \"src/contract/Lottery.sol\":1690:1707  i < owners.length */\n      lt\n        /* \"src/contract/Lottery.sol\":1673:1839  for (uint i = 0; i < owners.length; i++) {... */\n      iszero\n      tag_120\n      jumpi\n        /* \"src/contract/Lottery.sol\":1745:1755  msg.sender */\n      caller\n        /* \"src/contract/Lottery.sol\":1732:1755  owners[i] == msg.sender */\n      0xffffffffffffffffffffffffffffffffffffffff\n      and\n        /* \"src/contract/Lottery.sol\":1732:1738  owners */\n      0x00\n        /* \"src/contract/Lottery.sol\":1739:1740  i */\n      dup3\n        /* \"src/contract/Lottery.sol\":1732:1741  owners[i] */\n      dup2\n      sload\n      dup2\n      lt\n      tag_122\n      jumpi\n      mstore(0x00, 0x4e487b7100000000000000000000000000000000000000000000000000000000)\n      mstore(0x04, 0x32)\n      revert(0x00, 0x24)\n    tag_122:\n      swap1\n      0x00\n      mstore\n      keccak256(0x00, 0x20)\n      add\n      0x00\n      swap1\n      sload\n      swap1\n      0x0100\n      exp\n      swap1\n      div\n      0xffffffffffffffffffffffffffffffffffffffff\n      and\n        /* \"src/contract/Lottery.sol\":1732:1755  owners[i] == msg.sender */\n      0xffffffffffffffffffffffffffffffffffffffff\n      and\n      eq\n        /* \"src/contract/Lottery.sol\":1728:1829  if (owners[i] == msg.sender) {... */\n      iszero\n      tag_124\n      jumpi\n        /* \"src/contract/Lottery.sol\":1787:1791  true */\n      0x01\n        /* \"src/contract/Lottery.sol\":1775:1791  ownerFlag = true */\n      swap2\n      pop\n        /* \"src/contract/Lottery.sol\":1809:1814  break */\n      jump(tag_120)\n        /* \"src/contract/Lottery.sol\":1728:1829  if (owners[i] == msg.sender) {... */\n    tag_124:\n        /* \"src/contract/Lottery.sol\":1709:1712  i++ */\n      dup1\n      dup1\n      tag_125\n      swap1\n      tag_103\n      jump\t// in\n    tag_125:\n      swap2\n      pop\n      pop\n        /* \"src/contract/Lottery.sol\":1673:1839  for (uint i = 0; i < owners.length; i++) {... */\n      jump(tag_119)\n    tag_120:\n      pop\n        /* \"src/contract/Lottery.sol\":1857:1866  ownerFlag */\n      dup1\n        /* \"src/contract/Lottery.sol\":1856:1866  !ownerFlag */\n      iszero\n        /* \"src/contract/Lottery.sol\":1848:1887  require(!ownerFlag, \"Owner cannot bid\") */\n      tag_126\n      jumpi\n      mload(0x40)\n      0x08c379a000000000000000000000000000000000000000000000000000000000\n      dup2\n      mstore\n      0x04\n      add\n      tag_127\n      swap1\n      tag_128\n      jump\t// in\n    tag_127:\n      mload(0x40)\n      dup1\n      swap2\n      sub\n      swap1\n      revert\n    tag_126:\n        /* \"src/contract/Lottery.sol\":2019:2020  0 */\n      0x00\n        /* \"src/contract/Lottery.sol\":1986:2021  items[_itemId].winner == address(0) */\n      0xffffffffffffffffffffffffffffffffffffffff\n      and\n        /* \"src/contract/Lottery.sol\":1986:1991  items */\n      0x01\n        /* \"src/contract/Lottery.sol\":1992:1999  _itemId */\n      dup4\n        /* \"src/contract/Lottery.sol\":1986:2000  items[_itemId] */\n      0x03\n      dup2\n      lt\n      tag_130\n      jumpi\n      mstore(0x00, 0x4e487b7100000000000000000000000000000000000000000000000000000000)\n      mstore(0x04, 0x32)\n      revert(0x00, 0x24)\n    tag_130:\n      0x03\n      mul\n      add\n        /* \"src/contract/Lottery.sol\":1986:2007  items[_itemId].winner */\n      0x02\n      add\n      0x00\n      swap1\n      sload\n      swap1\n      0x0100\n      exp\n      swap1\n      div\n      0xffffffffffffffffffffffffffffffffffffffff\n      and\n        /* \"src/contract/Lottery.sol\":1986:2021  items[_itemId].winner == address(0) */\n      0xffffffffffffffffffffffffffffffffffffffff\n      and\n      eq\n        /* \"src/contract/Lottery.sol\":1978:2043  require(items[_itemId].winner == address(0), \"Lottery has ended\") */\n      tag_132\n      jumpi\n      mload(0x40)\n      0x08c379a000000000000000000000000000000000000000000000000000000000\n      dup2\n      mstore\n      0x04\n      add\n      tag_133\n      swap1\n      tag_134\n      jump\t// in\n    tag_133:\n      mload(0x40)\n      dup1\n      swap2\n      sub\n      swap1\n      revert\n    tag_132:\n        /* \"src/contract/Lottery.sol\":2072:2073  0 */\n      0x00\n        /* \"src/contract/Lottery.sol\":2061:2068  _itemId */\n      dup3\n        /* \"src/contract/Lottery.sol\":2061:2073  _itemId >= 0 */\n      lt\n      iszero\n        /* \"src/contract/Lottery.sol\":2061:2089  _itemId >= 0 && _itemId <= 2 */\n      dup1\n      iszero\n      tag_135\n      jumpi\n      pop\n        /* \"src/contract/Lottery.sol\":2088:2089  2 */\n      0x02\n        /* \"src/contract/Lottery.sol\":2077:2084  _itemId */\n      dup3\n        /* \"src/contract/Lottery.sol\":2077:2089  _itemId <= 2 */\n      gt\n      iszero\n        /* \"src/contract/Lottery.sol\":2061:2089  _itemId >= 0 && _itemId <= 2 */\n    tag_135:\n        /* \"src/contract/Lottery.sol\":2053:2109  require(_itemId >= 0 && _itemId <= 2, \"Invalid item id\") */\n      tag_136\n      jumpi\n      mload(0x40)\n      0x08c379a000000000000000000000000000000000000000000000000000000000\n      dup2\n      mstore\n      0x04\n      add\n      tag_137\n      swap1\n      tag_138\n      jump\t// in\n    tag_137:\n      mload(0x40)\n      dup1\n      swap2\n      sub\n      swap1\n      revert\n    tag_136:\n        /* \"src/contract/Lottery.sol\":2140:2150  0.01 ether */\n      0x2386f26fc10000\n        /* \"src/contract/Lottery.sol\":2127:2136  msg.value */\n      callvalue\n        /* \"src/contract/Lottery.sol\":2127:2150  msg.value == 0.01 ether */\n      eq\n        /* \"src/contract/Lottery.sol\":2119:2190  require(msg.value == 0.01 ether, \"Wrong amount, please bid 0.01 ether\") */\n      tag_139\n      jumpi\n      mload(0x40)\n      0x08c379a000000000000000000000000000000000000000000000000000000000\n      dup2\n      mstore\n      0x04\n      add\n      tag_140\n      swap1\n      tag_141\n      jump\t// in\n    tag_140:\n      mload(0x40)\n      dup1\n      swap2\n      sub\n      swap1\n      revert\n    tag_139:\n        /* \"src/contract/Lottery.sol\":2200:2205  items */\n      0x01\n        /* \"src/contract/Lottery.sol\":2206:2213  _itemId */\n      dup3\n        /* \"src/contract/Lottery.sol\":2200:2214  items[_itemId] */\n      0x03\n      dup2\n      lt\n      tag_142\n      jumpi\n      mstore(0x00, 0x4e487b7100000000000000000000000000000000000000000000000000000000)\n      mstore(0x04, 0x32)\n      revert(0x00, 0x24)\n    tag_142:\n      0x03\n      mul\n      add\n        /* \"src/contract/Lottery.sol\":2200:2225  items[_itemId].itemTokens */\n      0x01\n      add\n        /* \"src/contract/Lottery.sol\":2231:2241  msg.sender */\n      caller\n        /* \"src/contract/Lottery.sol\":2200:2242  items[_itemId].itemTokens.push(msg.sender) */\n      swap1\n      dup1\n      0x01\n      dup2\n      sload\n      add\n      dup1\n      dup3\n      sstore\n      dup1\n      swap2\n      pop\n      pop\n      0x01\n      swap1\n      sub\n      swap1\n      0x00\n      mstore\n      keccak256(0x00, 0x20)\n      add\n      0x00\n      swap1\n      swap2\n      swap1\n      swap2\n      swap1\n      swap2\n      0x0100\n      exp\n      dup2\n      sload\n      dup2\n      0xffffffffffffffffffffffffffffffffffffffff\n      mul\n      not\n      and\n      swap1\n      dup4\n      0xffffffffffffffffffffffffffffffffffffffff\n      and\n      mul\n      or\n      swap1\n      sstore\n      pop\n        /* \"src/contract/Lottery.sol\":2257:2308  bidEvent(_itemId, items[_itemId].itemTokens.length) */\n      0xdede4a1daab1bebac072028daa0ddc0522609da9e2e73dc2cbe9ae4effd0e8da\n        /* \"src/contract/Lottery.sol\":2266:2273  _itemId */\n      dup3\n        /* \"src/contract/Lottery.sol\":2275:2280  items */\n      0x01\n        /* \"src/contract/Lottery.sol\":2281:2288  _itemId */\n      dup5\n        /* \"src/contract/Lottery.sol\":2275:2289  items[_itemId] */\n      0x03\n      dup2\n      lt\n      tag_145\n      jumpi\n      mstore(0x00, 0x4e487b7100000000000000000000000000000000000000000000000000000000)\n      mstore(0x04, 0x32)\n      revert(0x00, 0x24)\n    tag_145:\n      0x03\n      mul\n      add\n        /* \"src/contract/Lottery.sol\":2275:2300  items[_itemId].itemTokens */\n      0x01\n      add\n        /* \"src/contract/Lottery.sol\":2275:2307  items[_itemId].itemTokens.length */\n      dup1\n      sload\n      swap1\n      pop\n        /* \"src/contract/Lottery.sol\":2257:2308  bidEvent(_itemId, items[_itemId].itemTokens.length) */\n      mload(0x40)\n      tag_147\n      swap3\n      swap2\n      swap1\n      tag_148\n      jump\t// in\n    tag_147:\n      mload(0x40)\n      dup1\n      swap2\n      sub\n      swap1\n      log1\n        /* \"src/contract/Lottery.sol\":1911:2315  function bid(uint _itemId) public payable notForOwners() {... */\n      pop\n      pop\n      jump\t// out\n        /* \"src/contract/Lottery.sol\":3732:3825  function addOwner(address newOwner) public onlyOwner() {... */\n    tag_48:\n        /* \"src/contract/Lottery.sol\":1028:1042  bool ownerFlag */\n      0x00\n        /* \"src/contract/Lottery.sol\":1065:1071  uint i */\n      dup1\n        /* \"src/contract/Lottery.sol\":1060:1226  for (uint i = 0; i < owners.length; i++) {... */\n    tag_150:\n        /* \"src/contract/Lottery.sol\":1081:1087  owners */\n      0x00\n        /* \"src/contract/Lottery.sol\":1081:1094  owners.length */\n      dup1\n      sload\n      swap1\n      pop\n        /* \"src/contract/Lottery.sol\":1077:1078  i */\n      dup2\n        /* \"src/contract/Lottery.sol\":1077:1094  i < owners.length */\n      lt\n        /* \"src/contract/Lottery.sol\":1060:1226  for (uint i = 0; i < owners.length; i++) {... */\n      iszero\n      tag_151\n      jumpi\n        /* \"src/contract/Lottery.sol\":1132:1142  msg.sender */\n      caller\n        /* \"src/contract/Lottery.sol\":1119:1142  owners[i] == msg.sender */\n      0xffffffffffffffffffffffffffffffffffffffff\n      and\n        /* \"src/contract/Lottery.sol\":1119:1125  owners */\n      0x00\n        /* \"src/contract/Lottery.sol\":1126:1127  i */\n      dup3\n        /* \"src/contract/Lottery.sol\":1119:1128  owners[i] */\n      dup2\n      sload\n      dup2\n      lt\n      tag_153\n      jumpi\n      mstore(0x00, 0x4e487b7100000000000000000000000000000000000000000000000000000000)\n      mstore(0x04, 0x32)\n      revert(0x00, 0x24)\n    tag_153:\n      swap1\n      0x00\n      mstore\n      keccak256(0x00, 0x20)\n      add\n      0x00\n      swap1\n      sload\n      swap1\n      0x0100\n      exp\n      swap1\n      div\n      0xffffffffffffffffffffffffffffffffffffffff\n      and\n        /* \"src/contract/Lottery.sol\":1119:1142  owners[i] == msg.sender */\n      0xffffffffffffffffffffffffffffffffffffffff\n      and\n      eq\n        /* \"src/contract/Lottery.sol\":1115:1216  if (owners[i] == msg.sender) {... */\n      iszero\n      tag_155\n      jumpi\n        /* \"src/contract/Lottery.sol\":1174:1178  true */\n      0x01\n        /* \"src/contract/Lottery.sol\":1162:1178  ownerFlag = true */\n      swap2\n      pop\n        /* \"src/contract/Lottery.sol\":1196:1201  break */\n      jump(tag_151)\n        /* \"src/contract/Lottery.sol\":1115:1216  if (owners[i] == msg.sender) {... */\n    tag_155:\n        /* \"src/contract/Lottery.sol\":1096:1099  i++ */\n      dup1\n      dup1\n      tag_156\n      swap1\n      tag_103\n      jump\t// in\n    tag_156:\n      swap2\n      pop\n      pop\n        /* \"src/contract/Lottery.sol\":1060:1226  for (uint i = 0; i < owners.length; i++) {... */\n      jump(tag_150)\n    tag_151:\n      pop\n        /* \"src/contract/Lottery.sol\":1243:1252  ownerFlag */\n      dup1\n        /* \"src/contract/Lottery.sol\":1235:1290  require(ownerFlag, \"Only owner can call this function\") */\n      tag_157\n      jumpi\n      mload(0x40)\n      0x08c379a000000000000000000000000000000000000000000000000000000000\n      dup2\n      mstore\n      0x04\n      add\n      tag_158\n      swap1\n      tag_106\n      jump\t// in\n    tag_158:\n      mload(0x40)\n      dup1\n      swap2\n      sub\n      swap1\n      revert\n    tag_157:\n        /* \"src/contract/Lottery.sol\":3797:3803  owners */\n      0x00\n        /* \"src/contract/Lottery.sol\":3809:3817  newOwner */\n      dup3\n        /* \"src/contract/Lottery.sol\":3797:3818  owners.push(newOwner) */\n      swap1\n      dup1\n      0x01\n      dup2\n      sload\n      add\n      dup1\n      dup3\n      sstore\n      dup1\n      swap2\n      pop\n      pop\n      0x01\n      swap1\n      sub\n      swap1\n      0x00\n      mstore\n      keccak256(0x00, 0x20)\n      add\n      0x00\n      swap1\n      swap2\n      swap1\n      swap2\n      swap1\n      swap2\n      0x0100\n      exp\n      dup2\n      sload\n      dup2\n      0xffffffffffffffffffffffffffffffffffffffff\n      mul\n      not\n      and\n      swap1\n      dup4\n      0xffffffffffffffffffffffffffffffffffffffff\n      and\n      mul\n      or\n      swap1\n      sstore\n      pop\n        /* \"src/contract/Lottery.sol\":3732:3825  function addOwner(address newOwner) public onlyOwner() {... */\n      pop\n      pop\n      jump\t// out\n        /* \"src/contract/Lottery.sol\":3067:3201  function DeclareAllWinners() public onlyOwner() {... */\n    tag_51:\n        /* \"src/contract/Lottery.sol\":1028:1042  bool ownerFlag */\n      0x00\n        /* \"src/contract/Lottery.sol\":1065:1071  uint i */\n      dup1\n        /* \"src/contract/Lottery.sol\":1060:1226  for (uint i = 0; i < owners.length; i++) {... */\n    tag_162:\n        /* \"src/contract/Lottery.sol\":1081:1087  owners */\n      0x00\n        /* \"src/contract/Lottery.sol\":1081:1094  owners.length */\n      dup1\n      sload\n      swap1\n      pop\n        /* \"src/contract/Lottery.sol\":1077:1078  i */\n      dup2\n        /* \"src/contract/Lottery.sol\":1077:1094  i < owners.length */\n      lt\n        /* \"src/contract/Lottery.sol\":1060:1226  for (uint i = 0; i < owners.length; i++) {... */\n      iszero\n      tag_163\n      jumpi\n        /* \"src/contract/Lottery.sol\":1132:1142  msg.sender */\n      caller\n        /* \"src/contract/Lottery.sol\":1119:1142  owners[i] == msg.sender */\n      0xffffffffffffffffffffffffffffffffffffffff\n      and\n        /* \"src/contract/Lottery.sol\":1119:1125  owners */\n      0x00\n        /* \"src/contract/Lottery.sol\":1126:1127  i */\n      dup3\n        /* \"src/contract/Lottery.sol\":1119:1128  owners[i] */\n      dup2\n      sload\n      dup2\n      lt\n      tag_165\n      jumpi\n      mstore(0x00, 0x4e487b7100000000000000000000000000000000000000000000000000000000)\n      mstore(0x04, 0x32)\n      revert(0x00, 0x24)\n    tag_165:\n      swap1\n      0x00\n      mstore\n      keccak256(0x00, 0x20)\n      add\n      0x00\n      swap1\n      sload\n      swap1\n      0x0100\n      exp\n      swap1\n      div\n      0xffffffffffffffffffffffffffffffffffffffff\n      and\n        /* \"src/contract/Lottery.sol\":1119:1142  owners[i] == msg.sender */\n      0xffffffffffffffffffffffffffffffffffffffff\n      and\n      eq\n        /* \"src/contract/Lottery.sol\":1115:1216  if (owners[i] == msg.sender) {... */\n      iszero\n      tag_167\n      jumpi\n        /* \"src/contract/Lottery.sol\":1174:1178  true */\n      0x01\n        /* \"src/contract/Lottery.sol\":1162:1178  ownerFlag = true */\n      swap2\n      pop\n        /* \"src/contract/Lottery.sol\":1196:1201  break */\n      jump(tag_163)\n        /* \"src/contract/Lottery.sol\":1115:1216  if (owners[i] == msg.sender) {... */\n    tag_167:\n        /* \"src/contract/Lottery.sol\":1096:1099  i++ */\n      dup1\n      dup1\n      tag_168\n      swap1\n      tag_103\n      jump\t// in\n    tag_168:\n      swap2\n      pop\n      pop\n        /* \"src/contract/Lottery.sol\":1060:1226  for (uint i = 0; i < owners.length; i++) {... */\n      jump(tag_162)\n    tag_163:\n      pop\n        /* \"src/contract/Lottery.sol\":1243:1252  ownerFlag */\n      dup1\n        /* \"src/contract/Lottery.sol\":1235:1290  require(ownerFlag, \"Only owner can call this function\") */\n      tag_169\n      jumpi\n      mload(0x40)\n      0x08c379a000000000000000000000000000000000000000000000000000000000\n      dup2\n      mstore\n      0x04\n      add\n      tag_170\n      swap1\n      tag_106\n      jump\t// in\n    tag_170:\n      mload(0x40)\n      dup1\n      swap2\n      sub\n      swap1\n      revert\n    tag_169:\n        /* \"src/contract/Lottery.sol\":3130:3136  uint i */\n      0x00\n        /* \"src/contract/Lottery.sol\":3125:3195  for (uint i = 0; i < 3; i++) {... */\n    tag_172:\n        /* \"src/contract/Lottery.sol\":3146:3147  3 */\n      0x03\n        /* \"src/contract/Lottery.sol\":3142:3143  i */\n      dup2\n        /* \"src/contract/Lottery.sol\":3142:3147  i < 3 */\n      lt\n        /* \"src/contract/Lottery.sol\":3125:3195  for (uint i = 0; i < 3; i++) {... */\n      iszero\n      tag_173\n      jumpi\n        /* \"src/contract/Lottery.sol\":3168:3184  DeclareWinner(i) */\n      tag_175\n        /* \"src/contract/Lottery.sol\":3182:3183  i */\n      dup2\n        /* \"src/contract/Lottery.sol\":3168:3181  DeclareWinner */\n      tag_91\n        /* \"src/contract/Lottery.sol\":3168:3184  DeclareWinner(i) */\n      jump\t// in\n    tag_175:\n        /* \"src/contract/Lottery.sol\":3149:3152  i++ */\n      dup1\n      dup1\n      tag_176\n      swap1\n      tag_103\n      jump\t// in\n    tag_176:\n      swap2\n      pop\n      pop\n        /* \"src/contract/Lottery.sol\":3125:3195  for (uint i = 0; i < 3; i++) {... */\n      jump(tag_172)\n    tag_173:\n      pop\n        /* \"src/contract/Lottery.sol\":3067:3201  function DeclareAllWinners() public onlyOwner() {... */\n      pop\n      jump\t// out\n        /* \"src/contract/Lottery.sol\":449:569  function getPerson() public view returns (Person memory) {... */\n    tag_54:\n        /* \"src/contract/Lottery.sol\":491:504  Person memory */\n      tag_177\n      tag_178\n      jump\t// in\n    tag_177:\n        /* \"src/contract/Lottery.sol\":523:562  Person({personId: 1, addr: msg.sender}) */\n      mload(0x40)\n      dup1\n      0x40\n      add\n      0x40\n      mstore\n      dup1\n        /* \"src/contract/Lottery.sol\":541:542  1 */\n      0x01\n        /* \"src/contract/Lottery.sol\":523:562  Person({personId: 1, addr: msg.sender}) */\n      dup2\n      mstore\n      0x20\n      add\n        /* \"src/contract/Lottery.sol\":550:560  msg.sender */\n      caller\n        /* \"src/contract/Lottery.sol\":523:562  Person({personId: 1, addr: msg.sender}) */\n      0xffffffffffffffffffffffffffffffffffffffff\n      and\n      dup2\n      mstore\n      pop\n        /* \"src/contract/Lottery.sol\":516:562  return Person({personId: 1, addr: msg.sender}) */\n      swap1\n      pop\n        /* \"src/contract/Lottery.sol\":449:569  function getPerson() public view returns (Person memory) {... */\n      swap1\n      jump\t// out\n        /* \"src/contract/Lottery.sol\":3207:3350  function selfDestruct() public onlyOwner() {... */\n    tag_59:\n        /* \"src/contract/Lottery.sol\":1028:1042  bool ownerFlag */\n      0x00\n        /* \"src/contract/Lottery.sol\":1065:1071  uint i */\n      dup1\n        /* \"src/contract/Lottery.sol\":1060:1226  for (uint i = 0; i < owners.length; i++) {... */\n    tag_181:\n        /* \"src/contract/Lottery.sol\":1081:1087  owners */\n      0x00\n        /* \"src/contract/Lottery.sol\":1081:1094  owners.length */\n      dup1\n      sload\n      swap1\n      pop\n        /* \"src/contract/Lottery.sol\":1077:1078  i */\n      dup2\n        /* \"src/contract/Lottery.sol\":1077:1094  i < owners.length */\n      lt\n        /* \"src/contract/Lottery.sol\":1060:1226  for (uint i = 0; i < owners.length; i++) {... */\n      iszero\n      tag_182\n      jumpi\n        /* \"src/contract/Lottery.sol\":1132:1142  msg.sender */\n      caller\n        /* \"src/contract/Lottery.sol\":1119:1142  owners[i] == msg.sender */\n      0xffffffffffffffffffffffffffffffffffffffff\n      and\n        /* \"src/contract/Lottery.sol\":1119:1125  owners */\n      0x00\n        /* \"src/contract/Lottery.sol\":1126:1127  i */\n      dup3\n        /* \"src/contract/Lottery.sol\":1119:1128  owners[i] */\n      dup2\n      sload\n      dup2\n      lt\n      tag_184\n      jumpi\n      mstore(0x00, 0x4e487b7100000000000000000000000000000000000000000000000000000000)\n      mstore(0x04, 0x32)\n      revert(0x00, 0x24)\n    tag_184:\n      swap1\n      0x00\n      mstore\n      keccak256(0x00, 0x20)\n      add\n      0x00\n      swap1\n      sload\n      swap1\n      0x0100\n      exp\n      swap1\n      div\n      0xffffffffffffffffffffffffffffffffffffffff\n      and\n        /* \"src/contract/Lottery.sol\":1119:1142  owners[i] == msg.sender */\n      0xffffffffffffffffffffffffffffffffffffffff\n      and\n      eq\n        /* \"src/contract/Lottery.sol\":1115:1216  if (owners[i] == msg.sender) {... */\n      iszero\n      tag_186\n      jumpi\n        /* \"src/contract/Lottery.sol\":1174:1178  true */\n      0x01\n        /* \"src/contract/Lottery.sol\":1162:1178  ownerFlag = true */\n      swap2\n      pop\n        /* \"src/contract/Lottery.sol\":1196:1201  break */\n      jump(tag_182)\n        /* \"src/contract/Lottery.sol\":1115:1216  if (owners[i] == msg.sender) {... */\n    tag_186:\n        /* \"src/contract/Lottery.sol\":1096:1099  i++ */\n      dup1\n      dup1\n      tag_187\n      swap1\n      tag_103\n      jump\t// in\n    tag_187:\n      swap2\n      pop\n      pop\n        /* \"src/contract/Lottery.sol\":1060:1226  for (uint i = 0; i < owners.length; i++) {... */\n      jump(tag_181)\n    tag_182:\n      pop\n        /* \"src/contract/Lottery.sol\":1243:1252  ownerFlag */\n      dup1\n        /* \"src/contract/Lottery.sol\":1235:1290  require(ownerFlag, \"Only owner can call this function\") */\n      tag_188\n      jumpi\n      mload(0x40)\n      0x08c379a000000000000000000000000000000000000000000000000000000000\n      dup2\n      mstore\n      0x04\n      add\n      tag_189\n      swap1\n      tag_106\n      jump\t// in\n    tag_189:\n      mload(0x40)\n      dup1\n      swap2\n      sub\n      swap1\n      revert\n    tag_188:\n        /* \"src/contract/Lottery.sol\":3331:3341  msg.sender */\n      caller\n        /* \"src/contract/Lottery.sol\":3310:3343  selfdestruct(payable(msg.sender)) */\n      0xffffffffffffffffffffffffffffffffffffffff\n      and\n      selfdestruct\n        /* \"src/contract/Lottery.sol\":261:351  function getOwners() public view returns (address[] memory) {... */\n    tag_62:\n        /* \"src/contract/Lottery.sol\":303:319  address[] memory */\n      0x60\n        /* \"src/contract/Lottery.sol\":338:344  owners */\n      0x00\n        /* \"src/contract/Lottery.sol\":331:344  return owners */\n      dup1\n      sload\n      dup1\n      0x20\n      mul\n      0x20\n      add\n      mload(0x40)\n      swap1\n      dup2\n      add\n      0x40\n      mstore\n      dup1\n      swap3\n      swap2\n      swap1\n      dup2\n      dup2\n      mstore\n      0x20\n      add\n      dup3\n      dup1\n      sload\n      dup1\n      iszero\n      tag_192\n      jumpi\n      0x20\n      mul\n      dup3\n      add\n      swap2\n      swap1\n      0x00\n      mstore\n      keccak256(0x00, 0x20)\n      swap1\n    tag_193:\n      dup2\n      0x00\n      swap1\n      sload\n      swap1\n      0x0100\n      exp\n      swap1\n      div\n      0xffffffffffffffffffffffffffffffffffffffff\n      and\n      0xffffffffffffffffffffffffffffffffffffffff\n      and\n      dup2\n      mstore\n      0x20\n      add\n      swap1\n      0x01\n      add\n      swap1\n      dup1\n      dup4\n      gt\n      tag_193\n      jumpi\n    tag_192:\n      pop\n      pop\n      pop\n      pop\n      pop\n      swap1\n      pop\n        /* \"src/contract/Lottery.sol\":261:351  function getOwners() public view returns (address[] memory) {... */\n      swap1\n      jump\t// out\n        /* \"src/contract/Lottery.sol\":970:990  Item[3] public items */\n    tag_68:\n      0x01\n      dup2\n      0x03\n      dup2\n      lt\n      tag_194\n      jumpi\n      0x00\n      dup1\n      revert\n    tag_194:\n      0x03\n      mul\n      add\n      0x00\n      swap2\n      pop\n      swap1\n      pop\n      dup1\n      0x00\n      add\n      sload\n      swap1\n      dup1\n      0x02\n      add\n      0x00\n      swap1\n      sload\n      swap1\n      0x0100\n      exp\n      swap1\n      div\n      0xffffffffffffffffffffffffffffffffffffffff\n      and\n      swap1\n      pop\n      dup3\n      jump\t// out\n        /* \"src/contract/Lottery.sol\":3356:3542  function reset() public onlyOwner() {... */\n    tag_73:\n        /* \"src/contract/Lottery.sol\":1028:1042  bool ownerFlag */\n      0x00\n        /* \"src/contract/Lottery.sol\":1065:1071  uint i */\n      dup1\n        /* \"src/contract/Lottery.sol\":1060:1226  for (uint i = 0; i < owners.length; i++) {... */\n    tag_197:\n        /* \"src/contract/Lottery.sol\":1081:1087  owners */\n      0x00\n        /* \"src/contract/Lottery.sol\":1081:1094  owners.length */\n      dup1\n      sload\n      swap1\n      pop\n        /* \"src/contract/Lottery.sol\":1077:1078  i */\n      dup2\n        /* \"src/contract/Lottery.sol\":1077:1094  i < owners.length */\n      lt\n        /* \"src/contract/Lottery.sol\":1060:1226  for (uint i = 0; i < owners.length; i++) {... */\n      iszero\n      tag_198\n      jumpi\n        /* \"src/contract/Lottery.sol\":1132:1142  msg.sender */\n      caller\n        /* \"src/contract/Lottery.sol\":1119:1142  owners[i] == msg.sender */\n      0xffffffffffffffffffffffffffffffffffffffff\n      and\n        /* \"src/contract/Lottery.sol\":1119:1125  owners */\n      0x00\n        /* \"src/contract/Lottery.sol\":1126:1127  i */\n      dup3\n        /* \"src/contract/Lottery.sol\":1119:1128  owners[i] */\n      dup2\n      sload\n      dup2\n      lt\n      tag_200\n      jumpi\n      mstore(0x00, 0x4e487b7100000000000000000000000000000000000000000000000000000000)\n      mstore(0x04, 0x32)\n      revert(0x00, 0x24)\n    tag_200:\n      swap1\n      0x00\n      mstore\n      keccak256(0x00, 0x20)\n      add\n      0x00\n      swap1\n      sload\n      swap1\n      0x0100\n      exp\n      swap1\n      div\n      0xffffffffffffffffffffffffffffffffffffffff\n      and\n        /* \"src/contract/Lottery.sol\":1119:1142  owners[i] == msg.sender */\n      0xffffffffffffffffffffffffffffffffffffffff\n      and\n      eq\n        /* \"src/contract/Lottery.sol\":1115:1216  if (owners[i] == msg.sender) {... */\n      iszero\n      tag_202\n      jumpi\n        /* \"src/contract/Lottery.sol\":1174:1178  true */\n      0x01\n        /* \"src/contract/Lottery.sol\":1162:1178  ownerFlag = true */\n      swap2\n      pop\n        /* \"src/contract/Lottery.sol\":1196:1201  break */\n      jump(tag_198)\n        /* \"src/contract/Lottery.sol\":1115:1216  if (owners[i] == msg.sender) {... */\n    tag_202:\n        /* \"src/contract/Lottery.sol\":1096:1099  i++ */\n      dup1\n      dup1\n      tag_203\n      swap1\n      tag_103\n      jump\t// in\n    tag_203:\n      swap2\n      pop\n      pop\n        /* \"src/contract/Lottery.sol\":1060:1226  for (uint i = 0; i < owners.length; i++) {... */\n      jump(tag_197)\n    tag_198:\n      pop\n        /* \"src/contract/Lottery.sol\":1243:1252  ownerFlag */\n      dup1\n        /* \"src/contract/Lottery.sol\":1235:1290  require(ownerFlag, \"Only owner can call this function\") */\n      tag_204\n      jumpi\n      mload(0x40)\n      0x08c379a000000000000000000000000000000000000000000000000000000000\n      dup2\n      mstore\n      0x04\n      add\n      tag_205\n      swap1\n      tag_106\n      jump\t// in\n    tag_205:\n      mload(0x40)\n      dup1\n      swap2\n      sub\n      swap1\n      revert\n    tag_204:\n        /* \"src/contract/Lottery.sol\":3407:3413  uint i */\n      0x00\n        /* \"src/contract/Lottery.sol\":3402:3536  for (uint i = 0; i < 3; i++) {... */\n    tag_207:\n        /* \"src/contract/Lottery.sol\":3423:3424  3 */\n      0x03\n        /* \"src/contract/Lottery.sol\":3419:3420  i */\n      dup2\n        /* \"src/contract/Lottery.sol\":3419:3424  i < 3 */\n      lt\n        /* \"src/contract/Lottery.sol\":3402:3536  for (uint i = 0; i < 3; i++) {... */\n      iszero\n      tag_208\n      jumpi\n        /* \"src/contract/Lottery.sol\":3471:3472  0 */\n      0x00\n        /* \"src/contract/Lottery.sol\":3445:3450  items */\n      0x01\n        /* \"src/contract/Lottery.sol\":3451:3452  i */\n      dup3\n        /* \"src/contract/Lottery.sol\":3445:3453  items[i] */\n      0x03\n      dup2\n      lt\n      tag_210\n      jumpi\n      mstore(0x00, 0x4e487b7100000000000000000000000000000000000000000000000000000000)\n      mstore(0x04, 0x32)\n      revert(0x00, 0x24)\n    tag_210:\n      0x03\n      mul\n      add\n        /* \"src/contract/Lottery.sol\":3445:3460  items[i].winner */\n      0x02\n      add\n      0x00\n        /* \"src/contract/Lottery.sol\":3445:3473  items[i].winner = address(0) */\n      0x0100\n      exp\n      dup2\n      sload\n      dup2\n      0xffffffffffffffffffffffffffffffffffffffff\n      mul\n      not\n      and\n      swap1\n      dup4\n      0xffffffffffffffffffffffffffffffffffffffff\n      and\n      mul\n      or\n      swap1\n      sstore\n      pop\n        /* \"src/contract/Lottery.sol\":3523:3524  0 */\n      0x00\n        /* \"src/contract/Lottery.sol\":3509:3525  new address[](0) */\n      0xffffffffffffffff\n      dup2\n      gt\n      iszero\n      tag_212\n      jumpi\n      mstore(0x00, 0x4e487b7100000000000000000000000000000000000000000000000000000000)\n      mstore(0x04, 0x41)\n      revert(0x00, 0x24)\n    tag_212:\n      mload(0x40)\n      swap1\n      dup1\n      dup3\n      mstore\n      dup1\n      0x20\n      mul\n      0x20\n      add\n      dup3\n      add\n      0x40\n      mstore\n      dup1\n      iszero\n      tag_213\n      jumpi\n      dup2\n      0x20\n      add\n      0x20\n      dup3\n      mul\n      dup1\n      calldatasize\n      dup4\n      calldatacopy\n      dup1\n      dup3\n      add\n      swap2\n      pop\n      pop\n      swap1\n      pop\n    tag_213:\n      pop\n        /* \"src/contract/Lottery.sol\":3487:3492  items */\n      0x01\n        /* \"src/contract/Lottery.sol\":3493:3494  i */\n      dup3\n        /* \"src/contract/Lottery.sol\":3487:3495  items[i] */\n      0x03\n      dup2\n      lt\n      tag_214\n      jumpi\n      mstore(0x00, 0x4e487b7100000000000000000000000000000000000000000000000000000000)\n      mstore(0x04, 0x32)\n      revert(0x00, 0x24)\n    tag_214:\n      0x03\n      mul\n      add\n        /* \"src/contract/Lottery.sol\":3487:3506  items[i].itemTokens */\n      0x01\n      add\n        /* \"src/contract/Lottery.sol\":3487:3525  items[i].itemTokens = new address[](0) */\n      swap1\n      dup1\n      mload\n      swap1\n      0x20\n      add\n      swap1\n      tag_216\n      swap3\n      swap2\n      swap1\n      tag_217\n      jump\t// in\n    tag_216:\n      pop\n        /* \"src/contract/Lottery.sol\":3426:3429  i++ */\n      dup1\n      dup1\n      tag_218\n      swap1\n      tag_103\n      jump\t// in\n    tag_218:\n      swap2\n      pop\n      pop\n        /* \"src/contract/Lottery.sol\":3402:3536  for (uint i = 0; i < 3; i++) {... */\n      jump(tag_207)\n    tag_208:\n      pop\n        /* \"src/contract/Lottery.sol\":3356:3542  function reset() public onlyOwner() {... */\n      pop\n      jump\t// out\n        /* \"src/contract/Lottery.sol\":3548:3726  function transferOwnership(address newOwner) public onlyOwner() {... */\n    tag_77:\n        /* \"src/contract/Lottery.sol\":1028:1042  bool ownerFlag */\n      0x00\n        /* \"src/contract/Lottery.sol\":1065:1071  uint i */\n      dup1\n        /* \"src/contract/Lottery.sol\":1060:1226  for (uint i = 0; i < owners.length; i++) {... */\n    tag_220:\n        /* \"src/contract/Lottery.sol\":1081:1087  owners */\n      0x00\n        /* \"src/contract/Lottery.sol\":1081:1094  owners.length */\n      dup1\n      sload\n      swap1\n      pop\n        /* \"src/contract/Lottery.sol\":1077:1078  i */\n      dup2\n        /* \"src/contract/Lottery.sol\":1077:1094  i < owners.length */\n      lt\n        /* \"src/contract/Lottery.sol\":1060:1226  for (uint i = 0; i < owners.length; i++) {... */\n      iszero\n      tag_221\n      jumpi\n        /* \"src/contract/Lottery.sol\":1132:1142  msg.sender */\n      caller\n        /* \"src/contract/Lottery.sol\":1119:1142  owners[i] == msg.sender */\n      0xffffffffffffffffffffffffffffffffffffffff\n      and\n        /* \"src/contract/Lottery.sol\":1119:1125  owners */\n      0x00\n        /* \"src/contract/Lottery.sol\":1126:1127  i */\n      dup3\n        /* \"src/contract/Lottery.sol\":1119:1128  owners[i] */\n      dup2\n      sload\n      dup2\n      lt\n      tag_223\n      jumpi\n      mstore(0x00, 0x4e487b7100000000000000000000000000000000000000000000000000000000)\n      mstore(0x04, 0x32)\n      revert(0x00, 0x24)\n    tag_223:\n      swap1\n      0x00\n      mstore\n      keccak256(0x00, 0x20)\n      add\n      0x00\n      swap1\n      sload\n      swap1\n      0x0100\n      exp\n      swap1\n      div\n      0xffffffffffffffffffffffffffffffffffffffff\n      and\n        /* \"src/contract/Lottery.sol\":1119:1142  owners[i] == msg.sender */\n      0xffffffffffffffffffffffffffffffffffffffff\n      and\n      eq\n        /* \"src/contract/Lottery.sol\":1115:1216  if (owners[i] == msg.sender) {... */\n      iszero\n      tag_225\n      jumpi\n        /* \"src/contract/Lottery.sol\":1174:1178  true */\n      0x01\n        /* \"src/contract/Lottery.sol\":1162:1178  ownerFlag = true */\n      swap2\n      pop\n        /* \"src/contract/Lottery.sol\":1196:1201  break */\n      jump(tag_221)\n        /* \"src/contract/Lottery.sol\":1115:1216  if (owners[i] == msg.sender) {... */\n    tag_225:\n        /* \"src/contract/Lottery.sol\":1096:1099  i++ */\n      dup1\n      dup1\n      tag_226\n      swap1\n      tag_103\n      jump\t// in\n    tag_226:\n      swap2\n      pop\n      pop\n        /* \"src/contract/Lottery.sol\":1060:1226  for (uint i = 0; i < owners.length; i++) {... */\n      jump(tag_220)\n    tag_221:\n      pop\n        /* \"src/contract/Lottery.sol\":1243:1252  ownerFlag */\n      dup1\n        /* \"src/contract/Lottery.sol\":1235:1290  require(ownerFlag, \"Only owner can call this function\") */\n      tag_227\n      jumpi\n      mload(0x40)\n      0x08c379a000000000000000000000000000000000000000000000000000000000\n      dup2\n      mstore\n      0x04\n      add\n      tag_228\n      swap1\n      tag_106\n      jump\t// in\n    tag_228:\n      mload(0x40)\n      dup1\n      swap2\n      sub\n      swap1\n      revert\n    tag_227:\n        /* \"src/contract/Lottery.sol\":3657:3663  owners */\n      0x00\n      dup1\n        /* \"src/contract/Lottery.sol\":3650:3663  delete owners */\n      tag_230\n      swap2\n      swap1\n      tag_231\n      jump\t// in\n    tag_230:\n        /* \"src/contract/Lottery.sol\":3698:3704  owners */\n      0x00\n        /* \"src/contract/Lottery.sol\":3710:3718  newOwner */\n      dup3\n        /* \"src/contract/Lottery.sol\":3698:3719  owners.push(newOwner) */\n      swap1\n      dup1\n      0x01\n      dup2\n      sload\n      add\n      dup1\n      dup3\n      sstore\n      dup1\n      swap2\n      pop\n      pop\n      0x01\n      swap1\n      sub\n      swap1\n      0x00\n      mstore\n      keccak256(0x00, 0x20)\n      add\n      0x00\n      swap1\n      swap2\n      swap1\n      swap2\n      swap1\n      swap2\n      0x0100\n      exp\n      dup2\n      sload\n      dup2\n      0xffffffffffffffffffffffffffffffffffffffff\n      mul\n      not\n      and\n      swap1\n      dup4\n      0xffffffffffffffffffffffffffffffffffffffff\n      and\n      mul\n      or\n      swap1\n      sstore\n      pop\n        /* \"src/contract/Lottery.sol\":3548:3726  function transferOwnership(address newOwner) public onlyOwner() {... */\n      pop\n      pop\n      jump\t// out\n        /* \"src/contract/Lottery.sol\":704:934  function getAllItemBidNumber() public view returns (uint[3] memory) {... */\n    tag_80:\n        /* \"src/contract/Lottery.sol\":756:770  uint[3] memory */\n      tag_233\n      tag_234\n      jump\t// in\n    tag_233:\n        /* \"src/contract/Lottery.sol\":782:803  uint[3] memory result */\n      tag_236\n      tag_234\n      jump\t// in\n    tag_236:\n        /* \"src/contract/Lottery.sol\":818:824  uint i */\n      0x00\n        /* \"src/contract/Lottery.sol\":813:905  for (uint i = 0; i < 3; i++) {... */\n    tag_237:\n        /* \"src/contract/Lottery.sol\":834:835  3 */\n      0x03\n        /* \"src/contract/Lottery.sol\":830:831  i */\n      dup2\n        /* \"src/contract/Lottery.sol\":830:835  i < 3 */\n      lt\n        /* \"src/contract/Lottery.sol\":813:905  for (uint i = 0; i < 3; i++) {... */\n      iszero\n      tag_238\n      jumpi\n        /* \"src/contract/Lottery.sol\":868:873  items */\n      0x01\n        /* \"src/contract/Lottery.sol\":874:875  i */\n      dup2\n        /* \"src/contract/Lottery.sol\":868:876  items[i] */\n      0x03\n      dup2\n      lt\n      tag_240\n      jumpi\n      mstore(0x00, 0x4e487b7100000000000000000000000000000000000000000000000000000000)\n      mstore(0x04, 0x32)\n      revert(0x00, 0x24)\n    tag_240:\n      0x03\n      mul\n      add\n        /* \"src/contract/Lottery.sol\":868:887  items[i].itemTokens */\n      0x01\n      add\n        /* \"src/contract/Lottery.sol\":868:894  items[i].itemTokens.length */\n      dup1\n      sload\n      swap1\n      pop\n        /* \"src/contract/Lottery.sol\":856:862  result */\n      dup3\n        /* \"src/contract/Lottery.sol\":863:864  i */\n      dup3\n        /* \"src/contract/Lottery.sol\":856:865  result[i] */\n      0x03\n      dup2\n      lt\n      tag_242\n      jumpi\n      mstore(0x00, 0x4e487b7100000000000000000000000000000000000000000000000000000000)\n      mstore(0x04, 0x32)\n      revert(0x00, 0x24)\n    tag_242:\n      0x20\n      mul\n      add\n        /* \"src/contract/Lottery.sol\":856:894  result[i] = items[i].itemTokens.length */\n      dup2\n      dup2\n      mstore\n      pop\n      pop\n        /* \"src/contract/Lottery.sol\":837:840  i++ */\n      dup1\n      dup1\n      tag_243\n      swap1\n      tag_103\n      jump\t// in\n    tag_243:\n      swap2\n      pop\n      pop\n        /* \"src/contract/Lottery.sol\":813:905  for (uint i = 0; i < 3; i++) {... */\n      jump(tag_237)\n    tag_238:\n      pop\n        /* \"src/contract/Lottery.sol\":921:927  result */\n      dup1\n        /* \"src/contract/Lottery.sol\":914:927  return result */\n      swap2\n      pop\n      pop\n        /* \"src/contract/Lottery.sol\":704:934  function getAllItemBidNumber() public view returns (uint[3] memory) {... */\n      swap1\n      jump\t// out\n        /* \"src/contract/Lottery.sol\":575:698  function getItemBidNumber(uint _itemId) public view returns (uint) {... */\n    tag_86:\n        /* \"src/contract/Lottery.sol\":636:640  uint */\n      0x00\n        /* \"src/contract/Lottery.sol\":659:664  items */\n      0x01\n        /* \"src/contract/Lottery.sol\":665:672  _itemId */\n      dup3\n        /* \"src/contract/Lottery.sol\":659:673  items[_itemId] */\n      0x03\n      dup2\n      lt\n      tag_245\n      jumpi\n      mstore(0x00, 0x4e487b7100000000000000000000000000000000000000000000000000000000)\n      mstore(0x04, 0x32)\n      revert(0x00, 0x24)\n    tag_245:\n      0x03\n      mul\n      add\n        /* \"src/contract/Lottery.sol\":659:684  items[_itemId].itemTokens */\n      0x01\n      add\n        /* \"src/contract/Lottery.sol\":659:691  items[_itemId].itemTokens.length */\n      dup1\n      sload\n      swap1\n      pop\n        /* \"src/contract/Lottery.sol\":652:691  return items[_itemId].itemTokens.length */\n      swap1\n      pop\n        /* \"src/contract/Lottery.sol\":575:698  function getItemBidNumber(uint _itemId) public view returns (uint) {... */\n      swap2\n      swap1\n      pop\n      jump\t// out\n        /* \"src/contract/Lottery.sol\":2492:3061  function DeclareWinner(uint _itemId) public onlyOwner() {... */\n    tag_91:\n        /* \"src/contract/Lottery.sol\":1028:1042  bool ownerFlag */\n      0x00\n        /* \"src/contract/Lottery.sol\":1065:1071  uint i */\n      dup1\n        /* \"src/contract/Lottery.sol\":1060:1226  for (uint i = 0; i < owners.length; i++) {... */\n    tag_248:\n        /* \"src/contract/Lottery.sol\":1081:1087  owners */\n      0x00\n        /* \"src/contract/Lottery.sol\":1081:1094  owners.length */\n      dup1\n      sload\n      swap1\n      pop\n        /* \"src/contract/Lottery.sol\":1077:1078  i */\n      dup2\n        /* \"src/contract/Lottery.sol\":1077:1094  i < owners.length */\n      lt\n        /* \"src/contract/Lottery.sol\":1060:1226  for (uint i = 0; i < owners.length; i++) {... */\n      iszero\n      tag_249\n      jumpi\n        /* \"src/contract/Lottery.sol\":1132:1142  msg.sender */\n      caller\n        /* \"src/contract/Lottery.sol\":1119:1142  owners[i] == msg.sender */\n      0xffffffffffffffffffffffffffffffffffffffff\n      and\n        /* \"src/contract/Lottery.sol\":1119:1125  owners */\n      0x00\n        /* \"src/contract/Lottery.sol\":1126:1127  i */\n      dup3\n        /* \"src/contract/Lottery.sol\":1119:1128  owners[i] */\n      dup2\n      sload\n      dup2\n      lt\n      tag_251\n      jumpi\n      mstore(0x00, 0x4e487b7100000000000000000000000000000000000000000000000000000000)\n      mstore(0x04, 0x32)\n      revert(0x00, 0x24)\n    tag_251:\n      swap1\n      0x00\n      mstore\n      keccak256(0x00, 0x20)\n      add\n      0x00\n      swap1\n      sload\n      swap1\n      0x0100\n      exp\n      swap1\n      div\n      0xffffffffffffffffffffffffffffffffffffffff\n      and\n        /* \"src/contract/Lottery.sol\":1119:1142  owners[i] == msg.sender */\n      0xffffffffffffffffffffffffffffffffffffffff\n      and\n      eq\n        /* \"src/contract/Lottery.sol\":1115:1216  if (owners[i] == msg.sender) {... */\n      iszero\n      tag_253\n      jumpi\n        /* \"src/contract/Lottery.sol\":1174:1178  true */\n      0x01\n        /* \"src/contract/Lottery.sol\":1162:1178  ownerFlag = true */\n      swap2\n      pop\n        /* \"src/contract/Lottery.sol\":1196:1201  break */\n      jump(tag_249)\n        /* \"src/contract/Lottery.sol\":1115:1216  if (owners[i] == msg.sender) {... */\n    tag_253:\n        /* \"src/contract/Lottery.sol\":1096:1099  i++ */\n      dup1\n      dup1\n      tag_254\n      swap1\n      tag_103\n      jump\t// in\n    tag_254:\n      swap2\n      pop\n      pop\n        /* \"src/contract/Lottery.sol\":1060:1226  for (uint i = 0; i < owners.length; i++) {... */\n      jump(tag_248)\n    tag_249:\n      pop\n        /* \"src/contract/Lottery.sol\":1243:1252  ownerFlag */\n      dup1\n        /* \"src/contract/Lottery.sol\":1235:1290  require(ownerFlag, \"Only owner can call this function\") */\n      tag_255\n      jumpi\n      mload(0x40)\n      0x08c379a000000000000000000000000000000000000000000000000000000000\n      dup2\n      mstore\n      0x04\n      add\n      tag_256\n      swap1\n      tag_106\n      jump\t// in\n    tag_256:\n      mload(0x40)\n      dup1\n      swap2\n      sub\n      swap1\n      revert\n    tag_255:\n        /* \"src/contract/Lottery.sol\":2599:2600  0 */\n      0x00\n        /* \"src/contract/Lottery.sol\":2566:2601  items[_itemId].winner == address(0) */\n      0xffffffffffffffffffffffffffffffffffffffff\n      and\n        /* \"src/contract/Lottery.sol\":2566:2571  items */\n      0x01\n        /* \"src/contract/Lottery.sol\":2572:2579  _itemId */\n      dup4\n        /* \"src/contract/Lottery.sol\":2566:2580  items[_itemId] */\n      0x03\n      dup2\n      lt\n      tag_258\n      jumpi\n      mstore(0x00, 0x4e487b7100000000000000000000000000000000000000000000000000000000)\n      mstore(0x04, 0x32)\n      revert(0x00, 0x24)\n    tag_258:\n      0x03\n      mul\n      add\n        /* \"src/contract/Lottery.sol\":2566:2587  items[_itemId].winner */\n      0x02\n      add\n      0x00\n      swap1\n      sload\n      swap1\n      0x0100\n      exp\n      swap1\n      div\n      0xffffffffffffffffffffffffffffffffffffffff\n      and\n        /* \"src/contract/Lottery.sol\":2566:2601  items[_itemId].winner == address(0) */\n      0xffffffffffffffffffffffffffffffffffffffff\n      and\n      eq\n        /* \"src/contract/Lottery.sol\":2558:2629  require(items[_itemId].winner == address(0), \"Winner already declared\") */\n      tag_260\n      jumpi\n      mload(0x40)\n      0x08c379a000000000000000000000000000000000000000000000000000000000\n      dup2\n      mstore\n      0x04\n      add\n      tag_261\n      swap1\n      tag_262\n      jump\t// in\n    tag_261:\n      mload(0x40)\n      dup1\n      swap2\n      sub\n      swap1\n      revert\n    tag_260:\n        /* \"src/contract/Lottery.sol\":2679:2680  0 */\n      0x00\n        /* \"src/contract/Lottery.sol\":2643:2648  items */\n      0x01\n        /* \"src/contract/Lottery.sol\":2649:2656  _itemId */\n      dup4\n        /* \"src/contract/Lottery.sol\":2643:2657  items[_itemId] */\n      0x03\n      dup2\n      lt\n      tag_263\n      jumpi\n      mstore(0x00, 0x4e487b7100000000000000000000000000000000000000000000000000000000)\n      mstore(0x04, 0x32)\n      revert(0x00, 0x24)\n    tag_263:\n      0x03\n      mul\n      add\n        /* \"src/contract/Lottery.sol\":2643:2668  items[_itemId].itemTokens */\n      0x01\n      add\n        /* \"src/contract/Lottery.sol\":2643:2675  items[_itemId].itemTokens.length */\n      dup1\n      sload\n      swap1\n      pop\n        /* \"src/contract/Lottery.sol\":2643:2680  items[_itemId].itemTokens.length == 0 */\n      eq\n        /* \"src/contract/Lottery.sol\":2639:2812  if (items[_itemId].itemTokens.length == 0) {... */\n      iszero\n      tag_265\n      jumpi\n        /* \"src/contract/Lottery.sol\":2728:2729  0 */\n      0x00\n        /* \"src/contract/Lottery.sol\":2696:2701  items */\n      0x01\n        /* \"src/contract/Lottery.sol\":2702:2709  _itemId */\n      dup4\n        /* \"src/contract/Lottery.sol\":2696:2710  items[_itemId] */\n      0x03\n      dup2\n      lt\n      tag_266\n      jumpi\n      mstore(0x00, 0x4e487b7100000000000000000000000000000000000000000000000000000000)\n      mstore(0x04, 0x32)\n      revert(0x00, 0x24)\n    tag_266:\n      0x03\n      mul\n      add\n        /* \"src/contract/Lottery.sol\":2696:2717  items[_itemId].winner */\n      0x02\n      add\n      0x00\n        /* \"src/contract/Lottery.sol\":2696:2730  items[_itemId].winner = address(0) */\n      0x0100\n      exp\n      dup2\n      sload\n      dup2\n      0xffffffffffffffffffffffffffffffffffffffff\n      mul\n      not\n      and\n      swap1\n      dup4\n      0xffffffffffffffffffffffffffffffffffffffff\n      and\n      mul\n      or\n      swap1\n      sstore\n      pop\n        /* \"src/contract/Lottery.sol\":2749:2781  winnerEvent(_itemId, address(0)) */\n      0x1c0e4295e0f74d135c113826815ae27019c5dfaf8a19cb1472533bcb988f5ef2\n        /* \"src/contract/Lottery.sol\":2761:2768  _itemId */\n      dup3\n        /* \"src/contract/Lottery.sol\":2778:2779  0 */\n      0x00\n        /* \"src/contract/Lottery.sol\":2749:2781  winnerEvent(_itemId, address(0)) */\n      mload(0x40)\n      tag_268\n      swap3\n      swap2\n      swap1\n      tag_70\n      jump\t// in\n    tag_268:\n      mload(0x40)\n      dup1\n      swap2\n      sub\n      swap1\n      log1\n        /* \"src/contract/Lottery.sol\":2795:2802  return; */\n      jump(tag_257)\n        /* \"src/contract/Lottery.sol\":2639:2812  if (items[_itemId].itemTokens.length == 0) {... */\n    tag_265:\n        /* \"src/contract/Lottery.sol\":2821:2837  uint randomIndex */\n      0x00\n        /* \"src/contract/Lottery.sol\":2892:2897  items */\n      0x01\n        /* \"src/contract/Lottery.sol\":2898:2905  _itemId */\n      dup4\n        /* \"src/contract/Lottery.sol\":2892:2906  items[_itemId] */\n      0x03\n      dup2\n      lt\n      tag_269\n      jumpi\n      mstore(0x00, 0x4e487b7100000000000000000000000000000000000000000000000000000000)\n      mstore(0x04, 0x32)\n      revert(0x00, 0x24)\n    tag_269:\n      0x03\n      mul\n      add\n        /* \"src/contract/Lottery.sol\":2892:2917  items[_itemId].itemTokens */\n      0x01\n      add\n        /* \"src/contract/Lottery.sol\":2892:2924  items[_itemId].itemTokens.length */\n      dup1\n      sload\n      swap1\n      pop\n        /* \"src/contract/Lottery.sol\":2856:2861  items */\n      0x01\n        /* \"src/contract/Lottery.sol\":2862:2869  _itemId */\n      dup5\n        /* \"src/contract/Lottery.sol\":2856:2870  items[_itemId] */\n      0x03\n      dup2\n      lt\n      tag_271\n      jumpi\n      mstore(0x00, 0x4e487b7100000000000000000000000000000000000000000000000000000000)\n      mstore(0x04, 0x32)\n      revert(0x00, 0x24)\n    tag_271:\n      0x03\n      mul\n      add\n        /* \"src/contract/Lottery.sol\":2856:2881  items[_itemId].itemTokens */\n      0x01\n      add\n        /* \"src/contract/Lottery.sol\":2856:2888  items[_itemId].itemTokens.length */\n      dup1\n      sload\n      swap1\n      pop\n        /* \"src/contract/Lottery.sol\":2841:2853  block.number */\n      number\n        /* \"src/contract/Lottery.sol\":2841:2888  block.number / items[_itemId].itemTokens.length */\n      tag_273\n      swap2\n      swap1\n      tag_274\n      jump\t// in\n    tag_273:\n        /* \"src/contract/Lottery.sol\":2840:2924  (block.number / items[_itemId].itemTokens.length) % items[_itemId].itemTokens.length */\n      tag_275\n      swap2\n      swap1\n      tag_276\n      jump\t// in\n    tag_275:\n        /* \"src/contract/Lottery.sol\":2821:2924  uint randomIndex = (block.number / items[_itemId].itemTokens.length) % items[_itemId].itemTokens.length */\n      swap1\n      pop\n        /* \"src/contract/Lottery.sol\":2958:2963  items */\n      0x01\n        /* \"src/contract/Lottery.sol\":2964:2971  _itemId */\n      dup4\n        /* \"src/contract/Lottery.sol\":2958:2972  items[_itemId] */\n      0x03\n      dup2\n      lt\n      tag_277\n      jumpi\n      mstore(0x00, 0x4e487b7100000000000000000000000000000000000000000000000000000000)\n      mstore(0x04, 0x32)\n      revert(0x00, 0x24)\n    tag_277:\n      0x03\n      mul\n      add\n        /* \"src/contract/Lottery.sol\":2958:2983  items[_itemId].itemTokens */\n      0x01\n      add\n        /* \"src/contract/Lottery.sol\":2984:2995  randomIndex */\n      dup2\n        /* \"src/contract/Lottery.sol\":2958:2996  items[_itemId].itemTokens[randomIndex] */\n      dup2\n      sload\n      dup2\n      lt\n      tag_279\n      jumpi\n      mstore(0x00, 0x4e487b7100000000000000000000000000000000000000000000000000000000)\n      mstore(0x04, 0x32)\n      revert(0x00, 0x24)\n    tag_279:\n      swap1\n      0x00\n      mstore\n      keccak256(0x00, 0x20)\n      add\n      0x00\n      swap1\n      sload\n      swap1\n      0x0100\n      exp\n      swap1\n      div\n      0xffffffffffffffffffffffffffffffffffffffff\n      and\n        /* \"src/contract/Lottery.sol\":2934:2939  items */\n      0x01\n        /* \"src/contract/Lottery.sol\":2940:2947  _itemId */\n      dup5\n        /* \"src/contract/Lottery.sol\":2934:2948  items[_itemId] */\n      0x03\n      dup2\n      lt\n      tag_281\n      jumpi\n      mstore(0x00, 0x4e487b7100000000000000000000000000000000000000000000000000000000)\n      mstore(0x04, 0x32)\n      revert(0x00, 0x24)\n    tag_281:\n      0x03\n      mul\n      add\n        /* \"src/contract/Lottery.sol\":2934:2955  items[_itemId].winner */\n      0x02\n      add\n      0x00\n        /* \"src/contract/Lottery.sol\":2934:2996  items[_itemId].winner = items[_itemId].itemTokens[randomIndex] */\n      0x0100\n      exp\n      dup2\n      sload\n      dup2\n      0xffffffffffffffffffffffffffffffffffffffff\n      mul\n      not\n      and\n      swap1\n      dup4\n      0xffffffffffffffffffffffffffffffffffffffff\n      and\n      mul\n      or\n      swap1\n      sstore\n      pop\n        /* \"src/contract/Lottery.sol\":3011:3054  winnerEvent(_itemId, items[_itemId].winner) */\n      0x1c0e4295e0f74d135c113826815ae27019c5dfaf8a19cb1472533bcb988f5ef2\n        /* \"src/contract/Lottery.sol\":3023:3030  _itemId */\n      dup4\n        /* \"src/contract/Lottery.sol\":3032:3037  items */\n      0x01\n        /* \"src/contract/Lottery.sol\":3038:3045  _itemId */\n      dup6\n        /* \"src/contract/Lottery.sol\":3032:3046  items[_itemId] */\n      0x03\n      dup2\n      lt\n      tag_283\n      jumpi\n      mstore(0x00, 0x4e487b7100000000000000000000000000000000000000000000000000000000)\n      mstore(0x04, 0x32)\n      revert(0x00, 0x24)\n    tag_283:\n      0x03\n      mul\n      add\n        /* \"src/contract/Lottery.sol\":3032:3053  items[_itemId].winner */\n      0x02\n      add\n      0x00\n      swap1\n      sload\n      swap1\n      0x0100\n      exp\n      swap1\n      div\n      0xffffffffffffffffffffffffffffffffffffffff\n      and\n        /* \"src/contract/Lottery.sol\":3011:3054  winnerEvent(_itemId, items[_itemId].winner) */\n      mload(0x40)\n      tag_285\n      swap3\n      swap2\n      swap1\n      tag_70\n      jump\t// in\n    tag_285:\n      mload(0x40)\n      dup1\n      swap2\n      sub\n      swap1\n      log1\n        /* \"src/contract/Lottery.sol\":1300:1301  _ */\n      pop\n    tag_257:\n        /* \"src/contract/Lottery.sol\":2492:3061  function DeclareWinner(uint _itemId) public onlyOwner() {... */\n      pop\n      pop\n      jump\t// out\n    tag_111:\n      mload(0x40)\n      dup1\n      0x60\n      add\n      0x40\n      mstore\n      dup1\n      0x03\n      swap1\n    tag_286:\n      tag_287\n      tag_288\n      jump\t// in\n    tag_287:\n      dup2\n      mstore\n      0x20\n      add\n      swap1\n      0x01\n      swap1\n      sub\n      swap1\n      dup2\n      tag_286\n      jumpi\n      swap1\n      pop\n      pop\n      swap1\n      jump\t// out\n    tag_178:\n      mload(0x40)\n      dup1\n      0x40\n      add\n      0x40\n      mstore\n      dup1\n      0x00\n      dup2\n      mstore\n      0x20\n      add\n      and(0xffffffffffffffffffffffffffffffffffffffff, 0x00)\n      dup2\n      mstore\n      pop\n      swap1\n      jump\t// out\n    tag_217:\n      dup3\n      dup1\n      sload\n      dup3\n      dup3\n      sstore\n      swap1\n      0x00\n      mstore\n      keccak256(0x00, 0x20)\n      swap1\n      dup2\n      add\n      swap3\n      dup3\n      iszero\n      tag_289\n      jumpi\n      swap2\n      0x20\n      mul\n      dup3\n      add\n    tag_290:\n      dup3\n      dup2\n      gt\n      iszero\n      tag_291\n      jumpi\n      dup3\n      mload\n      dup3\n      exp(0x0100, 0x00)\n      dup2\n      sload\n      dup2\n      0xffffffffffffffffffffffffffffffffffffffff\n      mul\n      not\n      and\n      swap1\n      dup4\n      0xffffffffffffffffffffffffffffffffffffffff\n      and\n      mul\n      or\n      swap1\n      sstore\n      pop\n      swap2\n      0x20\n      add\n      swap2\n      swap1\n      0x01\n      add\n      swap1\n      jump(tag_290)\n    tag_291:\n    tag_289:\n      pop\n      swap1\n      pop\n      tag_292\n      swap2\n      swap1\n      tag_293\n      jump\t// in\n    tag_292:\n      pop\n      swap1\n      jump\t// out\n    tag_231:\n      pop\n      dup1\n      sload\n      0x00\n      dup3\n      sstore\n      swap1\n      0x00\n      mstore\n      keccak256(0x00, 0x20)\n      swap1\n      dup2\n      add\n      swap1\n      tag_295\n      swap2\n      swap1\n      tag_293\n      jump\t// in\n    tag_295:\n      pop\n      jump\t// out\n    tag_234:\n      mload(0x40)\n      dup1\n      0x60\n      add\n      0x40\n      mstore\n      dup1\n      0x03\n      swap1\n      0x20\n      dup3\n      mul\n      dup1\n      calldatasize\n      dup4\n      calldatacopy\n      dup1\n      dup3\n      add\n      swap2\n      pop\n      pop\n      swap1\n      pop\n      pop\n      swap1\n      jump\t// out\n    tag_288:\n      mload(0x40)\n      dup1\n      0x60\n      add\n      0x40\n      mstore\n      dup1\n      0x00\n      dup2\n      mstore\n      0x20\n      add\n      0x60\n      dup2\n      mstore\n      0x20\n      add\n      and(0xffffffffffffffffffffffffffffffffffffffff, 0x00)\n      dup2\n      mstore\n      pop\n      swap1\n      jump\t// out\n    tag_293:\n    tag_296:\n      dup1\n      dup3\n      gt\n      iszero\n      tag_297\n      jumpi\n      0x00\n      dup2\n      0x00\n      swap1\n      sstore\n      pop\n      0x01\n      add\n      jump(tag_296)\n    tag_297:\n      pop\n      swap1\n      jump\t// out\n        /* \"#utility.yul\":7:146   */\n    tag_299:\n        /* \"#utility.yul\":53:58   */\n      0x00\n        /* \"#utility.yul\":91:97   */\n      dup2\n        /* \"#utility.yul\":78:98   */\n      calldataload\n        /* \"#utility.yul\":69:98   */\n      swap1\n      pop\n        /* \"#utility.yul\":107:140   */\n      tag_301\n        /* \"#utility.yul\":134:139   */\n      dup2\n        /* \"#utility.yul\":107:140   */\n      tag_302\n      jump\t// in\n    tag_301:\n        /* \"#utility.yul\":59:146   */\n      swap3\n      swap2\n      pop\n      pop\n      jump\t// out\n        /* \"#utility.yul\":152:291   */\n    tag_303:\n        /* \"#utility.yul\":198:203   */\n      0x00\n        /* \"#utility.yul\":236:242   */\n      dup2\n        /* \"#utility.yul\":223:243   */\n      calldataload\n        /* \"#utility.yul\":214:243   */\n      swap1\n      pop\n        /* \"#utility.yul\":252:285   */\n      tag_305\n        /* \"#utility.yul\":279:284   */\n      dup2\n        /* \"#utility.yul\":252:285   */\n      tag_306\n      jump\t// in\n    tag_305:\n        /* \"#utility.yul\":204:291   */\n      swap3\n      swap2\n      pop\n      pop\n      jump\t// out\n        /* \"#utility.yul\":297:559   */\n    tag_47:\n        /* \"#utility.yul\":356:362   */\n      0x00\n        /* \"#utility.yul\":405:407   */\n      0x20\n        /* \"#utility.yul\":393:402   */\n      dup3\n        /* \"#utility.yul\":384:391   */\n      dup5\n        /* \"#utility.yul\":380:403   */\n      sub\n        /* \"#utility.yul\":376:408   */\n      slt\n        /* \"#utility.yul\":373:375   */\n      iszero\n      tag_308\n      jumpi\n        /* \"#utility.yul\":421:422   */\n      0x00\n        /* \"#utility.yul\":418:419   */\n      dup1\n        /* \"#utility.yul\":411:423   */\n      revert\n        /* \"#utility.yul\":373:375   */\n    tag_308:\n        /* \"#utility.yul\":464:465   */\n      0x00\n        /* \"#utility.yul\":489:542   */\n      tag_309\n        /* \"#utility.yul\":534:541   */\n      dup5\n        /* \"#utility.yul\":525:531   */\n      dup3\n        /* \"#utility.yul\":514:523   */\n      dup6\n        /* \"#utility.yul\":510:532   */\n      add\n        /* \"#utility.yul\":489:542   */\n      tag_299\n      jump\t// in\n    tag_309:\n        /* \"#utility.yul\":479:542   */\n      swap2\n      pop\n        /* \"#utility.yul\":435:552   */\n      pop\n        /* \"#utility.yul\":363:559   */\n      swap3\n      swap2\n      pop\n      pop\n      jump\t// out\n        /* \"#utility.yul\":565:827   */\n    tag_24:\n        /* \"#utility.yul\":624:630   */\n      0x00\n        /* \"#utility.yul\":673:675   */\n      0x20\n        /* \"#utility.yul\":661:670   */\n      dup3\n        /* \"#utility.yul\":652:659   */\n      dup5\n        /* \"#utility.yul\":648:671   */\n      sub\n        /* \"#utility.yul\":644:676   */\n      slt\n        /* \"#utility.yul\":641:643   */\n      iszero\n      tag_311\n      jumpi\n        /* \"#utility.yul\":689:690   */\n      0x00\n        /* \"#utility.yul\":686:687   */\n      dup1\n        /* \"#utility.yul\":679:691   */\n      revert\n        /* \"#utility.yul\":641:643   */\n    tag_311:\n        /* \"#utility.yul\":732:733   */\n      0x00\n        /* \"#utility.yul\":757:810   */\n      tag_312\n        /* \"#utility.yul\":802:809   */\n      dup5\n        /* \"#utility.yul\":793:799   */\n      dup3\n        /* \"#utility.yul\":782:791   */\n      dup6\n        /* \"#utility.yul\":778:800   */\n      add\n        /* \"#utility.yul\":757:810   */\n      tag_303\n      jump\t// in\n    tag_312:\n        /* \"#utility.yul\":747:810   */\n      swap2\n      pop\n        /* \"#utility.yul\":703:820   */\n      pop\n        /* \"#utility.yul\":631:827   */\n      swap3\n      swap2\n      pop\n      pop\n      jump\t// out\n        /* \"#utility.yul\":833:1012   */\n    tag_313:\n        /* \"#utility.yul\":902:912   */\n      0x00\n        /* \"#utility.yul\":923:969   */\n      tag_315\n        /* \"#utility.yul\":965:968   */\n      dup4\n        /* \"#utility.yul\":957:963   */\n      dup4\n        /* \"#utility.yul\":923:969   */\n      tag_316\n      jump\t// in\n    tag_315:\n        /* \"#utility.yul\":1001:1005   */\n      0x20\n        /* \"#utility.yul\":996:999   */\n      dup4\n        /* \"#utility.yul\":992:1006   */\n      add\n        /* \"#utility.yul\":978:1006   */\n      swap1\n      pop\n        /* \"#utility.yul\":913:1012   */\n      swap3\n      swap2\n      pop\n      pop\n      jump\t// out\n        /* \"#utility.yul\":1018:1250   */\n    tag_317:\n        /* \"#utility.yul\":1125:1135   */\n      0x00\n        /* \"#utility.yul\":1160:1244   */\n      tag_319\n        /* \"#utility.yul\":1240:1243   */\n      dup4\n        /* \"#utility.yul\":1232:1238   */\n      dup4\n        /* \"#utility.yul\":1160:1244   */\n      tag_320\n      jump\t// in\n    tag_319:\n        /* \"#utility.yul\":1146:1244   */\n      swap1\n      pop\n        /* \"#utility.yul\":1136:1250   */\n      swap3\n      swap2\n      pop\n      pop\n      jump\t// out\n        /* \"#utility.yul\":1256:1435   */\n    tag_321:\n        /* \"#utility.yul\":1325:1335   */\n      0x00\n        /* \"#utility.yul\":1346:1392   */\n      tag_323\n        /* \"#utility.yul\":1388:1391   */\n      dup4\n        /* \"#utility.yul\":1380:1386   */\n      dup4\n        /* \"#utility.yul\":1346:1392   */\n      tag_324\n      jump\t// in\n    tag_323:\n        /* \"#utility.yul\":1424:1428   */\n      0x20\n        /* \"#utility.yul\":1419:1422   */\n      dup4\n        /* \"#utility.yul\":1415:1429   */\n      add\n        /* \"#utility.yul\":1401:1429   */\n      swap1\n      pop\n        /* \"#utility.yul\":1336:1435   */\n      swap3\n      swap2\n      pop\n      pop\n      jump\t// out\n        /* \"#utility.yul\":1441:1549   */\n    tag_316:\n        /* \"#utility.yul\":1518:1542   */\n      tag_326\n        /* \"#utility.yul\":1536:1541   */\n      dup2\n        /* \"#utility.yul\":1518:1542   */\n      tag_327\n      jump\t// in\n    tag_326:\n        /* \"#utility.yul\":1513:1516   */\n      dup3\n        /* \"#utility.yul\":1506:1543   */\n      mstore\n        /* \"#utility.yul\":1496:1549   */\n      pop\n      pop\n      jump\t// out\n        /* \"#utility.yul\":1555:1673   */\n    tag_328:\n        /* \"#utility.yul\":1642:1666   */\n      tag_330\n        /* \"#utility.yul\":1660:1665   */\n      dup2\n        /* \"#utility.yul\":1642:1666   */\n      tag_327\n      jump\t// in\n    tag_330:\n        /* \"#utility.yul\":1637:1640   */\n      dup3\n        /* \"#utility.yul\":1630:1667   */\n      mstore\n        /* \"#utility.yul\":1620:1673   */\n      pop\n      pop\n      jump\t// out\n        /* \"#utility.yul\":1709:2421   */\n    tag_331:\n        /* \"#utility.yul\":1818:1821   */\n      0x00\n        /* \"#utility.yul\":1847:1901   */\n      tag_333\n        /* \"#utility.yul\":1895:1900   */\n      dup3\n        /* \"#utility.yul\":1847:1901   */\n      tag_334\n      jump\t// in\n    tag_333:\n        /* \"#utility.yul\":1917:1993   */\n      tag_335\n        /* \"#utility.yul\":1986:1992   */\n      dup2\n        /* \"#utility.yul\":1981:1984   */\n      dup6\n        /* \"#utility.yul\":1917:1993   */\n      tag_336\n      jump\t// in\n    tag_335:\n        /* \"#utility.yul\":1910:1993   */\n      swap4\n      pop\n        /* \"#utility.yul\":2017:2073   */\n      tag_337\n        /* \"#utility.yul\":2067:2072   */\n      dup4\n        /* \"#utility.yul\":2017:2073   */\n      tag_338\n      jump\t// in\n    tag_337:\n        /* \"#utility.yul\":2096:2103   */\n      dup1\n        /* \"#utility.yul\":2127:2128   */\n      0x00\n        /* \"#utility.yul\":2112:2396   */\n    tag_339:\n        /* \"#utility.yul\":2137:2143   */\n      dup4\n        /* \"#utility.yul\":2134:2135   */\n      dup2\n        /* \"#utility.yul\":2131:2144   */\n      lt\n        /* \"#utility.yul\":2112:2396   */\n      iszero\n      tag_341\n      jumpi\n        /* \"#utility.yul\":2213:2219   */\n      dup2\n        /* \"#utility.yul\":2207:2220   */\n      mload\n        /* \"#utility.yul\":2240:2303   */\n      tag_342\n        /* \"#utility.yul\":2299:2302   */\n      dup9\n        /* \"#utility.yul\":2284:2297   */\n      dup3\n        /* \"#utility.yul\":2240:2303   */\n      tag_313\n      jump\t// in\n    tag_342:\n        /* \"#utility.yul\":2233:2303   */\n      swap8\n      pop\n        /* \"#utility.yul\":2326:2386   */\n      tag_343\n        /* \"#utility.yul\":2379:2385   */\n      dup4\n        /* \"#utility.yul\":2326:2386   */\n      tag_344\n      jump\t// in\n    tag_343:\n        /* \"#utility.yul\":2316:2386   */\n      swap3\n      pop\n        /* \"#utility.yul\":2172:2396   */\n      pop\n        /* \"#utility.yul\":2159:2160   */\n      0x01\n        /* \"#utility.yul\":2156:2157   */\n      dup2\n        /* \"#utility.yul\":2152:2161   */\n      add\n        /* \"#utility.yul\":2147:2161   */\n      swap1\n      pop\n        /* \"#utility.yul\":2112:2396   */\n      jump(tag_339)\n    tag_341:\n        /* \"#utility.yul\":2116:2130   */\n      pop\n        /* \"#utility.yul\":2412:2415   */\n      dup6\n        /* \"#utility.yul\":2405:2415   */\n      swap4\n      pop\n        /* \"#utility.yul\":1823:2421   */\n      pop\n      pop\n      pop\n      swap3\n      swap2\n      pop\n      pop\n      jump\t// out\n        /* \"#utility.yul\":2457:3189   */\n    tag_345:\n        /* \"#utility.yul\":2576:2579   */\n      0x00\n        /* \"#utility.yul\":2605:2659   */\n      tag_347\n        /* \"#utility.yul\":2653:2658   */\n      dup3\n        /* \"#utility.yul\":2605:2659   */\n      tag_334\n      jump\t// in\n    tag_347:\n        /* \"#utility.yul\":2675:2761   */\n      tag_348\n        /* \"#utility.yul\":2754:2760   */\n      dup2\n        /* \"#utility.yul\":2749:2752   */\n      dup6\n        /* \"#utility.yul\":2675:2761   */\n      tag_349\n      jump\t// in\n    tag_348:\n        /* \"#utility.yul\":2668:2761   */\n      swap4\n      pop\n        /* \"#utility.yul\":2785:2841   */\n      tag_350\n        /* \"#utility.yul\":2835:2840   */\n      dup4\n        /* \"#utility.yul\":2785:2841   */\n      tag_338\n      jump\t// in\n    tag_350:\n        /* \"#utility.yul\":2864:2871   */\n      dup1\n        /* \"#utility.yul\":2895:2896   */\n      0x00\n        /* \"#utility.yul\":2880:3164   */\n    tag_351:\n        /* \"#utility.yul\":2905:2911   */\n      dup4\n        /* \"#utility.yul\":2902:2903   */\n      dup2\n        /* \"#utility.yul\":2899:2912   */\n      lt\n        /* \"#utility.yul\":2880:3164   */\n      iszero\n      tag_353\n      jumpi\n        /* \"#utility.yul\":2981:2987   */\n      dup2\n        /* \"#utility.yul\":2975:2988   */\n      mload\n        /* \"#utility.yul\":3008:3071   */\n      tag_354\n        /* \"#utility.yul\":3067:3070   */\n      dup9\n        /* \"#utility.yul\":3052:3065   */\n      dup3\n        /* \"#utility.yul\":3008:3071   */\n      tag_313\n      jump\t// in\n    tag_354:\n        /* \"#utility.yul\":3001:3071   */\n      swap8\n      pop\n        /* \"#utility.yul\":3094:3154   */\n      tag_355\n        /* \"#utility.yul\":3147:3153   */\n      dup4\n        /* \"#utility.yul\":3094:3154   */\n      tag_344\n      jump\t// in\n    tag_355:\n        /* \"#utility.yul\":3084:3154   */\n      swap3\n      pop\n        /* \"#utility.yul\":2940:3164   */\n      pop\n        /* \"#utility.yul\":2927:2928   */\n      0x01\n        /* \"#utility.yul\":2924:2925   */\n      dup2\n        /* \"#utility.yul\":2920:2929   */\n      add\n        /* \"#utility.yul\":2915:2929   */\n      swap1\n      pop\n        /* \"#utility.yul\":2880:3164   */\n      jump(tag_351)\n    tag_353:\n        /* \"#utility.yul\":2884:2898   */\n      pop\n        /* \"#utility.yul\":3180:3183   */\n      dup6\n        /* \"#utility.yul\":3173:3183   */\n      swap4\n      pop\n        /* \"#utility.yul\":2581:3189   */\n      pop\n      pop\n      pop\n      swap3\n      swap2\n      pop\n      pop\n      jump\t// out\n        /* \"#utility.yul\":3251:4302   */\n    tag_356:\n        /* \"#utility.yul\":3404:3407   */\n      0x00\n        /* \"#utility.yul\":3433:3504   */\n      tag_358\n        /* \"#utility.yul\":3498:3503   */\n      dup3\n        /* \"#utility.yul\":3433:3504   */\n      tag_359\n      jump\t// in\n    tag_358:\n        /* \"#utility.yul\":3520:3623   */\n      tag_360\n        /* \"#utility.yul\":3616:3622   */\n      dup2\n        /* \"#utility.yul\":3611:3614   */\n      dup6\n        /* \"#utility.yul\":3520:3623   */\n      tag_361\n      jump\t// in\n    tag_360:\n        /* \"#utility.yul\":3513:3623   */\n      swap4\n      pop\n        /* \"#utility.yul\":3649:3652   */\n      dup4\n        /* \"#utility.yul\":3694:3698   */\n      0x20\n        /* \"#utility.yul\":3686:3692   */\n      dup3\n        /* \"#utility.yul\":3682:3699   */\n      mul\n        /* \"#utility.yul\":3677:3680   */\n      dup6\n        /* \"#utility.yul\":3673:3700   */\n      add\n        /* \"#utility.yul\":3724:3797   */\n      tag_362\n        /* \"#utility.yul\":3791:3796   */\n      dup6\n        /* \"#utility.yul\":3724:3797   */\n      tag_363\n      jump\t// in\n    tag_362:\n        /* \"#utility.yul\":3820:3827   */\n      dup1\n        /* \"#utility.yul\":3851:3852   */\n      0x00\n        /* \"#utility.yul\":3836:4257   */\n    tag_364:\n        /* \"#utility.yul\":3861:3867   */\n      dup6\n        /* \"#utility.yul\":3858:3859   */\n      dup2\n        /* \"#utility.yul\":3855:3868   */\n      lt\n        /* \"#utility.yul\":3836:4257   */\n      iszero\n      tag_366\n      jumpi\n        /* \"#utility.yul\":3932:3941   */\n      dup5\n        /* \"#utility.yul\":3926:3930   */\n      dup5\n        /* \"#utility.yul\":3922:3942   */\n      sub\n        /* \"#utility.yul\":3917:3920   */\n      dup10\n        /* \"#utility.yul\":3910:3943   */\n      mstore\n        /* \"#utility.yul\":3983:3989   */\n      dup2\n        /* \"#utility.yul\":3977:3990   */\n      mload\n        /* \"#utility.yul\":4011:4113   */\n      tag_367\n        /* \"#utility.yul\":4108:4112   */\n      dup6\n        /* \"#utility.yul\":4093:4106   */\n      dup3\n        /* \"#utility.yul\":4011:4113   */\n      tag_317\n      jump\t// in\n    tag_367:\n        /* \"#utility.yul\":4003:4113   */\n      swap5\n      pop\n        /* \"#utility.yul\":4136:4213   */\n      tag_368\n        /* \"#utility.yul\":4206:4212   */\n      dup4\n        /* \"#utility.yul\":4136:4213   */\n      tag_369\n      jump\t// in\n    tag_368:\n        /* \"#utility.yul\":4126:4213   */\n      swap3\n      pop\n        /* \"#utility.yul\":4242:4246   */\n      0x20\n        /* \"#utility.yul\":4237:4240   */\n      dup11\n        /* \"#utility.yul\":4233:4247   */\n      add\n        /* \"#utility.yul\":4226:4247   */\n      swap10\n      pop\n        /* \"#utility.yul\":3896:4257   */\n      pop\n        /* \"#utility.yul\":3883:3884   */\n      0x01\n        /* \"#utility.yul\":3880:3881   */\n      dup2\n        /* \"#utility.yul\":3876:3885   */\n      add\n        /* \"#utility.yul\":3871:3885   */\n      swap1\n      pop\n        /* \"#utility.yul\":3836:4257   */\n      jump(tag_364)\n    tag_366:\n        /* \"#utility.yul\":3840:3854   */\n      pop\n        /* \"#utility.yul\":4273:4277   */\n      dup3\n        /* \"#utility.yul\":4266:4277   */\n      swap8\n      pop\n        /* \"#utility.yul\":4293:4296   */\n      dup8\n        /* \"#utility.yul\":4286:4296   */\n      swap6\n      pop\n        /* \"#utility.yul\":3409:4302   */\n      pop\n      pop\n      pop\n      pop\n      pop\n      swap3\n      swap2\n      pop\n      pop\n      jump\t// out\n        /* \"#utility.yul\":4340:5034   */\n    tag_370:\n        /* \"#utility.yul\":4476:4528   */\n      tag_372\n        /* \"#utility.yul\":4522:4527   */\n      dup2\n        /* \"#utility.yul\":4476:4528   */\n      tag_373\n      jump\t// in\n    tag_372:\n        /* \"#utility.yul\":4544:4628   */\n      tag_374\n        /* \"#utility.yul\":4621:4627   */\n      dup2\n        /* \"#utility.yul\":4616:4619   */\n      dup5\n        /* \"#utility.yul\":4544:4628   */\n      tag_375\n      jump\t// in\n    tag_374:\n        /* \"#utility.yul\":4537:4628   */\n      swap3\n      pop\n        /* \"#utility.yul\":4652:4706   */\n      tag_376\n        /* \"#utility.yul\":4700:4705   */\n      dup3\n        /* \"#utility.yul\":4652:4706   */\n      tag_377\n      jump\t// in\n    tag_376:\n        /* \"#utility.yul\":4729:4736   */\n      dup1\n        /* \"#utility.yul\":4760:4761   */\n      0x00\n        /* \"#utility.yul\":4745:5027   */\n    tag_378:\n        /* \"#utility.yul\":4770:4776   */\n      dup4\n        /* \"#utility.yul\":4767:4768   */\n      dup2\n        /* \"#utility.yul\":4764:4777   */\n      lt\n        /* \"#utility.yul\":4745:5027   */\n      iszero\n      tag_380\n      jumpi\n        /* \"#utility.yul\":4846:4852   */\n      dup2\n        /* \"#utility.yul\":4840:4853   */\n      mload\n        /* \"#utility.yul\":4873:4936   */\n      tag_381\n        /* \"#utility.yul\":4932:4935   */\n      dup8\n        /* \"#utility.yul\":4917:4930   */\n      dup3\n        /* \"#utility.yul\":4873:4936   */\n      tag_321\n      jump\t// in\n    tag_381:\n        /* \"#utility.yul\":4866:4936   */\n      swap7\n      pop\n        /* \"#utility.yul\":4959:5017   */\n      tag_382\n        /* \"#utility.yul\":5010:5016   */\n      dup4\n        /* \"#utility.yul\":4959:5017   */\n      tag_383\n      jump\t// in\n    tag_382:\n        /* \"#utility.yul\":4949:5017   */\n      swap3\n      pop\n        /* \"#utility.yul\":4805:5027   */\n      pop\n        /* \"#utility.yul\":4792:4793   */\n      0x01\n        /* \"#utility.yul\":4789:4790   */\n      dup2\n        /* \"#utility.yul\":4785:4794   */\n      add\n        /* \"#utility.yul\":4780:4794   */\n      swap1\n      pop\n        /* \"#utility.yul\":4745:5027   */\n      jump(tag_378)\n    tag_380:\n        /* \"#utility.yul\":4749:4763   */\n      pop\n        /* \"#utility.yul\":4452:5034   */\n      pop\n      pop\n      pop\n      pop\n      pop\n      jump\t// out\n        /* \"#utility.yul\":5040:5406   */\n    tag_384:\n        /* \"#utility.yul\":5182:5185   */\n      0x00\n        /* \"#utility.yul\":5203:5270   */\n      tag_386\n        /* \"#utility.yul\":5267:5269   */\n      0x0f\n        /* \"#utility.yul\":5262:5265   */\n      dup4\n        /* \"#utility.yul\":5203:5270   */\n      tag_387\n      jump\t// in\n    tag_386:\n        /* \"#utility.yul\":5196:5270   */\n      swap2\n      pop\n        /* \"#utility.yul\":5279:5372   */\n      tag_388\n        /* \"#utility.yul\":5368:5371   */\n      dup3\n        /* \"#utility.yul\":5279:5372   */\n      tag_389\n      jump\t// in\n    tag_388:\n        /* \"#utility.yul\":5397:5399   */\n      0x20\n        /* \"#utility.yul\":5392:5395   */\n      dup3\n        /* \"#utility.yul\":5388:5400   */\n      add\n        /* \"#utility.yul\":5381:5400   */\n      swap1\n      pop\n        /* \"#utility.yul\":5186:5406   */\n      swap2\n      swap1\n      pop\n      jump\t// out\n        /* \"#utility.yul\":5412:5778   */\n    tag_390:\n        /* \"#utility.yul\":5554:5557   */\n      0x00\n        /* \"#utility.yul\":5575:5642   */\n      tag_392\n        /* \"#utility.yul\":5639:5641   */\n      0x21\n        /* \"#utility.yul\":5634:5637   */\n      dup4\n        /* \"#utility.yul\":5575:5642   */\n      tag_387\n      jump\t// in\n    tag_392:\n        /* \"#utility.yul\":5568:5642   */\n      swap2\n      pop\n        /* \"#utility.yul\":5651:5744   */\n      tag_393\n        /* \"#utility.yul\":5740:5743   */\n      dup3\n        /* \"#utility.yul\":5651:5744   */\n      tag_394\n      jump\t// in\n    tag_393:\n        /* \"#utility.yul\":5769:5771   */\n      0x40\n        /* \"#utility.yul\":5764:5767   */\n      dup3\n        /* \"#utility.yul\":5760:5772   */\n      add\n        /* \"#utility.yul\":5753:5772   */\n      swap1\n      pop\n        /* \"#utility.yul\":5558:5778   */\n      swap2\n      swap1\n      pop\n      jump\t// out\n        /* \"#utility.yul\":5784:6150   */\n    tag_395:\n        /* \"#utility.yul\":5926:5929   */\n      0x00\n        /* \"#utility.yul\":5947:6014   */\n      tag_397\n        /* \"#utility.yul\":6011:6013   */\n      0x23\n        /* \"#utility.yul\":6006:6009   */\n      dup4\n        /* \"#utility.yul\":5947:6014   */\n      tag_387\n      jump\t// in\n    tag_397:\n        /* \"#utility.yul\":5940:6014   */\n      swap2\n      pop\n        /* \"#utility.yul\":6023:6116   */\n      tag_398\n        /* \"#utility.yul\":6112:6115   */\n      dup3\n        /* \"#utility.yul\":6023:6116   */\n      tag_399\n      jump\t// in\n    tag_398:\n        /* \"#utility.yul\":6141:6143   */\n      0x40\n        /* \"#utility.yul\":6136:6139   */\n      dup3\n        /* \"#utility.yul\":6132:6144   */\n      add\n        /* \"#utility.yul\":6125:6144   */\n      swap1\n      pop\n        /* \"#utility.yul\":5930:6150   */\n      swap2\n      swap1\n      pop\n      jump\t// out\n        /* \"#utility.yul\":6156:6522   */\n    tag_400:\n        /* \"#utility.yul\":6298:6301   */\n      0x00\n        /* \"#utility.yul\":6319:6386   */\n      tag_402\n        /* \"#utility.yul\":6383:6385   */\n      0x10\n        /* \"#utility.yul\":6378:6381   */\n      dup4\n        /* \"#utility.yul\":6319:6386   */\n      tag_387\n      jump\t// in\n    tag_402:\n        /* \"#utility.yul\":6312:6386   */\n      swap2\n      pop\n        /* \"#utility.yul\":6395:6488   */\n      tag_403\n        /* \"#utility.yul\":6484:6487   */\n      dup3\n        /* \"#utility.yul\":6395:6488   */\n      tag_404\n      jump\t// in\n    tag_403:\n        /* \"#utility.yul\":6513:6515   */\n      0x20\n        /* \"#utility.yul\":6508:6511   */\n      dup3\n        /* \"#utility.yul\":6504:6516   */\n      add\n        /* \"#utility.yul\":6497:6516   */\n      swap1\n      pop\n        /* \"#utility.yul\":6302:6522   */\n      swap2\n      swap1\n      pop\n      jump\t// out\n        /* \"#utility.yul\":6528:6894   */\n    tag_405:\n        /* \"#utility.yul\":6670:6673   */\n      0x00\n        /* \"#utility.yul\":6691:6758   */\n      tag_407\n        /* \"#utility.yul\":6755:6757   */\n      0x11\n        /* \"#utility.yul\":6750:6753   */\n      dup4\n        /* \"#utility.yul\":6691:6758   */\n      tag_387\n      jump\t// in\n    tag_407:\n        /* \"#utility.yul\":6684:6758   */\n      swap2\n      pop\n        /* \"#utility.yul\":6767:6860   */\n      tag_408\n        /* \"#utility.yul\":6856:6859   */\n      dup3\n        /* \"#utility.yul\":6767:6860   */\n      tag_409\n      jump\t// in\n    tag_408:\n        /* \"#utility.yul\":6885:6887   */\n      0x20\n        /* \"#utility.yul\":6880:6883   */\n      dup3\n        /* \"#utility.yul\":6876:6888   */\n      add\n        /* \"#utility.yul\":6869:6888   */\n      swap1\n      pop\n        /* \"#utility.yul\":6674:6894   */\n      swap2\n      swap1\n      pop\n      jump\t// out\n        /* \"#utility.yul\":6900:7266   */\n    tag_410:\n        /* \"#utility.yul\":7042:7045   */\n      0x00\n        /* \"#utility.yul\":7063:7130   */\n      tag_412\n        /* \"#utility.yul\":7127:7129   */\n      0x17\n        /* \"#utility.yul\":7122:7125   */\n      dup4\n        /* \"#utility.yul\":7063:7130   */\n      tag_387\n      jump\t// in\n    tag_412:\n        /* \"#utility.yul\":7056:7130   */\n      swap2\n      pop\n        /* \"#utility.yul\":7139:7232   */\n      tag_413\n        /* \"#utility.yul\":7228:7231   */\n      dup3\n        /* \"#utility.yul\":7139:7232   */\n      tag_414\n      jump\t// in\n    tag_413:\n        /* \"#utility.yul\":7257:7259   */\n      0x20\n        /* \"#utility.yul\":7252:7255   */\n      dup3\n        /* \"#utility.yul\":7248:7260   */\n      add\n        /* \"#utility.yul\":7241:7260   */\n      swap1\n      pop\n        /* \"#utility.yul\":7046:7266   */\n      swap2\n      swap1\n      pop\n      jump\t// out\n        /* \"#utility.yul\":7322:8120   */\n    tag_320:\n        /* \"#utility.yul\":7419:7422   */\n      0x00\n        /* \"#utility.yul\":7455:7459   */\n      0x60\n        /* \"#utility.yul\":7450:7453   */\n      dup4\n        /* \"#utility.yul\":7446:7460   */\n      add\n        /* \"#utility.yul\":7544:7548   */\n      0x00\n        /* \"#utility.yul\":7537:7542   */\n      dup4\n        /* \"#utility.yul\":7533:7549   */\n      add\n        /* \"#utility.yul\":7527:7550   */\n      mload\n        /* \"#utility.yul\":7563:7626   */\n      tag_416\n        /* \"#utility.yul\":7620:7624   */\n      0x00\n        /* \"#utility.yul\":7615:7618   */\n      dup7\n        /* \"#utility.yul\":7611:7625   */\n      add\n        /* \"#utility.yul\":7597:7609   */\n      dup3\n        /* \"#utility.yul\":7563:7626   */\n      tag_324\n      jump\t// in\n    tag_416:\n        /* \"#utility.yul\":7470:7636   */\n      pop\n        /* \"#utility.yul\":7724:7728   */\n      0x20\n        /* \"#utility.yul\":7717:7722   */\n      dup4\n        /* \"#utility.yul\":7713:7729   */\n      add\n        /* \"#utility.yul\":7707:7730   */\n      mload\n        /* \"#utility.yul\":7777:7780   */\n      dup5\n        /* \"#utility.yul\":7771:7775   */\n      dup3\n        /* \"#utility.yul\":7767:7781   */\n      sub\n        /* \"#utility.yul\":7760:7764   */\n      0x20\n        /* \"#utility.yul\":7755:7758   */\n      dup7\n        /* \"#utility.yul\":7751:7765   */\n      add\n        /* \"#utility.yul\":7744:7782   */\n      mstore\n        /* \"#utility.yul\":7803:7906   */\n      tag_417\n        /* \"#utility.yul\":7901:7905   */\n      dup3\n        /* \"#utility.yul\":7887:7899   */\n      dup3\n        /* \"#utility.yul\":7803:7906   */\n      tag_331\n      jump\t// in\n    tag_417:\n        /* \"#utility.yul\":7795:7906   */\n      swap2\n      pop\n        /* \"#utility.yul\":7646:7917   */\n      pop\n        /* \"#utility.yul\":8001:8005   */\n      0x40\n        /* \"#utility.yul\":7994:7999   */\n      dup4\n        /* \"#utility.yul\":7990:8006   */\n      add\n        /* \"#utility.yul\":7984:8007   */\n      mload\n        /* \"#utility.yul\":8020:8083   */\n      tag_418\n        /* \"#utility.yul\":8077:8081   */\n      0x40\n        /* \"#utility.yul\":8072:8075   */\n      dup7\n        /* \"#utility.yul\":8068:8082   */\n      add\n        /* \"#utility.yul\":8054:8066   */\n      dup3\n        /* \"#utility.yul\":8020:8083   */\n      tag_316\n      jump\t// in\n    tag_418:\n        /* \"#utility.yul\":7927:8093   */\n      pop\n        /* \"#utility.yul\":8110:8114   */\n      dup1\n        /* \"#utility.yul\":8103:8114   */\n      swap2\n      pop\n        /* \"#utility.yul\":7424:8120   */\n      pop\n      swap3\n      swap2\n      pop\n      pop\n      jump\t// out\n        /* \"#utility.yul\":8180:8685   */\n    tag_419:\n        /* \"#utility.yul\":8321:8325   */\n      0x40\n        /* \"#utility.yul\":8316:8319   */\n      dup3\n        /* \"#utility.yul\":8312:8326   */\n      add\n        /* \"#utility.yul\":8412:8416   */\n      0x00\n        /* \"#utility.yul\":8405:8410   */\n      dup3\n        /* \"#utility.yul\":8401:8417   */\n      add\n        /* \"#utility.yul\":8395:8418   */\n      mload\n        /* \"#utility.yul\":8431:8494   */\n      tag_421\n        /* \"#utility.yul\":8488:8492   */\n      0x00\n        /* \"#utility.yul\":8483:8486   */\n      dup6\n        /* \"#utility.yul\":8479:8493   */\n      add\n        /* \"#utility.yul\":8465:8477   */\n      dup3\n        /* \"#utility.yul\":8431:8494   */\n      tag_324\n      jump\t// in\n    tag_421:\n        /* \"#utility.yul\":8336:8504   */\n      pop\n        /* \"#utility.yul\":8586:8590   */\n      0x20\n        /* \"#utility.yul\":8579:8584   */\n      dup3\n        /* \"#utility.yul\":8575:8591   */\n      add\n        /* \"#utility.yul\":8569:8592   */\n      mload\n        /* \"#utility.yul\":8605:8668   */\n      tag_422\n        /* \"#utility.yul\":8662:8666   */\n      0x20\n        /* \"#utility.yul\":8657:8660   */\n      dup6\n        /* \"#utility.yul\":8653:8667   */\n      add\n        /* \"#utility.yul\":8639:8651   */\n      dup3\n        /* \"#utility.yul\":8605:8668   */\n      tag_316\n      jump\t// in\n    tag_422:\n        /* \"#utility.yul\":8514:8678   */\n      pop\n        /* \"#utility.yul\":8290:8685   */\n      pop\n      pop\n      pop\n      jump\t// out\n        /* \"#utility.yul\":8691:8799   */\n    tag_324:\n        /* \"#utility.yul\":8768:8792   */\n      tag_424\n        /* \"#utility.yul\":8786:8791   */\n      dup2\n        /* \"#utility.yul\":8768:8792   */\n      tag_425\n      jump\t// in\n    tag_424:\n        /* \"#utility.yul\":8763:8766   */\n      dup3\n        /* \"#utility.yul\":8756:8793   */\n      mstore\n        /* \"#utility.yul\":8746:8799   */\n      pop\n      pop\n      jump\t// out\n        /* \"#utility.yul\":8805:8923   */\n    tag_426:\n        /* \"#utility.yul\":8892:8916   */\n      tag_428\n        /* \"#utility.yul\":8910:8915   */\n      dup2\n        /* \"#utility.yul\":8892:8916   */\n      tag_425\n      jump\t// in\n    tag_428:\n        /* \"#utility.yul\":8887:8890   */\n      dup3\n        /* \"#utility.yul\":8880:8917   */\n      mstore\n        /* \"#utility.yul\":8870:8923   */\n      pop\n      pop\n      jump\t// out\n        /* \"#utility.yul\":8929:9151   */\n    tag_27:\n        /* \"#utility.yul\":9022:9026   */\n      0x00\n        /* \"#utility.yul\":9060:9062   */\n      0x20\n        /* \"#utility.yul\":9049:9058   */\n      dup3\n        /* \"#utility.yul\":9045:9063   */\n      add\n        /* \"#utility.yul\":9037:9063   */\n      swap1\n      pop\n        /* \"#utility.yul\":9073:9144   */\n      tag_430\n        /* \"#utility.yul\":9141:9142   */\n      0x00\n        /* \"#utility.yul\":9130:9139   */\n      dup4\n        /* \"#utility.yul\":9126:9143   */\n      add\n        /* \"#utility.yul\":9117:9123   */\n      dup5\n        /* \"#utility.yul\":9073:9144   */\n      tag_328\n      jump\t// in\n    tag_430:\n        /* \"#utility.yul\":9027:9151   */\n      swap3\n      swap2\n      pop\n      pop\n      jump\t// out\n        /* \"#utility.yul\":9157:9530   */\n    tag_64:\n        /* \"#utility.yul\":9300:9304   */\n      0x00\n        /* \"#utility.yul\":9338:9340   */\n      0x20\n        /* \"#utility.yul\":9327:9336   */\n      dup3\n        /* \"#utility.yul\":9323:9341   */\n      add\n        /* \"#utility.yul\":9315:9341   */\n      swap1\n      pop\n        /* \"#utility.yul\":9387:9396   */\n      dup2\n        /* \"#utility.yul\":9381:9385   */\n      dup2\n        /* \"#utility.yul\":9377:9397   */\n      sub\n        /* \"#utility.yul\":9373:9374   */\n      0x00\n        /* \"#utility.yul\":9362:9371   */\n      dup4\n        /* \"#utility.yul\":9358:9375   */\n      add\n        /* \"#utility.yul\":9351:9398   */\n      mstore\n        /* \"#utility.yul\":9415:9523   */\n      tag_432\n        /* \"#utility.yul\":9518:9522   */\n      dup2\n        /* \"#utility.yul\":9509:9515   */\n      dup5\n        /* \"#utility.yul\":9415:9523   */\n      tag_345\n      jump\t// in\n    tag_432:\n        /* \"#utility.yul\":9407:9523   */\n      swap1\n      pop\n        /* \"#utility.yul\":9305:9530   */\n      swap3\n      swap2\n      pop\n      pop\n      jump\t// out\n        /* \"#utility.yul\":9536:9977   */\n    tag_40:\n        /* \"#utility.yul\":9713:9717   */\n      0x00\n        /* \"#utility.yul\":9751:9753   */\n      0x20\n        /* \"#utility.yul\":9740:9749   */\n      dup3\n        /* \"#utility.yul\":9736:9754   */\n      add\n        /* \"#utility.yul\":9728:9754   */\n      swap1\n      pop\n        /* \"#utility.yul\":9800:9809   */\n      dup2\n        /* \"#utility.yul\":9794:9798   */\n      dup2\n        /* \"#utility.yul\":9790:9810   */\n      sub\n        /* \"#utility.yul\":9786:9787   */\n      0x00\n        /* \"#utility.yul\":9775:9784   */\n      dup4\n        /* \"#utility.yul\":9771:9788   */\n      add\n        /* \"#utility.yul\":9764:9811   */\n      mstore\n        /* \"#utility.yul\":9828:9970   */\n      tag_434\n        /* \"#utility.yul\":9965:9969   */\n      dup2\n        /* \"#utility.yul\":9956:9962   */\n      dup5\n        /* \"#utility.yul\":9828:9970   */\n      tag_356\n      jump\t// in\n    tag_434:\n        /* \"#utility.yul\":9820:9970   */\n      swap1\n      pop\n        /* \"#utility.yul\":9718:9977   */\n      swap3\n      swap2\n      pop\n      pop\n      jump\t// out\n        /* \"#utility.yul\":9983:10297   */\n    tag_82:\n        /* \"#utility.yul\":10122:10126   */\n      0x00\n        /* \"#utility.yul\":10160:10162   */\n      0x60\n        /* \"#utility.yul\":10149:10158   */\n      dup3\n        /* \"#utility.yul\":10145:10163   */\n      add\n        /* \"#utility.yul\":10137:10163   */\n      swap1\n      pop\n        /* \"#utility.yul\":10173:10290   */\n      tag_436\n        /* \"#utility.yul\":10287:10288   */\n      0x00\n        /* \"#utility.yul\":10276:10285   */\n      dup4\n        /* \"#utility.yul\":10272:10289   */\n      add\n        /* \"#utility.yul\":10263:10269   */\n      dup5\n        /* \"#utility.yul\":10173:10290   */\n      tag_370\n      jump\t// in\n    tag_436:\n        /* \"#utility.yul\":10127:10297   */\n      swap3\n      swap2\n      pop\n      pop\n      jump\t// out\n        /* \"#utility.yul\":10303:10722   */\n    tag_138:\n        /* \"#utility.yul\":10469:10473   */\n      0x00\n        /* \"#utility.yul\":10507:10509   */\n      0x20\n        /* \"#utility.yul\":10496:10505   */\n      dup3\n        /* \"#utility.yul\":10492:10510   */\n      add\n        /* \"#utility.yul\":10484:10510   */\n      swap1\n      pop\n        /* \"#utility.yul\":10556:10565   */\n      dup2\n        /* \"#utility.yul\":10550:10554   */\n      dup2\n        /* \"#utility.yul\":10546:10566   */\n      sub\n        /* \"#utility.yul\":10542:10543   */\n      0x00\n        /* \"#utility.yul\":10531:10540   */\n      dup4\n        /* \"#utility.yul\":10527:10544   */\n      add\n        /* \"#utility.yul\":10520:10567   */\n      mstore\n        /* \"#utility.yul\":10584:10715   */\n      tag_438\n        /* \"#utility.yul\":10710:10714   */\n      dup2\n        /* \"#utility.yul\":10584:10715   */\n      tag_384\n      jump\t// in\n    tag_438:\n        /* \"#utility.yul\":10576:10715   */\n      swap1\n      pop\n        /* \"#utility.yul\":10474:10722   */\n      swap2\n      swap1\n      pop\n      jump\t// out\n        /* \"#utility.yul\":10728:11147   */\n    tag_106:\n        /* \"#utility.yul\":10894:10898   */\n      0x00\n        /* \"#utility.yul\":10932:10934   */\n      0x20\n        /* \"#utility.yul\":10921:10930   */\n      dup3\n        /* \"#utility.yul\":10917:10935   */\n      add\n        /* \"#utility.yul\":10909:10935   */\n      swap1\n      pop\n        /* \"#utility.yul\":10981:10990   */\n      dup2\n        /* \"#utility.yul\":10975:10979   */\n      dup2\n        /* \"#utility.yul\":10971:10991   */\n      sub\n        /* \"#utility.yul\":10967:10968   */\n      0x00\n        /* \"#utility.yul\":10956:10965   */\n      dup4\n        /* \"#utility.yul\":10952:10969   */\n      add\n        /* \"#utility.yul\":10945:10992   */\n      mstore\n        /* \"#utility.yul\":11009:11140   */\n      tag_440\n        /* \"#utility.yul\":11135:11139   */\n      dup2\n        /* \"#utility.yul\":11009:11140   */\n      tag_390\n      jump\t// in\n    tag_440:\n        /* \"#utility.yul\":11001:11140   */\n      swap1\n      pop\n        /* \"#utility.yul\":10899:11147   */\n      swap2\n      swap1\n      pop\n      jump\t// out\n        /* \"#utility.yul\":11153:11572   */\n    tag_141:\n        /* \"#utility.yul\":11319:11323   */\n      0x00\n        /* \"#utility.yul\":11357:11359   */\n      0x20\n        /* \"#utility.yul\":11346:11355   */\n      dup3\n        /* \"#utility.yul\":11342:11360   */\n      add\n        /* \"#utility.yul\":11334:11360   */\n      swap1\n      pop\n        /* \"#utility.yul\":11406:11415   */\n      dup2\n        /* \"#utility.yul\":11400:11404   */\n      dup2\n        /* \"#utility.yul\":11396:11416   */\n      sub\n        /* \"#utility.yul\":11392:11393   */\n      0x00\n        /* \"#utility.yul\":11381:11390   */\n      dup4\n        /* \"#utility.yul\":11377:11394   */\n      add\n        /* \"#utility.yul\":11370:11417   */\n      mstore\n        /* \"#utility.yul\":11434:11565   */\n      tag_442\n        /* \"#utility.yul\":11560:11564   */\n      dup2\n        /* \"#utility.yul\":11434:11565   */\n      tag_395\n      jump\t// in\n    tag_442:\n        /* \"#utility.yul\":11426:11565   */\n      swap1\n      pop\n        /* \"#utility.yul\":11324:11572   */\n      swap2\n      swap1\n      pop\n      jump\t// out\n        /* \"#utility.yul\":11578:11997   */\n    tag_128:\n        /* \"#utility.yul\":11744:11748   */\n      0x00\n        /* \"#utility.yul\":11782:11784   */\n      0x20\n        /* \"#utility.yul\":11771:11780   */\n      dup3\n        /* \"#utility.yul\":11767:11785   */\n      add\n        /* \"#utility.yul\":11759:11785   */\n      swap1\n      pop\n        /* \"#utility.yul\":11831:11840   */\n      dup2\n        /* \"#utility.yul\":11825:11829   */\n      dup2\n        /* \"#utility.yul\":11821:11841   */\n      sub\n        /* \"#utility.yul\":11817:11818   */\n      0x00\n        /* \"#utility.yul\":11806:11815   */\n      dup4\n        /* \"#utility.yul\":11802:11819   */\n      add\n        /* \"#utility.yul\":11795:11842   */\n      mstore\n        /* \"#utility.yul\":11859:11990   */\n      tag_444\n        /* \"#utility.yul\":11985:11989   */\n      dup2\n        /* \"#utility.yul\":11859:11990   */\n      tag_400\n      jump\t// in\n    tag_444:\n        /* \"#utility.yul\":11851:11990   */\n      swap1\n      pop\n        /* \"#utility.yul\":11749:11997   */\n      swap2\n      swap1\n      pop\n      jump\t// out\n        /* \"#utility.yul\":12003:12422   */\n    tag_134:\n        /* \"#utility.yul\":12169:12173   */\n      0x00\n        /* \"#utility.yul\":12207:12209   */\n      0x20\n        /* \"#utility.yul\":12196:12205   */\n      dup3\n        /* \"#utility.yul\":12192:12210   */\n      add\n        /* \"#utility.yul\":12184:12210   */\n      swap1\n      pop\n        /* \"#utility.yul\":12256:12265   */\n      dup2\n        /* \"#utility.yul\":12250:12254   */\n      dup2\n        /* \"#utility.yul\":12246:12266   */\n      sub\n        /* \"#utility.yul\":12242:12243   */\n      0x00\n        /* \"#utility.yul\":12231:12240   */\n      dup4\n        /* \"#utility.yul\":12227:12244   */\n      add\n        /* \"#utility.yul\":12220:12267   */\n      mstore\n        /* \"#utility.yul\":12284:12415   */\n      tag_446\n        /* \"#utility.yul\":12410:12414   */\n      dup2\n        /* \"#utility.yul\":12284:12415   */\n      tag_405\n      jump\t// in\n    tag_446:\n        /* \"#utility.yul\":12276:12415   */\n      swap1\n      pop\n        /* \"#utility.yul\":12174:12422   */\n      swap2\n      swap1\n      pop\n      jump\t// out\n        /* \"#utility.yul\":12428:12847   */\n    tag_262:\n        /* \"#utility.yul\":12594:12598   */\n      0x00\n        /* \"#utility.yul\":12632:12634   */\n      0x20\n        /* \"#utility.yul\":12621:12630   */\n      dup3\n        /* \"#utility.yul\":12617:12635   */\n      add\n        /* \"#utility.yul\":12609:12635   */\n      swap1\n      pop\n        /* \"#utility.yul\":12681:12690   */\n      dup2\n        /* \"#utility.yul\":12675:12679   */\n      dup2\n        /* \"#utility.yul\":12671:12691   */\n      sub\n        /* \"#utility.yul\":12667:12668   */\n      0x00\n        /* \"#utility.yul\":12656:12665   */\n      dup4\n        /* \"#utility.yul\":12652:12669   */\n      add\n        /* \"#utility.yul\":12645:12692   */\n      mstore\n        /* \"#utility.yul\":12709:12840   */\n      tag_448\n        /* \"#utility.yul\":12835:12839   */\n      dup2\n        /* \"#utility.yul\":12709:12840   */\n      tag_410\n      jump\t// in\n    tag_448:\n        /* \"#utility.yul\":12701:12840   */\n      swap1\n      pop\n        /* \"#utility.yul\":12599:12847   */\n      swap2\n      swap1\n      pop\n      jump\t// out\n        /* \"#utility.yul\":12853:13163   */\n    tag_56:\n        /* \"#utility.yul\":12990:12994   */\n      0x00\n        /* \"#utility.yul\":13028:13030   */\n      0x40\n        /* \"#utility.yul\":13017:13026   */\n      dup3\n        /* \"#utility.yul\":13013:13031   */\n      add\n        /* \"#utility.yul\":13005:13031   */\n      swap1\n      pop\n        /* \"#utility.yul\":13041:13156   */\n      tag_450\n        /* \"#utility.yul\":13153:13154   */\n      0x00\n        /* \"#utility.yul\":13142:13151   */\n      dup4\n        /* \"#utility.yul\":13138:13155   */\n      add\n        /* \"#utility.yul\":13129:13135   */\n      dup5\n        /* \"#utility.yul\":13041:13156   */\n      tag_419\n      jump\t// in\n    tag_450:\n        /* \"#utility.yul\":12995:13163   */\n      swap3\n      swap2\n      pop\n      pop\n      jump\t// out\n        /* \"#utility.yul\":13169:13391   */\n    tag_32:\n        /* \"#utility.yul\":13262:13266   */\n      0x00\n        /* \"#utility.yul\":13300:13302   */\n      0x20\n        /* \"#utility.yul\":13289:13298   */\n      dup3\n        /* \"#utility.yul\":13285:13303   */\n      add\n        /* \"#utility.yul\":13277:13303   */\n      swap1\n      pop\n        /* \"#utility.yul\":13313:13384   */\n      tag_452\n        /* \"#utility.yul\":13381:13382   */\n      0x00\n        /* \"#utility.yul\":13370:13379   */\n      dup4\n        /* \"#utility.yul\":13366:13383   */\n      add\n        /* \"#utility.yul\":13357:13363   */\n      dup5\n        /* \"#utility.yul\":13313:13384   */\n      tag_426\n      jump\t// in\n    tag_452:\n        /* \"#utility.yul\":13267:13391   */\n      swap3\n      swap2\n      pop\n      pop\n      jump\t// out\n        /* \"#utility.yul\":13397:13729   */\n    tag_70:\n        /* \"#utility.yul\":13518:13522   */\n      0x00\n        /* \"#utility.yul\":13556:13558   */\n      0x40\n        /* \"#utility.yul\":13545:13554   */\n      dup3\n        /* \"#utility.yul\":13541:13559   */\n      add\n        /* \"#utility.yul\":13533:13559   */\n      swap1\n      pop\n        /* \"#utility.yul\":13569:13640   */\n      tag_454\n        /* \"#utility.yul\":13637:13638   */\n      0x00\n        /* \"#utility.yul\":13626:13635   */\n      dup4\n        /* \"#utility.yul\":13622:13639   */\n      add\n        /* \"#utility.yul\":13613:13619   */\n      dup6\n        /* \"#utility.yul\":13569:13640   */\n      tag_426\n      jump\t// in\n    tag_454:\n        /* \"#utility.yul\":13650:13722   */\n      tag_455\n        /* \"#utility.yul\":13718:13720   */\n      0x20\n        /* \"#utility.yul\":13707:13716   */\n      dup4\n        /* \"#utility.yul\":13703:13721   */\n      add\n        /* \"#utility.yul\":13694:13700   */\n      dup5\n        /* \"#utility.yul\":13650:13722   */\n      tag_328\n      jump\t// in\n    tag_455:\n        /* \"#utility.yul\":13523:13729   */\n      swap4\n      swap3\n      pop\n      pop\n      pop\n      jump\t// out\n        /* \"#utility.yul\":13735:14067   */\n    tag_148:\n        /* \"#utility.yul\":13856:13860   */\n      0x00\n        /* \"#utility.yul\":13894:13896   */\n      0x40\n        /* \"#utility.yul\":13883:13892   */\n      dup3\n        /* \"#utility.yul\":13879:13897   */\n      add\n        /* \"#utility.yul\":13871:13897   */\n      swap1\n      pop\n        /* \"#utility.yul\":13907:13978   */\n      tag_457\n        /* \"#utility.yul\":13975:13976   */\n      0x00\n        /* \"#utility.yul\":13964:13973   */\n      dup4\n        /* \"#utility.yul\":13960:13977   */\n      add\n        /* \"#utility.yul\":13951:13957   */\n      dup6\n        /* \"#utility.yul\":13907:13978   */\n      tag_426\n      jump\t// in\n    tag_457:\n        /* \"#utility.yul\":13988:14060   */\n      tag_458\n        /* \"#utility.yul\":14056:14058   */\n      0x20\n        /* \"#utility.yul\":14045:14054   */\n      dup4\n        /* \"#utility.yul\":14041:14059   */\n      add\n        /* \"#utility.yul\":14032:14038   */\n      dup5\n        /* \"#utility.yul\":13988:14060   */\n      tag_426\n      jump\t// in\n    tag_458:\n        /* \"#utility.yul\":13861:14067   */\n      swap4\n      swap3\n      pop\n      pop\n      pop\n      jump\t// out\n        /* \"#utility.yul\":14073:14205   */\n    tag_338:\n        /* \"#utility.yul\":14140:14144   */\n      0x00\n        /* \"#utility.yul\":14163:14166   */\n      dup2\n        /* \"#utility.yul\":14155:14166   */\n      swap1\n      pop\n        /* \"#utility.yul\":14193:14197   */\n      0x20\n        /* \"#utility.yul\":14188:14191   */\n      dup3\n        /* \"#utility.yul\":14184:14198   */\n      add\n        /* \"#utility.yul\":14176:14198   */\n      swap1\n      pop\n        /* \"#utility.yul\":14145:14205   */\n      swap2\n      swap1\n      pop\n      jump\t// out\n        /* \"#utility.yul\":14211:14328   */\n    tag_363:\n        /* \"#utility.yul\":14295:14299   */\n      0x00\n        /* \"#utility.yul\":14318:14321   */\n      dup2\n        /* \"#utility.yul\":14310:14321   */\n      swap1\n      pop\n        /* \"#utility.yul\":14300:14328   */\n      swap2\n      swap1\n      pop\n      jump\t// out\n        /* \"#utility.yul\":14334:14432   */\n    tag_377:\n        /* \"#utility.yul\":14399:14403   */\n      0x00\n        /* \"#utility.yul\":14422:14425   */\n      dup2\n        /* \"#utility.yul\":14414:14425   */\n      swap1\n      pop\n        /* \"#utility.yul\":14404:14432   */\n      swap2\n      swap1\n      pop\n      jump\t// out\n        /* \"#utility.yul\":14438:14552   */\n    tag_334:\n        /* \"#utility.yul\":14505:14511   */\n      0x00\n        /* \"#utility.yul\":14539:14544   */\n      dup2\n        /* \"#utility.yul\":14533:14545   */\n      mload\n        /* \"#utility.yul\":14523:14545   */\n      swap1\n      pop\n        /* \"#utility.yul\":14512:14552   */\n      swap2\n      swap1\n      pop\n      jump\t// out\n        /* \"#utility.yul\":14558:14681   */\n    tag_359:\n        /* \"#utility.yul\":14642:14648   */\n      0x00\n        /* \"#utility.yul\":14670:14674   */\n      0x03\n        /* \"#utility.yul\":14660:14674   */\n      swap1\n      pop\n        /* \"#utility.yul\":14649:14681   */\n      swap2\n      swap1\n      pop\n      jump\t// out\n        /* \"#utility.yul\":14687:14791   */\n    tag_373:\n        /* \"#utility.yul\":14752:14758   */\n      0x00\n        /* \"#utility.yul\":14780:14784   */\n      0x03\n        /* \"#utility.yul\":14770:14784   */\n      swap1\n      pop\n        /* \"#utility.yul\":14759:14791   */\n      swap2\n      swap1\n      pop\n      jump\t// out\n        /* \"#utility.yul\":14797:14910   */\n    tag_344:\n        /* \"#utility.yul\":14867:14871   */\n      0x00\n        /* \"#utility.yul\":14899:14903   */\n      0x20\n        /* \"#utility.yul\":14894:14897   */\n      dup3\n        /* \"#utility.yul\":14890:14904   */\n      add\n        /* \"#utility.yul\":14882:14904   */\n      swap1\n      pop\n        /* \"#utility.yul\":14872:14910   */\n      swap2\n      swap1\n      pop\n      jump\t// out\n        /* \"#utility.yul\":14916:15046   */\n    tag_369:\n        /* \"#utility.yul\":15003:15007   */\n      0x00\n        /* \"#utility.yul\":15035:15039   */\n      0x20\n        /* \"#utility.yul\":15030:15033   */\n      dup3\n        /* \"#utility.yul\":15026:15040   */\n      add\n        /* \"#utility.yul\":15018:15040   */\n      swap1\n      pop\n        /* \"#utility.yul\":15008:15046   */\n      swap2\n      swap1\n      pop\n      jump\t// out\n        /* \"#utility.yul\":15052:15163   */\n    tag_383:\n        /* \"#utility.yul\":15120:15124   */\n      0x00\n        /* \"#utility.yul\":15152:15156   */\n      0x20\n        /* \"#utility.yul\":15147:15150   */\n      dup3\n        /* \"#utility.yul\":15143:15157   */\n      add\n        /* \"#utility.yul\":15135:15157   */\n      swap1\n      pop\n        /* \"#utility.yul\":15125:15163   */\n      swap2\n      swap1\n      pop\n      jump\t// out\n        /* \"#utility.yul\":15169:15343   */\n    tag_336:\n        /* \"#utility.yul\":15258:15269   */\n      0x00\n        /* \"#utility.yul\":15292:15298   */\n      dup3\n        /* \"#utility.yul\":15287:15290   */\n      dup3\n        /* \"#utility.yul\":15280:15299   */\n      mstore\n        /* \"#utility.yul\":15332:15336   */\n      0x20\n        /* \"#utility.yul\":15327:15330   */\n      dup3\n        /* \"#utility.yul\":15323:15337   */\n      add\n        /* \"#utility.yul\":15308:15337   */\n      swap1\n      pop\n        /* \"#utility.yul\":15270:15343   */\n      swap3\n      swap2\n      pop\n      pop\n      jump\t// out\n        /* \"#utility.yul\":15349:15533   */\n    tag_349:\n        /* \"#utility.yul\":15448:15459   */\n      0x00\n        /* \"#utility.yul\":15482:15488   */\n      dup3\n        /* \"#utility.yul\":15477:15480   */\n      dup3\n        /* \"#utility.yul\":15470:15489   */\n      mstore\n        /* \"#utility.yul\":15522:15526   */\n      0x20\n        /* \"#utility.yul\":15517:15520   */\n      dup3\n        /* \"#utility.yul\":15513:15527   */\n      add\n        /* \"#utility.yul\":15498:15527   */\n      swap1\n      pop\n        /* \"#utility.yul\":15460:15533   */\n      swap3\n      swap2\n      pop\n      pop\n      jump\t// out\n        /* \"#utility.yul\":15539:15701   */\n    tag_361:\n        /* \"#utility.yul\":15655:15666   */\n      0x00\n        /* \"#utility.yul\":15692:15695   */\n      dup2\n        /* \"#utility.yul\":15677:15695   */\n      swap1\n      pop\n        /* \"#utility.yul\":15667:15701   */\n      swap3\n      swap2\n      pop\n      pop\n      jump\t// out\n        /* \"#utility.yul\":15707:15850   */\n    tag_375:\n        /* \"#utility.yul\":15804:15815   */\n      0x00\n        /* \"#utility.yul\":15841:15844   */\n      dup2\n        /* \"#utility.yul\":15826:15844   */\n      swap1\n      pop\n        /* \"#utility.yul\":15816:15850   */\n      swap3\n      swap2\n      pop\n      pop\n      jump\t// out\n        /* \"#utility.yul\":15856:16025   */\n    tag_387:\n        /* \"#utility.yul\":15940:15951   */\n      0x00\n        /* \"#utility.yul\":15974:15980   */\n      dup3\n        /* \"#utility.yul\":15969:15972   */\n      dup3\n        /* \"#utility.yul\":15962:15981   */\n      mstore\n        /* \"#utility.yul\":16014:16018   */\n      0x20\n        /* \"#utility.yul\":16009:16012   */\n      dup3\n        /* \"#utility.yul\":16005:16019   */\n      add\n        /* \"#utility.yul\":15990:16019   */\n      swap1\n      pop\n        /* \"#utility.yul\":15952:16025   */\n      swap3\n      swap2\n      pop\n      pop\n      jump\t// out\n        /* \"#utility.yul\":16031:16216   */\n    tag_274:\n        /* \"#utility.yul\":16071:16072   */\n      0x00\n        /* \"#utility.yul\":16088:16108   */\n      tag_474\n        /* \"#utility.yul\":16106:16107   */\n      dup3\n        /* \"#utility.yul\":16088:16108   */\n      tag_425\n      jump\t// in\n    tag_474:\n        /* \"#utility.yul\":16083:16108   */\n      swap2\n      pop\n        /* \"#utility.yul\":16122:16142   */\n      tag_475\n        /* \"#utility.yul\":16140:16141   */\n      dup4\n        /* \"#utility.yul\":16122:16142   */\n      tag_425\n      jump\t// in\n    tag_475:\n        /* \"#utility.yul\":16117:16142   */\n      swap3\n      pop\n        /* \"#utility.yul\":16161:16162   */\n      dup3\n        /* \"#utility.yul\":16151:16153   */\n      tag_476\n      jumpi\n        /* \"#utility.yul\":16166:16184   */\n      tag_477\n      tag_478\n      jump\t// in\n    tag_477:\n        /* \"#utility.yul\":16151:16153   */\n    tag_476:\n        /* \"#utility.yul\":16208:16209   */\n      dup3\n        /* \"#utility.yul\":16205:16206   */\n      dup3\n        /* \"#utility.yul\":16201:16210   */\n      div\n        /* \"#utility.yul\":16196:16210   */\n      swap1\n      pop\n        /* \"#utility.yul\":16073:16216   */\n      swap3\n      swap2\n      pop\n      pop\n      jump\t// out\n        /* \"#utility.yul\":16222:16318   */\n    tag_327:\n        /* \"#utility.yul\":16259:16266   */\n      0x00\n        /* \"#utility.yul\":16288:16312   */\n      tag_480\n        /* \"#utility.yul\":16306:16311   */\n      dup3\n        /* \"#utility.yul\":16288:16312   */\n      tag_481\n      jump\t// in\n    tag_480:\n        /* \"#utility.yul\":16277:16312   */\n      swap1\n      pop\n        /* \"#utility.yul\":16267:16318   */\n      swap2\n      swap1\n      pop\n      jump\t// out\n        /* \"#utility.yul\":16324:16450   */\n    tag_481:\n        /* \"#utility.yul\":16361:16368   */\n      0x00\n        /* \"#utility.yul\":16401:16443   */\n      0xffffffffffffffffffffffffffffffffffffffff\n        /* \"#utility.yul\":16394:16399   */\n      dup3\n        /* \"#utility.yul\":16390:16444   */\n      and\n        /* \"#utility.yul\":16379:16444   */\n      swap1\n      pop\n        /* \"#utility.yul\":16369:16450   */\n      swap2\n      swap1\n      pop\n      jump\t// out\n        /* \"#utility.yul\":16456:16533   */\n    tag_425:\n        /* \"#utility.yul\":16493:16500   */\n      0x00\n        /* \"#utility.yul\":16522:16527   */\n      dup2\n        /* \"#utility.yul\":16511:16527   */\n      swap1\n      pop\n        /* \"#utility.yul\":16501:16533   */\n      swap2\n      swap1\n      pop\n      jump\t// out\n        /* \"#utility.yul\":16539:16772   */\n    tag_103:\n        /* \"#utility.yul\":16578:16581   */\n      0x00\n        /* \"#utility.yul\":16601:16625   */\n      tag_485\n        /* \"#utility.yul\":16619:16624   */\n      dup3\n        /* \"#utility.yul\":16601:16625   */\n      tag_425\n      jump\t// in\n    tag_485:\n        /* \"#utility.yul\":16592:16625   */\n      swap2\n      pop\n        /* \"#utility.yul\":16647:16713   */\n      0xffffffffffffffffffffffffffffffffffffffffffffffffffffffffffffffff\n        /* \"#utility.yul\":16640:16645   */\n      dup3\n        /* \"#utility.yul\":16637:16714   */\n      eq\n        /* \"#utility.yul\":16634:16636   */\n      iszero\n      tag_486\n      jumpi\n        /* \"#utility.yul\":16717:16735   */\n      tag_487\n      tag_488\n      jump\t// in\n    tag_487:\n        /* \"#utility.yul\":16634:16636   */\n    tag_486:\n        /* \"#utility.yul\":16764:16765   */\n      0x01\n        /* \"#utility.yul\":16757:16762   */\n      dup3\n        /* \"#utility.yul\":16753:16766   */\n      add\n        /* \"#utility.yul\":16746:16766   */\n      swap1\n      pop\n        /* \"#utility.yul\":16582:16772   */\n      swap2\n      swap1\n      pop\n      jump\t// out\n        /* \"#utility.yul\":16778:16954   */\n    tag_276:\n        /* \"#utility.yul\":16810:16811   */\n      0x00\n        /* \"#utility.yul\":16827:16847   */\n      tag_490\n        /* \"#utility.yul\":16845:16846   */\n      dup3\n        /* \"#utility.yul\":16827:16847   */\n      tag_425\n      jump\t// in\n    tag_490:\n        /* \"#utility.yul\":16822:16847   */\n      swap2\n      pop\n        /* \"#utility.yul\":16861:16881   */\n      tag_491\n        /* \"#utility.yul\":16879:16880   */\n      dup4\n        /* \"#utility.yul\":16861:16881   */\n      tag_425\n      jump\t// in\n    tag_491:\n        /* \"#utility.yul\":16856:16881   */\n      swap3\n      pop\n        /* \"#utility.yul\":16900:16901   */\n      dup3\n        /* \"#utility.yul\":16890:16892   */\n      tag_492\n      jumpi\n        /* \"#utility.yul\":16905:16923   */\n      tag_493\n      tag_478\n      jump\t// in\n    tag_493:\n        /* \"#utility.yul\":16890:16892   */\n    tag_492:\n        /* \"#utility.yul\":16946:16947   */\n      dup3\n        /* \"#utility.yul\":16943:16944   */\n      dup3\n        /* \"#utility.yul\":16939:16948   */\n      mod\n        /* \"#utility.yul\":16934:16948   */\n      swap1\n      pop\n        /* \"#utility.yul\":16812:16954   */\n      swap3\n      swap2\n      pop\n      pop\n      jump\t// out\n        /* \"#utility.yul\":16960:17140   */\n    tag_488:\n        /* \"#utility.yul\":17008:17085   */\n      0x4e487b7100000000000000000000000000000000000000000000000000000000\n        /* \"#utility.yul\":17005:17006   */\n      0x00\n        /* \"#utility.yul\":16998:17086   */\n      mstore\n        /* \"#utility.yul\":17105:17109   */\n      0x11\n        /* \"#utility.yul\":17102:17103   */\n      0x04\n        /* \"#utility.yul\":17095:17110   */\n      mstore\n        /* \"#utility.yul\":17129:17133   */\n      0x24\n        /* \"#utility.yul\":17126:17127   */\n      0x00\n        /* \"#utility.yul\":17119:17134   */\n      revert\n        /* \"#utility.yul\":17146:17326   */\n    tag_478:\n        /* \"#utility.yul\":17194:17271   */\n      0x4e487b7100000000000000000000000000000000000000000000000000000000\n        /* \"#utility.yul\":17191:17192   */\n      0x00\n        /* \"#utility.yul\":17184:17272   */\n      mstore\n        /* \"#utility.yul\":17291:17295   */\n      0x12\n        /* \"#utility.yul\":17288:17289   */\n      0x04\n        /* \"#utility.yul\":17281:17296   */\n      mstore\n        /* \"#utility.yul\":17315:17319   */\n      0x24\n        /* \"#utility.yul\":17312:17313   */\n      0x00\n        /* \"#utility.yul\":17305:17320   */\n      revert\n        /* \"#utility.yul\":17332:17497   */\n    tag_389:\n        /* \"#utility.yul\":17472:17489   */\n      0x496e76616c6964206974656d2069640000000000000000000000000000000000\n        /* \"#utility.yul\":17468:17469   */\n      0x00\n        /* \"#utility.yul\":17460:17466   */\n      dup3\n        /* \"#utility.yul\":17456:17470   */\n      add\n        /* \"#utility.yul\":17449:17490   */\n      mstore\n        /* \"#utility.yul\":17438:17497   */\n      pop\n      jump\t// out\n        /* \"#utility.yul\":17503:17723   */\n    tag_394:\n        /* \"#utility.yul\":17643:17677   */\n      0x4f6e6c79206f776e65722063616e2063616c6c20746869732066756e6374696f\n        /* \"#utility.yul\":17639:17640   */\n      0x00\n        /* \"#utility.yul\":17631:17637   */\n      dup3\n        /* \"#utility.yul\":17627:17641   */\n      add\n        /* \"#utility.yul\":17620:17678   */\n      mstore\n        /* \"#utility.yul\":17712:17715   */\n      0x6e00000000000000000000000000000000000000000000000000000000000000\n        /* \"#utility.yul\":17707:17709   */\n      0x20\n        /* \"#utility.yul\":17699:17705   */\n      dup3\n        /* \"#utility.yul\":17695:17710   */\n      add\n        /* \"#utility.yul\":17688:17716   */\n      mstore\n        /* \"#utility.yul\":17609:17723   */\n      pop\n      jump\t// out\n        /* \"#utility.yul\":17729:17951   */\n    tag_399:\n        /* \"#utility.yul\":17869:17903   */\n      0x57726f6e6720616d6f756e742c20706c656173652062696420302e3031206574\n        /* \"#utility.yul\":17865:17866   */\n      0x00\n        /* \"#utility.yul\":17857:17863   */\n      dup3\n        /* \"#utility.yul\":17853:17867   */\n      add\n        /* \"#utility.yul\":17846:17904   */\n      mstore\n        /* \"#utility.yul\":17938:17943   */\n      0x6865720000000000000000000000000000000000000000000000000000000000\n        /* \"#utility.yul\":17933:17935   */\n      0x20\n        /* \"#utility.yul\":17925:17931   */\n      dup3\n        /* \"#utility.yul\":17921:17936   */\n      add\n        /* \"#utility.yul\":17914:17944   */\n      mstore\n        /* \"#utility.yul\":17835:17951   */\n      pop\n      jump\t// out\n        /* \"#utility.yul\":17957:18123   */\n    tag_404:\n        /* \"#utility.yul\":18097:18115   */\n      0x4f776e65722063616e6e6f742062696400000000000000000000000000000000\n        /* \"#utility.yul\":18093:18094   */\n      0x00\n        /* \"#utility.yul\":18085:18091   */\n      dup3\n        /* \"#utility.yul\":18081:18095   */\n      add\n        /* \"#utility.yul\":18074:18116   */\n      mstore\n        /* \"#utility.yul\":18063:18123   */\n      pop\n      jump\t// out\n        /* \"#utility.yul\":18129:18296   */\n    tag_409:\n        /* \"#utility.yul\":18269:18288   */\n      0x4c6f74746572792068617320656e646564000000000000000000000000000000\n        /* \"#utility.yul\":18265:18266   */\n      0x00\n        /* \"#utility.yul\":18257:18263   */\n      dup3\n        /* \"#utility.yul\":18253:18267   */\n      add\n        /* \"#utility.yul\":18246:18289   */\n      mstore\n        /* \"#utility.yul\":18235:18296   */\n      pop\n      jump\t// out\n        /* \"#utility.yul\":18302:18475   */\n    tag_414:\n        /* \"#utility.yul\":18442:18467   */\n      0x57696e6e657220616c7265616479206465636c61726564000000000000000000\n        /* \"#utility.yul\":18438:18439   */\n      0x00\n        /* \"#utility.yul\":18430:18436   */\n      dup3\n        /* \"#utility.yul\":18426:18440   */\n      add\n        /* \"#utility.yul\":18419:18468   */\n      mstore\n        /* \"#utility.yul\":18408:18475   */\n      pop\n      jump\t// out\n        /* \"#utility.yul\":18481:18603   */\n    tag_302:\n        /* \"#utility.yul\":18554:18578   */\n      tag_503\n        /* \"#utility.yul\":18572:18577   */\n      dup2\n        /* \"#utility.yul\":18554:18578   */\n      tag_327\n      jump\t// in\n    tag_503:\n        /* \"#utility.yul\":18547:18552   */\n      dup2\n        /* \"#utility.yul\":18544:18579   */\n      eq\n        /* \"#utility.yul\":18534:18536   */\n      tag_504\n      jumpi\n        /* \"#utility.yul\":18593:18594   */\n      0x00\n        /* \"#utility.yul\":18590:18591   */\n      dup1\n        /* \"#utility.yul\":18583:18595   */\n      revert\n        /* \"#utility.yul\":18534:18536   */\n    tag_504:\n        /* \"#utility.yul\":18524:18603   */\n      pop\n      jump\t// out\n        /* \"#utility.yul\":18609:18731   */\n    tag_306:\n        /* \"#utility.yul\":18682:18706   */\n      tag_506\n        /* \"#utility.yul\":18700:18705   */\n      dup2\n        /* \"#utility.yul\":18682:18706   */\n      tag_425\n      jump\t// in\n    tag_506:\n        /* \"#utility.yul\":18675:18680   */\n      dup2\n        /* \"#utility.yul\":18672:18707   */\n      eq\n        /* \"#utility.yul\":18662:18664   */\n      tag_507\n      jumpi\n        /* \"#utility.yul\":18721:18722   */\n      0x00\n        /* \"#utility.yul\":18718:18719   */\n      dup1\n        /* \"#utility.yul\":18711:18723   */\n      revert\n        /* \"#utility.yul\":18662:18664   */\n    tag_507:\n        /* \"#utility.yul\":18652:18731   */\n      pop\n      jump\t// out\n\n    auxdata: 0xa2646970667358221220d774b6dc7c8e3dd7a1ee20a7efad96fbeb65d4392d190d92f90277664364616864736f6c63430008040033\n}\n",
				"bytecode": {
					"linkReferences": {},
					"object": "60806040523480156200001157600080fd5b506000339080600181540180825580915050600190039060005260206000200160009091909190916101000a81548173ffffffffffffffffffffffffffffffffffffffff021916908373ffffffffffffffffffffffffffffffffffffffff16021790555060005b60038110156200022b578060018260038110620000be577f4e487b7100000000000000000000000000000000000000000000000000000000600052603260045260246000fd5b600302016000018190555060006001826003811062000106577f4e487b7100000000000000000000000000000000000000000000000000000000600052603260045260246000fd5b6003020160020160006101000a81548173ffffffffffffffffffffffffffffffffffffffff021916908373ffffffffffffffffffffffffffffffffffffffff160217905550600067ffffffffffffffff8111156200018d577f4e487b7100000000000000000000000000000000000000000000000000000000600052604160045260246000fd5b604051908082528060200260200182016040528015620001bc5781602001602082028036833780820191505090505b5060018260038110620001f8577f4e487b7100000000000000000000000000000000000000000000000000000000600052603260045260246000fd5b6003020160010190805190602001906200021492919062000232565b5080806200022290620002ea565b91505062000078565b5062000367565b828054828255906000526020600020908101928215620002ae579160200282015b82811115620002ad5782518260006101000a81548173ffffffffffffffffffffffffffffffffffffffff021916908373ffffffffffffffffffffffffffffffffffffffff1602179055509160200191906001019062000253565b5b509050620002bd9190620002c1565b5090565b5b80821115620002dc576000816000905550600101620002c2565b5090565b6000819050919050565b6000620002f782620002e0565b91507fffffffffffffffffffffffffffffffffffffffffffffffffffffffffffffffff8214156200032d576200032c62000338565b5b600182019050919050565b7f4e487b7100000000000000000000000000000000000000000000000000000000600052601160045260246000fd5b6123a780620003776000396000f3fe6080604052600436106100f35760003560e01c80639cb8a26a1161008a578063f2fde38b11610059578063f2fde38b146102c0578063f405cd51146102e9578063ff3665c714610314578063ff7782de14610351576100f3565b80639cb8a26a14610229578063a0e67e2b14610240578063bfb231d21461026b578063d826f88f146102a9576100f3565b8063454a2ab3116100c6578063454a2ab3146101a25780637065cb48146101be57806383a9e969146101e75780638ec4dc95146101fe576100f3565b8063025e7c27146100f857806312065fe0146101355780633ccfd60b14610160578063410d59cc14610177575b600080fd5b34801561010457600080fd5b5061011f600480360381019061011a9190611ac3565b61037a565b60405161012c9190611e45565b60405180910390f35b34801561014157600080fd5b5061014a6103b9565b6040516101579190611f9a565b60405180910390f35b34801561016c57600080fd5b506101756103c1565b005b34801561018357600080fd5b5061018c610511565b6040516101999190611e82565b60405180910390f35b6101bc60048036038101906101b79190611ac3565b610651565b005b3480156101ca57600080fd5b506101e560048036038101906101e09190611a9a565b6109e5565b005b3480156101f357600080fd5b506101fc610b52565b005b34801561020a57600080fd5b50610213610c84565b6040516102209190611f7f565b60405180910390f35b34801561023557600080fd5b5061023e610cbd565b005b34801561024c57600080fd5b50610255610ddc565b6040516102629190611e60565b60405180910390f35b34801561027757600080fd5b50610292600480360381019061028d9190611ac3565b610e6a565b6040516102a0929190611fb5565b60405180910390f35b3480156102b557600080fd5b506102be610eb4565b005b3480156102cc57600080fd5b506102e760048036038101906102e29190611a9a565b611123565b005b3480156102f557600080fd5b506102fe61129d565b60405161030b9190611ea4565b60405180910390f35b34801561032057600080fd5b5061033b60048036038101906103369190611ac3565b61135b565b6040516103489190611f9a565b60405180910390f35b34801561035d57600080fd5b5061037860048036038101906103739190611ac3565b6113a9565b005b6000818154811061038a57600080fd5b906000526020600020016000915054906101000a900473ffffffffffffffffffffffffffffffffffffffff1681565b600047905090565b6000805b600080549050811015610486573373ffffffffffffffffffffffffffffffffffffffff1660008281548110610423577f4e487b7100000000000000000000000000000000000000000000000000000000600052603260045260246000fd5b9060005260206000200160009054906101000a900473ffffffffffffffffffffffffffffffffffffffff1673ffffffffffffffffffffffffffffffffffffffff1614156104735760019150610486565b808061047e90612129565b9150506103c5565b50806104c7576040517f08c379a00000000000000000000000000000000000000000000000000000000081526004016104be90611edf565b60405180910390fd5b3373ffffffffffffffffffffffffffffffffffffffff166108fc479081150290604051600060405180830381858888f1935050505015801561050d573d6000803e3d6000fd5b5050565b6105196118f2565b6001600380602002604051908101604052809291906000905b828210156106485783826003020160405180606001604052908160008201548152602001600182018054806020026020016040519081016040528092919081815260200182805480156105da57602002820191906000526020600020905b8160009054906101000a900473ffffffffffffffffffffffffffffffffffffffff1673ffffffffffffffffffffffffffffffffffffffff1681526020019060010190808311610590575b505050505081526020016002820160009054906101000a900473ffffffffffffffffffffffffffffffffffffffff1673ffffffffffffffffffffffffffffffffffffffff1673ffffffffffffffffffffffffffffffffffffffff168152505081526020019060010190610532565b50505050905090565b6000805b600080549050811015610716573373ffffffffffffffffffffffffffffffffffffffff16600082815481106106b3577f4e487b7100000000000000000000000000000000000000000000000000000000600052603260045260246000fd5b9060005260206000200160009054906101000a900473ffffffffffffffffffffffffffffffffffffffff1673ffffffffffffffffffffffffffffffffffffffff1614156107035760019150610716565b808061070e90612129565b915050610655565b508015610758576040517f08c379a000000000000000000000000000000000000000000000000000000000815260040161074f90611f1f565b60405180910390fd5b600073ffffffffffffffffffffffffffffffffffffffff16600183600381106107aa577f4e487b7100000000000000000000000000000000000000000000000000000000600052603260045260246000fd5b6003020160020160009054906101000a900473ffffffffffffffffffffffffffffffffffffffff1673ffffffffffffffffffffffffffffffffffffffff1614610828576040517f08c379a000000000000000000000000000000000000000000000000000000000815260040161081f90611f3f565b60405180910390fd5b6000821015801561083a575060028211155b610879576040517f08c379a000000000000000000000000000000000000000000000000000000000815260040161087090611ebf565b60405180910390fd5b662386f26fc1000034146108c2576040517f08c379a00000000000000000000000000000000000000000000000000000000081526004016108b990611eff565b60405180910390fd5b600182600381106108fc577f4e487b7100000000000000000000000000000000000000000000000000000000600052603260045260246000fd5b60030201600101339080600181540180825580915050600190039060005260206000200160009091909190916101000a81548173ffffffffffffffffffffffffffffffffffffffff021916908373ffffffffffffffffffffffffffffffffffffffff1602179055507fdede4a1daab1bebac072028daa0ddc0522609da9e2e73dc2cbe9ae4effd0e8da82600184600381106109c0577f4e487b7100000000000000000000000000000000000000000000000000000000600052603260045260246000fd5b60030201600101805490506040516109d9929190611fde565b60405180910390a15050565b6000805b600080549050811015610aaa573373ffffffffffffffffffffffffffffffffffffffff1660008281548110610a47577f4e487b7100000000000000000000000000000000000000000000000000000000600052603260045260246000fd5b9060005260206000200160009054906101000a900473ffffffffffffffffffffffffffffffffffffffff1673ffffffffffffffffffffffffffffffffffffffff161415610a975760019150610aaa565b8080610aa290612129565b9150506109e9565b5080610aeb576040517f08c379a0000000000000000000000000000000000000000000000000000000008152600401610ae290611edf565b60405180910390fd5b6000829080600181540180825580915050600190039060005260206000200160009091909190916101000a81548173ffffffffffffffffffffffffffffffffffffffff021916908373ffffffffffffffffffffffffffffffffffffffff1602179055505050565b6000805b600080549050811015610c17573373ffffffffffffffffffffffffffffffffffffffff1660008281548110610bb4577f4e487b7100000000000000000000000000000000000000000000000000000000600052603260045260246000fd5b9060005260206000200160009054906101000a900473ffffffffffffffffffffffffffffffffffffffff1673ffffffffffffffffffffffffffffffffffffffff161415610c045760019150610c17565b8080610c0f90612129565b915050610b56565b5080610c58576040517f08c379a0000000000000000000000000000000000000000000000000000000008152600401610c4f90611edf565b60405180910390fd5b60005b6003811015610c8057610c6d816113a9565b8080610c7890612129565b915050610c5b565b5050565b610c8c61191f565b6040518060400160405280600181526020013373ffffffffffffffffffffffffffffffffffffffff16815250905090565b6000805b600080549050811015610d82573373ffffffffffffffffffffffffffffffffffffffff1660008281548110610d1f577f4e487b7100000000000000000000000000000000000000000000000000000000600052603260045260246000fd5b9060005260206000200160009054906101000a900473ffffffffffffffffffffffffffffffffffffffff1673ffffffffffffffffffffffffffffffffffffffff161415610d6f5760019150610d82565b8080610d7a90612129565b915050610cc1565b5080610dc3576040517f08c379a0000000000000000000000000000000000000000000000000000000008152600401610dba90611edf565b60405180910390fd5b3373ffffffffffffffffffffffffffffffffffffffff16ff5b60606000805480602002602001604051908101604052809291908181526020018280548015610e6057602002820191906000526020600020905b8160009054906101000a900473ffffffffffffffffffffffffffffffffffffffff1673ffffffffffffffffffffffffffffffffffffffff1681526020019060010190808311610e16575b5050505050905090565b60018160038110610e7a57600080fd5b600302016000915090508060000154908060020160009054906101000a900473ffffffffffffffffffffffffffffffffffffffff16905082565b6000805b600080549050811015610f79573373ffffffffffffffffffffffffffffffffffffffff1660008281548110610f16577f4e487b7100000000000000000000000000000000000000000000000000000000600052603260045260246000fd5b9060005260206000200160009054906101000a900473ffffffffffffffffffffffffffffffffffffffff1673ffffffffffffffffffffffffffffffffffffffff161415610f665760019150610f79565b8080610f7190612129565b915050610eb8565b5080610fba576040517f08c379a0000000000000000000000000000000000000000000000000000000008152600401610fb190611edf565b60405180910390fd5b60005b600381101561111f57600060018260038110611002577f4e487b7100000000000000000000000000000000000000000000000000000000600052603260045260246000fd5b6003020160020160006101000a81548173ffffffffffffffffffffffffffffffffffffffff021916908373ffffffffffffffffffffffffffffffffffffffff160217905550600067ffffffffffffffff811115611088577f4e487b7100000000000000000000000000000000000000000000000000000000600052604160045260246000fd5b6040519080825280602002602001820160405280156110b65781602001602082028036833780820191505090505b50600182600381106110f1577f4e487b7100000000000000000000000000000000000000000000000000000000600052603260045260246000fd5b60030201600101908051906020019061110b92919061194f565b50808061111790612129565b915050610fbd565b5050565b6000805b6000805490508110156111e8573373ffffffffffffffffffffffffffffffffffffffff1660008281548110611185577f4e487b7100000000000000000000000000000000000000000000000000000000600052603260045260246000fd5b9060005260206000200160009054906101000a900473ffffffffffffffffffffffffffffffffffffffff1673ffffffffffffffffffffffffffffffffffffffff1614156111d557600191506111e8565b80806111e090612129565b915050611127565b5080611229576040517f08c379a000000000000000000000000000000000000000000000000000000000815260040161122090611edf565b60405180910390fd5b60008061123691906119d9565b6000829080600181540180825580915050600190039060005260206000200160009091909190916101000a81548173ffffffffffffffffffffffffffffffffffffffff021916908373ffffffffffffffffffffffffffffffffffffffff1602179055505050565b6112a56119fa565b6112ad6119fa565b60005b600381101561135357600181600381106112f3577f4e487b7100000000000000000000000000000000000000000000000000000000600052603260045260246000fd5b6003020160010180549050828260038110611337577f4e487b7100000000000000000000000000000000000000000000000000000000600052603260045260246000fd5b602002018181525050808061134b90612129565b9150506112b0565b508091505090565b600060018260038110611397577f4e487b7100000000000000000000000000000000000000000000000000000000600052603260045260246000fd5b60030201600101805490509050919050565b6000805b60008054905081101561146e573373ffffffffffffffffffffffffffffffffffffffff166000828154811061140b577f4e487b7100000000000000000000000000000000000000000000000000000000600052603260045260246000fd5b9060005260206000200160009054906101000a900473ffffffffffffffffffffffffffffffffffffffff1673ffffffffffffffffffffffffffffffffffffffff16141561145b576001915061146e565b808061146690612129565b9150506113ad565b50806114af576040517f08c379a00000000000000000000000000000000000000000000000000000000081526004016114a690611edf565b60405180910390fd5b600073ffffffffffffffffffffffffffffffffffffffff1660018360038110611501577f4e487b7100000000000000000000000000000000000000000000000000000000600052603260045260246000fd5b6003020160020160009054906101000a900473ffffffffffffffffffffffffffffffffffffffff1673ffffffffffffffffffffffffffffffffffffffff161461157f576040517f08c379a000000000000000000000000000000000000000000000000000000000815260040161157690611f5f565b60405180910390fd5b6000600183600381106115bb577f4e487b7100000000000000000000000000000000000000000000000000000000600052603260045260246000fd5b6003020160010180549050141561168c57600060018360038110611608577f4e487b7100000000000000000000000000000000000000000000000000000000600052603260045260246000fd5b6003020160020160006101000a81548173ffffffffffffffffffffffffffffffffffffffff021916908373ffffffffffffffffffffffffffffffffffffffff1602179055507f1c0e4295e0f74d135c113826815ae27019c5dfaf8a19cb1472533bcb988f5ef282600060405161167f929190611fb5565b60405180910390a16118ee565b6000600183600381106116c8577f4e487b7100000000000000000000000000000000000000000000000000000000600052603260045260246000fd5b60030201600101805490506001846003811061170d577f4e487b7100000000000000000000000000000000000000000000000000000000600052603260045260246000fd5b60030201600101805490504361172391906120bc565b61172d9190612172565b905060018360038110611769577f4e487b7100000000000000000000000000000000000000000000000000000000600052603260045260246000fd5b6003020160010181815481106117a8577f4e487b7100000000000000000000000000000000000000000000000000000000600052603260045260246000fd5b9060005260206000200160009054906101000a900473ffffffffffffffffffffffffffffffffffffffff166001846003811061180d577f4e487b7100000000000000000000000000000000000000000000000000000000600052603260045260246000fd5b6003020160020160006101000a81548173ffffffffffffffffffffffffffffffffffffffff021916908373ffffffffffffffffffffffffffffffffffffffff1602179055507f1c0e4295e0f74d135c113826815ae27019c5dfaf8a19cb1472533bcb988f5ef283600185600381106118ae577f4e487b7100000000000000000000000000000000000000000000000000000000600052603260045260246000fd5b6003020160020160009054906101000a900473ffffffffffffffffffffffffffffffffffffffff166040516118e4929190611fb5565b60405180910390a1505b5050565b60405180606001604052806003905b611909611a1c565b8152602001906001900390816119015790505090565b604051806040016040528060008152602001600073ffffffffffffffffffffffffffffffffffffffff1681525090565b8280548282559060005260206000209081019282156119c8579160200282015b828111156119c75782518260006101000a81548173ffffffffffffffffffffffffffffffffffffffff021916908373ffffffffffffffffffffffffffffffffffffffff1602179055509160200191906001019061196f565b5b5090506119d59190611a53565b5090565b50805460008255906000526020600020908101906119f79190611a53565b50565b6040518060600160405280600390602082028036833780820191505090505090565b60405180606001604052806000815260200160608152602001600073ffffffffffffffffffffffffffffffffffffffff1681525090565b5b80821115611a6c576000816000905550600101611a54565b5090565b600081359050611a7f81612343565b92915050565b600081359050611a948161235a565b92915050565b600060208284031215611aac57600080fd5b6000611aba84828501611a70565b91505092915050565b600060208284031215611ad557600080fd5b6000611ae384828501611a85565b91505092915050565b6000611af88383611b30565b60208301905092915050565b6000611b108383611da8565b905092915050565b6000611b248383611e27565b60208301905092915050565b611b39816120ed565b82525050565b611b48816120ed565b82525050565b6000611b598261202b565b611b638185612073565b9350611b6e83612007565b8060005b83811015611b9f578151611b868882611aec565b9750611b918361204c565b925050600181019050611b72565b5085935050505092915050565b6000611bb78261202b565b611bc18185612084565b9350611bcc83612007565b8060005b83811015611bfd578151611be48882611aec565b9750611bef8361204c565b925050600181019050611bd0565b5085935050505092915050565b6000611c1582612036565b611c1f8185612095565b935083602082028501611c3185612017565b8060005b85811015611c6d5784840389528151611c4e8582611b04565b9450611c5983612059565b925060208a01995050600181019050611c35565b50829750879550505050505092915050565b611c8881612041565b611c9281846120a0565b9250611c9d82612021565b8060005b83811015611cce578151611cb58782611b18565b9650611cc083612066565b925050600181019050611ca1565b505050505050565b6000611ce3600f836120ab565b9150611cee82612201565b602082019050919050565b6000611d066021836120ab565b9150611d118261222a565b604082019050919050565b6000611d296023836120ab565b9150611d3482612279565b604082019050919050565b6000611d4c6010836120ab565b9150611d57826122c8565b602082019050919050565b6000611d6f6011836120ab565b9150611d7a826122f1565b602082019050919050565b6000611d926017836120ab565b9150611d9d8261231a565b602082019050919050565b6000606083016000830151611dc06000860182611e27565b5060208301518482036020860152611dd88282611b4e565b9150506040830151611ded6040860182611b30565b508091505092915050565b604082016000820151611e0e6000850182611e27565b506020820151611e216020850182611b30565b50505050565b611e308161211f565b82525050565b611e3f8161211f565b82525050565b6000602082019050611e5a6000830184611b3f565b92915050565b60006020820190508181036000830152611e7a8184611bac565b905092915050565b60006020820190508181036000830152611e9c8184611c0a565b905092915050565b6000606082019050611eb96000830184611c7f565b92915050565b60006020820190508181036000830152611ed881611cd6565b9050919050565b60006020820190508181036000830152611ef881611cf9565b9050919050565b60006020820190508181036000830152611f1881611d1c565b9050919050565b60006020820190508181036000830152611f3881611d3f565b9050919050565b60006020820190508181036000830152611f5881611d62565b9050919050565b60006020820190508181036000830152611f7881611d85565b9050919050565b6000604082019050611f946000830184611df8565b92915050565b6000602082019050611faf6000830184611e36565b92915050565b6000604082019050611fca6000830185611e36565b611fd76020830184611b3f565b9392505050565b6000604082019050611ff36000830185611e36565b6120006020830184611e36565b9392505050565b6000819050602082019050919050565b6000819050919050565b6000819050919050565b600081519050919050565b600060039050919050565b600060039050919050565b6000602082019050919050565b6000602082019050919050565b6000602082019050919050565b600082825260208201905092915050565b600082825260208201905092915050565b600081905092915050565b600081905092915050565b600082825260208201905092915050565b60006120c78261211f565b91506120d28361211f565b9250826120e2576120e16121d2565b5b828204905092915050565b60006120f8826120ff565b9050919050565b600073ffffffffffffffffffffffffffffffffffffffff82169050919050565b6000819050919050565b60006121348261211f565b91507fffffffffffffffffffffffffffffffffffffffffffffffffffffffffffffffff821415612167576121666121a3565b5b600182019050919050565b600061217d8261211f565b91506121888361211f565b925082612198576121976121d2565b5b828206905092915050565b7f4e487b7100000000000000000000000000000000000000000000000000000000600052601160045260246000fd5b7f4e487b7100000000000000000000000000000000000000000000000000000000600052601260045260246000fd5b7f496e76616c6964206974656d2069640000000000000000000000000000000000600082015250565b7f4f6e6c79206f776e65722063616e2063616c6c20746869732066756e6374696f60008201527f6e00000000000000000000000000000000000000000000000000000000000000602082015250565b7f57726f6e6720616d6f756e742c20706c656173652062696420302e303120657460008201527f6865720000000000000000000000000000000000000000000000000000000000602082015250565b7f4f776e65722063616e6e6f742062696400000000000000000000000000000000600082015250565b7f4c6f74746572792068617320656e646564000000000000000000000000000000600082015250565b7f57696e6e657220616c7265616479206465636c61726564000000000000000000600082015250565b61234c816120ed565b811461235757600080fd5b50565b6123638161211f565b811461236e57600080fd5b5056fea2646970667358221220d774b6dc7c8e3dd7a1ee20a7efad96fbeb65d4392d190d92f90277664364616864736f6c63430008040033",
					"opcodes": "PUSH1 0x80 PUSH1 0x40 MSTORE CALLVALUE DUP1 ISZERO PUSH3 0x11 JUMPI PUSH1 0x0 DUP1 REVERT JUMPDEST POP PUSH1 0x0 CALLER SWAP1 DUP1 PUSH1 0x1 DUP2 SLOAD ADD DUP1 DUP3 SSTORE DUP1 SWAP2 POP POP PUSH1 0x1 SWAP1 SUB SWAP1 PUSH1 0x0 MSTORE PUSH1 0x20 PUSH1 0x0 KECCAK256 ADD PUSH1 0x0 SWAP1 SWAP2 SWAP1 SWAP2 SWAP1 SWAP2 PUSH2 0x100 EXP DUP2 SLOAD DUP2 PUSH20 0xFFFFFFFFFFFFFFFFFFFFFFFFFFFFFFFFFFFFFFFF MUL NOT AND SWAP1 DUP4 PUSH20 0xFFFFFFFFFFFFFFFFFFFFFFFFFFFFFFFFFFFFFFFF AND MUL OR SWAP1 SSTORE POP PUSH1 0x0 JUMPDEST PUSH1 0x3 DUP2 LT ISZERO PUSH3 0x22B JUMPI DUP1 PUSH1 0x1 DUP3 PUSH1 0x3 DUP2 LT PUSH3 0xBE JUMPI PUSH32 0x4E487B7100000000000000000000000000000000000000000000000000000000 PUSH1 0x0 MSTORE PUSH1 0x32 PUSH1 0x4 MSTORE PUSH1 0x24 PUSH1 0x0 REVERT JUMPDEST PUSH1 0x3 MUL ADD PUSH1 0x0 ADD DUP2 SWAP1 SSTORE POP PUSH1 0x0 PUSH1 0x1 DUP3 PUSH1 0x3 DUP2 LT PUSH3 0x106 JUMPI PUSH32 0x4E487B7100000000000000000000000000000000000000000000000000000000 PUSH1 0x0 MSTORE PUSH1 0x32 PUSH1 0x4 MSTORE PUSH1 0x24 PUSH1 0x0 REVERT JUMPDEST PUSH1 0x3 MUL ADD PUSH1 0x2 ADD PUSH1 0x0 PUSH2 0x100 EXP DUP2 SLOAD DUP2 PUSH20 0xFFFFFFFFFFFFFFFFFFFFFFFFFFFFFFFFFFFFFFFF MUL NOT AND SWAP1 DUP4 PUSH20 0xFFFFFFFFFFFFFFFFFFFFFFFFFFFFFFFFFFFFFFFF AND MUL OR SWAP1 SSTORE POP PUSH1 0x0 PUSH8 0xFFFFFFFFFFFFFFFF DUP2 GT ISZERO PUSH3 0x18D JUMPI PUSH32 0x4E487B7100000000000000000000000000000000000000000000000000000000 PUSH1 0x0 MSTORE PUSH1 0x41 PUSH1 0x4 MSTORE PUSH1 0x24 PUSH1 0x0 REVERT JUMPDEST PUSH1 0x40 MLOAD SWAP1 DUP1 DUP3 MSTORE DUP1 PUSH1 0x20 MUL PUSH1 0x20 ADD DUP3 ADD PUSH1 0x40 MSTORE DUP1 ISZERO PUSH3 0x1BC JUMPI DUP2 PUSH1 0x20 ADD PUSH1 0x20 DUP3 MUL DUP1 CALLDATASIZE DUP4 CALLDATACOPY DUP1 DUP3 ADD SWAP2 POP POP SWAP1 POP JUMPDEST POP PUSH1 0x1 DUP3 PUSH1 0x3 DUP2 LT PUSH3 0x1F8 JUMPI PUSH32 0x4E487B7100000000000000000000000000000000000000000000000000000000 PUSH1 0x0 MSTORE PUSH1 0x32 PUSH1 0x4 MSTORE PUSH1 0x24 PUSH1 0x0 REVERT JUMPDEST PUSH1 0x3 MUL ADD PUSH1 0x1 ADD SWAP1 DUP1 MLOAD SWAP1 PUSH1 0x20 ADD SWAP1 PUSH3 0x214 SWAP3 SWAP2 SWAP1 PUSH3 0x232 JUMP JUMPDEST POP DUP1 DUP1 PUSH3 0x222 SWAP1 PUSH3 0x2EA JUMP JUMPDEST SWAP2 POP POP PUSH3 0x78 JUMP JUMPDEST POP PUSH3 0x367 JUMP JUMPDEST DUP3 DUP1 SLOAD DUP3 DUP3 SSTORE SWAP1 PUSH1 0x0 MSTORE PUSH1 0x20 PUSH1 0x0 KECCAK256 SWAP1 DUP2 ADD SWAP3 DUP3 ISZERO PUSH3 0x2AE JUMPI SWAP2 PUSH1 0x20 MUL DUP3 ADD JUMPDEST DUP3 DUP2 GT ISZERO PUSH3 0x2AD JUMPI DUP3 MLOAD DUP3 PUSH1 0x0 PUSH2 0x100 EXP DUP2 SLOAD DUP2 PUSH20 0xFFFFFFFFFFFFFFFFFFFFFFFFFFFFFFFFFFFFFFFF MUL NOT AND SWAP1 DUP4 PUSH20 0xFFFFFFFFFFFFFFFFFFFFFFFFFFFFFFFFFFFFFFFF AND MUL OR SWAP1 SSTORE POP SWAP2 PUSH1 0x20 ADD SWAP2 SWAP1 PUSH1 0x1 ADD SWAP1 PUSH3 0x253 JUMP JUMPDEST JUMPDEST POP SWAP1 POP PUSH3 0x2BD SWAP2 SWAP1 PUSH3 0x2C1 JUMP JUMPDEST POP SWAP1 JUMP JUMPDEST JUMPDEST DUP1 DUP3 GT ISZERO PUSH3 0x2DC JUMPI PUSH1 0x0 DUP2 PUSH1 0x0 SWAP1 SSTORE POP PUSH1 0x1 ADD PUSH3 0x2C2 JUMP JUMPDEST POP SWAP1 JUMP JUMPDEST PUSH1 0x0 DUP2 SWAP1 POP SWAP2 SWAP1 POP JUMP JUMPDEST PUSH1 0x0 PUSH3 0x2F7 DUP3 PUSH3 0x2E0 JUMP JUMPDEST SWAP2 POP PUSH32 0xFFFFFFFFFFFFFFFFFFFFFFFFFFFFFFFFFFFFFFFFFFFFFFFFFFFFFFFFFFFFFFFF DUP3 EQ ISZERO PUSH3 0x32D JUMPI PUSH3 0x32C PUSH3 0x338 JUMP JUMPDEST JUMPDEST PUSH1 0x1 DUP3 ADD SWAP1 POP SWAP2 SWAP1 POP JUMP JUMPDEST PUSH32 0x4E487B7100000000000000000000000000000000000000000000000000000000 PUSH1 0x0 MSTORE PUSH1 0x11 PUSH1 0x4 MSTORE PUSH1 0x24 PUSH1 0x0 REVERT JUMPDEST PUSH2 0x23A7 DUP1 PUSH3 0x377 PUSH1 0x0 CODECOPY PUSH1 0x0 RETURN INVALID PUSH1 0x80 PUSH1 0x40 MSTORE PUSH1 0x4 CALLDATASIZE LT PUSH2 0xF3 JUMPI PUSH1 0x0 CALLDATALOAD PUSH1 0xE0 SHR DUP1 PUSH4 0x9CB8A26A GT PUSH2 0x8A JUMPI DUP1 PUSH4 0xF2FDE38B GT PUSH2 0x59 JUMPI DUP1 PUSH4 0xF2FDE38B EQ PUSH2 0x2C0 JUMPI DUP1 PUSH4 0xF405CD51 EQ PUSH2 0x2E9 JUMPI DUP1 PUSH4 0xFF3665C7 EQ PUSH2 0x314 JUMPI DUP1 PUSH4 0xFF7782DE EQ PUSH2 0x351 JUMPI PUSH2 0xF3 JUMP JUMPDEST DUP1 PUSH4 0x9CB8A26A EQ PUSH2 0x229 JUMPI DUP1 PUSH4 0xA0E67E2B EQ PUSH2 0x240 JUMPI DUP1 PUSH4 0xBFB231D2 EQ PUSH2 0x26B JUMPI DUP1 PUSH4 0xD826F88F EQ PUSH2 0x2A9 JUMPI PUSH2 0xF3 JUMP JUMPDEST DUP1 PUSH4 0x454A2AB3 GT PUSH2 0xC6 JUMPI DUP1 PUSH4 0x454A2AB3 EQ PUSH2 0x1A2 JUMPI DUP1 PUSH4 0x7065CB48 EQ PUSH2 0x1BE JUMPI DUP1 PUSH4 0x83A9E969 EQ PUSH2 0x1E7 JUMPI DUP1 PUSH4 0x8EC4DC95 EQ PUSH2 0x1FE JUMPI PUSH2 0xF3 JUMP JUMPDEST DUP1 PUSH4 0x25E7C27 EQ PUSH2 0xF8 JUMPI DUP1 PUSH4 0x12065FE0 EQ PUSH2 0x135 JUMPI DUP1 PUSH4 0x3CCFD60B EQ PUSH2 0x160 JUMPI DUP1 PUSH4 0x410D59CC EQ PUSH2 0x177 JUMPI JUMPDEST PUSH1 0x0 DUP1 REVERT JUMPDEST CALLVALUE DUP1 ISZERO PUSH2 0x104 JUMPI PUSH1 0x0 DUP1 REVERT JUMPDEST POP PUSH2 0x11F PUSH1 0x4 DUP1 CALLDATASIZE SUB DUP2 ADD SWAP1 PUSH2 0x11A SWAP2 SWAP1 PUSH2 0x1AC3 JUMP JUMPDEST PUSH2 0x37A JUMP JUMPDEST PUSH1 0x40 MLOAD PUSH2 0x12C SWAP2 SWAP1 PUSH2 0x1E45 JUMP JUMPDEST PUSH1 0x40 MLOAD DUP1 SWAP2 SUB SWAP1 RETURN JUMPDEST CALLVALUE DUP1 ISZERO PUSH2 0x141 JUMPI PUSH1 0x0 DUP1 REVERT JUMPDEST POP PUSH2 0x14A PUSH2 0x3B9 JUMP JUMPDEST PUSH1 0x40 MLOAD PUSH2 0x157 SWAP2 SWAP1 PUSH2 0x1F9A JUMP JUMPDEST PUSH1 0x40 MLOAD DUP1 SWAP2 SUB SWAP1 RETURN JUMPDEST CALLVALUE DUP1 ISZERO PUSH2 0x16C JUMPI PUSH1 0x0 DUP1 REVERT JUMPDEST POP PUSH2 0x175 PUSH2 0x3C1 JUMP JUMPDEST STOP JUMPDEST CALLVALUE DUP1 ISZERO PUSH2 0x183 JUMPI PUSH1 0x0 DUP1 REVERT JUMPDEST POP PUSH2 0x18C PUSH2 0x511 JUMP JUMPDEST PUSH1 0x40 MLOAD PUSH2 0x199 SWAP2 SWAP1 PUSH2 0x1E82 JUMP JUMPDEST PUSH1 0x40 MLOAD DUP1 SWAP2 SUB SWAP1 RETURN JUMPDEST PUSH2 0x1BC PUSH1 0x4 DUP1 CALLDATASIZE SUB DUP2 ADD SWAP1 PUSH2 0x1B7 SWAP2 SWAP1 PUSH2 0x1AC3 JUMP JUMPDEST PUSH2 0x651 JUMP JUMPDEST STOP JUMPDEST CALLVALUE DUP1 ISZERO PUSH2 0x1CA JUMPI PUSH1 0x0 DUP1 REVERT JUMPDEST POP PUSH2 0x1E5 PUSH1 0x4 DUP1 CALLDATASIZE SUB DUP2 ADD SWAP1 PUSH2 0x1E0 SWAP2 SWAP1 PUSH2 0x1A9A JUMP JUMPDEST PUSH2 0x9E5 JUMP JUMPDEST STOP JUMPDEST CALLVALUE DUP1 ISZERO PUSH2 0x1F3 JUMPI PUSH1 0x0 DUP1 REVERT JUMPDEST POP PUSH2 0x1FC PUSH2 0xB52 JUMP JUMPDEST STOP JUMPDEST CALLVALUE DUP1 ISZERO PUSH2 0x20A JUMPI PUSH1 0x0 DUP1 REVERT JUMPDEST POP PUSH2 0x213 PUSH2 0xC84 JUMP JUMPDEST PUSH1 0x40 MLOAD PUSH2 0x220 SWAP2 SWAP1 PUSH2 0x1F7F JUMP JUMPDEST PUSH1 0x40 MLOAD DUP1 SWAP2 SUB SWAP1 RETURN JUMPDEST CALLVALUE DUP1 ISZERO PUSH2 0x235 JUMPI PUSH1 0x0 DUP1 REVERT JUMPDEST POP PUSH2 0x23E PUSH2 0xCBD JUMP JUMPDEST STOP JUMPDEST CALLVALUE DUP1 ISZERO PUSH2 0x24C JUMPI PUSH1 0x0 DUP1 REVERT JUMPDEST POP PUSH2 0x255 PUSH2 0xDDC JUMP JUMPDEST PUSH1 0x40 MLOAD PUSH2 0x262 SWAP2 SWAP1 PUSH2 0x1E60 JUMP JUMPDEST PUSH1 0x40 MLOAD DUP1 SWAP2 SUB SWAP1 RETURN JUMPDEST CALLVALUE DUP1 ISZERO PUSH2 0x277 JUMPI PUSH1 0x0 DUP1 REVERT JUMPDEST POP PUSH2 0x292 PUSH1 0x4 DUP1 CALLDATASIZE SUB DUP2 ADD SWAP1 PUSH2 0x28D SWAP2 SWAP1 PUSH2 0x1AC3 JUMP JUMPDEST PUSH2 0xE6A JUMP JUMPDEST PUSH1 0x40 MLOAD PUSH2 0x2A0 SWAP3 SWAP2 SWAP1 PUSH2 0x1FB5 JUMP JUMPDEST PUSH1 0x40 MLOAD DUP1 SWAP2 SUB SWAP1 RETURN JUMPDEST CALLVALUE DUP1 ISZERO PUSH2 0x2B5 JUMPI PUSH1 0x0 DUP1 REVERT JUMPDEST POP PUSH2 0x2BE PUSH2 0xEB4 JUMP JUMPDEST STOP JUMPDEST CALLVALUE DUP1 ISZERO PUSH2 0x2CC JUMPI PUSH1 0x0 DUP1 REVERT JUMPDEST POP PUSH2 0x2E7 PUSH1 0x4 DUP1 CALLDATASIZE SUB DUP2 ADD SWAP1 PUSH2 0x2E2 SWAP2 SWAP1 PUSH2 0x1A9A JUMP JUMPDEST PUSH2 0x1123 JUMP JUMPDEST STOP JUMPDEST CALLVALUE DUP1 ISZERO PUSH2 0x2F5 JUMPI PUSH1 0x0 DUP1 REVERT JUMPDEST POP PUSH2 0x2FE PUSH2 0x129D JUMP JUMPDEST PUSH1 0x40 MLOAD PUSH2 0x30B SWAP2 SWAP1 PUSH2 0x1EA4 JUMP JUMPDEST PUSH1 0x40 MLOAD DUP1 SWAP2 SUB SWAP1 RETURN JUMPDEST CALLVALUE DUP1 ISZERO PUSH2 0x320 JUMPI PUSH1 0x0 DUP1 REVERT JUMPDEST POP PUSH2 0x33B PUSH1 0x4 DUP1 CALLDATASIZE SUB DUP2 ADD SWAP1 PUSH2 0x336 SWAP2 SWAP1 PUSH2 0x1AC3 JUMP JUMPDEST PUSH2 0x135B JUMP JUMPDEST PUSH1 0x40 MLOAD PUSH2 0x348 SWAP2 SWAP1 PUSH2 0x1F9A JUMP JUMPDEST PUSH1 0x40 MLOAD DUP1 SWAP2 SUB SWAP1 RETURN JUMPDEST CALLVALUE DUP1 ISZERO PUSH2 0x35D JUMPI PUSH1 0x0 DUP1 REVERT JUMPDEST POP PUSH2 0x378 PUSH1 0x4 DUP1 CALLDATASIZE SUB DUP2 ADD SWAP1 PUSH2 0x373 SWAP2 SWAP1 PUSH2 0x1AC3 JUMP JUMPDEST PUSH2 0x13A9 JUMP JUMPDEST STOP JUMPDEST PUSH1 0x0 DUP2 DUP2 SLOAD DUP2 LT PUSH2 0x38A JUMPI PUSH1 0x0 DUP1 REVERT JUMPDEST SWAP1 PUSH1 0x0 MSTORE PUSH1 0x20 PUSH1 0x0 KECCAK256 ADD PUSH1 0x0 SWAP2 POP SLOAD SWAP1 PUSH2 0x100 EXP SWAP1 DIV PUSH20 0xFFFFFFFFFFFFFFFFFFFFFFFFFFFFFFFFFFFFFFFF AND DUP2 JUMP JUMPDEST PUSH1 0x0 SELFBALANCE SWAP1 POP SWAP1 JUMP JUMPDEST PUSH1 0x0 DUP1 JUMPDEST PUSH1 0x0 DUP1 SLOAD SWAP1 POP DUP2 LT ISZERO PUSH2 0x486 JUMPI CALLER PUSH20 0xFFFFFFFFFFFFFFFFFFFFFFFFFFFFFFFFFFFFFFFF AND PUSH1 0x0 DUP3 DUP2 SLOAD DUP2 LT PUSH2 0x423 JUMPI PUSH32 0x4E487B7100000000000000000000000000000000000000000000000000000000 PUSH1 0x0 MSTORE PUSH1 0x32 PUSH1 0x4 MSTORE PUSH1 0x24 PUSH1 0x0 REVERT JUMPDEST SWAP1 PUSH1 0x0 MSTORE PUSH1 0x20 PUSH1 0x0 KECCAK256 ADD PUSH1 0x0 SWAP1 SLOAD SWAP1 PUSH2 0x100 EXP SWAP1 DIV PUSH20 0xFFFFFFFFFFFFFFFFFFFFFFFFFFFFFFFFFFFFFFFF AND PUSH20 0xFFFFFFFFFFFFFFFFFFFFFFFFFFFFFFFFFFFFFFFF AND EQ ISZERO PUSH2 0x473 JUMPI PUSH1 0x1 SWAP2 POP PUSH2 0x486 JUMP JUMPDEST DUP1 DUP1 PUSH2 0x47E SWAP1 PUSH2 0x2129 JUMP JUMPDEST SWAP2 POP POP PUSH2 0x3C5 JUMP JUMPDEST POP DUP1 PUSH2 0x4C7 JUMPI PUSH1 0x40 MLOAD PUSH32 0x8C379A000000000000000000000000000000000000000000000000000000000 DUP2 MSTORE PUSH1 0x4 ADD PUSH2 0x4BE SWAP1 PUSH2 0x1EDF JUMP JUMPDEST PUSH1 0x40 MLOAD DUP1 SWAP2 SUB SWAP1 REVERT JUMPDEST CALLER PUSH20 0xFFFFFFFFFFFFFFFFFFFFFFFFFFFFFFFFFFFFFFFF AND PUSH2 0x8FC SELFBALANCE SWAP1 DUP2 ISZERO MUL SWAP1 PUSH1 0x40 MLOAD PUSH1 0x0 PUSH1 0x40 MLOAD DUP1 DUP4 SUB DUP2 DUP6 DUP9 DUP9 CALL SWAP4 POP POP POP POP ISZERO DUP1 ISZERO PUSH2 0x50D JUMPI RETURNDATASIZE PUSH1 0x0 DUP1 RETURNDATACOPY RETURNDATASIZE PUSH1 0x0 REVERT JUMPDEST POP POP JUMP JUMPDEST PUSH2 0x519 PUSH2 0x18F2 JUMP JUMPDEST PUSH1 0x1 PUSH1 0x3 DUP1 PUSH1 0x20 MUL PUSH1 0x40 MLOAD SWAP1 DUP2 ADD PUSH1 0x40 MSTORE DUP1 SWAP3 SWAP2 SWAP1 PUSH1 0x0 SWAP1 JUMPDEST DUP3 DUP3 LT ISZERO PUSH2 0x648 JUMPI DUP4 DUP3 PUSH1 0x3 MUL ADD PUSH1 0x40 MLOAD DUP1 PUSH1 0x60 ADD PUSH1 0x40 MSTORE SWAP1 DUP2 PUSH1 0x0 DUP3 ADD SLOAD DUP2 MSTORE PUSH1 0x20 ADD PUSH1 0x1 DUP3 ADD DUP1 SLOAD DUP1 PUSH1 0x20 MUL PUSH1 0x20 ADD PUSH1 0x40 MLOAD SWAP1 DUP2 ADD PUSH1 0x40 MSTORE DUP1 SWAP3 SWAP2 SWAP1 DUP2 DUP2 MSTORE PUSH1 0x20 ADD DUP3 DUP1 SLOAD DUP1 ISZERO PUSH2 0x5DA JUMPI PUSH1 0x20 MUL DUP3 ADD SWAP2 SWAP1 PUSH1 0x0 MSTORE PUSH1 0x20 PUSH1 0x0 KECCAK256 SWAP1 JUMPDEST DUP2 PUSH1 0x0 SWAP1 SLOAD SWAP1 PUSH2 0x100 EXP SWAP1 DIV PUSH20 0xFFFFFFFFFFFFFFFFFFFFFFFFFFFFFFFFFFFFFFFF AND PUSH20 0xFFFFFFFFFFFFFFFFFFFFFFFFFFFFFFFFFFFFFFFF AND DUP2 MSTORE PUSH1 0x20 ADD SWAP1 PUSH1 0x1 ADD SWAP1 DUP1 DUP4 GT PUSH2 0x590 JUMPI JUMPDEST POP POP POP POP POP DUP2 MSTORE PUSH1 0x20 ADD PUSH1 0x2 DUP3 ADD PUSH1 0x0 SWAP1 SLOAD SWAP1 PUSH2 0x100 EXP SWAP1 DIV PUSH20 0xFFFFFFFFFFFFFFFFFFFFFFFFFFFFFFFFFFFFFFFF AND PUSH20 0xFFFFFFFFFFFFFFFFFFFFFFFFFFFFFFFFFFFFFFFF AND PUSH20 0xFFFFFFFFFFFFFFFFFFFFFFFFFFFFFFFFFFFFFFFF AND DUP2 MSTORE POP POP DUP2 MSTORE PUSH1 0x20 ADD SWAP1 PUSH1 0x1 ADD SWAP1 PUSH2 0x532 JUMP JUMPDEST POP POP POP POP SWAP1 POP SWAP1 JUMP JUMPDEST PUSH1 0x0 DUP1 JUMPDEST PUSH1 0x0 DUP1 SLOAD SWAP1 POP DUP2 LT ISZERO PUSH2 0x716 JUMPI CALLER PUSH20 0xFFFFFFFFFFFFFFFFFFFFFFFFFFFFFFFFFFFFFFFF AND PUSH1 0x0 DUP3 DUP2 SLOAD DUP2 LT PUSH2 0x6B3 JUMPI PUSH32 0x4E487B7100000000000000000000000000000000000000000000000000000000 PUSH1 0x0 MSTORE PUSH1 0x32 PUSH1 0x4 MSTORE PUSH1 0x24 PUSH1 0x0 REVERT JUMPDEST SWAP1 PUSH1 0x0 MSTORE PUSH1 0x20 PUSH1 0x0 KECCAK256 ADD PUSH1 0x0 SWAP1 SLOAD SWAP1 PUSH2 0x100 EXP SWAP1 DIV PUSH20 0xFFFFFFFFFFFFFFFFFFFFFFFFFFFFFFFFFFFFFFFF AND PUSH20 0xFFFFFFFFFFFFFFFFFFFFFFFFFFFFFFFFFFFFFFFF AND EQ ISZERO PUSH2 0x703 JUMPI PUSH1 0x1 SWAP2 POP PUSH2 0x716 JUMP JUMPDEST DUP1 DUP1 PUSH2 0x70E SWAP1 PUSH2 0x2129 JUMP JUMPDEST SWAP2 POP POP PUSH2 0x655 JUMP JUMPDEST POP DUP1 ISZERO PUSH2 0x758 JUMPI PUSH1 0x40 MLOAD PUSH32 0x8C379A000000000000000000000000000000000000000000000000000000000 DUP2 MSTORE PUSH1 0x4 ADD PUSH2 0x74F SWAP1 PUSH2 0x1F1F JUMP JUMPDEST PUSH1 0x40 MLOAD DUP1 SWAP2 SUB SWAP1 REVERT JUMPDEST PUSH1 0x0 PUSH20 0xFFFFFFFFFFFFFFFFFFFFFFFFFFFFFFFFFFFFFFFF AND PUSH1 0x1 DUP4 PUSH1 0x3 DUP2 LT PUSH2 0x7AA JUMPI PUSH32 0x4E487B7100000000000000000000000000000000000000000000000000000000 PUSH1 0x0 MSTORE PUSH1 0x32 PUSH1 0x4 MSTORE PUSH1 0x24 PUSH1 0x0 REVERT JUMPDEST PUSH1 0x3 MUL ADD PUSH1 0x2 ADD PUSH1 0x0 SWAP1 SLOAD SWAP1 PUSH2 0x100 EXP SWAP1 DIV PUSH20 0xFFFFFFFFFFFFFFFFFFFFFFFFFFFFFFFFFFFFFFFF AND PUSH20 0xFFFFFFFFFFFFFFFFFFFFFFFFFFFFFFFFFFFFFFFF AND EQ PUSH2 0x828 JUMPI PUSH1 0x40 MLOAD PUSH32 0x8C379A000000000000000000000000000000000000000000000000000000000 DUP2 MSTORE PUSH1 0x4 ADD PUSH2 0x81F SWAP1 PUSH2 0x1F3F JUMP JUMPDEST PUSH1 0x40 MLOAD DUP1 SWAP2 SUB SWAP1 REVERT JUMPDEST PUSH1 0x0 DUP3 LT ISZERO DUP1 ISZERO PUSH2 0x83A JUMPI POP PUSH1 0x2 DUP3 GT ISZERO JUMPDEST PUSH2 0x879 JUMPI PUSH1 0x40 MLOAD PUSH32 0x8C379A000000000000000000000000000000000000000000000000000000000 DUP2 MSTORE PUSH1 0x4 ADD PUSH2 0x870 SWAP1 PUSH2 0x1EBF JUMP JUMPDEST PUSH1 0x40 MLOAD DUP1 SWAP2 SUB SWAP1 REVERT JUMPDEST PUSH7 0x2386F26FC10000 CALLVALUE EQ PUSH2 0x8C2 JUMPI PUSH1 0x40 MLOAD PUSH32 0x8C379A000000000000000000000000000000000000000000000000000000000 DUP2 MSTORE PUSH1 0x4 ADD PUSH2 0x8B9 SWAP1 PUSH2 0x1EFF JUMP JUMPDEST PUSH1 0x40 MLOAD DUP1 SWAP2 SUB SWAP1 REVERT JUMPDEST PUSH1 0x1 DUP3 PUSH1 0x3 DUP2 LT PUSH2 0x8FC JUMPI PUSH32 0x4E487B7100000000000000000000000000000000000000000000000000000000 PUSH1 0x0 MSTORE PUSH1 0x32 PUSH1 0x4 MSTORE PUSH1 0x24 PUSH1 0x0 REVERT JUMPDEST PUSH1 0x3 MUL ADD PUSH1 0x1 ADD CALLER SWAP1 DUP1 PUSH1 0x1 DUP2 SLOAD ADD DUP1 DUP3 SSTORE DUP1 SWAP2 POP POP PUSH1 0x1 SWAP1 SUB SWAP1 PUSH1 0x0 MSTORE PUSH1 0x20 PUSH1 0x0 KECCAK256 ADD PUSH1 0x0 SWAP1 SWAP2 SWAP1 SWAP2 SWAP1 SWAP2 PUSH2 0x100 EXP DUP2 SLOAD DUP2 PUSH20 0xFFFFFFFFFFFFFFFFFFFFFFFFFFFFFFFFFFFFFFFF MUL NOT AND SWAP1 DUP4 PUSH20 0xFFFFFFFFFFFFFFFFFFFFFFFFFFFFFFFFFFFFFFFF AND MUL OR SWAP1 SSTORE POP PUSH32 0xDEDE4A1DAAB1BEBAC072028DAA0DDC0522609DA9E2E73DC2CBE9AE4EFFD0E8DA DUP3 PUSH1 0x1 DUP5 PUSH1 0x3 DUP2 LT PUSH2 0x9C0 JUMPI PUSH32 0x4E487B7100000000000000000000000000000000000000000000000000000000 PUSH1 0x0 MSTORE PUSH1 0x32 PUSH1 0x4 MSTORE PUSH1 0x24 PUSH1 0x0 REVERT JUMPDEST PUSH1 0x3 MUL ADD PUSH1 0x1 ADD DUP1 SLOAD SWAP1 POP PUSH1 0x40 MLOAD PUSH2 0x9D9 SWAP3 SWAP2 SWAP1 PUSH2 0x1FDE JUMP JUMPDEST PUSH1 0x40 MLOAD DUP1 SWAP2 SUB SWAP1 LOG1 POP POP JUMP JUMPDEST PUSH1 0x0 DUP1 JUMPDEST PUSH1 0x0 DUP1 SLOAD SWAP1 POP DUP2 LT ISZERO PUSH2 0xAAA JUMPI CALLER PUSH20 0xFFFFFFFFFFFFFFFFFFFFFFFFFFFFFFFFFFFFFFFF AND PUSH1 0x0 DUP3 DUP2 SLOAD DUP2 LT PUSH2 0xA47 JUMPI PUSH32 0x4E487B7100000000000000000000000000000000000000000000000000000000 PUSH1 0x0 MSTORE PUSH1 0x32 PUSH1 0x4 MSTORE PUSH1 0x24 PUSH1 0x0 REVERT JUMPDEST SWAP1 PUSH1 0x0 MSTORE PUSH1 0x20 PUSH1 0x0 KECCAK256 ADD PUSH1 0x0 SWAP1 SLOAD SWAP1 PUSH2 0x100 EXP SWAP1 DIV PUSH20 0xFFFFFFFFFFFFFFFFFFFFFFFFFFFFFFFFFFFFFFFF AND PUSH20 0xFFFFFFFFFFFFFFFFFFFFFFFFFFFFFFFFFFFFFFFF AND EQ ISZERO PUSH2 0xA97 JUMPI PUSH1 0x1 SWAP2 POP PUSH2 0xAAA JUMP JUMPDEST DUP1 DUP1 PUSH2 0xAA2 SWAP1 PUSH2 0x2129 JUMP JUMPDEST SWAP2 POP POP PUSH2 0x9E9 JUMP JUMPDEST POP DUP1 PUSH2 0xAEB JUMPI PUSH1 0x40 MLOAD PUSH32 0x8C379A000000000000000000000000000000000000000000000000000000000 DUP2 MSTORE PUSH1 0x4 ADD PUSH2 0xAE2 SWAP1 PUSH2 0x1EDF JUMP JUMPDEST PUSH1 0x40 MLOAD DUP1 SWAP2 SUB SWAP1 REVERT JUMPDEST PUSH1 0x0 DUP3 SWAP1 DUP1 PUSH1 0x1 DUP2 SLOAD ADD DUP1 DUP3 SSTORE DUP1 SWAP2 POP POP PUSH1 0x1 SWAP1 SUB SWAP1 PUSH1 0x0 MSTORE PUSH1 0x20 PUSH1 0x0 KECCAK256 ADD PUSH1 0x0 SWAP1 SWAP2 SWAP1 SWAP2 SWAP1 SWAP2 PUSH2 0x100 EXP DUP2 SLOAD DUP2 PUSH20 0xFFFFFFFFFFFFFFFFFFFFFFFFFFFFFFFFFFFFFFFF MUL NOT AND SWAP1 DUP4 PUSH20 0xFFFFFFFFFFFFFFFFFFFFFFFFFFFFFFFFFFFFFFFF AND MUL OR SWAP1 SSTORE POP POP POP JUMP JUMPDEST PUSH1 0x0 DUP1 JUMPDEST PUSH1 0x0 DUP1 SLOAD SWAP1 POP DUP2 LT ISZERO PUSH2 0xC17 JUMPI CALLER PUSH20 0xFFFFFFFFFFFFFFFFFFFFFFFFFFFFFFFFFFFFFFFF AND PUSH1 0x0 DUP3 DUP2 SLOAD DUP2 LT PUSH2 0xBB4 JUMPI PUSH32 0x4E487B7100000000000000000000000000000000000000000000000000000000 PUSH1 0x0 MSTORE PUSH1 0x32 PUSH1 0x4 MSTORE PUSH1 0x24 PUSH1 0x0 REVERT JUMPDEST SWAP1 PUSH1 0x0 MSTORE PUSH1 0x20 PUSH1 0x0 KECCAK256 ADD PUSH1 0x0 SWAP1 SLOAD SWAP1 PUSH2 0x100 EXP SWAP1 DIV PUSH20 0xFFFFFFFFFFFFFFFFFFFFFFFFFFFFFFFFFFFFFFFF AND PUSH20 0xFFFFFFFFFFFFFFFFFFFFFFFFFFFFFFFFFFFFFFFF AND EQ ISZERO PUSH2 0xC04 JUMPI PUSH1 0x1 SWAP2 POP PUSH2 0xC17 JUMP JUMPDEST DUP1 DUP1 PUSH2 0xC0F SWAP1 PUSH2 0x2129 JUMP JUMPDEST SWAP2 POP POP PUSH2 0xB56 JUMP JUMPDEST POP DUP1 PUSH2 0xC58 JUMPI PUSH1 0x40 MLOAD PUSH32 0x8C379A000000000000000000000000000000000000000000000000000000000 DUP2 MSTORE PUSH1 0x4 ADD PUSH2 0xC4F SWAP1 PUSH2 0x1EDF JUMP JUMPDEST PUSH1 0x40 MLOAD DUP1 SWAP2 SUB SWAP1 REVERT JUMPDEST PUSH1 0x0 JUMPDEST PUSH1 0x3 DUP2 LT ISZERO PUSH2 0xC80 JUMPI PUSH2 0xC6D DUP2 PUSH2 0x13A9 JUMP JUMPDEST DUP1 DUP1 PUSH2 0xC78 SWAP1 PUSH2 0x2129 JUMP JUMPDEST SWAP2 POP POP PUSH2 0xC5B JUMP JUMPDEST POP POP JUMP JUMPDEST PUSH2 0xC8C PUSH2 0x191F JUMP JUMPDEST PUSH1 0x40 MLOAD DUP1 PUSH1 0x40 ADD PUSH1 0x40 MSTORE DUP1 PUSH1 0x1 DUP2 MSTORE PUSH1 0x20 ADD CALLER PUSH20 0xFFFFFFFFFFFFFFFFFFFFFFFFFFFFFFFFFFFFFFFF AND DUP2 MSTORE POP SWAP1 POP SWAP1 JUMP JUMPDEST PUSH1 0x0 DUP1 JUMPDEST PUSH1 0x0 DUP1 SLOAD SWAP1 POP DUP2 LT ISZERO PUSH2 0xD82 JUMPI CALLER PUSH20 0xFFFFFFFFFFFFFFFFFFFFFFFFFFFFFFFFFFFFFFFF AND PUSH1 0x0 DUP3 DUP2 SLOAD DUP2 LT PUSH2 0xD1F JUMPI PUSH32 0x4E487B7100000000000000000000000000000000000000000000000000000000 PUSH1 0x0 MSTORE PUSH1 0x32 PUSH1 0x4 MSTORE PUSH1 0x24 PUSH1 0x0 REVERT JUMPDEST SWAP1 PUSH1 0x0 MSTORE PUSH1 0x20 PUSH1 0x0 KECCAK256 ADD PUSH1 0x0 SWAP1 SLOAD SWAP1 PUSH2 0x100 EXP SWAP1 DIV PUSH20 0xFFFFFFFFFFFFFFFFFFFFFFFFFFFFFFFFFFFFFFFF AND PUSH20 0xFFFFFFFFFFFFFFFFFFFFFFFFFFFFFFFFFFFFFFFF AND EQ ISZERO PUSH2 0xD6F JUMPI PUSH1 0x1 SWAP2 POP PUSH2 0xD82 JUMP JUMPDEST DUP1 DUP1 PUSH2 0xD7A SWAP1 PUSH2 0x2129 JUMP JUMPDEST SWAP2 POP POP PUSH2 0xCC1 JUMP JUMPDEST POP DUP1 PUSH2 0xDC3 JUMPI PUSH1 0x40 MLOAD PUSH32 0x8C379A000000000000000000000000000000000000000000000000000000000 DUP2 MSTORE PUSH1 0x4 ADD PUSH2 0xDBA SWAP1 PUSH2 0x1EDF JUMP JUMPDEST PUSH1 0x40 MLOAD DUP1 SWAP2 SUB SWAP1 REVERT JUMPDEST CALLER PUSH20 0xFFFFFFFFFFFFFFFFFFFFFFFFFFFFFFFFFFFFFFFF AND SELFDESTRUCT JUMPDEST PUSH1 0x60 PUSH1 0x0 DUP1 SLOAD DUP1 PUSH1 0x20 MUL PUSH1 0x20 ADD PUSH1 0x40 MLOAD SWAP1 DUP2 ADD PUSH1 0x40 MSTORE DUP1 SWAP3 SWAP2 SWAP1 DUP2 DUP2 MSTORE PUSH1 0x20 ADD DUP3 DUP1 SLOAD DUP1 ISZERO PUSH2 0xE60 JUMPI PUSH1 0x20 MUL DUP3 ADD SWAP2 SWAP1 PUSH1 0x0 MSTORE PUSH1 0x20 PUSH1 0x0 KECCAK256 SWAP1 JUMPDEST DUP2 PUSH1 0x0 SWAP1 SLOAD SWAP1 PUSH2 0x100 EXP SWAP1 DIV PUSH20 0xFFFFFFFFFFFFFFFFFFFFFFFFFFFFFFFFFFFFFFFF AND PUSH20 0xFFFFFFFFFFFFFFFFFFFFFFFFFFFFFFFFFFFFFFFF AND DUP2 MSTORE PUSH1 0x20 ADD SWAP1 PUSH1 0x1 ADD SWAP1 DUP1 DUP4 GT PUSH2 0xE16 JUMPI JUMPDEST POP POP POP POP POP SWAP1 POP SWAP1 JUMP JUMPDEST PUSH1 0x1 DUP2 PUSH1 0x3 DUP2 LT PUSH2 0xE7A JUMPI PUSH1 0x0 DUP1 REVERT JUMPDEST PUSH1 0x3 MUL ADD PUSH1 0x0 SWAP2 POP SWAP1 POP DUP1 PUSH1 0x0 ADD SLOAD SWAP1 DUP1 PUSH1 0x2 ADD PUSH1 0x0 SWAP1 SLOAD SWAP1 PUSH2 0x100 EXP SWAP1 DIV PUSH20 0xFFFFFFFFFFFFFFFFFFFFFFFFFFFFFFFFFFFFFFFF AND SWAP1 POP DUP3 JUMP JUMPDEST PUSH1 0x0 DUP1 JUMPDEST PUSH1 0x0 DUP1 SLOAD SWAP1 POP DUP2 LT ISZERO PUSH2 0xF79 JUMPI CALLER PUSH20 0xFFFFFFFFFFFFFFFFFFFFFFFFFFFFFFFFFFFFFFFF AND PUSH1 0x0 DUP3 DUP2 SLOAD DUP2 LT PUSH2 0xF16 JUMPI PUSH32 0x4E487B7100000000000000000000000000000000000000000000000000000000 PUSH1 0x0 MSTORE PUSH1 0x32 PUSH1 0x4 MSTORE PUSH1 0x24 PUSH1 0x0 REVERT JUMPDEST SWAP1 PUSH1 0x0 MSTORE PUSH1 0x20 PUSH1 0x0 KECCAK256 ADD PUSH1 0x0 SWAP1 SLOAD SWAP1 PUSH2 0x100 EXP SWAP1 DIV PUSH20 0xFFFFFFFFFFFFFFFFFFFFFFFFFFFFFFFFFFFFFFFF AND PUSH20 0xFFFFFFFFFFFFFFFFFFFFFFFFFFFFFFFFFFFFFFFF AND EQ ISZERO PUSH2 0xF66 JUMPI PUSH1 0x1 SWAP2 POP PUSH2 0xF79 JUMP JUMPDEST DUP1 DUP1 PUSH2 0xF71 SWAP1 PUSH2 0x2129 JUMP JUMPDEST SWAP2 POP POP PUSH2 0xEB8 JUMP JUMPDEST POP DUP1 PUSH2 0xFBA JUMPI PUSH1 0x40 MLOAD PUSH32 0x8C379A000000000000000000000000000000000000000000000000000000000 DUP2 MSTORE PUSH1 0x4 ADD PUSH2 0xFB1 SWAP1 PUSH2 0x1EDF JUMP JUMPDEST PUSH1 0x40 MLOAD DUP1 SWAP2 SUB SWAP1 REVERT JUMPDEST PUSH1 0x0 JUMPDEST PUSH1 0x3 DUP2 LT ISZERO PUSH2 0x111F JUMPI PUSH1 0x0 PUSH1 0x1 DUP3 PUSH1 0x3 DUP2 LT PUSH2 0x1002 JUMPI PUSH32 0x4E487B7100000000000000000000000000000000000000000000000000000000 PUSH1 0x0 MSTORE PUSH1 0x32 PUSH1 0x4 MSTORE PUSH1 0x24 PUSH1 0x0 REVERT JUMPDEST PUSH1 0x3 MUL ADD PUSH1 0x2 ADD PUSH1 0x0 PUSH2 0x100 EXP DUP2 SLOAD DUP2 PUSH20 0xFFFFFFFFFFFFFFFFFFFFFFFFFFFFFFFFFFFFFFFF MUL NOT AND SWAP1 DUP4 PUSH20 0xFFFFFFFFFFFFFFFFFFFFFFFFFFFFFFFFFFFFFFFF AND MUL OR SWAP1 SSTORE POP PUSH1 0x0 PUSH8 0xFFFFFFFFFFFFFFFF DUP2 GT ISZERO PUSH2 0x1088 JUMPI PUSH32 0x4E487B7100000000000000000000000000000000000000000000000000000000 PUSH1 0x0 MSTORE PUSH1 0x41 PUSH1 0x4 MSTORE PUSH1 0x24 PUSH1 0x0 REVERT JUMPDEST PUSH1 0x40 MLOAD SWAP1 DUP1 DUP3 MSTORE DUP1 PUSH1 0x20 MUL PUSH1 0x20 ADD DUP3 ADD PUSH1 0x40 MSTORE DUP1 ISZERO PUSH2 0x10B6 JUMPI DUP2 PUSH1 0x20 ADD PUSH1 0x20 DUP3 MUL DUP1 CALLDATASIZE DUP4 CALLDATACOPY DUP1 DUP3 ADD SWAP2 POP POP SWAP1 POP JUMPDEST POP PUSH1 0x1 DUP3 PUSH1 0x3 DUP2 LT PUSH2 0x10F1 JUMPI PUSH32 0x4E487B7100000000000000000000000000000000000000000000000000000000 PUSH1 0x0 MSTORE PUSH1 0x32 PUSH1 0x4 MSTORE PUSH1 0x24 PUSH1 0x0 REVERT JUMPDEST PUSH1 0x3 MUL ADD PUSH1 0x1 ADD SWAP1 DUP1 MLOAD SWAP1 PUSH1 0x20 ADD SWAP1 PUSH2 0x110B SWAP3 SWAP2 SWAP1 PUSH2 0x194F JUMP JUMPDEST POP DUP1 DUP1 PUSH2 0x1117 SWAP1 PUSH2 0x2129 JUMP JUMPDEST SWAP2 POP POP PUSH2 0xFBD JUMP JUMPDEST POP POP JUMP JUMPDEST PUSH1 0x0 DUP1 JUMPDEST PUSH1 0x0 DUP1 SLOAD SWAP1 POP DUP2 LT ISZERO PUSH2 0x11E8 JUMPI CALLER PUSH20 0xFFFFFFFFFFFFFFFFFFFFFFFFFFFFFFFFFFFFFFFF AND PUSH1 0x0 DUP3 DUP2 SLOAD DUP2 LT PUSH2 0x1185 JUMPI PUSH32 0x4E487B7100000000000000000000000000000000000000000000000000000000 PUSH1 0x0 MSTORE PUSH1 0x32 PUSH1 0x4 MSTORE PUSH1 0x24 PUSH1 0x0 REVERT JUMPDEST SWAP1 PUSH1 0x0 MSTORE PUSH1 0x20 PUSH1 0x0 KECCAK256 ADD PUSH1 0x0 SWAP1 SLOAD SWAP1 PUSH2 0x100 EXP SWAP1 DIV PUSH20 0xFFFFFFFFFFFFFFFFFFFFFFFFFFFFFFFFFFFFFFFF AND PUSH20 0xFFFFFFFFFFFFFFFFFFFFFFFFFFFFFFFFFFFFFFFF AND EQ ISZERO PUSH2 0x11D5 JUMPI PUSH1 0x1 SWAP2 POP PUSH2 0x11E8 JUMP JUMPDEST DUP1 DUP1 PUSH2 0x11E0 SWAP1 PUSH2 0x2129 JUMP JUMPDEST SWAP2 POP POP PUSH2 0x1127 JUMP JUMPDEST POP DUP1 PUSH2 0x1229 JUMPI PUSH1 0x40 MLOAD PUSH32 0x8C379A000000000000000000000000000000000000000000000000000000000 DUP2 MSTORE PUSH1 0x4 ADD PUSH2 0x1220 SWAP1 PUSH2 0x1EDF JUMP JUMPDEST PUSH1 0x40 MLOAD DUP1 SWAP2 SUB SWAP1 REVERT JUMPDEST PUSH1 0x0 DUP1 PUSH2 0x1236 SWAP2 SWAP1 PUSH2 0x19D9 JUMP JUMPDEST PUSH1 0x0 DUP3 SWAP1 DUP1 PUSH1 0x1 DUP2 SLOAD ADD DUP1 DUP3 SSTORE DUP1 SWAP2 POP POP PUSH1 0x1 SWAP1 SUB SWAP1 PUSH1 0x0 MSTORE PUSH1 0x20 PUSH1 0x0 KECCAK256 ADD PUSH1 0x0 SWAP1 SWAP2 SWAP1 SWAP2 SWAP1 SWAP2 PUSH2 0x100 EXP DUP2 SLOAD DUP2 PUSH20 0xFFFFFFFFFFFFFFFFFFFFFFFFFFFFFFFFFFFFFFFF MUL NOT AND SWAP1 DUP4 PUSH20 0xFFFFFFFFFFFFFFFFFFFFFFFFFFFFFFFFFFFFFFFF AND MUL OR SWAP1 SSTORE POP POP POP JUMP JUMPDEST PUSH2 0x12A5 PUSH2 0x19FA JUMP JUMPDEST PUSH2 0x12AD PUSH2 0x19FA JUMP JUMPDEST PUSH1 0x0 JUMPDEST PUSH1 0x3 DUP2 LT ISZERO PUSH2 0x1353 JUMPI PUSH1 0x1 DUP2 PUSH1 0x3 DUP2 LT PUSH2 0x12F3 JUMPI PUSH32 0x4E487B7100000000000000000000000000000000000000000000000000000000 PUSH1 0x0 MSTORE PUSH1 0x32 PUSH1 0x4 MSTORE PUSH1 0x24 PUSH1 0x0 REVERT JUMPDEST PUSH1 0x3 MUL ADD PUSH1 0x1 ADD DUP1 SLOAD SWAP1 POP DUP3 DUP3 PUSH1 0x3 DUP2 LT PUSH2 0x1337 JUMPI PUSH32 0x4E487B7100000000000000000000000000000000000000000000000000000000 PUSH1 0x0 MSTORE PUSH1 0x32 PUSH1 0x4 MSTORE PUSH1 0x24 PUSH1 0x0 REVERT JUMPDEST PUSH1 0x20 MUL ADD DUP2 DUP2 MSTORE POP POP DUP1 DUP1 PUSH2 0x134B SWAP1 PUSH2 0x2129 JUMP JUMPDEST SWAP2 POP POP PUSH2 0x12B0 JUMP JUMPDEST POP DUP1 SWAP2 POP POP SWAP1 JUMP JUMPDEST PUSH1 0x0 PUSH1 0x1 DUP3 PUSH1 0x3 DUP2 LT PUSH2 0x1397 JUMPI PUSH32 0x4E487B7100000000000000000000000000000000000000000000000000000000 PUSH1 0x0 MSTORE PUSH1 0x32 PUSH1 0x4 MSTORE PUSH1 0x24 PUSH1 0x0 REVERT JUMPDEST PUSH1 0x3 MUL ADD PUSH1 0x1 ADD DUP1 SLOAD SWAP1 POP SWAP1 POP SWAP2 SWAP1 POP JUMP JUMPDEST PUSH1 0x0 DUP1 JUMPDEST PUSH1 0x0 DUP1 SLOAD SWAP1 POP DUP2 LT ISZERO PUSH2 0x146E JUMPI CALLER PUSH20 0xFFFFFFFFFFFFFFFFFFFFFFFFFFFFFFFFFFFFFFFF AND PUSH1 0x0 DUP3 DUP2 SLOAD DUP2 LT PUSH2 0x140B JUMPI PUSH32 0x4E487B7100000000000000000000000000000000000000000000000000000000 PUSH1 0x0 MSTORE PUSH1 0x32 PUSH1 0x4 MSTORE PUSH1 0x24 PUSH1 0x0 REVERT JUMPDEST SWAP1 PUSH1 0x0 MSTORE PUSH1 0x20 PUSH1 0x0 KECCAK256 ADD PUSH1 0x0 SWAP1 SLOAD SWAP1 PUSH2 0x100 EXP SWAP1 DIV PUSH20 0xFFFFFFFFFFFFFFFFFFFFFFFFFFFFFFFFFFFFFFFF AND PUSH20 0xFFFFFFFFFFFFFFFFFFFFFFFFFFFFFFFFFFFFFFFF AND EQ ISZERO PUSH2 0x145B JUMPI PUSH1 0x1 SWAP2 POP PUSH2 0x146E JUMP JUMPDEST DUP1 DUP1 PUSH2 0x1466 SWAP1 PUSH2 0x2129 JUMP JUMPDEST SWAP2 POP POP PUSH2 0x13AD JUMP JUMPDEST POP DUP1 PUSH2 0x14AF JUMPI PUSH1 0x40 MLOAD PUSH32 0x8C379A000000000000000000000000000000000000000000000000000000000 DUP2 MSTORE PUSH1 0x4 ADD PUSH2 0x14A6 SWAP1 PUSH2 0x1EDF JUMP JUMPDEST PUSH1 0x40 MLOAD DUP1 SWAP2 SUB SWAP1 REVERT JUMPDEST PUSH1 0x0 PUSH20 0xFFFFFFFFFFFFFFFFFFFFFFFFFFFFFFFFFFFFFFFF AND PUSH1 0x1 DUP4 PUSH1 0x3 DUP2 LT PUSH2 0x1501 JUMPI PUSH32 0x4E487B7100000000000000000000000000000000000000000000000000000000 PUSH1 0x0 MSTORE PUSH1 0x32 PUSH1 0x4 MSTORE PUSH1 0x24 PUSH1 0x0 REVERT JUMPDEST PUSH1 0x3 MUL ADD PUSH1 0x2 ADD PUSH1 0x0 SWAP1 SLOAD SWAP1 PUSH2 0x100 EXP SWAP1 DIV PUSH20 0xFFFFFFFFFFFFFFFFFFFFFFFFFFFFFFFFFFFFFFFF AND PUSH20 0xFFFFFFFFFFFFFFFFFFFFFFFFFFFFFFFFFFFFFFFF AND EQ PUSH2 0x157F JUMPI PUSH1 0x40 MLOAD PUSH32 0x8C379A000000000000000000000000000000000000000000000000000000000 DUP2 MSTORE PUSH1 0x4 ADD PUSH2 0x1576 SWAP1 PUSH2 0x1F5F JUMP JUMPDEST PUSH1 0x40 MLOAD DUP1 SWAP2 SUB SWAP1 REVERT JUMPDEST PUSH1 0x0 PUSH1 0x1 DUP4 PUSH1 0x3 DUP2 LT PUSH2 0x15BB JUMPI PUSH32 0x4E487B7100000000000000000000000000000000000000000000000000000000 PUSH1 0x0 MSTORE PUSH1 0x32 PUSH1 0x4 MSTORE PUSH1 0x24 PUSH1 0x0 REVERT JUMPDEST PUSH1 0x3 MUL ADD PUSH1 0x1 ADD DUP1 SLOAD SWAP1 POP EQ ISZERO PUSH2 0x168C JUMPI PUSH1 0x0 PUSH1 0x1 DUP4 PUSH1 0x3 DUP2 LT PUSH2 0x1608 JUMPI PUSH32 0x4E487B7100000000000000000000000000000000000000000000000000000000 PUSH1 0x0 MSTORE PUSH1 0x32 PUSH1 0x4 MSTORE PUSH1 0x24 PUSH1 0x0 REVERT JUMPDEST PUSH1 0x3 MUL ADD PUSH1 0x2 ADD PUSH1 0x0 PUSH2 0x100 EXP DUP2 SLOAD DUP2 PUSH20 0xFFFFFFFFFFFFFFFFFFFFFFFFFFFFFFFFFFFFFFFF MUL NOT AND SWAP1 DUP4 PUSH20 0xFFFFFFFFFFFFFFFFFFFFFFFFFFFFFFFFFFFFFFFF AND MUL OR SWAP1 SSTORE POP PUSH32 0x1C0E4295E0F74D135C113826815AE27019C5DFAF8A19CB1472533BCB988F5EF2 DUP3 PUSH1 0x0 PUSH1 0x40 MLOAD PUSH2 0x167F SWAP3 SWAP2 SWAP1 PUSH2 0x1FB5 JUMP JUMPDEST PUSH1 0x40 MLOAD DUP1 SWAP2 SUB SWAP1 LOG1 PUSH2 0x18EE JUMP JUMPDEST PUSH1 0x0 PUSH1 0x1 DUP4 PUSH1 0x3 DUP2 LT PUSH2 0x16C8 JUMPI PUSH32 0x4E487B7100000000000000000000000000000000000000000000000000000000 PUSH1 0x0 MSTORE PUSH1 0x32 PUSH1 0x4 MSTORE PUSH1 0x24 PUSH1 0x0 REVERT JUMPDEST PUSH1 0x3 MUL ADD PUSH1 0x1 ADD DUP1 SLOAD SWAP1 POP PUSH1 0x1 DUP5 PUSH1 0x3 DUP2 LT PUSH2 0x170D JUMPI PUSH32 0x4E487B7100000000000000000000000000000000000000000000000000000000 PUSH1 0x0 MSTORE PUSH1 0x32 PUSH1 0x4 MSTORE PUSH1 0x24 PUSH1 0x0 REVERT JUMPDEST PUSH1 0x3 MUL ADD PUSH1 0x1 ADD DUP1 SLOAD SWAP1 POP NUMBER PUSH2 0x1723 SWAP2 SWAP1 PUSH2 0x20BC JUMP JUMPDEST PUSH2 0x172D SWAP2 SWAP1 PUSH2 0x2172 JUMP JUMPDEST SWAP1 POP PUSH1 0x1 DUP4 PUSH1 0x3 DUP2 LT PUSH2 0x1769 JUMPI PUSH32 0x4E487B7100000000000000000000000000000000000000000000000000000000 PUSH1 0x0 MSTORE PUSH1 0x32 PUSH1 0x4 MSTORE PUSH1 0x24 PUSH1 0x0 REVERT JUMPDEST PUSH1 0x3 MUL ADD PUSH1 0x1 ADD DUP2 DUP2 SLOAD DUP2 LT PUSH2 0x17A8 JUMPI PUSH32 0x4E487B7100000000000000000000000000000000000000000000000000000000 PUSH1 0x0 MSTORE PUSH1 0x32 PUSH1 0x4 MSTORE PUSH1 0x24 PUSH1 0x0 REVERT JUMPDEST SWAP1 PUSH1 0x0 MSTORE PUSH1 0x20 PUSH1 0x0 KECCAK256 ADD PUSH1 0x0 SWAP1 SLOAD SWAP1 PUSH2 0x100 EXP SWAP1 DIV PUSH20 0xFFFFFFFFFFFFFFFFFFFFFFFFFFFFFFFFFFFFFFFF AND PUSH1 0x1 DUP5 PUSH1 0x3 DUP2 LT PUSH2 0x180D JUMPI PUSH32 0x4E487B7100000000000000000000000000000000000000000000000000000000 PUSH1 0x0 MSTORE PUSH1 0x32 PUSH1 0x4 MSTORE PUSH1 0x24 PUSH1 0x0 REVERT JUMPDEST PUSH1 0x3 MUL ADD PUSH1 0x2 ADD PUSH1 0x0 PUSH2 0x100 EXP DUP2 SLOAD DUP2 PUSH20 0xFFFFFFFFFFFFFFFFFFFFFFFFFFFFFFFFFFFFFFFF MUL NOT AND SWAP1 DUP4 PUSH20 0xFFFFFFFFFFFFFFFFFFFFFFFFFFFFFFFFFFFFFFFF AND MUL OR SWAP1 SSTORE POP PUSH32 0x1C0E4295E0F74D135C113826815AE27019C5DFAF8A19CB1472533BCB988F5EF2 DUP4 PUSH1 0x1 DUP6 PUSH1 0x3 DUP2 LT PUSH2 0x18AE JUMPI PUSH32 0x4E487B7100000000000000000000000000000000000000000000000000000000 PUSH1 0x0 MSTORE PUSH1 0x32 PUSH1 0x4 MSTORE PUSH1 0x24 PUSH1 0x0 REVERT JUMPDEST PUSH1 0x3 MUL ADD PUSH1 0x2 ADD PUSH1 0x0 SWAP1 SLOAD SWAP1 PUSH2 0x100 EXP SWAP1 DIV PUSH20 0xFFFFFFFFFFFFFFFFFFFFFFFFFFFFFFFFFFFFFFFF AND PUSH1 0x40 MLOAD PUSH2 0x18E4 SWAP3 SWAP2 SWAP1 PUSH2 0x1FB5 JUMP JUMPDEST PUSH1 0x40 MLOAD DUP1 SWAP2 SUB SWAP1 LOG1 POP JUMPDEST POP POP JUMP JUMPDEST PUSH1 0x40 MLOAD DUP1 PUSH1 0x60 ADD PUSH1 0x40 MSTORE DUP1 PUSH1 0x3 SWAP1 JUMPDEST PUSH2 0x1909 PUSH2 0x1A1C JUMP JUMPDEST DUP2 MSTORE PUSH1 0x20 ADD SWAP1 PUSH1 0x1 SWAP1 SUB SWAP1 DUP2 PUSH2 0x1901 JUMPI SWAP1 POP POP SWAP1 JUMP JUMPDEST PUSH1 0x40 MLOAD DUP1 PUSH1 0x40 ADD PUSH1 0x40 MSTORE DUP1 PUSH1 0x0 DUP2 MSTORE PUSH1 0x20 ADD PUSH1 0x0 PUSH20 0xFFFFFFFFFFFFFFFFFFFFFFFFFFFFFFFFFFFFFFFF AND DUP2 MSTORE POP SWAP1 JUMP JUMPDEST DUP3 DUP1 SLOAD DUP3 DUP3 SSTORE SWAP1 PUSH1 0x0 MSTORE PUSH1 0x20 PUSH1 0x0 KECCAK256 SWAP1 DUP2 ADD SWAP3 DUP3 ISZERO PUSH2 0x19C8 JUMPI SWAP2 PUSH1 0x20 MUL DUP3 ADD JUMPDEST DUP3 DUP2 GT ISZERO PUSH2 0x19C7 JUMPI DUP3 MLOAD DUP3 PUSH1 0x0 PUSH2 0x100 EXP DUP2 SLOAD DUP2 PUSH20 0xFFFFFFFFFFFFFFFFFFFFFFFFFFFFFFFFFFFFFFFF MUL NOT AND SWAP1 DUP4 PUSH20 0xFFFFFFFFFFFFFFFFFFFFFFFFFFFFFFFFFFFFFFFF AND MUL OR SWAP1 SSTORE POP SWAP2 PUSH1 0x20 ADD SWAP2 SWAP1 PUSH1 0x1 ADD SWAP1 PUSH2 0x196F JUMP JUMPDEST JUMPDEST POP SWAP1 POP PUSH2 0x19D5 SWAP2 SWAP1 PUSH2 0x1A53 JUMP JUMPDEST POP SWAP1 JUMP JUMPDEST POP DUP1 SLOAD PUSH1 0x0 DUP3 SSTORE SWAP1 PUSH1 0x0 MSTORE PUSH1 0x20 PUSH1 0x0 KECCAK256 SWAP1 DUP2 ADD SWAP1 PUSH2 0x19F7 SWAP2 SWAP1 PUSH2 0x1A53 JUMP JUMPDEST POP JUMP JUMPDEST PUSH1 0x40 MLOAD DUP1 PUSH1 0x60 ADD PUSH1 0x40 MSTORE DUP1 PUSH1 0x3 SWAP1 PUSH1 0x20 DUP3 MUL DUP1 CALLDATASIZE DUP4 CALLDATACOPY DUP1 DUP3 ADD SWAP2 POP POP SWAP1 POP POP SWAP1 JUMP JUMPDEST PUSH1 0x40 MLOAD DUP1 PUSH1 0x60 ADD PUSH1 0x40 MSTORE DUP1 PUSH1 0x0 DUP2 MSTORE PUSH1 0x20 ADD PUSH1 0x60 DUP2 MSTORE PUSH1 0x20 ADD PUSH1 0x0 PUSH20 0xFFFFFFFFFFFFFFFFFFFFFFFFFFFFFFFFFFFFFFFF AND DUP2 MSTORE POP SWAP1 JUMP JUMPDEST JUMPDEST DUP1 DUP3 GT ISZERO PUSH2 0x1A6C JUMPI PUSH1 0x0 DUP2 PUSH1 0x0 SWAP1 SSTORE POP PUSH1 0x1 ADD PUSH2 0x1A54 JUMP JUMPDEST POP SWAP1 JUMP JUMPDEST PUSH1 0x0 DUP2 CALLDATALOAD SWAP1 POP PUSH2 0x1A7F DUP2 PUSH2 0x2343 JUMP JUMPDEST SWAP3 SWAP2 POP POP JUMP JUMPDEST PUSH1 0x0 DUP2 CALLDATALOAD SWAP1 POP PUSH2 0x1A94 DUP2 PUSH2 0x235A JUMP JUMPDEST SWAP3 SWAP2 POP POP JUMP JUMPDEST PUSH1 0x0 PUSH1 0x20 DUP3 DUP5 SUB SLT ISZERO PUSH2 0x1AAC JUMPI PUSH1 0x0 DUP1 REVERT JUMPDEST PUSH1 0x0 PUSH2 0x1ABA DUP5 DUP3 DUP6 ADD PUSH2 0x1A70 JUMP JUMPDEST SWAP2 POP POP SWAP3 SWAP2 POP POP JUMP JUMPDEST PUSH1 0x0 PUSH1 0x20 DUP3 DUP5 SUB SLT ISZERO PUSH2 0x1AD5 JUMPI PUSH1 0x0 DUP1 REVERT JUMPDEST PUSH1 0x0 PUSH2 0x1AE3 DUP5 DUP3 DUP6 ADD PUSH2 0x1A85 JUMP JUMPDEST SWAP2 POP POP SWAP3 SWAP2 POP POP JUMP JUMPDEST PUSH1 0x0 PUSH2 0x1AF8 DUP4 DUP4 PUSH2 0x1B30 JUMP JUMPDEST PUSH1 0x20 DUP4 ADD SWAP1 POP SWAP3 SWAP2 POP POP JUMP JUMPDEST PUSH1 0x0 PUSH2 0x1B10 DUP4 DUP4 PUSH2 0x1DA8 JUMP JUMPDEST SWAP1 POP SWAP3 SWAP2 POP POP JUMP JUMPDEST PUSH1 0x0 PUSH2 0x1B24 DUP4 DUP4 PUSH2 0x1E27 JUMP JUMPDEST PUSH1 0x20 DUP4 ADD SWAP1 POP SWAP3 SWAP2 POP POP JUMP JUMPDEST PUSH2 0x1B39 DUP2 PUSH2 0x20ED JUMP JUMPDEST DUP3 MSTORE POP POP JUMP JUMPDEST PUSH2 0x1B48 DUP2 PUSH2 0x20ED JUMP JUMPDEST DUP3 MSTORE POP POP JUMP JUMPDEST PUSH1 0x0 PUSH2 0x1B59 DUP3 PUSH2 0x202B JUMP JUMPDEST PUSH2 0x1B63 DUP2 DUP6 PUSH2 0x2073 JUMP JUMPDEST SWAP4 POP PUSH2 0x1B6E DUP4 PUSH2 0x2007 JUMP JUMPDEST DUP1 PUSH1 0x0 JUMPDEST DUP4 DUP2 LT ISZERO PUSH2 0x1B9F JUMPI DUP2 MLOAD PUSH2 0x1B86 DUP9 DUP3 PUSH2 0x1AEC JUMP JUMPDEST SWAP8 POP PUSH2 0x1B91 DUP4 PUSH2 0x204C JUMP JUMPDEST SWAP3 POP POP PUSH1 0x1 DUP2 ADD SWAP1 POP PUSH2 0x1B72 JUMP JUMPDEST POP DUP6 SWAP4 POP POP POP POP SWAP3 SWAP2 POP POP JUMP JUMPDEST PUSH1 0x0 PUSH2 0x1BB7 DUP3 PUSH2 0x202B JUMP JUMPDEST PUSH2 0x1BC1 DUP2 DUP6 PUSH2 0x2084 JUMP JUMPDEST SWAP4 POP PUSH2 0x1BCC DUP4 PUSH2 0x2007 JUMP JUMPDEST DUP1 PUSH1 0x0 JUMPDEST DUP4 DUP2 LT ISZERO PUSH2 0x1BFD JUMPI DUP2 MLOAD PUSH2 0x1BE4 DUP9 DUP3 PUSH2 0x1AEC JUMP JUMPDEST SWAP8 POP PUSH2 0x1BEF DUP4 PUSH2 0x204C JUMP JUMPDEST SWAP3 POP POP PUSH1 0x1 DUP2 ADD SWAP1 POP PUSH2 0x1BD0 JUMP JUMPDEST POP DUP6 SWAP4 POP POP POP POP SWAP3 SWAP2 POP POP JUMP JUMPDEST PUSH1 0x0 PUSH2 0x1C15 DUP3 PUSH2 0x2036 JUMP JUMPDEST PUSH2 0x1C1F DUP2 DUP6 PUSH2 0x2095 JUMP JUMPDEST SWAP4 POP DUP4 PUSH1 0x20 DUP3 MUL DUP6 ADD PUSH2 0x1C31 DUP6 PUSH2 0x2017 JUMP JUMPDEST DUP1 PUSH1 0x0 JUMPDEST DUP6 DUP2 LT ISZERO PUSH2 0x1C6D JUMPI DUP5 DUP5 SUB DUP10 MSTORE DUP2 MLOAD PUSH2 0x1C4E DUP6 DUP3 PUSH2 0x1B04 JUMP JUMPDEST SWAP5 POP PUSH2 0x1C59 DUP4 PUSH2 0x2059 JUMP JUMPDEST SWAP3 POP PUSH1 0x20 DUP11 ADD SWAP10 POP POP PUSH1 0x1 DUP2 ADD SWAP1 POP PUSH2 0x1C35 JUMP JUMPDEST POP DUP3 SWAP8 POP DUP8 SWAP6 POP POP POP POP POP POP SWAP3 SWAP2 POP POP JUMP JUMPDEST PUSH2 0x1C88 DUP2 PUSH2 0x2041 JUMP JUMPDEST PUSH2 0x1C92 DUP2 DUP5 PUSH2 0x20A0 JUMP JUMPDEST SWAP3 POP PUSH2 0x1C9D DUP3 PUSH2 0x2021 JUMP JUMPDEST DUP1 PUSH1 0x0 JUMPDEST DUP4 DUP2 LT ISZERO PUSH2 0x1CCE JUMPI DUP2 MLOAD PUSH2 0x1CB5 DUP8 DUP3 PUSH2 0x1B18 JUMP JUMPDEST SWAP7 POP PUSH2 0x1CC0 DUP4 PUSH2 0x2066 JUMP JUMPDEST SWAP3 POP POP PUSH1 0x1 DUP2 ADD SWAP1 POP PUSH2 0x1CA1 JUMP JUMPDEST POP POP POP POP POP POP JUMP JUMPDEST PUSH1 0x0 PUSH2 0x1CE3 PUSH1 0xF DUP4 PUSH2 0x20AB JUMP JUMPDEST SWAP2 POP PUSH2 0x1CEE DUP3 PUSH2 0x2201 JUMP JUMPDEST PUSH1 0x20 DUP3 ADD SWAP1 POP SWAP2 SWAP1 POP JUMP JUMPDEST PUSH1 0x0 PUSH2 0x1D06 PUSH1 0x21 DUP4 PUSH2 0x20AB JUMP JUMPDEST SWAP2 POP PUSH2 0x1D11 DUP3 PUSH2 0x222A JUMP JUMPDEST PUSH1 0x40 DUP3 ADD SWAP1 POP SWAP2 SWAP1 POP JUMP JUMPDEST PUSH1 0x0 PUSH2 0x1D29 PUSH1 0x23 DUP4 PUSH2 0x20AB JUMP JUMPDEST SWAP2 POP PUSH2 0x1D34 DUP3 PUSH2 0x2279 JUMP JUMPDEST PUSH1 0x40 DUP3 ADD SWAP1 POP SWAP2 SWAP1 POP JUMP JUMPDEST PUSH1 0x0 PUSH2 0x1D4C PUSH1 0x10 DUP4 PUSH2 0x20AB JUMP JUMPDEST SWAP2 POP PUSH2 0x1D57 DUP3 PUSH2 0x22C8 JUMP JUMPDEST PUSH1 0x20 DUP3 ADD SWAP1 POP SWAP2 SWAP1 POP JUMP JUMPDEST PUSH1 0x0 PUSH2 0x1D6F PUSH1 0x11 DUP4 PUSH2 0x20AB JUMP JUMPDEST SWAP2 POP PUSH2 0x1D7A DUP3 PUSH2 0x22F1 JUMP JUMPDEST PUSH1 0x20 DUP3 ADD SWAP1 POP SWAP2 SWAP1 POP JUMP JUMPDEST PUSH1 0x0 PUSH2 0x1D92 PUSH1 0x17 DUP4 PUSH2 0x20AB JUMP JUMPDEST SWAP2 POP PUSH2 0x1D9D DUP3 PUSH2 0x231A JUMP JUMPDEST PUSH1 0x20 DUP3 ADD SWAP1 POP SWAP2 SWAP1 POP JUMP JUMPDEST PUSH1 0x0 PUSH1 0x60 DUP4 ADD PUSH1 0x0 DUP4 ADD MLOAD PUSH2 0x1DC0 PUSH1 0x0 DUP7 ADD DUP3 PUSH2 0x1E27 JUMP JUMPDEST POP PUSH1 0x20 DUP4 ADD MLOAD DUP5 DUP3 SUB PUSH1 0x20 DUP7 ADD MSTORE PUSH2 0x1DD8 DUP3 DUP3 PUSH2 0x1B4E JUMP JUMPDEST SWAP2 POP POP PUSH1 0x40 DUP4 ADD MLOAD PUSH2 0x1DED PUSH1 0x40 DUP7 ADD DUP3 PUSH2 0x1B30 JUMP JUMPDEST POP DUP1 SWAP2 POP POP SWAP3 SWAP2 POP POP JUMP JUMPDEST PUSH1 0x40 DUP3 ADD PUSH1 0x0 DUP3 ADD MLOAD PUSH2 0x1E0E PUSH1 0x0 DUP6 ADD DUP3 PUSH2 0x1E27 JUMP JUMPDEST POP PUSH1 0x20 DUP3 ADD MLOAD PUSH2 0x1E21 PUSH1 0x20 DUP6 ADD DUP3 PUSH2 0x1B30 JUMP JUMPDEST POP POP POP POP JUMP JUMPDEST PUSH2 0x1E30 DUP2 PUSH2 0x211F JUMP JUMPDEST DUP3 MSTORE POP POP JUMP JUMPDEST PUSH2 0x1E3F DUP2 PUSH2 0x211F JUMP JUMPDEST DUP3 MSTORE POP POP JUMP JUMPDEST PUSH1 0x0 PUSH1 0x20 DUP3 ADD SWAP1 POP PUSH2 0x1E5A PUSH1 0x0 DUP4 ADD DUP5 PUSH2 0x1B3F JUMP JUMPDEST SWAP3 SWAP2 POP POP JUMP JUMPDEST PUSH1 0x0 PUSH1 0x20 DUP3 ADD SWAP1 POP DUP2 DUP2 SUB PUSH1 0x0 DUP4 ADD MSTORE PUSH2 0x1E7A DUP2 DUP5 PUSH2 0x1BAC JUMP JUMPDEST SWAP1 POP SWAP3 SWAP2 POP POP JUMP JUMPDEST PUSH1 0x0 PUSH1 0x20 DUP3 ADD SWAP1 POP DUP2 DUP2 SUB PUSH1 0x0 DUP4 ADD MSTORE PUSH2 0x1E9C DUP2 DUP5 PUSH2 0x1C0A JUMP JUMPDEST SWAP1 POP SWAP3 SWAP2 POP POP JUMP JUMPDEST PUSH1 0x0 PUSH1 0x60 DUP3 ADD SWAP1 POP PUSH2 0x1EB9 PUSH1 0x0 DUP4 ADD DUP5 PUSH2 0x1C7F JUMP JUMPDEST SWAP3 SWAP2 POP POP JUMP JUMPDEST PUSH1 0x0 PUSH1 0x20 DUP3 ADD SWAP1 POP DUP2 DUP2 SUB PUSH1 0x0 DUP4 ADD MSTORE PUSH2 0x1ED8 DUP2 PUSH2 0x1CD6 JUMP JUMPDEST SWAP1 POP SWAP2 SWAP1 POP JUMP JUMPDEST PUSH1 0x0 PUSH1 0x20 DUP3 ADD SWAP1 POP DUP2 DUP2 SUB PUSH1 0x0 DUP4 ADD MSTORE PUSH2 0x1EF8 DUP2 PUSH2 0x1CF9 JUMP JUMPDEST SWAP1 POP SWAP2 SWAP1 POP JUMP JUMPDEST PUSH1 0x0 PUSH1 0x20 DUP3 ADD SWAP1 POP DUP2 DUP2 SUB PUSH1 0x0 DUP4 ADD MSTORE PUSH2 0x1F18 DUP2 PUSH2 0x1D1C JUMP JUMPDEST SWAP1 POP SWAP2 SWAP1 POP JUMP JUMPDEST PUSH1 0x0 PUSH1 0x20 DUP3 ADD SWAP1 POP DUP2 DUP2 SUB PUSH1 0x0 DUP4 ADD MSTORE PUSH2 0x1F38 DUP2 PUSH2 0x1D3F JUMP JUMPDEST SWAP1 POP SWAP2 SWAP1 POP JUMP JUMPDEST PUSH1 0x0 PUSH1 0x20 DUP3 ADD SWAP1 POP DUP2 DUP2 SUB PUSH1 0x0 DUP4 ADD MSTORE PUSH2 0x1F58 DUP2 PUSH2 0x1D62 JUMP JUMPDEST SWAP1 POP SWAP2 SWAP1 POP JUMP JUMPDEST PUSH1 0x0 PUSH1 0x20 DUP3 ADD SWAP1 POP DUP2 DUP2 SUB PUSH1 0x0 DUP4 ADD MSTORE PUSH2 0x1F78 DUP2 PUSH2 0x1D85 JUMP JUMPDEST SWAP1 POP SWAP2 SWAP1 POP JUMP JUMPDEST PUSH1 0x0 PUSH1 0x40 DUP3 ADD SWAP1 POP PUSH2 0x1F94 PUSH1 0x0 DUP4 ADD DUP5 PUSH2 0x1DF8 JUMP JUMPDEST SWAP3 SWAP2 POP POP JUMP JUMPDEST PUSH1 0x0 PUSH1 0x20 DUP3 ADD SWAP1 POP PUSH2 0x1FAF PUSH1 0x0 DUP4 ADD DUP5 PUSH2 0x1E36 JUMP JUMPDEST SWAP3 SWAP2 POP POP JUMP JUMPDEST PUSH1 0x0 PUSH1 0x40 DUP3 ADD SWAP1 POP PUSH2 0x1FCA PUSH1 0x0 DUP4 ADD DUP6 PUSH2 0x1E36 JUMP JUMPDEST PUSH2 0x1FD7 PUSH1 0x20 DUP4 ADD DUP5 PUSH2 0x1B3F JUMP JUMPDEST SWAP4 SWAP3 POP POP POP JUMP JUMPDEST PUSH1 0x0 PUSH1 0x40 DUP3 ADD SWAP1 POP PUSH2 0x1FF3 PUSH1 0x0 DUP4 ADD DUP6 PUSH2 0x1E36 JUMP JUMPDEST PUSH2 0x2000 PUSH1 0x20 DUP4 ADD DUP5 PUSH2 0x1E36 JUMP JUMPDEST SWAP4 SWAP3 POP POP POP JUMP JUMPDEST PUSH1 0x0 DUP2 SWAP1 POP PUSH1 0x20 DUP3 ADD SWAP1 POP SWAP2 SWAP1 POP JUMP JUMPDEST PUSH1 0x0 DUP2 SWAP1 POP SWAP2 SWAP1 POP JUMP JUMPDEST PUSH1 0x0 DUP2 SWAP1 POP SWAP2 SWAP1 POP JUMP JUMPDEST PUSH1 0x0 DUP2 MLOAD SWAP1 POP SWAP2 SWAP1 POP JUMP JUMPDEST PUSH1 0x0 PUSH1 0x3 SWAP1 POP SWAP2 SWAP1 POP JUMP JUMPDEST PUSH1 0x0 PUSH1 0x3 SWAP1 POP SWAP2 SWAP1 POP JUMP JUMPDEST PUSH1 0x0 PUSH1 0x20 DUP3 ADD SWAP1 POP SWAP2 SWAP1 POP JUMP JUMPDEST PUSH1 0x0 PUSH1 0x20 DUP3 ADD SWAP1 POP SWAP2 SWAP1 POP JUMP JUMPDEST PUSH1 0x0 PUSH1 0x20 DUP3 ADD SWAP1 POP SWAP2 SWAP1 POP JUMP JUMPDEST PUSH1 0x0 DUP3 DUP3 MSTORE PUSH1 0x20 DUP3 ADD SWAP1 POP SWAP3 SWAP2 POP POP JUMP JUMPDEST PUSH1 0x0 DUP3 DUP3 MSTORE PUSH1 0x20 DUP3 ADD SWAP1 POP SWAP3 SWAP2 POP POP JUMP JUMPDEST PUSH1 0x0 DUP2 SWAP1 POP SWAP3 SWAP2 POP POP JUMP JUMPDEST PUSH1 0x0 DUP2 SWAP1 POP SWAP3 SWAP2 POP POP JUMP JUMPDEST PUSH1 0x0 DUP3 DUP3 MSTORE PUSH1 0x20 DUP3 ADD SWAP1 POP SWAP3 SWAP2 POP POP JUMP JUMPDEST PUSH1 0x0 PUSH2 0x20C7 DUP3 PUSH2 0x211F JUMP JUMPDEST SWAP2 POP PUSH2 0x20D2 DUP4 PUSH2 0x211F JUMP JUMPDEST SWAP3 POP DUP3 PUSH2 0x20E2 JUMPI PUSH2 0x20E1 PUSH2 0x21D2 JUMP JUMPDEST JUMPDEST DUP3 DUP3 DIV SWAP1 POP SWAP3 SWAP2 POP POP JUMP JUMPDEST PUSH1 0x0 PUSH2 0x20F8 DUP3 PUSH2 0x20FF JUMP JUMPDEST SWAP1 POP SWAP2 SWAP1 POP JUMP JUMPDEST PUSH1 0x0 PUSH20 0xFFFFFFFFFFFFFFFFFFFFFFFFFFFFFFFFFFFFFFFF DUP3 AND SWAP1 POP SWAP2 SWAP1 POP JUMP JUMPDEST PUSH1 0x0 DUP2 SWAP1 POP SWAP2 SWAP1 POP JUMP JUMPDEST PUSH1 0x0 PUSH2 0x2134 DUP3 PUSH2 0x211F JUMP JUMPDEST SWAP2 POP PUSH32 0xFFFFFFFFFFFFFFFFFFFFFFFFFFFFFFFFFFFFFFFFFFFFFFFFFFFFFFFFFFFFFFFF DUP3 EQ ISZERO PUSH2 0x2167 JUMPI PUSH2 0x2166 PUSH2 0x21A3 JUMP JUMPDEST JUMPDEST PUSH1 0x1 DUP3 ADD SWAP1 POP SWAP2 SWAP1 POP JUMP JUMPDEST PUSH1 0x0 PUSH2 0x217D DUP3 PUSH2 0x211F JUMP JUMPDEST SWAP2 POP PUSH2 0x2188 DUP4 PUSH2 0x211F JUMP JUMPDEST SWAP3 POP DUP3 PUSH2 0x2198 JUMPI PUSH2 0x2197 PUSH2 0x21D2 JUMP JUMPDEST JUMPDEST DUP3 DUP3 MOD SWAP1 POP SWAP3 SWAP2 POP POP JUMP JUMPDEST PUSH32 0x4E487B7100000000000000000000000000000000000000000000000000000000 PUSH1 0x0 MSTORE PUSH1 0x11 PUSH1 0x4 MSTORE PUSH1 0x24 PUSH1 0x0 REVERT JUMPDEST PUSH32 0x4E487B7100000000000000000000000000000000000000000000000000000000 PUSH1 0x0 MSTORE PUSH1 0x12 PUSH1 0x4 MSTORE PUSH1 0x24 PUSH1 0x0 REVERT JUMPDEST PUSH32 0x496E76616C6964206974656D2069640000000000000000000000000000000000 PUSH1 0x0 DUP3 ADD MSTORE POP JUMP JUMPDEST PUSH32 0x4F6E6C79206F776E65722063616E2063616C6C20746869732066756E6374696F PUSH1 0x0 DUP3 ADD MSTORE PUSH32 0x6E00000000000000000000000000000000000000000000000000000000000000 PUSH1 0x20 DUP3 ADD MSTORE POP JUMP JUMPDEST PUSH32 0x57726F6E6720616D6F756E742C20706C656173652062696420302E3031206574 PUSH1 0x0 DUP3 ADD MSTORE PUSH32 0x6865720000000000000000000000000000000000000000000000000000000000 PUSH1 0x20 DUP3 ADD MSTORE POP JUMP JUMPDEST PUSH32 0x4F776E65722063616E6E6F742062696400000000000000000000000000000000 PUSH1 0x0 DUP3 ADD MSTORE POP JUMP JUMPDEST PUSH32 0x4C6F74746572792068617320656E646564000000000000000000000000000000 PUSH1 0x0 DUP3 ADD MSTORE POP JUMP JUMPDEST PUSH32 0x57696E6E657220616C7265616479206465636C61726564000000000000000000 PUSH1 0x0 DUP3 ADD MSTORE POP JUMP JUMPDEST PUSH2 0x234C DUP2 PUSH2 0x20ED JUMP JUMPDEST DUP2 EQ PUSH2 0x2357 JUMPI PUSH1 0x0 DUP1 REVERT JUMPDEST POP JUMP JUMPDEST PUSH2 0x2363 DUP2 PUSH2 0x211F JUMP JUMPDEST DUP2 EQ PUSH2 0x236E JUMPI PUSH1 0x0 DUP1 REVERT JUMPDEST POP JUMP INVALID LOG2 PUSH5 0x6970667358 0x22 SLT KECCAK256 0xD7 PUSH21 0xB6DC7C8E3DD7A1EE20A7EFAD96FBEB65D4392D190D SWAP3 0xF9 MUL PUSH24 0x664364616864736F6C634300080400330000000000000000 "
				},
				"gasEstimates": {
					"creation": {
						"codeDepositCost": "1825400",
						"executionCost": "infinite",
						"totalCost": "infinite"
					},
					"external": {
						"DeclareAllWinners()": "infinite",
						"DeclareWinner(uint256)": "infinite",
						"addOwner(address)": "infinite",
						"bid(uint256)": "infinite",
						"getAllItemBidNumber()": "infinite",
						"getBalance()": "385",
						"getItemBidNumber(uint256)": "infinite",
						"getItems()": "infinite",
						"getOwners()": "infinite",
						"getPerson()": "793",
						"items(uint256)": "infinite",
						"owners(uint256)": "2380",
						"reset()": "infinite",
						"selfDestruct()": "infinite",
						"transferOwnership(address)": "infinite",
						"withdraw()": "infinite"
					}
				},
				"methodIdentifiers": {
					"DeclareAllWinners()": "83a9e969",
					"DeclareWinner(uint256)": "ff7782de",
					"addOwner(address)": "7065cb48",
					"bid(uint256)": "454a2ab3",
					"getAllItemBidNumber()": "f405cd51",
					"getBalance()": "12065fe0",
					"getItemBidNumber(uint256)": "ff3665c7",
					"getItems()": "410d59cc",
					"getOwners()": "a0e67e2b",
					"getPerson()": "8ec4dc95",
					"items(uint256)": "bfb231d2",
					"owners(uint256)": "025e7c27",
					"reset()": "d826f88f",
					"selfDestruct()": "9cb8a26a",
					"transferOwnership(address)": "f2fde38b",
					"withdraw()": "3ccfd60b"
				}
			},
			"storageLayout": {
				"storage": [
					{
						"astId": 103,
						"contract": "src/contract/Lottery.sol:Lottery",
						"label": "owners",
						"offset": 0,
						"slot": "0",
						"type": "t_array(t_address)dyn_storage"
					},
					{
						"astId": 108,
						"contract": "src/contract/Lottery.sol:Lottery",
						"label": "items",
						"offset": 0,
						"slot": "1",
						"type": "t_array(t_struct(Item)9_storage)3_storage"
					}
				],
				"types": {
					"t_address": {
						"encoding": "inplace",
						"label": "address",
						"numberOfBytes": "20"
					},
					"t_array(t_address)dyn_storage": {
						"base": "t_address",
						"encoding": "dynamic_array",
						"label": "address[]",
						"numberOfBytes": "32"
					},
					"t_array(t_struct(Item)9_storage)3_storage": {
						"base": "t_struct(Item)9_storage",
						"encoding": "inplace",
						"label": "struct Lottery.Item[3]",
						"numberOfBytes": "288"
					},
					"t_struct(Item)9_storage": {
						"encoding": "inplace",
						"label": "struct Lottery.Item",
						"members": [
							{
								"astId": 3,
								"contract": "src/contract/Lottery.sol:Lottery",
								"label": "itemId",
								"offset": 0,
								"slot": "0",
								"type": "t_uint256"
							},
							{
								"astId": 6,
								"contract": "src/contract/Lottery.sol:Lottery",
								"label": "itemTokens",
								"offset": 0,
								"slot": "1",
								"type": "t_array(t_address)dyn_storage"
							},
							{
								"astId": 8,
								"contract": "src/contract/Lottery.sol:Lottery",
								"label": "winner",
								"offset": 0,
								"slot": "2",
								"type": "t_address"
							}
						],
						"numberOfBytes": "96"
					},
					"t_uint256": {
						"encoding": "inplace",
						"label": "uint256",
						"numberOfBytes": "32"
					}
				}
			},
			"userdoc": {
				"kind": "user",
				"methods": {},
				"version": 1
			}
		}
	}
}