{
	"src/contract/Lottery.sol": {
		"Lottery": {
			"abi": [
				{
					"inputs": [],
					"stateMutability": "nonpayable",
					"type": "constructor"
				},
				{
					"anonymous": false,
					"inputs": [
						{
							"indexed": false,
							"internalType": "uint256",
							"name": "_itemId",
							"type": "uint256"
						},
						{
							"indexed": false,
							"internalType": "uint256",
							"name": "newBidTotal",
							"type": "uint256"
						}
					],
					"name": "bidEvent",
					"type": "event"
				},
				{
					"anonymous": false,
					"inputs": [
						{
							"indexed": false,
							"internalType": "uint256",
							"name": "_itemId",
							"type": "uint256"
						},
						{
							"indexed": false,
							"internalType": "address",
							"name": "winner",
							"type": "address"
						}
					],
					"name": "winnerEvent",
					"type": "event"
				},
				{
					"inputs": [],
					"name": "DeclareAllWinners",
					"outputs": [],
					"stateMutability": "nonpayable",
					"type": "function"
				},
				{
					"inputs": [
						{
							"internalType": "uint256",
							"name": "_itemId",
							"type": "uint256"
						}
					],
					"name": "DeclareWinner",
					"outputs": [],
					"stateMutability": "nonpayable",
					"type": "function"
				},
				{
					"inputs": [
						{
							"internalType": "uint256",
							"name": "_itemId",
							"type": "uint256"
						}
					],
					"name": "bid",
					"outputs": [],
					"stateMutability": "payable",
					"type": "function"
				},
				{
					"inputs": [],
					"name": "getAllItemBidNumber",
					"outputs": [
						{
							"internalType": "uint256[3]",
							"name": "",
							"type": "uint256[3]"
						}
					],
					"stateMutability": "view",
					"type": "function"
				},
				{
					"inputs": [
						{
							"internalType": "uint256",
							"name": "_itemId",
							"type": "uint256"
						}
					],
					"name": "getItemBidNumber",
					"outputs": [
						{
							"internalType": "uint256",
							"name": "",
							"type": "uint256"
						}
					],
					"stateMutability": "view",
					"type": "function"
				},
				{
					"inputs": [],
					"name": "getItems",
					"outputs": [
						{
							"components": [
								{
									"internalType": "uint256",
									"name": "itemId",
									"type": "uint256"
								},
								{
									"internalType": "address[]",
									"name": "itemTokens",
									"type": "address[]"
								},
								{
									"internalType": "address",
									"name": "winner",
									"type": "address"
								}
							],
							"internalType": "struct Lottery.Item[3]",
							"name": "",
							"type": "tuple[3]"
						}
					],
					"stateMutability": "view",
					"type": "function"
				},
				{
					"inputs": [],
					"name": "getOwner",
					"outputs": [
						{
							"internalType": "address",
							"name": "",
							"type": "address"
						}
					],
					"stateMutability": "view",
					"type": "function"
				},
				{
					"inputs": [],
					"name": "getPerson",
					"outputs": [
						{
							"components": [
								{
									"internalType": "uint256",
									"name": "personId",
									"type": "uint256"
								},
								{
									"internalType": "address",
									"name": "addr",
									"type": "address"
								}
							],
							"internalType": "struct Lottery.Person",
							"name": "",
							"type": "tuple"
						}
					],
					"stateMutability": "view",
					"type": "function"
				},
				{
					"inputs": [
						{
							"internalType": "uint256",
							"name": "",
							"type": "uint256"
						}
					],
					"name": "items",
					"outputs": [
						{
							"internalType": "uint256",
							"name": "itemId",
							"type": "uint256"
						},
						{
							"internalType": "address",
							"name": "winner",
							"type": "address"
						}
					],
					"stateMutability": "view",
					"type": "function"
				},
				{
					"inputs": [],
					"name": "owner",
					"outputs": [
						{
							"internalType": "address",
							"name": "",
							"type": "address"
						}
					],
					"stateMutability": "view",
					"type": "function"
				},
				{
					"inputs": [],
					"name": "withdraw",
					"outputs": [],
					"stateMutability": "nonpayable",
					"type": "function"
				}
			],
			"devdoc": {
				"kind": "dev",
				"methods": {},
				"version": 1
			},
			"evm": {
				"assembly": "    /* \"src/contract/Lottery.sol\":57:2775  contract Lottery {... */\n  mstore(0x40, 0x80)\n    /* \"src/contract/Lottery.sol\":1156:1382  constructor() {... */\n  callvalue\n  dup1\n  iszero\n  tag_1\n  jumpi\n  0x00\n  dup1\n  revert\ntag_1:\n  pop\n    /* \"src/contract/Lottery.sol\":1188:1198  msg.sender */\n  caller\n    /* \"src/contract/Lottery.sol\":1180:1185  owner */\n  0x00\n  dup1\n    /* \"src/contract/Lottery.sol\":1180:1198  owner = msg.sender */\n  0x0100\n  exp\n  dup2\n  sload\n  dup2\n  0xffffffffffffffffffffffffffffffffffffffff\n  mul\n  not\n  and\n  swap1\n  dup4\n  0xffffffffffffffffffffffffffffffffffffffff\n  and\n  mul\n  or\n  swap1\n  sstore\n  pop\n    /* \"src/contract/Lottery.sol\":1213:1219  uint i */\n  0x00\n    /* \"src/contract/Lottery.sol\":1208:1375  for (uint i = 0; i < 3; i++) {... */\ntag_4:\n    /* \"src/contract/Lottery.sol\":1229:1230  3 */\n  0x03\n    /* \"src/contract/Lottery.sol\":1225:1226  i */\n  dup2\n    /* \"src/contract/Lottery.sol\":1225:1230  i < 3 */\n  lt\n    /* \"src/contract/Lottery.sol\":1208:1375  for (uint i = 0; i < 3; i++) {... */\n  iszero\n  tag_5\n  jumpi\n    /* \"src/contract/Lottery.sol\":1269:1270  i */\n  dup1\n    /* \"src/contract/Lottery.sol\":1251:1256  items */\n  0x01\n    /* \"src/contract/Lottery.sol\":1257:1258  i */\n  dup3\n    /* \"src/contract/Lottery.sol\":1251:1259  items[i] */\n  0x03\n  dup2\n  lt\n  tag_7\n  jumpi\n  mstore(0x00, 0x4e487b7100000000000000000000000000000000000000000000000000000000)\n  mstore(0x04, 0x32)\n  revert(0x00, 0x24)\ntag_7:\n  0x03\n  mul\n  add\n    /* \"src/contract/Lottery.sol\":1251:1266  items[i].itemId */\n  0x00\n  add\n    /* \"src/contract/Lottery.sol\":1251:1270  items[i].itemId = i */\n  dup2\n  swap1\n  sstore\n  pop\n    /* \"src/contract/Lottery.sol\":1310:1311  0 */\n  0x00\n    /* \"src/contract/Lottery.sol\":1284:1289  items */\n  0x01\n    /* \"src/contract/Lottery.sol\":1290:1291  i */\n  dup3\n    /* \"src/contract/Lottery.sol\":1284:1292  items[i] */\n  0x03\n  dup2\n  lt\n  tag_9\n  jumpi\n  mstore(0x00, 0x4e487b7100000000000000000000000000000000000000000000000000000000)\n  mstore(0x04, 0x32)\n  revert(0x00, 0x24)\ntag_9:\n  0x03\n  mul\n  add\n    /* \"src/contract/Lottery.sol\":1284:1299  items[i].winner */\n  0x02\n  add\n  0x00\n    /* \"src/contract/Lottery.sol\":1284:1312  items[i].winner = address(0) */\n  0x0100\n  exp\n  dup2\n  sload\n  dup2\n  0xffffffffffffffffffffffffffffffffffffffff\n  mul\n  not\n  and\n  swap1\n  dup4\n  0xffffffffffffffffffffffffffffffffffffffff\n  and\n  mul\n  or\n  swap1\n  sstore\n  pop\n    /* \"src/contract/Lottery.sol\":1362:1363  0 */\n  0x00\n    /* \"src/contract/Lottery.sol\":1348:1364  new address[](0) */\n  0xffffffffffffffff\n  dup2\n  gt\n  iszero\n  tag_11\n  jumpi\n  mstore(0x00, 0x4e487b7100000000000000000000000000000000000000000000000000000000)\n  mstore(0x04, 0x41)\n  revert(0x00, 0x24)\ntag_11:\n  mload(0x40)\n  swap1\n  dup1\n  dup3\n  mstore\n  dup1\n  0x20\n  mul\n  0x20\n  add\n  dup3\n  add\n  0x40\n  mstore\n  dup1\n  iszero\n  tag_12\n  jumpi\n  dup2\n  0x20\n  add\n  0x20\n  dup3\n  mul\n  dup1\n  calldatasize\n  dup4\n  calldatacopy\n  dup1\n  dup3\n  add\n  swap2\n  pop\n  pop\n  swap1\n  pop\ntag_12:\n  pop\n    /* \"src/contract/Lottery.sol\":1326:1331  items */\n  0x01\n    /* \"src/contract/Lottery.sol\":1332:1333  i */\n  dup3\n    /* \"src/contract/Lottery.sol\":1326:1334  items[i] */\n  0x03\n  dup2\n  lt\n  tag_13\n  jumpi\n  mstore(0x00, 0x4e487b7100000000000000000000000000000000000000000000000000000000)\n  mstore(0x04, 0x32)\n  revert(0x00, 0x24)\ntag_13:\n  0x03\n  mul\n  add\n    /* \"src/contract/Lottery.sol\":1326:1345  items[i].itemTokens */\n  0x01\n  add\n    /* \"src/contract/Lottery.sol\":1326:1364  items[i].itemTokens = new address[](0) */\n  swap1\n  dup1\n  mload\n  swap1\n  0x20\n  add\n  swap1\n  tag_15\n  swap3\n  swap2\n  swap1\n  tag_16\n  jump\t// in\ntag_15:\n  pop\n    /* \"src/contract/Lottery.sol\":1232:1235  i++ */\n  dup1\n  dup1\n  tag_17\n  swap1\n  tag_18\n  jump\t// in\ntag_17:\n  swap2\n  pop\n  pop\n    /* \"src/contract/Lottery.sol\":1208:1375  for (uint i = 0; i < 3; i++) {... */\n  jump(tag_4)\ntag_5:\n  pop\n    /* \"src/contract/Lottery.sol\":57:2775  contract Lottery {... */\n  jump(tag_19)\ntag_16:\n  dup3\n  dup1\n  sload\n  dup3\n  dup3\n  sstore\n  swap1\n  0x00\n  mstore\n  keccak256(0x00, 0x20)\n  swap1\n  dup2\n  add\n  swap3\n  dup3\n  iszero\n  tag_20\n  jumpi\n  swap2\n  0x20\n  mul\n  dup3\n  add\ntag_21:\n  dup3\n  dup2\n  gt\n  iszero\n  tag_22\n  jumpi\n  dup3\n  mload\n  dup3\n  exp(0x0100, 0x00)\n  dup2\n  sload\n  dup2\n  0xffffffffffffffffffffffffffffffffffffffff\n  mul\n  not\n  and\n  swap1\n  dup4\n  0xffffffffffffffffffffffffffffffffffffffff\n  and\n  mul\n  or\n  swap1\n  sstore\n  pop\n  swap2\n  0x20\n  add\n  swap2\n  swap1\n  0x01\n  add\n  swap1\n  jump(tag_21)\ntag_22:\ntag_20:\n  pop\n  swap1\n  pop\n  tag_23\n  swap2\n  swap1\n  tag_24\n  jump\t// in\ntag_23:\n  pop\n  swap1\n  jump\t// out\ntag_24:\ntag_25:\n  dup1\n  dup3\n  gt\n  iszero\n  tag_26\n  jumpi\n  0x00\n  dup2\n  0x00\n  swap1\n  sstore\n  pop\n  0x01\n  add\n  jump(tag_25)\ntag_26:\n  pop\n  swap1\n  jump\t// out\n    /* \"#utility.yul\":7:84   */\ntag_28:\n  0x00\n    /* \"#utility.yul\":73:78   */\n  dup2\n    /* \"#utility.yul\":62:78   */\n  swap1\n  pop\n    /* \"#utility.yul\":52:84   */\n  swap2\n  swap1\n  pop\n  jump\t// out\n    /* \"#utility.yul\":90:323   */\ntag_18:\n  0x00\n    /* \"#utility.yul\":152:176   */\n  tag_31\n    /* \"#utility.yul\":170:175   */\n  dup3\n    /* \"#utility.yul\":152:176   */\n  tag_28\n  jump\t// in\ntag_31:\n    /* \"#utility.yul\":143:176   */\n  swap2\n  pop\n    /* \"#utility.yul\":198:264   */\n  0xffffffffffffffffffffffffffffffffffffffffffffffffffffffffffffffff\n    /* \"#utility.yul\":191:196   */\n  dup3\n    /* \"#utility.yul\":188:265   */\n  eq\n    /* \"#utility.yul\":185:187   */\n  iszero\n  tag_32\n  jumpi\n    /* \"#utility.yul\":268:286   */\n  tag_33\n  tag_34\n  jump\t// in\ntag_33:\n    /* \"#utility.yul\":185:187   */\ntag_32:\n    /* \"#utility.yul\":315:316   */\n  0x01\n    /* \"#utility.yul\":308:313   */\n  dup3\n    /* \"#utility.yul\":304:317   */\n  add\n    /* \"#utility.yul\":297:317   */\n  swap1\n  pop\n    /* \"#utility.yul\":133:323   */\n  swap2\n  swap1\n  pop\n  jump\t// out\n    /* \"#utility.yul\":329:509   */\ntag_34:\n    /* \"#utility.yul\":377:454   */\n  0x4e487b7100000000000000000000000000000000000000000000000000000000\n    /* \"#utility.yul\":374:375   */\n  0x00\n    /* \"#utility.yul\":367:455   */\n  mstore\n    /* \"#utility.yul\":474:478   */\n  0x11\n    /* \"#utility.yul\":471:472   */\n  0x04\n    /* \"#utility.yul\":464:479   */\n  mstore\n    /* \"#utility.yul\":498:502   */\n  0x24\n    /* \"#utility.yul\":495:496   */\n  0x00\n    /* \"#utility.yul\":488:503   */\n  revert\n    /* \"src/contract/Lottery.sol\":57:2775  contract Lottery {... */\ntag_19:\n  dataSize(sub_0)\n  dup1\n  dataOffset(sub_0)\n  0x00\n  codecopy\n  0x00\n  return\nstop\n\nsub_0: assembly {\n        /* \"src/contract/Lottery.sol\":57:2775  contract Lottery {... */\n      mstore(0x40, 0x80)\n      jumpi(tag_1, lt(calldatasize, 0x04))\n      shr(0xe0, calldataload(0x00))\n      dup1\n      0x8da5cb5b\n      gt\n      tag_13\n      jumpi\n      dup1\n      0x8da5cb5b\n      eq\n      tag_7\n      jumpi\n      dup1\n      0x8ec4dc95\n      eq\n      tag_8\n      jumpi\n      dup1\n      0xbfb231d2\n      eq\n      tag_9\n      jumpi\n      dup1\n      0xf405cd51\n      eq\n      tag_10\n      jumpi\n      dup1\n      0xff3665c7\n      eq\n      tag_11\n      jumpi\n      dup1\n      0xff7782de\n      eq\n      tag_12\n      jumpi\n      jump(tag_1)\n    tag_13:\n      dup1\n      0x3ccfd60b\n      eq\n      tag_2\n      jumpi\n      dup1\n      0x410d59cc\n      eq\n      tag_3\n      jumpi\n      dup1\n      0x454a2ab3\n      eq\n      tag_4\n      jumpi\n      dup1\n      0x83a9e969\n      eq\n      tag_5\n      jumpi\n      dup1\n      0x893d20e8\n      eq\n      tag_6\n      jumpi\n    tag_1:\n      0x00\n      dup1\n      revert\n        /* \"src/contract/Lottery.sol\":1898:2000  function withdraw() public onlyOwner() {... */\n    tag_2:\n      callvalue\n      dup1\n      iszero\n      tag_14\n      jumpi\n      0x00\n      dup1\n      revert\n    tag_14:\n      pop\n      tag_15\n      tag_16\n      jump\t// in\n    tag_15:\n      stop\n        /* \"src/contract/Lottery.sol\":346:432  function getItems() public view returns (Item[3] memory) {... */\n    tag_3:\n      callvalue\n      dup1\n      iszero\n      tag_17\n      jumpi\n      0x00\n      dup1\n      revert\n    tag_17:\n      pop\n      tag_18\n      tag_19\n      jump\t// in\n    tag_18:\n      mload(0x40)\n      tag_20\n      swap2\n      swap1\n      tag_21\n      jump\t// in\n    tag_20:\n      mload(0x40)\n      dup1\n      swap2\n      sub\n      swap1\n      return\n        /* \"src/contract/Lottery.sol\":1445:1892  function bid(uint _itemId) public payable {... */\n    tag_4:\n      tag_22\n      0x04\n      dup1\n      calldatasize\n      sub\n      dup2\n      add\n      swap1\n      tag_23\n      swap2\n      swap1\n      tag_24\n      jump\t// in\n    tag_23:\n      tag_25\n      jump\t// in\n    tag_22:\n      stop\n        /* \"src/contract/Lottery.sol\":2639:2773  function DeclareAllWinners() public onlyOwner() {... */\n    tag_5:\n      callvalue\n      dup1\n      iszero\n      tag_26\n      jumpi\n      0x00\n      dup1\n      revert\n    tag_26:\n      pop\n      tag_27\n      tag_28\n      jump\t// in\n    tag_27:\n      stop\n        /* \"src/contract/Lottery.sol\":261:340  function getOwner() public view returns (address) {... */\n    tag_6:\n      callvalue\n      dup1\n      iszero\n      tag_29\n      jumpi\n      0x00\n      dup1\n      revert\n    tag_29:\n      pop\n      tag_30\n      tag_31\n      jump\t// in\n    tag_30:\n      mload(0x40)\n      tag_32\n      swap2\n      swap1\n      tag_33\n      jump\t// in\n    tag_32:\n      mload(0x40)\n      dup1\n      swap2\n      sub\n      swap1\n      return\n        /* \"src/contract/Lottery.sol\":929:949  address public owner */\n    tag_7:\n      callvalue\n      dup1\n      iszero\n      tag_34\n      jumpi\n      0x00\n      dup1\n      revert\n    tag_34:\n      pop\n      tag_35\n      tag_36\n      jump\t// in\n    tag_35:\n      mload(0x40)\n      tag_37\n      swap2\n      swap1\n      tag_33\n      jump\t// in\n    tag_37:\n      mload(0x40)\n      dup1\n      swap2\n      sub\n      swap1\n      return\n        /* \"src/contract/Lottery.sol\":438:558  function getPerson() public view returns (Person memory) {... */\n    tag_8:\n      callvalue\n      dup1\n      iszero\n      tag_38\n      jumpi\n      0x00\n      dup1\n      revert\n    tag_38:\n      pop\n      tag_39\n      tag_40\n      jump\t// in\n    tag_39:\n      mload(0x40)\n      tag_41\n      swap2\n      swap1\n      tag_42\n      jump\t// in\n    tag_41:\n      mload(0x40)\n      dup1\n      swap2\n      sub\n      swap1\n      return\n        /* \"src/contract/Lottery.sol\":956:976  Item[3] public items */\n    tag_9:\n      callvalue\n      dup1\n      iszero\n      tag_43\n      jumpi\n      0x00\n      dup1\n      revert\n    tag_43:\n      pop\n      tag_44\n      0x04\n      dup1\n      calldatasize\n      sub\n      dup2\n      add\n      swap1\n      tag_45\n      swap2\n      swap1\n      tag_24\n      jump\t// in\n    tag_45:\n      tag_46\n      jump\t// in\n    tag_44:\n      mload(0x40)\n      tag_47\n      swap3\n      swap2\n      swap1\n      tag_48\n      jump\t// in\n    tag_47:\n      mload(0x40)\n      dup1\n      swap2\n      sub\n      swap1\n      return\n        /* \"src/contract/Lottery.sol\":693:923  function getAllItemBidNumber() public view returns (uint[3] memory) {... */\n    tag_10:\n      callvalue\n      dup1\n      iszero\n      tag_49\n      jumpi\n      0x00\n      dup1\n      revert\n    tag_49:\n      pop\n      tag_50\n      tag_51\n      jump\t// in\n    tag_50:\n      mload(0x40)\n      tag_52\n      swap2\n      swap1\n      tag_53\n      jump\t// in\n    tag_52:\n      mload(0x40)\n      dup1\n      swap2\n      sub\n      swap1\n      return\n        /* \"src/contract/Lottery.sol\":564:687  function getItemBidNumber(uint _itemId) public view returns (uint) {... */\n    tag_11:\n      callvalue\n      dup1\n      iszero\n      tag_54\n      jumpi\n      0x00\n      dup1\n      revert\n    tag_54:\n      pop\n      tag_55\n      0x04\n      dup1\n      calldatasize\n      sub\n      dup2\n      add\n      swap1\n      tag_56\n      swap2\n      swap1\n      tag_24\n      jump\t// in\n    tag_56:\n      tag_57\n      jump\t// in\n    tag_55:\n      mload(0x40)\n      tag_58\n      swap2\n      swap1\n      tag_59\n      jump\t// in\n    tag_58:\n      mload(0x40)\n      dup1\n      swap2\n      sub\n      swap1\n      return\n        /* \"src/contract/Lottery.sol\":2064:2633  function DeclareWinner(uint _itemId) public onlyOwner() {... */\n    tag_12:\n      callvalue\n      dup1\n      iszero\n      tag_60\n      jumpi\n      0x00\n      dup1\n      revert\n    tag_60:\n      pop\n      tag_61\n      0x04\n      dup1\n      calldatasize\n      sub\n      dup2\n      add\n      swap1\n      tag_62\n      swap2\n      swap1\n      tag_24\n      jump\t// in\n    tag_62:\n      tag_63\n      jump\t// in\n    tag_61:\n      stop\n        /* \"src/contract/Lottery.sol\":1898:2000  function withdraw() public onlyOwner() {... */\n    tag_16:\n        /* \"src/contract/Lottery.sol\":1037:1042  owner */\n      0x00\n      dup1\n      sload\n      swap1\n      0x0100\n      exp\n      swap1\n      div\n      0xffffffffffffffffffffffffffffffffffffffff\n      and\n        /* \"src/contract/Lottery.sol\":1023:1042  msg.sender == owner */\n      0xffffffffffffffffffffffffffffffffffffffff\n      and\n        /* \"src/contract/Lottery.sol\":1023:1033  msg.sender */\n      caller\n        /* \"src/contract/Lottery.sol\":1023:1042  msg.sender == owner */\n      0xffffffffffffffffffffffffffffffffffffffff\n      and\n      eq\n        /* \"src/contract/Lottery.sol\":1022:1105  (msg.sender == owner) || (msg.sender == 0x153dfef4355E823dCB0FCc76Efe942BefCa86477) */\n      dup1\n      tag_65\n      jumpi\n      pop\n        /* \"src/contract/Lottery.sol\":1062:1104  0x153dfef4355E823dCB0FCc76Efe942BefCa86477 */\n      0x153dfef4355e823dcb0fcc76efe942befca86477\n        /* \"src/contract/Lottery.sol\":1048:1104  msg.sender == 0x153dfef4355E823dCB0FCc76Efe942BefCa86477 */\n      0xffffffffffffffffffffffffffffffffffffffff\n      and\n        /* \"src/contract/Lottery.sol\":1048:1058  msg.sender */\n      caller\n        /* \"src/contract/Lottery.sol\":1048:1104  msg.sender == 0x153dfef4355E823dCB0FCc76Efe942BefCa86477 */\n      0xffffffffffffffffffffffffffffffffffffffff\n      and\n      eq\n        /* \"src/contract/Lottery.sol\":1022:1105  (msg.sender == owner) || (msg.sender == 0x153dfef4355E823dCB0FCc76Efe942BefCa86477) */\n    tag_65:\n        /* \"src/contract/Lottery.sol\":1014:1132  require((msg.sender == owner) || (msg.sender == 0x153dfef4355E823dCB0FCc76Efe942BefCa86477), \"You are not the owner.\") */\n      tag_66\n      jumpi\n      mload(0x40)\n      0x08c379a000000000000000000000000000000000000000000000000000000000\n      dup2\n      mstore\n      0x04\n      add\n      tag_67\n      swap1\n      tag_68\n      jump\t// in\n    tag_67:\n      mload(0x40)\n      dup1\n      swap2\n      sub\n      swap1\n      revert\n    tag_66:\n        /* \"src/contract/Lottery.sol\":1955:1960  owner */\n      0x00\n      dup1\n      sload\n      swap1\n      0x0100\n      exp\n      swap1\n      div\n      0xffffffffffffffffffffffffffffffffffffffff\n      and\n        /* \"src/contract/Lottery.sol\":1947:1970  payable(owner).transfer */\n      0xffffffffffffffffffffffffffffffffffffffff\n      and\n        /* \"src/contract/Lottery.sol\":1947:1993  payable(owner).transfer(address(this).balance) */\n      0x08fc\n        /* \"src/contract/Lottery.sol\":1971:1992  address(this).balance */\n      selfbalance\n        /* \"src/contract/Lottery.sol\":1947:1993  payable(owner).transfer(address(this).balance) */\n      swap1\n      dup2\n      iszero\n      mul\n      swap1\n      mload(0x40)\n      0x00\n      mload(0x40)\n      dup1\n      dup4\n      sub\n      dup2\n      dup6\n      dup9\n      dup9\n      call\n      swap4\n      pop\n      pop\n      pop\n      pop\n      iszero\n      dup1\n      iszero\n      tag_71\n      jumpi\n      returndatasize\n      0x00\n      dup1\n      returndatacopy\n      revert(0x00, returndatasize)\n    tag_71:\n      pop\n        /* \"src/contract/Lottery.sol\":1898:2000  function withdraw() public onlyOwner() {... */\n      jump\t// out\n        /* \"src/contract/Lottery.sol\":346:432  function getItems() public view returns (Item[3] memory) {... */\n    tag_19:\n        /* \"src/contract/Lottery.sol\":387:401  Item[3] memory */\n      tag_72\n      tag_73\n      jump\t// in\n    tag_72:\n        /* \"src/contract/Lottery.sol\":420:425  items */\n      0x01\n        /* \"src/contract/Lottery.sol\":413:425  return items */\n      0x03\n      dup1\n      0x20\n      mul\n      mload(0x40)\n      swap1\n      dup2\n      add\n      0x40\n      mstore\n      dup1\n      swap3\n      swap2\n      swap1\n      0x00\n      swap1\n    tag_75:\n      dup3\n      dup3\n      lt\n      iszero\n      tag_76\n      jumpi\n      dup4\n      dup3\n      0x03\n      mul\n      add\n      mload(0x40)\n      dup1\n      0x60\n      add\n      0x40\n      mstore\n      swap1\n      dup2\n      0x00\n      dup3\n      add\n      sload\n      dup2\n      mstore\n      0x20\n      add\n      0x01\n      dup3\n      add\n      dup1\n      sload\n      dup1\n      0x20\n      mul\n      0x20\n      add\n      mload(0x40)\n      swap1\n      dup2\n      add\n      0x40\n      mstore\n      dup1\n      swap3\n      swap2\n      swap1\n      dup2\n      dup2\n      mstore\n      0x20\n      add\n      dup3\n      dup1\n      sload\n      dup1\n      iszero\n      tag_78\n      jumpi\n      0x20\n      mul\n      dup3\n      add\n      swap2\n      swap1\n      0x00\n      mstore\n      keccak256(0x00, 0x20)\n      swap1\n    tag_79:\n      dup2\n      0x00\n      swap1\n      sload\n      swap1\n      0x0100\n      exp\n      swap1\n      div\n      0xffffffffffffffffffffffffffffffffffffffff\n      and\n      0xffffffffffffffffffffffffffffffffffffffff\n      and\n      dup2\n      mstore\n      0x20\n      add\n      swap1\n      0x01\n      add\n      swap1\n      dup1\n      dup4\n      gt\n      tag_79\n      jumpi\n    tag_78:\n      pop\n      pop\n      pop\n      pop\n      pop\n      dup2\n      mstore\n      0x20\n      add\n      0x02\n      dup3\n      add\n      0x00\n      swap1\n      sload\n      swap1\n      0x0100\n      exp\n      swap1\n      div\n      0xffffffffffffffffffffffffffffffffffffffff\n      and\n      0xffffffffffffffffffffffffffffffffffffffff\n      and\n      0xffffffffffffffffffffffffffffffffffffffff\n      and\n      dup2\n      mstore\n      pop\n      pop\n      dup2\n      mstore\n      0x20\n      add\n      swap1\n      0x01\n      add\n      swap1\n      jump(tag_75)\n    tag_76:\n      pop\n      pop\n      pop\n      pop\n      swap1\n      pop\n        /* \"src/contract/Lottery.sol\":346:432  function getItems() public view returns (Item[3] memory) {... */\n      swap1\n      jump\t// out\n        /* \"src/contract/Lottery.sol\":1445:1892  function bid(uint _itemId) public payable {... */\n    tag_25:\n        /* \"src/contract/Lottery.sol\":1514:1524  msg.sender */\n      caller\n        /* \"src/contract/Lottery.sol\":1505:1524  owner != msg.sender */\n      0xffffffffffffffffffffffffffffffffffffffff\n      and\n        /* \"src/contract/Lottery.sol\":1505:1510  owner */\n      0x00\n      dup1\n      sload\n      swap1\n      0x0100\n      exp\n      swap1\n      div\n      0xffffffffffffffffffffffffffffffffffffffff\n      and\n        /* \"src/contract/Lottery.sol\":1505:1524  owner != msg.sender */\n      0xffffffffffffffffffffffffffffffffffffffff\n      and\n      eq\n      iszero\n        /* \"src/contract/Lottery.sol\":1497:1545  require(owner != msg.sender, \"Owner cannot bid\") */\n      tag_81\n      jumpi\n      mload(0x40)\n      0x08c379a000000000000000000000000000000000000000000000000000000000\n      dup2\n      mstore\n      0x04\n      add\n      tag_82\n      swap1\n      tag_83\n      jump\t// in\n    tag_82:\n      mload(0x40)\n      dup1\n      swap2\n      sub\n      swap1\n      revert\n    tag_81:\n        /* \"src/contract/Lottery.sol\":1596:1597  0 */\n      0x00\n        /* \"src/contract/Lottery.sol\":1563:1598  items[_itemId].winner == address(0) */\n      0xffffffffffffffffffffffffffffffffffffffff\n      and\n        /* \"src/contract/Lottery.sol\":1563:1568  items */\n      0x01\n        /* \"src/contract/Lottery.sol\":1569:1576  _itemId */\n      dup3\n        /* \"src/contract/Lottery.sol\":1563:1577  items[_itemId] */\n      0x03\n      dup2\n      lt\n      tag_84\n      jumpi\n      mstore(0x00, 0x4e487b7100000000000000000000000000000000000000000000000000000000)\n      mstore(0x04, 0x32)\n      revert(0x00, 0x24)\n    tag_84:\n      0x03\n      mul\n      add\n        /* \"src/contract/Lottery.sol\":1563:1584  items[_itemId].winner */\n      0x02\n      add\n      0x00\n      swap1\n      sload\n      swap1\n      0x0100\n      exp\n      swap1\n      div\n      0xffffffffffffffffffffffffffffffffffffffff\n      and\n        /* \"src/contract/Lottery.sol\":1563:1598  items[_itemId].winner == address(0) */\n      0xffffffffffffffffffffffffffffffffffffffff\n      and\n      eq\n        /* \"src/contract/Lottery.sol\":1555:1620  require(items[_itemId].winner == address(0), \"Lottery has ended\") */\n      tag_86\n      jumpi\n      mload(0x40)\n      0x08c379a000000000000000000000000000000000000000000000000000000000\n      dup2\n      mstore\n      0x04\n      add\n      tag_87\n      swap1\n      tag_88\n      jump\t// in\n    tag_87:\n      mload(0x40)\n      dup1\n      swap2\n      sub\n      swap1\n      revert\n    tag_86:\n        /* \"src/contract/Lottery.sol\":1649:1650  0 */\n      0x00\n        /* \"src/contract/Lottery.sol\":1638:1645  _itemId */\n      dup2\n        /* \"src/contract/Lottery.sol\":1638:1650  _itemId >= 0 */\n      lt\n      iszero\n        /* \"src/contract/Lottery.sol\":1638:1666  _itemId >= 0 && _itemId <= 2 */\n      dup1\n      iszero\n      tag_89\n      jumpi\n      pop\n        /* \"src/contract/Lottery.sol\":1665:1666  2 */\n      0x02\n        /* \"src/contract/Lottery.sol\":1654:1661  _itemId */\n      dup2\n        /* \"src/contract/Lottery.sol\":1654:1666  _itemId <= 2 */\n      gt\n      iszero\n        /* \"src/contract/Lottery.sol\":1638:1666  _itemId >= 0 && _itemId <= 2 */\n    tag_89:\n        /* \"src/contract/Lottery.sol\":1630:1686  require(_itemId >= 0 && _itemId <= 2, \"Invalid item id\") */\n      tag_90\n      jumpi\n      mload(0x40)\n      0x08c379a000000000000000000000000000000000000000000000000000000000\n      dup2\n      mstore\n      0x04\n      add\n      tag_91\n      swap1\n      tag_92\n      jump\t// in\n    tag_91:\n      mload(0x40)\n      dup1\n      swap2\n      sub\n      swap1\n      revert\n    tag_90:\n        /* \"src/contract/Lottery.sol\":1717:1727  0.01 ether */\n      0x2386f26fc10000\n        /* \"src/contract/Lottery.sol\":1704:1713  msg.value */\n      callvalue\n        /* \"src/contract/Lottery.sol\":1704:1727  msg.value == 0.01 ether */\n      eq\n        /* \"src/contract/Lottery.sol\":1696:1767  require(msg.value == 0.01 ether, \"Wrong amount, please bid 0.01 ether\") */\n      tag_93\n      jumpi\n      mload(0x40)\n      0x08c379a000000000000000000000000000000000000000000000000000000000\n      dup2\n      mstore\n      0x04\n      add\n      tag_94\n      swap1\n      tag_95\n      jump\t// in\n    tag_94:\n      mload(0x40)\n      dup1\n      swap2\n      sub\n      swap1\n      revert\n    tag_93:\n        /* \"src/contract/Lottery.sol\":1777:1782  items */\n      0x01\n        /* \"src/contract/Lottery.sol\":1783:1790  _itemId */\n      dup2\n        /* \"src/contract/Lottery.sol\":1777:1791  items[_itemId] */\n      0x03\n      dup2\n      lt\n      tag_96\n      jumpi\n      mstore(0x00, 0x4e487b7100000000000000000000000000000000000000000000000000000000)\n      mstore(0x04, 0x32)\n      revert(0x00, 0x24)\n    tag_96:\n      0x03\n      mul\n      add\n        /* \"src/contract/Lottery.sol\":1777:1802  items[_itemId].itemTokens */\n      0x01\n      add\n        /* \"src/contract/Lottery.sol\":1808:1818  msg.sender */\n      caller\n        /* \"src/contract/Lottery.sol\":1777:1819  items[_itemId].itemTokens.push(msg.sender) */\n      swap1\n      dup1\n      0x01\n      dup2\n      sload\n      add\n      dup1\n      dup3\n      sstore\n      dup1\n      swap2\n      pop\n      pop\n      0x01\n      swap1\n      sub\n      swap1\n      0x00\n      mstore\n      keccak256(0x00, 0x20)\n      add\n      0x00\n      swap1\n      swap2\n      swap1\n      swap2\n      swap1\n      swap2\n      0x0100\n      exp\n      dup2\n      sload\n      dup2\n      0xffffffffffffffffffffffffffffffffffffffff\n      mul\n      not\n      and\n      swap1\n      dup4\n      0xffffffffffffffffffffffffffffffffffffffff\n      and\n      mul\n      or\n      swap1\n      sstore\n      pop\n        /* \"src/contract/Lottery.sol\":1834:1885  bidEvent(_itemId, items[_itemId].itemTokens.length) */\n      0xdede4a1daab1bebac072028daa0ddc0522609da9e2e73dc2cbe9ae4effd0e8da\n        /* \"src/contract/Lottery.sol\":1843:1850  _itemId */\n      dup2\n        /* \"src/contract/Lottery.sol\":1852:1857  items */\n      0x01\n        /* \"src/contract/Lottery.sol\":1858:1865  _itemId */\n      dup4\n        /* \"src/contract/Lottery.sol\":1852:1866  items[_itemId] */\n      0x03\n      dup2\n      lt\n      tag_99\n      jumpi\n      mstore(0x00, 0x4e487b7100000000000000000000000000000000000000000000000000000000)\n      mstore(0x04, 0x32)\n      revert(0x00, 0x24)\n    tag_99:\n      0x03\n      mul\n      add\n        /* \"src/contract/Lottery.sol\":1852:1877  items[_itemId].itemTokens */\n      0x01\n      add\n        /* \"src/contract/Lottery.sol\":1852:1884  items[_itemId].itemTokens.length */\n      dup1\n      sload\n      swap1\n      pop\n        /* \"src/contract/Lottery.sol\":1834:1885  bidEvent(_itemId, items[_itemId].itemTokens.length) */\n      mload(0x40)\n      tag_101\n      swap3\n      swap2\n      swap1\n      tag_102\n      jump\t// in\n    tag_101:\n      mload(0x40)\n      dup1\n      swap2\n      sub\n      swap1\n      log1\n        /* \"src/contract/Lottery.sol\":1445:1892  function bid(uint _itemId) public payable {... */\n      pop\n      jump\t// out\n        /* \"src/contract/Lottery.sol\":2639:2773  function DeclareAllWinners() public onlyOwner() {... */\n    tag_28:\n        /* \"src/contract/Lottery.sol\":1037:1042  owner */\n      0x00\n      dup1\n      sload\n      swap1\n      0x0100\n      exp\n      swap1\n      div\n      0xffffffffffffffffffffffffffffffffffffffff\n      and\n        /* \"src/contract/Lottery.sol\":1023:1042  msg.sender == owner */\n      0xffffffffffffffffffffffffffffffffffffffff\n      and\n        /* \"src/contract/Lottery.sol\":1023:1033  msg.sender */\n      caller\n        /* \"src/contract/Lottery.sol\":1023:1042  msg.sender == owner */\n      0xffffffffffffffffffffffffffffffffffffffff\n      and\n      eq\n        /* \"src/contract/Lottery.sol\":1022:1105  (msg.sender == owner) || (msg.sender == 0x153dfef4355E823dCB0FCc76Efe942BefCa86477) */\n      dup1\n      tag_104\n      jumpi\n      pop\n        /* \"src/contract/Lottery.sol\":1062:1104  0x153dfef4355E823dCB0FCc76Efe942BefCa86477 */\n      0x153dfef4355e823dcb0fcc76efe942befca86477\n        /* \"src/contract/Lottery.sol\":1048:1104  msg.sender == 0x153dfef4355E823dCB0FCc76Efe942BefCa86477 */\n      0xffffffffffffffffffffffffffffffffffffffff\n      and\n        /* \"src/contract/Lottery.sol\":1048:1058  msg.sender */\n      caller\n        /* \"src/contract/Lottery.sol\":1048:1104  msg.sender == 0x153dfef4355E823dCB0FCc76Efe942BefCa86477 */\n      0xffffffffffffffffffffffffffffffffffffffff\n      and\n      eq\n        /* \"src/contract/Lottery.sol\":1022:1105  (msg.sender == owner) || (msg.sender == 0x153dfef4355E823dCB0FCc76Efe942BefCa86477) */\n    tag_104:\n        /* \"src/contract/Lottery.sol\":1014:1132  require((msg.sender == owner) || (msg.sender == 0x153dfef4355E823dCB0FCc76Efe942BefCa86477), \"You are not the owner.\") */\n      tag_105\n      jumpi\n      mload(0x40)\n      0x08c379a000000000000000000000000000000000000000000000000000000000\n      dup2\n      mstore\n      0x04\n      add\n      tag_106\n      swap1\n      tag_68\n      jump\t// in\n    tag_106:\n      mload(0x40)\n      dup1\n      swap2\n      sub\n      swap1\n      revert\n    tag_105:\n        /* \"src/contract/Lottery.sol\":2702:2708  uint i */\n      0x00\n        /* \"src/contract/Lottery.sol\":2697:2767  for (uint i = 0; i < 3; i++) {... */\n    tag_108:\n        /* \"src/contract/Lottery.sol\":2718:2719  3 */\n      0x03\n        /* \"src/contract/Lottery.sol\":2714:2715  i */\n      dup2\n        /* \"src/contract/Lottery.sol\":2714:2719  i < 3 */\n      lt\n        /* \"src/contract/Lottery.sol\":2697:2767  for (uint i = 0; i < 3; i++) {... */\n      iszero\n      tag_109\n      jumpi\n        /* \"src/contract/Lottery.sol\":2740:2756  DeclareWinner(i) */\n      tag_111\n        /* \"src/contract/Lottery.sol\":2754:2755  i */\n      dup2\n        /* \"src/contract/Lottery.sol\":2740:2753  DeclareWinner */\n      tag_63\n        /* \"src/contract/Lottery.sol\":2740:2756  DeclareWinner(i) */\n      jump\t// in\n    tag_111:\n        /* \"src/contract/Lottery.sol\":2721:2724  i++ */\n      dup1\n      dup1\n      tag_112\n      swap1\n      tag_113\n      jump\t// in\n    tag_112:\n      swap2\n      pop\n      pop\n        /* \"src/contract/Lottery.sol\":2697:2767  for (uint i = 0; i < 3; i++) {... */\n      jump(tag_108)\n    tag_109:\n      pop\n        /* \"src/contract/Lottery.sol\":2639:2773  function DeclareAllWinners() public onlyOwner() {... */\n      jump\t// out\n        /* \"src/contract/Lottery.sol\":261:340  function getOwner() public view returns (address) {... */\n    tag_31:\n        /* \"src/contract/Lottery.sol\":302:309  address */\n      0x00\n        /* \"src/contract/Lottery.sol\":328:333  owner */\n      dup1\n      0x00\n      swap1\n      sload\n      swap1\n      0x0100\n      exp\n      swap1\n      div\n      0xffffffffffffffffffffffffffffffffffffffff\n      and\n        /* \"src/contract/Lottery.sol\":321:333  return owner */\n      swap1\n      pop\n        /* \"src/contract/Lottery.sol\":261:340  function getOwner() public view returns (address) {... */\n      swap1\n      jump\t// out\n        /* \"src/contract/Lottery.sol\":929:949  address public owner */\n    tag_36:\n      0x00\n      dup1\n      sload\n      swap1\n      0x0100\n      exp\n      swap1\n      div\n      0xffffffffffffffffffffffffffffffffffffffff\n      and\n      dup2\n      jump\t// out\n        /* \"src/contract/Lottery.sol\":438:558  function getPerson() public view returns (Person memory) {... */\n    tag_40:\n        /* \"src/contract/Lottery.sol\":480:493  Person memory */\n      tag_115\n      tag_116\n      jump\t// in\n    tag_115:\n        /* \"src/contract/Lottery.sol\":512:551  Person({personId: 1, addr: msg.sender}) */\n      mload(0x40)\n      dup1\n      0x40\n      add\n      0x40\n      mstore\n      dup1\n        /* \"src/contract/Lottery.sol\":530:531  1 */\n      0x01\n        /* \"src/contract/Lottery.sol\":512:551  Person({personId: 1, addr: msg.sender}) */\n      dup2\n      mstore\n      0x20\n      add\n        /* \"src/contract/Lottery.sol\":539:549  msg.sender */\n      caller\n        /* \"src/contract/Lottery.sol\":512:551  Person({personId: 1, addr: msg.sender}) */\n      0xffffffffffffffffffffffffffffffffffffffff\n      and\n      dup2\n      mstore\n      pop\n        /* \"src/contract/Lottery.sol\":505:551  return Person({personId: 1, addr: msg.sender}) */\n      swap1\n      pop\n        /* \"src/contract/Lottery.sol\":438:558  function getPerson() public view returns (Person memory) {... */\n      swap1\n      jump\t// out\n        /* \"src/contract/Lottery.sol\":956:976  Item[3] public items */\n    tag_46:\n      0x01\n      dup2\n      0x03\n      dup2\n      lt\n      tag_118\n      jumpi\n      0x00\n      dup1\n      revert\n    tag_118:\n      0x03\n      mul\n      add\n      0x00\n      swap2\n      pop\n      swap1\n      pop\n      dup1\n      0x00\n      add\n      sload\n      swap1\n      dup1\n      0x02\n      add\n      0x00\n      swap1\n      sload\n      swap1\n      0x0100\n      exp\n      swap1\n      div\n      0xffffffffffffffffffffffffffffffffffffffff\n      and\n      swap1\n      pop\n      dup3\n      jump\t// out\n        /* \"src/contract/Lottery.sol\":693:923  function getAllItemBidNumber() public view returns (uint[3] memory) {... */\n    tag_51:\n        /* \"src/contract/Lottery.sol\":745:759  uint[3] memory */\n      tag_120\n      tag_121\n      jump\t// in\n    tag_120:\n        /* \"src/contract/Lottery.sol\":771:792  uint[3] memory result */\n      tag_123\n      tag_121\n      jump\t// in\n    tag_123:\n        /* \"src/contract/Lottery.sol\":807:813  uint i */\n      0x00\n        /* \"src/contract/Lottery.sol\":802:894  for (uint i = 0; i < 3; i++) {... */\n    tag_124:\n        /* \"src/contract/Lottery.sol\":823:824  3 */\n      0x03\n        /* \"src/contract/Lottery.sol\":819:820  i */\n      dup2\n        /* \"src/contract/Lottery.sol\":819:824  i < 3 */\n      lt\n        /* \"src/contract/Lottery.sol\":802:894  for (uint i = 0; i < 3; i++) {... */\n      iszero\n      tag_125\n      jumpi\n        /* \"src/contract/Lottery.sol\":857:862  items */\n      0x01\n        /* \"src/contract/Lottery.sol\":863:864  i */\n      dup2\n        /* \"src/contract/Lottery.sol\":857:865  items[i] */\n      0x03\n      dup2\n      lt\n      tag_127\n      jumpi\n      mstore(0x00, 0x4e487b7100000000000000000000000000000000000000000000000000000000)\n      mstore(0x04, 0x32)\n      revert(0x00, 0x24)\n    tag_127:\n      0x03\n      mul\n      add\n        /* \"src/contract/Lottery.sol\":857:876  items[i].itemTokens */\n      0x01\n      add\n        /* \"src/contract/Lottery.sol\":857:883  items[i].itemTokens.length */\n      dup1\n      sload\n      swap1\n      pop\n        /* \"src/contract/Lottery.sol\":845:851  result */\n      dup3\n        /* \"src/contract/Lottery.sol\":852:853  i */\n      dup3\n        /* \"src/contract/Lottery.sol\":845:854  result[i] */\n      0x03\n      dup2\n      lt\n      tag_129\n      jumpi\n      mstore(0x00, 0x4e487b7100000000000000000000000000000000000000000000000000000000)\n      mstore(0x04, 0x32)\n      revert(0x00, 0x24)\n    tag_129:\n      0x20\n      mul\n      add\n        /* \"src/contract/Lottery.sol\":845:883  result[i] = items[i].itemTokens.length */\n      dup2\n      dup2\n      mstore\n      pop\n      pop\n        /* \"src/contract/Lottery.sol\":826:829  i++ */\n      dup1\n      dup1\n      tag_130\n      swap1\n      tag_113\n      jump\t// in\n    tag_130:\n      swap2\n      pop\n      pop\n        /* \"src/contract/Lottery.sol\":802:894  for (uint i = 0; i < 3; i++) {... */\n      jump(tag_124)\n    tag_125:\n      pop\n        /* \"src/contract/Lottery.sol\":910:916  result */\n      dup1\n        /* \"src/contract/Lottery.sol\":903:916  return result */\n      swap2\n      pop\n      pop\n        /* \"src/contract/Lottery.sol\":693:923  function getAllItemBidNumber() public view returns (uint[3] memory) {... */\n      swap1\n      jump\t// out\n        /* \"src/contract/Lottery.sol\":564:687  function getItemBidNumber(uint _itemId) public view returns (uint) {... */\n    tag_57:\n        /* \"src/contract/Lottery.sol\":625:629  uint */\n      0x00\n        /* \"src/contract/Lottery.sol\":648:653  items */\n      0x01\n        /* \"src/contract/Lottery.sol\":654:661  _itemId */\n      dup3\n        /* \"src/contract/Lottery.sol\":648:662  items[_itemId] */\n      0x03\n      dup2\n      lt\n      tag_132\n      jumpi\n      mstore(0x00, 0x4e487b7100000000000000000000000000000000000000000000000000000000)\n      mstore(0x04, 0x32)\n      revert(0x00, 0x24)\n    tag_132:\n      0x03\n      mul\n      add\n        /* \"src/contract/Lottery.sol\":648:673  items[_itemId].itemTokens */\n      0x01\n      add\n        /* \"src/contract/Lottery.sol\":648:680  items[_itemId].itemTokens.length */\n      dup1\n      sload\n      swap1\n      pop\n        /* \"src/contract/Lottery.sol\":641:680  return items[_itemId].itemTokens.length */\n      swap1\n      pop\n        /* \"src/contract/Lottery.sol\":564:687  function getItemBidNumber(uint _itemId) public view returns (uint) {... */\n      swap2\n      swap1\n      pop\n      jump\t// out\n        /* \"src/contract/Lottery.sol\":2064:2633  function DeclareWinner(uint _itemId) public onlyOwner() {... */\n    tag_63:\n        /* \"src/contract/Lottery.sol\":1037:1042  owner */\n      0x00\n      dup1\n      sload\n      swap1\n      0x0100\n      exp\n      swap1\n      div\n      0xffffffffffffffffffffffffffffffffffffffff\n      and\n        /* \"src/contract/Lottery.sol\":1023:1042  msg.sender == owner */\n      0xffffffffffffffffffffffffffffffffffffffff\n      and\n        /* \"src/contract/Lottery.sol\":1023:1033  msg.sender */\n      caller\n        /* \"src/contract/Lottery.sol\":1023:1042  msg.sender == owner */\n      0xffffffffffffffffffffffffffffffffffffffff\n      and\n      eq\n        /* \"src/contract/Lottery.sol\":1022:1105  (msg.sender == owner) || (msg.sender == 0x153dfef4355E823dCB0FCc76Efe942BefCa86477) */\n      dup1\n      tag_135\n      jumpi\n      pop\n        /* \"src/contract/Lottery.sol\":1062:1104  0x153dfef4355E823dCB0FCc76Efe942BefCa86477 */\n      0x153dfef4355e823dcb0fcc76efe942befca86477\n        /* \"src/contract/Lottery.sol\":1048:1104  msg.sender == 0x153dfef4355E823dCB0FCc76Efe942BefCa86477 */\n      0xffffffffffffffffffffffffffffffffffffffff\n      and\n        /* \"src/contract/Lottery.sol\":1048:1058  msg.sender */\n      caller\n        /* \"src/contract/Lottery.sol\":1048:1104  msg.sender == 0x153dfef4355E823dCB0FCc76Efe942BefCa86477 */\n      0xffffffffffffffffffffffffffffffffffffffff\n      and\n      eq\n        /* \"src/contract/Lottery.sol\":1022:1105  (msg.sender == owner) || (msg.sender == 0x153dfef4355E823dCB0FCc76Efe942BefCa86477) */\n    tag_135:\n        /* \"src/contract/Lottery.sol\":1014:1132  require((msg.sender == owner) || (msg.sender == 0x153dfef4355E823dCB0FCc76Efe942BefCa86477), \"You are not the owner.\") */\n      tag_136\n      jumpi\n      mload(0x40)\n      0x08c379a000000000000000000000000000000000000000000000000000000000\n      dup2\n      mstore\n      0x04\n      add\n      tag_137\n      swap1\n      tag_68\n      jump\t// in\n    tag_137:\n      mload(0x40)\n      dup1\n      swap2\n      sub\n      swap1\n      revert\n    tag_136:\n        /* \"src/contract/Lottery.sol\":2171:2172  0 */\n      0x00\n        /* \"src/contract/Lottery.sol\":2138:2173  items[_itemId].winner == address(0) */\n      0xffffffffffffffffffffffffffffffffffffffff\n      and\n        /* \"src/contract/Lottery.sol\":2138:2143  items */\n      0x01\n        /* \"src/contract/Lottery.sol\":2144:2151  _itemId */\n      dup3\n        /* \"src/contract/Lottery.sol\":2138:2152  items[_itemId] */\n      0x03\n      dup2\n      lt\n      tag_139\n      jumpi\n      mstore(0x00, 0x4e487b7100000000000000000000000000000000000000000000000000000000)\n      mstore(0x04, 0x32)\n      revert(0x00, 0x24)\n    tag_139:\n      0x03\n      mul\n      add\n        /* \"src/contract/Lottery.sol\":2138:2159  items[_itemId].winner */\n      0x02\n      add\n      0x00\n      swap1\n      sload\n      swap1\n      0x0100\n      exp\n      swap1\n      div\n      0xffffffffffffffffffffffffffffffffffffffff\n      and\n        /* \"src/contract/Lottery.sol\":2138:2173  items[_itemId].winner == address(0) */\n      0xffffffffffffffffffffffffffffffffffffffff\n      and\n      eq\n        /* \"src/contract/Lottery.sol\":2130:2201  require(items[_itemId].winner == address(0), \"Winner already declared\") */\n      tag_141\n      jumpi\n      mload(0x40)\n      0x08c379a000000000000000000000000000000000000000000000000000000000\n      dup2\n      mstore\n      0x04\n      add\n      tag_142\n      swap1\n      tag_143\n      jump\t// in\n    tag_142:\n      mload(0x40)\n      dup1\n      swap2\n      sub\n      swap1\n      revert\n    tag_141:\n        /* \"src/contract/Lottery.sol\":2251:2252  0 */\n      0x00\n        /* \"src/contract/Lottery.sol\":2215:2220  items */\n      0x01\n        /* \"src/contract/Lottery.sol\":2221:2228  _itemId */\n      dup3\n        /* \"src/contract/Lottery.sol\":2215:2229  items[_itemId] */\n      0x03\n      dup2\n      lt\n      tag_144\n      jumpi\n      mstore(0x00, 0x4e487b7100000000000000000000000000000000000000000000000000000000)\n      mstore(0x04, 0x32)\n      revert(0x00, 0x24)\n    tag_144:\n      0x03\n      mul\n      add\n        /* \"src/contract/Lottery.sol\":2215:2240  items[_itemId].itemTokens */\n      0x01\n      add\n        /* \"src/contract/Lottery.sol\":2215:2247  items[_itemId].itemTokens.length */\n      dup1\n      sload\n      swap1\n      pop\n        /* \"src/contract/Lottery.sol\":2215:2252  items[_itemId].itemTokens.length == 0 */\n      eq\n        /* \"src/contract/Lottery.sol\":2211:2384  if (items[_itemId].itemTokens.length == 0) {... */\n      iszero\n      tag_146\n      jumpi\n        /* \"src/contract/Lottery.sol\":2300:2301  0 */\n      0x00\n        /* \"src/contract/Lottery.sol\":2268:2273  items */\n      0x01\n        /* \"src/contract/Lottery.sol\":2274:2281  _itemId */\n      dup3\n        /* \"src/contract/Lottery.sol\":2268:2282  items[_itemId] */\n      0x03\n      dup2\n      lt\n      tag_147\n      jumpi\n      mstore(0x00, 0x4e487b7100000000000000000000000000000000000000000000000000000000)\n      mstore(0x04, 0x32)\n      revert(0x00, 0x24)\n    tag_147:\n      0x03\n      mul\n      add\n        /* \"src/contract/Lottery.sol\":2268:2289  items[_itemId].winner */\n      0x02\n      add\n      0x00\n        /* \"src/contract/Lottery.sol\":2268:2302  items[_itemId].winner = address(0) */\n      0x0100\n      exp\n      dup2\n      sload\n      dup2\n      0xffffffffffffffffffffffffffffffffffffffff\n      mul\n      not\n      and\n      swap1\n      dup4\n      0xffffffffffffffffffffffffffffffffffffffff\n      and\n      mul\n      or\n      swap1\n      sstore\n      pop\n        /* \"src/contract/Lottery.sol\":2321:2353  winnerEvent(_itemId, address(0)) */\n      0x1c0e4295e0f74d135c113826815ae27019c5dfaf8a19cb1472533bcb988f5ef2\n        /* \"src/contract/Lottery.sol\":2333:2340  _itemId */\n      dup2\n        /* \"src/contract/Lottery.sol\":2350:2351  0 */\n      0x00\n        /* \"src/contract/Lottery.sol\":2321:2353  winnerEvent(_itemId, address(0)) */\n      mload(0x40)\n      tag_149\n      swap3\n      swap2\n      swap1\n      tag_48\n      jump\t// in\n    tag_149:\n      mload(0x40)\n      dup1\n      swap2\n      sub\n      swap1\n      log1\n        /* \"src/contract/Lottery.sol\":2367:2374  return; */\n      jump(tag_138)\n        /* \"src/contract/Lottery.sol\":2211:2384  if (items[_itemId].itemTokens.length == 0) {... */\n    tag_146:\n        /* \"src/contract/Lottery.sol\":2393:2409  uint randomIndex */\n      0x00\n        /* \"src/contract/Lottery.sol\":2464:2469  items */\n      0x01\n        /* \"src/contract/Lottery.sol\":2470:2477  _itemId */\n      dup3\n        /* \"src/contract/Lottery.sol\":2464:2478  items[_itemId] */\n      0x03\n      dup2\n      lt\n      tag_150\n      jumpi\n      mstore(0x00, 0x4e487b7100000000000000000000000000000000000000000000000000000000)\n      mstore(0x04, 0x32)\n      revert(0x00, 0x24)\n    tag_150:\n      0x03\n      mul\n      add\n        /* \"src/contract/Lottery.sol\":2464:2489  items[_itemId].itemTokens */\n      0x01\n      add\n        /* \"src/contract/Lottery.sol\":2464:2496  items[_itemId].itemTokens.length */\n      dup1\n      sload\n      swap1\n      pop\n        /* \"src/contract/Lottery.sol\":2428:2433  items */\n      0x01\n        /* \"src/contract/Lottery.sol\":2434:2441  _itemId */\n      dup4\n        /* \"src/contract/Lottery.sol\":2428:2442  items[_itemId] */\n      0x03\n      dup2\n      lt\n      tag_152\n      jumpi\n      mstore(0x00, 0x4e487b7100000000000000000000000000000000000000000000000000000000)\n      mstore(0x04, 0x32)\n      revert(0x00, 0x24)\n    tag_152:\n      0x03\n      mul\n      add\n        /* \"src/contract/Lottery.sol\":2428:2453  items[_itemId].itemTokens */\n      0x01\n      add\n        /* \"src/contract/Lottery.sol\":2428:2460  items[_itemId].itemTokens.length */\n      dup1\n      sload\n      swap1\n      pop\n        /* \"src/contract/Lottery.sol\":2413:2425  block.number */\n      number\n        /* \"src/contract/Lottery.sol\":2413:2460  block.number / items[_itemId].itemTokens.length */\n      tag_154\n      swap2\n      swap1\n      tag_155\n      jump\t// in\n    tag_154:\n        /* \"src/contract/Lottery.sol\":2412:2496  (block.number / items[_itemId].itemTokens.length) % items[_itemId].itemTokens.length */\n      tag_156\n      swap2\n      swap1\n      tag_157\n      jump\t// in\n    tag_156:\n        /* \"src/contract/Lottery.sol\":2393:2496  uint randomIndex = (block.number / items[_itemId].itemTokens.length) % items[_itemId].itemTokens.length */\n      swap1\n      pop\n        /* \"src/contract/Lottery.sol\":2530:2535  items */\n      0x01\n        /* \"src/contract/Lottery.sol\":2536:2543  _itemId */\n      dup3\n        /* \"src/contract/Lottery.sol\":2530:2544  items[_itemId] */\n      0x03\n      dup2\n      lt\n      tag_158\n      jumpi\n      mstore(0x00, 0x4e487b7100000000000000000000000000000000000000000000000000000000)\n      mstore(0x04, 0x32)\n      revert(0x00, 0x24)\n    tag_158:\n      0x03\n      mul\n      add\n        /* \"src/contract/Lottery.sol\":2530:2555  items[_itemId].itemTokens */\n      0x01\n      add\n        /* \"src/contract/Lottery.sol\":2556:2567  randomIndex */\n      dup2\n        /* \"src/contract/Lottery.sol\":2530:2568  items[_itemId].itemTokens[randomIndex] */\n      dup2\n      sload\n      dup2\n      lt\n      tag_160\n      jumpi\n      mstore(0x00, 0x4e487b7100000000000000000000000000000000000000000000000000000000)\n      mstore(0x04, 0x32)\n      revert(0x00, 0x24)\n    tag_160:\n      swap1\n      0x00\n      mstore\n      keccak256(0x00, 0x20)\n      add\n      0x00\n      swap1\n      sload\n      swap1\n      0x0100\n      exp\n      swap1\n      div\n      0xffffffffffffffffffffffffffffffffffffffff\n      and\n        /* \"src/contract/Lottery.sol\":2506:2511  items */\n      0x01\n        /* \"src/contract/Lottery.sol\":2512:2519  _itemId */\n      dup4\n        /* \"src/contract/Lottery.sol\":2506:2520  items[_itemId] */\n      0x03\n      dup2\n      lt\n      tag_162\n      jumpi\n      mstore(0x00, 0x4e487b7100000000000000000000000000000000000000000000000000000000)\n      mstore(0x04, 0x32)\n      revert(0x00, 0x24)\n    tag_162:\n      0x03\n      mul\n      add\n        /* \"src/contract/Lottery.sol\":2506:2527  items[_itemId].winner */\n      0x02\n      add\n      0x00\n        /* \"src/contract/Lottery.sol\":2506:2568  items[_itemId].winner = items[_itemId].itemTokens[randomIndex] */\n      0x0100\n      exp\n      dup2\n      sload\n      dup2\n      0xffffffffffffffffffffffffffffffffffffffff\n      mul\n      not\n      and\n      swap1\n      dup4\n      0xffffffffffffffffffffffffffffffffffffffff\n      and\n      mul\n      or\n      swap1\n      sstore\n      pop\n        /* \"src/contract/Lottery.sol\":2583:2626  winnerEvent(_itemId, items[_itemId].winner) */\n      0x1c0e4295e0f74d135c113826815ae27019c5dfaf8a19cb1472533bcb988f5ef2\n        /* \"src/contract/Lottery.sol\":2595:2602  _itemId */\n      dup3\n        /* \"src/contract/Lottery.sol\":2604:2609  items */\n      0x01\n        /* \"src/contract/Lottery.sol\":2610:2617  _itemId */\n      dup5\n        /* \"src/contract/Lottery.sol\":2604:2618  items[_itemId] */\n      0x03\n      dup2\n      lt\n      tag_164\n      jumpi\n      mstore(0x00, 0x4e487b7100000000000000000000000000000000000000000000000000000000)\n      mstore(0x04, 0x32)\n      revert(0x00, 0x24)\n    tag_164:\n      0x03\n      mul\n      add\n        /* \"src/contract/Lottery.sol\":2604:2625  items[_itemId].winner */\n      0x02\n      add\n      0x00\n      swap1\n      sload\n      swap1\n      0x0100\n      exp\n      swap1\n      div\n      0xffffffffffffffffffffffffffffffffffffffff\n      and\n        /* \"src/contract/Lottery.sol\":2583:2626  winnerEvent(_itemId, items[_itemId].winner) */\n      mload(0x40)\n      tag_166\n      swap3\n      swap2\n      swap1\n      tag_48\n      jump\t// in\n    tag_166:\n      mload(0x40)\n      dup1\n      swap2\n      sub\n      swap1\n      log1\n        /* \"src/contract/Lottery.sol\":1142:1143  _ */\n      pop\n    tag_138:\n        /* \"src/contract/Lottery.sol\":2064:2633  function DeclareWinner(uint _itemId) public onlyOwner() {... */\n      pop\n      jump\t// out\n    tag_73:\n      mload(0x40)\n      dup1\n      0x60\n      add\n      0x40\n      mstore\n      dup1\n      0x03\n      swap1\n    tag_167:\n      tag_168\n      tag_169\n      jump\t// in\n    tag_168:\n      dup2\n      mstore\n      0x20\n      add\n      swap1\n      0x01\n      swap1\n      sub\n      swap1\n      dup2\n      tag_167\n      jumpi\n      swap1\n      pop\n      pop\n      swap1\n      jump\t// out\n    tag_116:\n      mload(0x40)\n      dup1\n      0x40\n      add\n      0x40\n      mstore\n      dup1\n      0x00\n      dup2\n      mstore\n      0x20\n      add\n      and(0xffffffffffffffffffffffffffffffffffffffff, 0x00)\n      dup2\n      mstore\n      pop\n      swap1\n      jump\t// out\n    tag_121:\n      mload(0x40)\n      dup1\n      0x60\n      add\n      0x40\n      mstore\n      dup1\n      0x03\n      swap1\n      0x20\n      dup3\n      mul\n      dup1\n      calldatasize\n      dup4\n      calldatacopy\n      dup1\n      dup3\n      add\n      swap2\n      pop\n      pop\n      swap1\n      pop\n      pop\n      swap1\n      jump\t// out\n    tag_169:\n      mload(0x40)\n      dup1\n      0x60\n      add\n      0x40\n      mstore\n      dup1\n      0x00\n      dup2\n      mstore\n      0x20\n      add\n      0x60\n      dup2\n      mstore\n      0x20\n      add\n      and(0xffffffffffffffffffffffffffffffffffffffff, 0x00)\n      dup2\n      mstore\n      pop\n      swap1\n      jump\t// out\n        /* \"#utility.yul\":7:146   */\n    tag_171:\n      0x00\n        /* \"#utility.yul\":91:97   */\n      dup2\n        /* \"#utility.yul\":78:98   */\n      calldataload\n        /* \"#utility.yul\":69:98   */\n      swap1\n      pop\n        /* \"#utility.yul\":107:140   */\n      tag_173\n        /* \"#utility.yul\":134:139   */\n      dup2\n        /* \"#utility.yul\":107:140   */\n      tag_174\n      jump\t// in\n    tag_173:\n        /* \"#utility.yul\":59:146   */\n      swap3\n      swap2\n      pop\n      pop\n      jump\t// out\n        /* \"#utility.yul\":152:414   */\n    tag_24:\n      0x00\n        /* \"#utility.yul\":260:262   */\n      0x20\n        /* \"#utility.yul\":248:257   */\n      dup3\n        /* \"#utility.yul\":239:246   */\n      dup5\n        /* \"#utility.yul\":235:258   */\n      sub\n        /* \"#utility.yul\":231:263   */\n      slt\n        /* \"#utility.yul\":228:230   */\n      iszero\n      tag_176\n      jumpi\n        /* \"#utility.yul\":276:277   */\n      0x00\n        /* \"#utility.yul\":273:274   */\n      dup1\n        /* \"#utility.yul\":266:278   */\n      revert\n        /* \"#utility.yul\":228:230   */\n    tag_176:\n        /* \"#utility.yul\":319:320   */\n      0x00\n        /* \"#utility.yul\":344:397   */\n      tag_177\n        /* \"#utility.yul\":389:396   */\n      dup5\n        /* \"#utility.yul\":380:386   */\n      dup3\n        /* \"#utility.yul\":369:378   */\n      dup6\n        /* \"#utility.yul\":365:387   */\n      add\n        /* \"#utility.yul\":344:397   */\n      tag_171\n      jump\t// in\n    tag_177:\n        /* \"#utility.yul\":334:397   */\n      swap2\n      pop\n        /* \"#utility.yul\":290:407   */\n      pop\n        /* \"#utility.yul\":218:414   */\n      swap3\n      swap2\n      pop\n      pop\n      jump\t// out\n        /* \"#utility.yul\":420:599   */\n    tag_178:\n      0x00\n        /* \"#utility.yul\":510:556   */\n      tag_180\n        /* \"#utility.yul\":552:555   */\n      dup4\n        /* \"#utility.yul\":544:550   */\n      dup4\n        /* \"#utility.yul\":510:556   */\n      tag_181\n      jump\t// in\n    tag_180:\n        /* \"#utility.yul\":588:592   */\n      0x20\n        /* \"#utility.yul\":583:586   */\n      dup4\n        /* \"#utility.yul\":579:593   */\n      add\n        /* \"#utility.yul\":565:593   */\n      swap1\n      pop\n        /* \"#utility.yul\":500:599   */\n      swap3\n      swap2\n      pop\n      pop\n      jump\t// out\n        /* \"#utility.yul\":605:837   */\n    tag_182:\n      0x00\n        /* \"#utility.yul\":747:831   */\n      tag_184\n        /* \"#utility.yul\":827:830   */\n      dup4\n        /* \"#utility.yul\":819:825   */\n      dup4\n        /* \"#utility.yul\":747:831   */\n      tag_185\n      jump\t// in\n    tag_184:\n        /* \"#utility.yul\":733:831   */\n      swap1\n      pop\n        /* \"#utility.yul\":723:837   */\n      swap3\n      swap2\n      pop\n      pop\n      jump\t// out\n        /* \"#utility.yul\":843:1022   */\n    tag_186:\n      0x00\n        /* \"#utility.yul\":933:979   */\n      tag_188\n        /* \"#utility.yul\":975:978   */\n      dup4\n        /* \"#utility.yul\":967:973   */\n      dup4\n        /* \"#utility.yul\":933:979   */\n      tag_189\n      jump\t// in\n    tag_188:\n        /* \"#utility.yul\":1011:1015   */\n      0x20\n        /* \"#utility.yul\":1006:1009   */\n      dup4\n        /* \"#utility.yul\":1002:1016   */\n      add\n        /* \"#utility.yul\":988:1016   */\n      swap1\n      pop\n        /* \"#utility.yul\":923:1022   */\n      swap3\n      swap2\n      pop\n      pop\n      jump\t// out\n        /* \"#utility.yul\":1028:1136   */\n    tag_181:\n        /* \"#utility.yul\":1105:1129   */\n      tag_191\n        /* \"#utility.yul\":1123:1128   */\n      dup2\n        /* \"#utility.yul\":1105:1129   */\n      tag_192\n      jump\t// in\n    tag_191:\n        /* \"#utility.yul\":1100:1103   */\n      dup3\n        /* \"#utility.yul\":1093:1130   */\n      mstore\n        /* \"#utility.yul\":1083:1136   */\n      pop\n      pop\n      jump\t// out\n        /* \"#utility.yul\":1142:1260   */\n    tag_193:\n        /* \"#utility.yul\":1229:1253   */\n      tag_195\n        /* \"#utility.yul\":1247:1252   */\n      dup2\n        /* \"#utility.yul\":1229:1253   */\n      tag_192\n      jump\t// in\n    tag_195:\n        /* \"#utility.yul\":1224:1227   */\n      dup3\n        /* \"#utility.yul\":1217:1254   */\n      mstore\n        /* \"#utility.yul\":1207:1260   */\n      pop\n      pop\n      jump\t// out\n        /* \"#utility.yul\":1296:2008   */\n    tag_196:\n      0x00\n        /* \"#utility.yul\":1434:1488   */\n      tag_198\n        /* \"#utility.yul\":1482:1487   */\n      dup3\n        /* \"#utility.yul\":1434:1488   */\n      tag_199\n      jump\t// in\n    tag_198:\n        /* \"#utility.yul\":1504:1580   */\n      tag_200\n        /* \"#utility.yul\":1573:1579   */\n      dup2\n        /* \"#utility.yul\":1568:1571   */\n      dup6\n        /* \"#utility.yul\":1504:1580   */\n      tag_201\n      jump\t// in\n    tag_200:\n        /* \"#utility.yul\":1497:1580   */\n      swap4\n      pop\n        /* \"#utility.yul\":1604:1660   */\n      tag_202\n        /* \"#utility.yul\":1654:1659   */\n      dup4\n        /* \"#utility.yul\":1604:1660   */\n      tag_203\n      jump\t// in\n    tag_202:\n        /* \"#utility.yul\":1683:1690   */\n      dup1\n        /* \"#utility.yul\":1714:1715   */\n      0x00\n        /* \"#utility.yul\":1699:1983   */\n    tag_204:\n        /* \"#utility.yul\":1724:1730   */\n      dup4\n        /* \"#utility.yul\":1721:1722   */\n      dup2\n        /* \"#utility.yul\":1718:1731   */\n      lt\n        /* \"#utility.yul\":1699:1983   */\n      iszero\n      tag_206\n      jumpi\n        /* \"#utility.yul\":1800:1806   */\n      dup2\n        /* \"#utility.yul\":1794:1807   */\n      mload\n        /* \"#utility.yul\":1827:1890   */\n      tag_207\n        /* \"#utility.yul\":1886:1889   */\n      dup9\n        /* \"#utility.yul\":1871:1884   */\n      dup3\n        /* \"#utility.yul\":1827:1890   */\n      tag_178\n      jump\t// in\n    tag_207:\n        /* \"#utility.yul\":1820:1890   */\n      swap8\n      pop\n        /* \"#utility.yul\":1913:1973   */\n      tag_208\n        /* \"#utility.yul\":1966:1972   */\n      dup4\n        /* \"#utility.yul\":1913:1973   */\n      tag_209\n      jump\t// in\n    tag_208:\n        /* \"#utility.yul\":1903:1973   */\n      swap3\n      pop\n        /* \"#utility.yul\":1759:1983   */\n      pop\n        /* \"#utility.yul\":1746:1747   */\n      0x01\n        /* \"#utility.yul\":1743:1744   */\n      dup2\n        /* \"#utility.yul\":1739:1748   */\n      add\n        /* \"#utility.yul\":1734:1748   */\n      swap1\n      pop\n        /* \"#utility.yul\":1699:1983   */\n      jump(tag_204)\n    tag_206:\n        /* \"#utility.yul\":1703:1717   */\n      pop\n        /* \"#utility.yul\":1999:2002   */\n      dup6\n        /* \"#utility.yul\":1992:2002   */\n      swap4\n      pop\n        /* \"#utility.yul\":1410:2008   */\n      pop\n      pop\n      pop\n      swap3\n      swap2\n      pop\n      pop\n      jump\t// out\n        /* \"#utility.yul\":2070:3121   */\n    tag_210:\n      0x00\n        /* \"#utility.yul\":2252:2323   */\n      tag_212\n        /* \"#utility.yul\":2317:2322   */\n      dup3\n        /* \"#utility.yul\":2252:2323   */\n      tag_213\n      jump\t// in\n    tag_212:\n        /* \"#utility.yul\":2339:2442   */\n      tag_214\n        /* \"#utility.yul\":2435:2441   */\n      dup2\n        /* \"#utility.yul\":2430:2433   */\n      dup6\n        /* \"#utility.yul\":2339:2442   */\n      tag_215\n      jump\t// in\n    tag_214:\n        /* \"#utility.yul\":2332:2442   */\n      swap4\n      pop\n        /* \"#utility.yul\":2468:2471   */\n      dup4\n        /* \"#utility.yul\":2513:2517   */\n      0x20\n        /* \"#utility.yul\":2505:2511   */\n      dup3\n        /* \"#utility.yul\":2501:2518   */\n      mul\n        /* \"#utility.yul\":2496:2499   */\n      dup6\n        /* \"#utility.yul\":2492:2519   */\n      add\n        /* \"#utility.yul\":2543:2616   */\n      tag_216\n        /* \"#utility.yul\":2610:2615   */\n      dup6\n        /* \"#utility.yul\":2543:2616   */\n      tag_217\n      jump\t// in\n    tag_216:\n        /* \"#utility.yul\":2639:2646   */\n      dup1\n        /* \"#utility.yul\":2670:2671   */\n      0x00\n        /* \"#utility.yul\":2655:3076   */\n    tag_218:\n        /* \"#utility.yul\":2680:2686   */\n      dup6\n        /* \"#utility.yul\":2677:2678   */\n      dup2\n        /* \"#utility.yul\":2674:2687   */\n      lt\n        /* \"#utility.yul\":2655:3076   */\n      iszero\n      tag_220\n      jumpi\n        /* \"#utility.yul\":2751:2760   */\n      dup5\n        /* \"#utility.yul\":2745:2749   */\n      dup5\n        /* \"#utility.yul\":2741:2761   */\n      sub\n        /* \"#utility.yul\":2736:2739   */\n      dup10\n        /* \"#utility.yul\":2729:2762   */\n      mstore\n        /* \"#utility.yul\":2802:2808   */\n      dup2\n        /* \"#utility.yul\":2796:2809   */\n      mload\n        /* \"#utility.yul\":2830:2932   */\n      tag_221\n        /* \"#utility.yul\":2927:2931   */\n      dup6\n        /* \"#utility.yul\":2912:2925   */\n      dup3\n        /* \"#utility.yul\":2830:2932   */\n      tag_182\n      jump\t// in\n    tag_221:\n        /* \"#utility.yul\":2822:2932   */\n      swap5\n      pop\n        /* \"#utility.yul\":2955:3032   */\n      tag_222\n        /* \"#utility.yul\":3025:3031   */\n      dup4\n        /* \"#utility.yul\":2955:3032   */\n      tag_223\n      jump\t// in\n    tag_222:\n        /* \"#utility.yul\":2945:3032   */\n      swap3\n      pop\n        /* \"#utility.yul\":3061:3065   */\n      0x20\n        /* \"#utility.yul\":3056:3059   */\n      dup11\n        /* \"#utility.yul\":3052:3066   */\n      add\n        /* \"#utility.yul\":3045:3066   */\n      swap10\n      pop\n        /* \"#utility.yul\":2715:3076   */\n      pop\n        /* \"#utility.yul\":2702:2703   */\n      0x01\n        /* \"#utility.yul\":2699:2700   */\n      dup2\n        /* \"#utility.yul\":2695:2704   */\n      add\n        /* \"#utility.yul\":2690:2704   */\n      swap1\n      pop\n        /* \"#utility.yul\":2655:3076   */\n      jump(tag_218)\n    tag_220:\n        /* \"#utility.yul\":2659:2673   */\n      pop\n        /* \"#utility.yul\":3092:3096   */\n      dup3\n        /* \"#utility.yul\":3085:3096   */\n      swap8\n      pop\n        /* \"#utility.yul\":3112:3115   */\n      dup8\n        /* \"#utility.yul\":3105:3115   */\n      swap6\n      pop\n        /* \"#utility.yul\":2228:3121   */\n      pop\n      pop\n      pop\n      pop\n      pop\n      swap3\n      swap2\n      pop\n      pop\n      jump\t// out\n        /* \"#utility.yul\":3159:3853   */\n    tag_224:\n        /* \"#utility.yul\":3295:3347   */\n      tag_226\n        /* \"#utility.yul\":3341:3346   */\n      dup2\n        /* \"#utility.yul\":3295:3347   */\n      tag_227\n      jump\t// in\n    tag_226:\n        /* \"#utility.yul\":3363:3447   */\n      tag_228\n        /* \"#utility.yul\":3440:3446   */\n      dup2\n        /* \"#utility.yul\":3435:3438   */\n      dup5\n        /* \"#utility.yul\":3363:3447   */\n      tag_229\n      jump\t// in\n    tag_228:\n        /* \"#utility.yul\":3356:3447   */\n      swap3\n      pop\n        /* \"#utility.yul\":3471:3525   */\n      tag_230\n        /* \"#utility.yul\":3519:3524   */\n      dup3\n        /* \"#utility.yul\":3471:3525   */\n      tag_231\n      jump\t// in\n    tag_230:\n        /* \"#utility.yul\":3548:3555   */\n      dup1\n        /* \"#utility.yul\":3579:3580   */\n      0x00\n        /* \"#utility.yul\":3564:3846   */\n    tag_232:\n        /* \"#utility.yul\":3589:3595   */\n      dup4\n        /* \"#utility.yul\":3586:3587   */\n      dup2\n        /* \"#utility.yul\":3583:3596   */\n      lt\n        /* \"#utility.yul\":3564:3846   */\n      iszero\n      tag_234\n      jumpi\n        /* \"#utility.yul\":3665:3671   */\n      dup2\n        /* \"#utility.yul\":3659:3672   */\n      mload\n        /* \"#utility.yul\":3692:3755   */\n      tag_235\n        /* \"#utility.yul\":3751:3754   */\n      dup8\n        /* \"#utility.yul\":3736:3749   */\n      dup3\n        /* \"#utility.yul\":3692:3755   */\n      tag_186\n      jump\t// in\n    tag_235:\n        /* \"#utility.yul\":3685:3755   */\n      swap7\n      pop\n        /* \"#utility.yul\":3778:3836   */\n      tag_236\n        /* \"#utility.yul\":3829:3835   */\n      dup4\n        /* \"#utility.yul\":3778:3836   */\n      tag_237\n      jump\t// in\n    tag_236:\n        /* \"#utility.yul\":3768:3836   */\n      swap3\n      pop\n        /* \"#utility.yul\":3624:3846   */\n      pop\n        /* \"#utility.yul\":3611:3612   */\n      0x01\n        /* \"#utility.yul\":3608:3609   */\n      dup2\n        /* \"#utility.yul\":3604:3613   */\n      add\n        /* \"#utility.yul\":3599:3613   */\n      swap1\n      pop\n        /* \"#utility.yul\":3564:3846   */\n      jump(tag_232)\n    tag_234:\n        /* \"#utility.yul\":3568:3582   */\n      pop\n        /* \"#utility.yul\":3271:3853   */\n      pop\n      pop\n      pop\n      pop\n      pop\n      jump\t// out\n        /* \"#utility.yul\":3859:4225   */\n    tag_238:\n      0x00\n        /* \"#utility.yul\":4022:4089   */\n      tag_240\n        /* \"#utility.yul\":4086:4088   */\n      0x0f\n        /* \"#utility.yul\":4081:4084   */\n      dup4\n        /* \"#utility.yul\":4022:4089   */\n      tag_241\n      jump\t// in\n    tag_240:\n        /* \"#utility.yul\":4015:4089   */\n      swap2\n      pop\n        /* \"#utility.yul\":4098:4191   */\n      tag_242\n        /* \"#utility.yul\":4187:4190   */\n      dup3\n        /* \"#utility.yul\":4098:4191   */\n      tag_243\n      jump\t// in\n    tag_242:\n        /* \"#utility.yul\":4216:4218   */\n      0x20\n        /* \"#utility.yul\":4211:4214   */\n      dup3\n        /* \"#utility.yul\":4207:4219   */\n      add\n        /* \"#utility.yul\":4200:4219   */\n      swap1\n      pop\n        /* \"#utility.yul\":4005:4225   */\n      swap2\n      swap1\n      pop\n      jump\t// out\n        /* \"#utility.yul\":4231:4597   */\n    tag_244:\n      0x00\n        /* \"#utility.yul\":4394:4461   */\n      tag_246\n        /* \"#utility.yul\":4458:4460   */\n      0x23\n        /* \"#utility.yul\":4453:4456   */\n      dup4\n        /* \"#utility.yul\":4394:4461   */\n      tag_241\n      jump\t// in\n    tag_246:\n        /* \"#utility.yul\":4387:4461   */\n      swap2\n      pop\n        /* \"#utility.yul\":4470:4563   */\n      tag_247\n        /* \"#utility.yul\":4559:4562   */\n      dup3\n        /* \"#utility.yul\":4470:4563   */\n      tag_248\n      jump\t// in\n    tag_247:\n        /* \"#utility.yul\":4588:4590   */\n      0x40\n        /* \"#utility.yul\":4583:4586   */\n      dup3\n        /* \"#utility.yul\":4579:4591   */\n      add\n        /* \"#utility.yul\":4572:4591   */\n      swap1\n      pop\n        /* \"#utility.yul\":4377:4597   */\n      swap2\n      swap1\n      pop\n      jump\t// out\n        /* \"#utility.yul\":4603:4969   */\n    tag_249:\n      0x00\n        /* \"#utility.yul\":4766:4833   */\n      tag_251\n        /* \"#utility.yul\":4830:4832   */\n      0x10\n        /* \"#utility.yul\":4825:4828   */\n      dup4\n        /* \"#utility.yul\":4766:4833   */\n      tag_241\n      jump\t// in\n    tag_251:\n        /* \"#utility.yul\":4759:4833   */\n      swap2\n      pop\n        /* \"#utility.yul\":4842:4935   */\n      tag_252\n        /* \"#utility.yul\":4931:4934   */\n      dup3\n        /* \"#utility.yul\":4842:4935   */\n      tag_253\n      jump\t// in\n    tag_252:\n        /* \"#utility.yul\":4960:4962   */\n      0x20\n        /* \"#utility.yul\":4955:4958   */\n      dup3\n        /* \"#utility.yul\":4951:4963   */\n      add\n        /* \"#utility.yul\":4944:4963   */\n      swap1\n      pop\n        /* \"#utility.yul\":4749:4969   */\n      swap2\n      swap1\n      pop\n      jump\t// out\n        /* \"#utility.yul\":4975:5341   */\n    tag_254:\n      0x00\n        /* \"#utility.yul\":5138:5205   */\n      tag_256\n        /* \"#utility.yul\":5202:5204   */\n      0x11\n        /* \"#utility.yul\":5197:5200   */\n      dup4\n        /* \"#utility.yul\":5138:5205   */\n      tag_241\n      jump\t// in\n    tag_256:\n        /* \"#utility.yul\":5131:5205   */\n      swap2\n      pop\n        /* \"#utility.yul\":5214:5307   */\n      tag_257\n        /* \"#utility.yul\":5303:5306   */\n      dup3\n        /* \"#utility.yul\":5214:5307   */\n      tag_258\n      jump\t// in\n    tag_257:\n        /* \"#utility.yul\":5332:5334   */\n      0x20\n        /* \"#utility.yul\":5327:5330   */\n      dup3\n        /* \"#utility.yul\":5323:5335   */\n      add\n        /* \"#utility.yul\":5316:5335   */\n      swap1\n      pop\n        /* \"#utility.yul\":5121:5341   */\n      swap2\n      swap1\n      pop\n      jump\t// out\n        /* \"#utility.yul\":5347:5713   */\n    tag_259:\n      0x00\n        /* \"#utility.yul\":5510:5577   */\n      tag_261\n        /* \"#utility.yul\":5574:5576   */\n      0x17\n        /* \"#utility.yul\":5569:5572   */\n      dup4\n        /* \"#utility.yul\":5510:5577   */\n      tag_241\n      jump\t// in\n    tag_261:\n        /* \"#utility.yul\":5503:5577   */\n      swap2\n      pop\n        /* \"#utility.yul\":5586:5679   */\n      tag_262\n        /* \"#utility.yul\":5675:5678   */\n      dup3\n        /* \"#utility.yul\":5586:5679   */\n      tag_263\n      jump\t// in\n    tag_262:\n        /* \"#utility.yul\":5704:5706   */\n      0x20\n        /* \"#utility.yul\":5699:5702   */\n      dup3\n        /* \"#utility.yul\":5695:5707   */\n      add\n        /* \"#utility.yul\":5688:5707   */\n      swap1\n      pop\n        /* \"#utility.yul\":5493:5713   */\n      swap2\n      swap1\n      pop\n      jump\t// out\n        /* \"#utility.yul\":5719:6085   */\n    tag_264:\n      0x00\n        /* \"#utility.yul\":5882:5949   */\n      tag_266\n        /* \"#utility.yul\":5946:5948   */\n      0x16\n        /* \"#utility.yul\":5941:5944   */\n      dup4\n        /* \"#utility.yul\":5882:5949   */\n      tag_241\n      jump\t// in\n    tag_266:\n        /* \"#utility.yul\":5875:5949   */\n      swap2\n      pop\n        /* \"#utility.yul\":5958:6051   */\n      tag_267\n        /* \"#utility.yul\":6047:6050   */\n      dup3\n        /* \"#utility.yul\":5958:6051   */\n      tag_268\n      jump\t// in\n    tag_267:\n        /* \"#utility.yul\":6076:6078   */\n      0x20\n        /* \"#utility.yul\":6071:6074   */\n      dup3\n        /* \"#utility.yul\":6067:6079   */\n      add\n        /* \"#utility.yul\":6060:6079   */\n      swap1\n      pop\n        /* \"#utility.yul\":5865:6085   */\n      swap2\n      swap1\n      pop\n      jump\t// out\n        /* \"#utility.yul\":6141:6939   */\n    tag_185:\n      0x00\n        /* \"#utility.yul\":6274:6278   */\n      0x60\n        /* \"#utility.yul\":6269:6272   */\n      dup4\n        /* \"#utility.yul\":6265:6279   */\n      add\n        /* \"#utility.yul\":6363:6367   */\n      0x00\n        /* \"#utility.yul\":6356:6361   */\n      dup4\n        /* \"#utility.yul\":6352:6368   */\n      add\n        /* \"#utility.yul\":6346:6369   */\n      mload\n        /* \"#utility.yul\":6382:6445   */\n      tag_270\n        /* \"#utility.yul\":6439:6443   */\n      0x00\n        /* \"#utility.yul\":6434:6437   */\n      dup7\n        /* \"#utility.yul\":6430:6444   */\n      add\n        /* \"#utility.yul\":6416:6428   */\n      dup3\n        /* \"#utility.yul\":6382:6445   */\n      tag_189\n      jump\t// in\n    tag_270:\n        /* \"#utility.yul\":6289:6455   */\n      pop\n        /* \"#utility.yul\":6543:6547   */\n      0x20\n        /* \"#utility.yul\":6536:6541   */\n      dup4\n        /* \"#utility.yul\":6532:6548   */\n      add\n        /* \"#utility.yul\":6526:6549   */\n      mload\n        /* \"#utility.yul\":6596:6599   */\n      dup5\n        /* \"#utility.yul\":6590:6594   */\n      dup3\n        /* \"#utility.yul\":6586:6600   */\n      sub\n        /* \"#utility.yul\":6579:6583   */\n      0x20\n        /* \"#utility.yul\":6574:6577   */\n      dup7\n        /* \"#utility.yul\":6570:6584   */\n      add\n        /* \"#utility.yul\":6563:6601   */\n      mstore\n        /* \"#utility.yul\":6622:6725   */\n      tag_271\n        /* \"#utility.yul\":6720:6724   */\n      dup3\n        /* \"#utility.yul\":6706:6718   */\n      dup3\n        /* \"#utility.yul\":6622:6725   */\n      tag_196\n      jump\t// in\n    tag_271:\n        /* \"#utility.yul\":6614:6725   */\n      swap2\n      pop\n        /* \"#utility.yul\":6465:6736   */\n      pop\n        /* \"#utility.yul\":6820:6824   */\n      0x40\n        /* \"#utility.yul\":6813:6818   */\n      dup4\n        /* \"#utility.yul\":6809:6825   */\n      add\n        /* \"#utility.yul\":6803:6826   */\n      mload\n        /* \"#utility.yul\":6839:6902   */\n      tag_272\n        /* \"#utility.yul\":6896:6900   */\n      0x40\n        /* \"#utility.yul\":6891:6894   */\n      dup7\n        /* \"#utility.yul\":6887:6901   */\n      add\n        /* \"#utility.yul\":6873:6885   */\n      dup3\n        /* \"#utility.yul\":6839:6902   */\n      tag_181\n      jump\t// in\n    tag_272:\n        /* \"#utility.yul\":6746:6912   */\n      pop\n        /* \"#utility.yul\":6929:6933   */\n      dup1\n        /* \"#utility.yul\":6922:6933   */\n      swap2\n      pop\n        /* \"#utility.yul\":6243:6939   */\n      pop\n      swap3\n      swap2\n      pop\n      pop\n      jump\t// out\n        /* \"#utility.yul\":6999:7504   */\n    tag_273:\n        /* \"#utility.yul\":7140:7144   */\n      0x40\n        /* \"#utility.yul\":7135:7138   */\n      dup3\n        /* \"#utility.yul\":7131:7145   */\n      add\n        /* \"#utility.yul\":7231:7235   */\n      0x00\n        /* \"#utility.yul\":7224:7229   */\n      dup3\n        /* \"#utility.yul\":7220:7236   */\n      add\n        /* \"#utility.yul\":7214:7237   */\n      mload\n        /* \"#utility.yul\":7250:7313   */\n      tag_275\n        /* \"#utility.yul\":7307:7311   */\n      0x00\n        /* \"#utility.yul\":7302:7305   */\n      dup6\n        /* \"#utility.yul\":7298:7312   */\n      add\n        /* \"#utility.yul\":7284:7296   */\n      dup3\n        /* \"#utility.yul\":7250:7313   */\n      tag_189\n      jump\t// in\n    tag_275:\n        /* \"#utility.yul\":7155:7323   */\n      pop\n        /* \"#utility.yul\":7405:7409   */\n      0x20\n        /* \"#utility.yul\":7398:7403   */\n      dup3\n        /* \"#utility.yul\":7394:7410   */\n      add\n        /* \"#utility.yul\":7388:7411   */\n      mload\n        /* \"#utility.yul\":7424:7487   */\n      tag_276\n        /* \"#utility.yul\":7481:7485   */\n      0x20\n        /* \"#utility.yul\":7476:7479   */\n      dup6\n        /* \"#utility.yul\":7472:7486   */\n      add\n        /* \"#utility.yul\":7458:7470   */\n      dup3\n        /* \"#utility.yul\":7424:7487   */\n      tag_181\n      jump\t// in\n    tag_276:\n        /* \"#utility.yul\":7333:7497   */\n      pop\n        /* \"#utility.yul\":7109:7504   */\n      pop\n      pop\n      pop\n      jump\t// out\n        /* \"#utility.yul\":7510:7618   */\n    tag_189:\n        /* \"#utility.yul\":7587:7611   */\n      tag_278\n        /* \"#utility.yul\":7605:7610   */\n      dup2\n        /* \"#utility.yul\":7587:7611   */\n      tag_279\n      jump\t// in\n    tag_278:\n        /* \"#utility.yul\":7582:7585   */\n      dup3\n        /* \"#utility.yul\":7575:7612   */\n      mstore\n        /* \"#utility.yul\":7565:7618   */\n      pop\n      pop\n      jump\t// out\n        /* \"#utility.yul\":7624:7742   */\n    tag_280:\n        /* \"#utility.yul\":7711:7735   */\n      tag_282\n        /* \"#utility.yul\":7729:7734   */\n      dup2\n        /* \"#utility.yul\":7711:7735   */\n      tag_279\n      jump\t// in\n    tag_282:\n        /* \"#utility.yul\":7706:7709   */\n      dup3\n        /* \"#utility.yul\":7699:7736   */\n      mstore\n        /* \"#utility.yul\":7689:7742   */\n      pop\n      pop\n      jump\t// out\n        /* \"#utility.yul\":7748:7970   */\n    tag_33:\n      0x00\n        /* \"#utility.yul\":7879:7881   */\n      0x20\n        /* \"#utility.yul\":7868:7877   */\n      dup3\n        /* \"#utility.yul\":7864:7882   */\n      add\n        /* \"#utility.yul\":7856:7882   */\n      swap1\n      pop\n        /* \"#utility.yul\":7892:7963   */\n      tag_284\n        /* \"#utility.yul\":7960:7961   */\n      0x00\n        /* \"#utility.yul\":7949:7958   */\n      dup4\n        /* \"#utility.yul\":7945:7962   */\n      add\n        /* \"#utility.yul\":7936:7942   */\n      dup5\n        /* \"#utility.yul\":7892:7963   */\n      tag_193\n      jump\t// in\n    tag_284:\n        /* \"#utility.yul\":7846:7970   */\n      swap3\n      swap2\n      pop\n      pop\n      jump\t// out\n        /* \"#utility.yul\":7976:8417   */\n    tag_21:\n      0x00\n        /* \"#utility.yul\":8191:8193   */\n      0x20\n        /* \"#utility.yul\":8180:8189   */\n      dup3\n        /* \"#utility.yul\":8176:8194   */\n      add\n        /* \"#utility.yul\":8168:8194   */\n      swap1\n      pop\n        /* \"#utility.yul\":8240:8249   */\n      dup2\n        /* \"#utility.yul\":8234:8238   */\n      dup2\n        /* \"#utility.yul\":8230:8250   */\n      sub\n        /* \"#utility.yul\":8226:8227   */\n      0x00\n        /* \"#utility.yul\":8215:8224   */\n      dup4\n        /* \"#utility.yul\":8211:8228   */\n      add\n        /* \"#utility.yul\":8204:8251   */\n      mstore\n        /* \"#utility.yul\":8268:8410   */\n      tag_286\n        /* \"#utility.yul\":8405:8409   */\n      dup2\n        /* \"#utility.yul\":8396:8402   */\n      dup5\n        /* \"#utility.yul\":8268:8410   */\n      tag_210\n      jump\t// in\n    tag_286:\n        /* \"#utility.yul\":8260:8410   */\n      swap1\n      pop\n        /* \"#utility.yul\":8158:8417   */\n      swap3\n      swap2\n      pop\n      pop\n      jump\t// out\n        /* \"#utility.yul\":8423:8737   */\n    tag_53:\n      0x00\n        /* \"#utility.yul\":8600:8602   */\n      0x60\n        /* \"#utility.yul\":8589:8598   */\n      dup3\n        /* \"#utility.yul\":8585:8603   */\n      add\n        /* \"#utility.yul\":8577:8603   */\n      swap1\n      pop\n        /* \"#utility.yul\":8613:8730   */\n      tag_288\n        /* \"#utility.yul\":8727:8728   */\n      0x00\n        /* \"#utility.yul\":8716:8725   */\n      dup4\n        /* \"#utility.yul\":8712:8729   */\n      add\n        /* \"#utility.yul\":8703:8709   */\n      dup5\n        /* \"#utility.yul\":8613:8730   */\n      tag_224\n      jump\t// in\n    tag_288:\n        /* \"#utility.yul\":8567:8737   */\n      swap3\n      swap2\n      pop\n      pop\n      jump\t// out\n        /* \"#utility.yul\":8743:9162   */\n    tag_92:\n      0x00\n        /* \"#utility.yul\":8947:8949   */\n      0x20\n        /* \"#utility.yul\":8936:8945   */\n      dup3\n        /* \"#utility.yul\":8932:8950   */\n      add\n        /* \"#utility.yul\":8924:8950   */\n      swap1\n      pop\n        /* \"#utility.yul\":8996:9005   */\n      dup2\n        /* \"#utility.yul\":8990:8994   */\n      dup2\n        /* \"#utility.yul\":8986:9006   */\n      sub\n        /* \"#utility.yul\":8982:8983   */\n      0x00\n        /* \"#utility.yul\":8971:8980   */\n      dup4\n        /* \"#utility.yul\":8967:8984   */\n      add\n        /* \"#utility.yul\":8960:9007   */\n      mstore\n        /* \"#utility.yul\":9024:9155   */\n      tag_290\n        /* \"#utility.yul\":9150:9154   */\n      dup2\n        /* \"#utility.yul\":9024:9155   */\n      tag_238\n      jump\t// in\n    tag_290:\n        /* \"#utility.yul\":9016:9155   */\n      swap1\n      pop\n        /* \"#utility.yul\":8914:9162   */\n      swap2\n      swap1\n      pop\n      jump\t// out\n        /* \"#utility.yul\":9168:9587   */\n    tag_95:\n      0x00\n        /* \"#utility.yul\":9372:9374   */\n      0x20\n        /* \"#utility.yul\":9361:9370   */\n      dup3\n        /* \"#utility.yul\":9357:9375   */\n      add\n        /* \"#utility.yul\":9349:9375   */\n      swap1\n      pop\n        /* \"#utility.yul\":9421:9430   */\n      dup2\n        /* \"#utility.yul\":9415:9419   */\n      dup2\n        /* \"#utility.yul\":9411:9431   */\n      sub\n        /* \"#utility.yul\":9407:9408   */\n      0x00\n        /* \"#utility.yul\":9396:9405   */\n      dup4\n        /* \"#utility.yul\":9392:9409   */\n      add\n        /* \"#utility.yul\":9385:9432   */\n      mstore\n        /* \"#utility.yul\":9449:9580   */\n      tag_292\n        /* \"#utility.yul\":9575:9579   */\n      dup2\n        /* \"#utility.yul\":9449:9580   */\n      tag_244\n      jump\t// in\n    tag_292:\n        /* \"#utility.yul\":9441:9580   */\n      swap1\n      pop\n        /* \"#utility.yul\":9339:9587   */\n      swap2\n      swap1\n      pop\n      jump\t// out\n        /* \"#utility.yul\":9593:10012   */\n    tag_83:\n      0x00\n        /* \"#utility.yul\":9797:9799   */\n      0x20\n        /* \"#utility.yul\":9786:9795   */\n      dup3\n        /* \"#utility.yul\":9782:9800   */\n      add\n        /* \"#utility.yul\":9774:9800   */\n      swap1\n      pop\n        /* \"#utility.yul\":9846:9855   */\n      dup2\n        /* \"#utility.yul\":9840:9844   */\n      dup2\n        /* \"#utility.yul\":9836:9856   */\n      sub\n        /* \"#utility.yul\":9832:9833   */\n      0x00\n        /* \"#utility.yul\":9821:9830   */\n      dup4\n        /* \"#utility.yul\":9817:9834   */\n      add\n        /* \"#utility.yul\":9810:9857   */\n      mstore\n        /* \"#utility.yul\":9874:10005   */\n      tag_294\n        /* \"#utility.yul\":10000:10004   */\n      dup2\n        /* \"#utility.yul\":9874:10005   */\n      tag_249\n      jump\t// in\n    tag_294:\n        /* \"#utility.yul\":9866:10005   */\n      swap1\n      pop\n        /* \"#utility.yul\":9764:10012   */\n      swap2\n      swap1\n      pop\n      jump\t// out\n        /* \"#utility.yul\":10018:10437   */\n    tag_88:\n      0x00\n        /* \"#utility.yul\":10222:10224   */\n      0x20\n        /* \"#utility.yul\":10211:10220   */\n      dup3\n        /* \"#utility.yul\":10207:10225   */\n      add\n        /* \"#utility.yul\":10199:10225   */\n      swap1\n      pop\n        /* \"#utility.yul\":10271:10280   */\n      dup2\n        /* \"#utility.yul\":10265:10269   */\n      dup2\n        /* \"#utility.yul\":10261:10281   */\n      sub\n        /* \"#utility.yul\":10257:10258   */\n      0x00\n        /* \"#utility.yul\":10246:10255   */\n      dup4\n        /* \"#utility.yul\":10242:10259   */\n      add\n        /* \"#utility.yul\":10235:10282   */\n      mstore\n        /* \"#utility.yul\":10299:10430   */\n      tag_296\n        /* \"#utility.yul\":10425:10429   */\n      dup2\n        /* \"#utility.yul\":10299:10430   */\n      tag_254\n      jump\t// in\n    tag_296:\n        /* \"#utility.yul\":10291:10430   */\n      swap1\n      pop\n        /* \"#utility.yul\":10189:10437   */\n      swap2\n      swap1\n      pop\n      jump\t// out\n        /* \"#utility.yul\":10443:10862   */\n    tag_143:\n      0x00\n        /* \"#utility.yul\":10647:10649   */\n      0x20\n        /* \"#utility.yul\":10636:10645   */\n      dup3\n        /* \"#utility.yul\":10632:10650   */\n      add\n        /* \"#utility.yul\":10624:10650   */\n      swap1\n      pop\n        /* \"#utility.yul\":10696:10705   */\n      dup2\n        /* \"#utility.yul\":10690:10694   */\n      dup2\n        /* \"#utility.yul\":10686:10706   */\n      sub\n        /* \"#utility.yul\":10682:10683   */\n      0x00\n        /* \"#utility.yul\":10671:10680   */\n      dup4\n        /* \"#utility.yul\":10667:10684   */\n      add\n        /* \"#utility.yul\":10660:10707   */\n      mstore\n        /* \"#utility.yul\":10724:10855   */\n      tag_298\n        /* \"#utility.yul\":10850:10854   */\n      dup2\n        /* \"#utility.yul\":10724:10855   */\n      tag_259\n      jump\t// in\n    tag_298:\n        /* \"#utility.yul\":10716:10855   */\n      swap1\n      pop\n        /* \"#utility.yul\":10614:10862   */\n      swap2\n      swap1\n      pop\n      jump\t// out\n        /* \"#utility.yul\":10868:11287   */\n    tag_68:\n      0x00\n        /* \"#utility.yul\":11072:11074   */\n      0x20\n        /* \"#utility.yul\":11061:11070   */\n      dup3\n        /* \"#utility.yul\":11057:11075   */\n      add\n        /* \"#utility.yul\":11049:11075   */\n      swap1\n      pop\n        /* \"#utility.yul\":11121:11130   */\n      dup2\n        /* \"#utility.yul\":11115:11119   */\n      dup2\n        /* \"#utility.yul\":11111:11131   */\n      sub\n        /* \"#utility.yul\":11107:11108   */\n      0x00\n        /* \"#utility.yul\":11096:11105   */\n      dup4\n        /* \"#utility.yul\":11092:11109   */\n      add\n        /* \"#utility.yul\":11085:11132   */\n      mstore\n        /* \"#utility.yul\":11149:11280   */\n      tag_300\n        /* \"#utility.yul\":11275:11279   */\n      dup2\n        /* \"#utility.yul\":11149:11280   */\n      tag_264\n      jump\t// in\n    tag_300:\n        /* \"#utility.yul\":11141:11280   */\n      swap1\n      pop\n        /* \"#utility.yul\":11039:11287   */\n      swap2\n      swap1\n      pop\n      jump\t// out\n        /* \"#utility.yul\":11293:11603   */\n    tag_42:\n      0x00\n        /* \"#utility.yul\":11468:11470   */\n      0x40\n        /* \"#utility.yul\":11457:11466   */\n      dup3\n        /* \"#utility.yul\":11453:11471   */\n      add\n        /* \"#utility.yul\":11445:11471   */\n      swap1\n      pop\n        /* \"#utility.yul\":11481:11596   */\n      tag_302\n        /* \"#utility.yul\":11593:11594   */\n      0x00\n        /* \"#utility.yul\":11582:11591   */\n      dup4\n        /* \"#utility.yul\":11578:11595   */\n      add\n        /* \"#utility.yul\":11569:11575   */\n      dup5\n        /* \"#utility.yul\":11481:11596   */\n      tag_273\n      jump\t// in\n    tag_302:\n        /* \"#utility.yul\":11435:11603   */\n      swap3\n      swap2\n      pop\n      pop\n      jump\t// out\n        /* \"#utility.yul\":11609:11831   */\n    tag_59:\n      0x00\n        /* \"#utility.yul\":11740:11742   */\n      0x20\n        /* \"#utility.yul\":11729:11738   */\n      dup3\n        /* \"#utility.yul\":11725:11743   */\n      add\n        /* \"#utility.yul\":11717:11743   */\n      swap1\n      pop\n        /* \"#utility.yul\":11753:11824   */\n      tag_304\n        /* \"#utility.yul\":11821:11822   */\n      0x00\n        /* \"#utility.yul\":11810:11819   */\n      dup4\n        /* \"#utility.yul\":11806:11823   */\n      add\n        /* \"#utility.yul\":11797:11803   */\n      dup5\n        /* \"#utility.yul\":11753:11824   */\n      tag_280\n      jump\t// in\n    tag_304:\n        /* \"#utility.yul\":11707:11831   */\n      swap3\n      swap2\n      pop\n      pop\n      jump\t// out\n        /* \"#utility.yul\":11837:12169   */\n    tag_48:\n      0x00\n        /* \"#utility.yul\":11996:11998   */\n      0x40\n        /* \"#utility.yul\":11985:11994   */\n      dup3\n        /* \"#utility.yul\":11981:11999   */\n      add\n        /* \"#utility.yul\":11973:11999   */\n      swap1\n      pop\n        /* \"#utility.yul\":12009:12080   */\n      tag_306\n        /* \"#utility.yul\":12077:12078   */\n      0x00\n        /* \"#utility.yul\":12066:12075   */\n      dup4\n        /* \"#utility.yul\":12062:12079   */\n      add\n        /* \"#utility.yul\":12053:12059   */\n      dup6\n        /* \"#utility.yul\":12009:12080   */\n      tag_280\n      jump\t// in\n    tag_306:\n        /* \"#utility.yul\":12090:12162   */\n      tag_307\n        /* \"#utility.yul\":12158:12160   */\n      0x20\n        /* \"#utility.yul\":12147:12156   */\n      dup4\n        /* \"#utility.yul\":12143:12161   */\n      add\n        /* \"#utility.yul\":12134:12140   */\n      dup5\n        /* \"#utility.yul\":12090:12162   */\n      tag_193\n      jump\t// in\n    tag_307:\n        /* \"#utility.yul\":11963:12169   */\n      swap4\n      swap3\n      pop\n      pop\n      pop\n      jump\t// out\n        /* \"#utility.yul\":12175:12507   */\n    tag_102:\n      0x00\n        /* \"#utility.yul\":12334:12336   */\n      0x40\n        /* \"#utility.yul\":12323:12332   */\n      dup3\n        /* \"#utility.yul\":12319:12337   */\n      add\n        /* \"#utility.yul\":12311:12337   */\n      swap1\n      pop\n        /* \"#utility.yul\":12347:12418   */\n      tag_309\n        /* \"#utility.yul\":12415:12416   */\n      0x00\n        /* \"#utility.yul\":12404:12413   */\n      dup4\n        /* \"#utility.yul\":12400:12417   */\n      add\n        /* \"#utility.yul\":12391:12397   */\n      dup6\n        /* \"#utility.yul\":12347:12418   */\n      tag_280\n      jump\t// in\n    tag_309:\n        /* \"#utility.yul\":12428:12500   */\n      tag_310\n        /* \"#utility.yul\":12496:12498   */\n      0x20\n        /* \"#utility.yul\":12485:12494   */\n      dup4\n        /* \"#utility.yul\":12481:12499   */\n      add\n        /* \"#utility.yul\":12472:12478   */\n      dup5\n        /* \"#utility.yul\":12428:12500   */\n      tag_280\n      jump\t// in\n    tag_310:\n        /* \"#utility.yul\":12301:12507   */\n      swap4\n      swap3\n      pop\n      pop\n      pop\n      jump\t// out\n        /* \"#utility.yul\":12513:12645   */\n    tag_203:\n      0x00\n        /* \"#utility.yul\":12603:12606   */\n      dup2\n        /* \"#utility.yul\":12595:12606   */\n      swap1\n      pop\n        /* \"#utility.yul\":12633:12637   */\n      0x20\n        /* \"#utility.yul\":12628:12631   */\n      dup3\n        /* \"#utility.yul\":12624:12638   */\n      add\n        /* \"#utility.yul\":12616:12638   */\n      swap1\n      pop\n        /* \"#utility.yul\":12585:12645   */\n      swap2\n      swap1\n      pop\n      jump\t// out\n        /* \"#utility.yul\":12651:12768   */\n    tag_217:\n      0x00\n        /* \"#utility.yul\":12758:12761   */\n      dup2\n        /* \"#utility.yul\":12750:12761   */\n      swap1\n      pop\n        /* \"#utility.yul\":12740:12768   */\n      swap2\n      swap1\n      pop\n      jump\t// out\n        /* \"#utility.yul\":12774:12872   */\n    tag_231:\n      0x00\n        /* \"#utility.yul\":12862:12865   */\n      dup2\n        /* \"#utility.yul\":12854:12865   */\n      swap1\n      pop\n        /* \"#utility.yul\":12844:12872   */\n      swap2\n      swap1\n      pop\n      jump\t// out\n        /* \"#utility.yul\":12878:12992   */\n    tag_199:\n      0x00\n        /* \"#utility.yul\":12979:12984   */\n      dup2\n        /* \"#utility.yul\":12973:12985   */\n      mload\n        /* \"#utility.yul\":12963:12985   */\n      swap1\n      pop\n        /* \"#utility.yul\":12952:12992   */\n      swap2\n      swap1\n      pop\n      jump\t// out\n        /* \"#utility.yul\":12998:13121   */\n    tag_213:\n      0x00\n        /* \"#utility.yul\":13110:13114   */\n      0x03\n        /* \"#utility.yul\":13100:13114   */\n      swap1\n      pop\n        /* \"#utility.yul\":13089:13121   */\n      swap2\n      swap1\n      pop\n      jump\t// out\n        /* \"#utility.yul\":13127:13231   */\n    tag_227:\n      0x00\n        /* \"#utility.yul\":13220:13224   */\n      0x03\n        /* \"#utility.yul\":13210:13224   */\n      swap1\n      pop\n        /* \"#utility.yul\":13199:13231   */\n      swap2\n      swap1\n      pop\n      jump\t// out\n        /* \"#utility.yul\":13237:13350   */\n    tag_209:\n      0x00\n        /* \"#utility.yul\":13339:13343   */\n      0x20\n        /* \"#utility.yul\":13334:13337   */\n      dup3\n        /* \"#utility.yul\":13330:13344   */\n      add\n        /* \"#utility.yul\":13322:13344   */\n      swap1\n      pop\n        /* \"#utility.yul\":13312:13350   */\n      swap2\n      swap1\n      pop\n      jump\t// out\n        /* \"#utility.yul\":13356:13486   */\n    tag_223:\n      0x00\n        /* \"#utility.yul\":13475:13479   */\n      0x20\n        /* \"#utility.yul\":13470:13473   */\n      dup3\n        /* \"#utility.yul\":13466:13480   */\n      add\n        /* \"#utility.yul\":13458:13480   */\n      swap1\n      pop\n        /* \"#utility.yul\":13448:13486   */\n      swap2\n      swap1\n      pop\n      jump\t// out\n        /* \"#utility.yul\":13492:13603   */\n    tag_237:\n      0x00\n        /* \"#utility.yul\":13592:13596   */\n      0x20\n        /* \"#utility.yul\":13587:13590   */\n      dup3\n        /* \"#utility.yul\":13583:13597   */\n      add\n        /* \"#utility.yul\":13575:13597   */\n      swap1\n      pop\n        /* \"#utility.yul\":13565:13603   */\n      swap2\n      swap1\n      pop\n      jump\t// out\n        /* \"#utility.yul\":13609:13783   */\n    tag_201:\n      0x00\n        /* \"#utility.yul\":13732:13738   */\n      dup3\n        /* \"#utility.yul\":13727:13730   */\n      dup3\n        /* \"#utility.yul\":13720:13739   */\n      mstore\n        /* \"#utility.yul\":13772:13776   */\n      0x20\n        /* \"#utility.yul\":13767:13770   */\n      dup3\n        /* \"#utility.yul\":13763:13777   */\n      add\n        /* \"#utility.yul\":13748:13777   */\n      swap1\n      pop\n        /* \"#utility.yul\":13710:13783   */\n      swap3\n      swap2\n      pop\n      pop\n      jump\t// out\n        /* \"#utility.yul\":13789:13951   */\n    tag_215:\n      0x00\n        /* \"#utility.yul\":13942:13945   */\n      dup2\n        /* \"#utility.yul\":13927:13945   */\n      swap1\n      pop\n        /* \"#utility.yul\":13917:13951   */\n      swap3\n      swap2\n      pop\n      pop\n      jump\t// out\n        /* \"#utility.yul\":13957:14100   */\n    tag_229:\n      0x00\n        /* \"#utility.yul\":14091:14094   */\n      dup2\n        /* \"#utility.yul\":14076:14094   */\n      swap1\n      pop\n        /* \"#utility.yul\":14066:14100   */\n      swap3\n      swap2\n      pop\n      pop\n      jump\t// out\n        /* \"#utility.yul\":14106:14275   */\n    tag_241:\n      0x00\n        /* \"#utility.yul\":14224:14230   */\n      dup3\n        /* \"#utility.yul\":14219:14222   */\n      dup3\n        /* \"#utility.yul\":14212:14231   */\n      mstore\n        /* \"#utility.yul\":14264:14268   */\n      0x20\n        /* \"#utility.yul\":14259:14262   */\n      dup3\n        /* \"#utility.yul\":14255:14269   */\n      add\n        /* \"#utility.yul\":14240:14269   */\n      swap1\n      pop\n        /* \"#utility.yul\":14202:14275   */\n      swap3\n      swap2\n      pop\n      pop\n      jump\t// out\n        /* \"#utility.yul\":14281:14466   */\n    tag_155:\n      0x00\n        /* \"#utility.yul\":14338:14358   */\n      tag_325\n        /* \"#utility.yul\":14356:14357   */\n      dup3\n        /* \"#utility.yul\":14338:14358   */\n      tag_279\n      jump\t// in\n    tag_325:\n        /* \"#utility.yul\":14333:14358   */\n      swap2\n      pop\n        /* \"#utility.yul\":14372:14392   */\n      tag_326\n        /* \"#utility.yul\":14390:14391   */\n      dup4\n        /* \"#utility.yul\":14372:14392   */\n      tag_279\n      jump\t// in\n    tag_326:\n        /* \"#utility.yul\":14367:14392   */\n      swap3\n      pop\n        /* \"#utility.yul\":14411:14412   */\n      dup3\n        /* \"#utility.yul\":14401:14403   */\n      tag_327\n      jumpi\n        /* \"#utility.yul\":14416:14434   */\n      tag_328\n      tag_329\n      jump\t// in\n    tag_328:\n        /* \"#utility.yul\":14401:14403   */\n    tag_327:\n        /* \"#utility.yul\":14458:14459   */\n      dup3\n        /* \"#utility.yul\":14455:14456   */\n      dup3\n        /* \"#utility.yul\":14451:14460   */\n      div\n        /* \"#utility.yul\":14446:14460   */\n      swap1\n      pop\n        /* \"#utility.yul\":14323:14466   */\n      swap3\n      swap2\n      pop\n      pop\n      jump\t// out\n        /* \"#utility.yul\":14472:14568   */\n    tag_192:\n      0x00\n        /* \"#utility.yul\":14538:14562   */\n      tag_331\n        /* \"#utility.yul\":14556:14561   */\n      dup3\n        /* \"#utility.yul\":14538:14562   */\n      tag_332\n      jump\t// in\n    tag_331:\n        /* \"#utility.yul\":14527:14562   */\n      swap1\n      pop\n        /* \"#utility.yul\":14517:14568   */\n      swap2\n      swap1\n      pop\n      jump\t// out\n        /* \"#utility.yul\":14574:14700   */\n    tag_332:\n      0x00\n        /* \"#utility.yul\":14651:14693   */\n      0xffffffffffffffffffffffffffffffffffffffff\n        /* \"#utility.yul\":14644:14649   */\n      dup3\n        /* \"#utility.yul\":14640:14694   */\n      and\n        /* \"#utility.yul\":14629:14694   */\n      swap1\n      pop\n        /* \"#utility.yul\":14619:14700   */\n      swap2\n      swap1\n      pop\n      jump\t// out\n        /* \"#utility.yul\":14706:14783   */\n    tag_279:\n      0x00\n        /* \"#utility.yul\":14772:14777   */\n      dup2\n        /* \"#utility.yul\":14761:14777   */\n      swap1\n      pop\n        /* \"#utility.yul\":14751:14783   */\n      swap2\n      swap1\n      pop\n      jump\t// out\n        /* \"#utility.yul\":14789:15022   */\n    tag_113:\n      0x00\n        /* \"#utility.yul\":14851:14875   */\n      tag_336\n        /* \"#utility.yul\":14869:14874   */\n      dup3\n        /* \"#utility.yul\":14851:14875   */\n      tag_279\n      jump\t// in\n    tag_336:\n        /* \"#utility.yul\":14842:14875   */\n      swap2\n      pop\n        /* \"#utility.yul\":14897:14963   */\n      0xffffffffffffffffffffffffffffffffffffffffffffffffffffffffffffffff\n        /* \"#utility.yul\":14890:14895   */\n      dup3\n        /* \"#utility.yul\":14887:14964   */\n      eq\n        /* \"#utility.yul\":14884:14886   */\n      iszero\n      tag_337\n      jumpi\n        /* \"#utility.yul\":14967:14985   */\n      tag_338\n      tag_339\n      jump\t// in\n    tag_338:\n        /* \"#utility.yul\":14884:14886   */\n    tag_337:\n        /* \"#utility.yul\":15014:15015   */\n      0x01\n        /* \"#utility.yul\":15007:15012   */\n      dup3\n        /* \"#utility.yul\":15003:15016   */\n      add\n        /* \"#utility.yul\":14996:15016   */\n      swap1\n      pop\n        /* \"#utility.yul\":14832:15022   */\n      swap2\n      swap1\n      pop\n      jump\t// out\n        /* \"#utility.yul\":15028:15204   */\n    tag_157:\n      0x00\n        /* \"#utility.yul\":15077:15097   */\n      tag_341\n        /* \"#utility.yul\":15095:15096   */\n      dup3\n        /* \"#utility.yul\":15077:15097   */\n      tag_279\n      jump\t// in\n    tag_341:\n        /* \"#utility.yul\":15072:15097   */\n      swap2\n      pop\n        /* \"#utility.yul\":15111:15131   */\n      tag_342\n        /* \"#utility.yul\":15129:15130   */\n      dup4\n        /* \"#utility.yul\":15111:15131   */\n      tag_279\n      jump\t// in\n    tag_342:\n        /* \"#utility.yul\":15106:15131   */\n      swap3\n      pop\n        /* \"#utility.yul\":15150:15151   */\n      dup3\n        /* \"#utility.yul\":15140:15142   */\n      tag_343\n      jumpi\n        /* \"#utility.yul\":15155:15173   */\n      tag_344\n      tag_329\n      jump\t// in\n    tag_344:\n        /* \"#utility.yul\":15140:15142   */\n    tag_343:\n        /* \"#utility.yul\":15196:15197   */\n      dup3\n        /* \"#utility.yul\":15193:15194   */\n      dup3\n        /* \"#utility.yul\":15189:15198   */\n      mod\n        /* \"#utility.yul\":15184:15198   */\n      swap1\n      pop\n        /* \"#utility.yul\":15062:15204   */\n      swap3\n      swap2\n      pop\n      pop\n      jump\t// out\n        /* \"#utility.yul\":15210:15390   */\n    tag_339:\n        /* \"#utility.yul\":15258:15335   */\n      0x4e487b7100000000000000000000000000000000000000000000000000000000\n        /* \"#utility.yul\":15255:15256   */\n      0x00\n        /* \"#utility.yul\":15248:15336   */\n      mstore\n        /* \"#utility.yul\":15355:15359   */\n      0x11\n        /* \"#utility.yul\":15352:15353   */\n      0x04\n        /* \"#utility.yul\":15345:15360   */\n      mstore\n        /* \"#utility.yul\":15379:15383   */\n      0x24\n        /* \"#utility.yul\":15376:15377   */\n      0x00\n        /* \"#utility.yul\":15369:15384   */\n      revert\n        /* \"#utility.yul\":15396:15576   */\n    tag_329:\n        /* \"#utility.yul\":15444:15521   */\n      0x4e487b7100000000000000000000000000000000000000000000000000000000\n        /* \"#utility.yul\":15441:15442   */\n      0x00\n        /* \"#utility.yul\":15434:15522   */\n      mstore\n        /* \"#utility.yul\":15541:15545   */\n      0x12\n        /* \"#utility.yul\":15538:15539   */\n      0x04\n        /* \"#utility.yul\":15531:15546   */\n      mstore\n        /* \"#utility.yul\":15565:15569   */\n      0x24\n        /* \"#utility.yul\":15562:15563   */\n      0x00\n        /* \"#utility.yul\":15555:15570   */\n      revert\n        /* \"#utility.yul\":15582:15747   */\n    tag_243:\n        /* \"#utility.yul\":15722:15739   */\n      0x496e76616c6964206974656d2069640000000000000000000000000000000000\n        /* \"#utility.yul\":15718:15719   */\n      0x00\n        /* \"#utility.yul\":15710:15716   */\n      dup3\n        /* \"#utility.yul\":15706:15720   */\n      add\n        /* \"#utility.yul\":15699:15740   */\n      mstore\n        /* \"#utility.yul\":15688:15747   */\n      pop\n      jump\t// out\n        /* \"#utility.yul\":15753:15975   */\n    tag_248:\n        /* \"#utility.yul\":15893:15927   */\n      0x57726f6e6720616d6f756e742c20706c656173652062696420302e3031206574\n        /* \"#utility.yul\":15889:15890   */\n      0x00\n        /* \"#utility.yul\":15881:15887   */\n      dup3\n        /* \"#utility.yul\":15877:15891   */\n      add\n        /* \"#utility.yul\":15870:15928   */\n      mstore\n        /* \"#utility.yul\":15962:15967   */\n      0x6865720000000000000000000000000000000000000000000000000000000000\n        /* \"#utility.yul\":15957:15959   */\n      0x20\n        /* \"#utility.yul\":15949:15955   */\n      dup3\n        /* \"#utility.yul\":15945:15960   */\n      add\n        /* \"#utility.yul\":15938:15968   */\n      mstore\n        /* \"#utility.yul\":15859:15975   */\n      pop\n      jump\t// out\n        /* \"#utility.yul\":15981:16147   */\n    tag_253:\n        /* \"#utility.yul\":16121:16139   */\n      0x4f776e65722063616e6e6f742062696400000000000000000000000000000000\n        /* \"#utility.yul\":16117:16118   */\n      0x00\n        /* \"#utility.yul\":16109:16115   */\n      dup3\n        /* \"#utility.yul\":16105:16119   */\n      add\n        /* \"#utility.yul\":16098:16140   */\n      mstore\n        /* \"#utility.yul\":16087:16147   */\n      pop\n      jump\t// out\n        /* \"#utility.yul\":16153:16320   */\n    tag_258:\n        /* \"#utility.yul\":16293:16312   */\n      0x4c6f74746572792068617320656e646564000000000000000000000000000000\n        /* \"#utility.yul\":16289:16290   */\n      0x00\n        /* \"#utility.yul\":16281:16287   */\n      dup3\n        /* \"#utility.yul\":16277:16291   */\n      add\n        /* \"#utility.yul\":16270:16313   */\n      mstore\n        /* \"#utility.yul\":16259:16320   */\n      pop\n      jump\t// out\n        /* \"#utility.yul\":16326:16499   */\n    tag_263:\n        /* \"#utility.yul\":16466:16491   */\n      0x57696e6e657220616c7265616479206465636c61726564000000000000000000\n        /* \"#utility.yul\":16462:16463   */\n      0x00\n        /* \"#utility.yul\":16454:16460   */\n      dup3\n        /* \"#utility.yul\":16450:16464   */\n      add\n        /* \"#utility.yul\":16443:16492   */\n      mstore\n        /* \"#utility.yul\":16432:16499   */\n      pop\n      jump\t// out\n        /* \"#utility.yul\":16505:16677   */\n    tag_268:\n        /* \"#utility.yul\":16645:16669   */\n      0x596f7520617265206e6f7420746865206f776e65722e00000000000000000000\n        /* \"#utility.yul\":16641:16642   */\n      0x00\n        /* \"#utility.yul\":16633:16639   */\n      dup3\n        /* \"#utility.yul\":16629:16643   */\n      add\n        /* \"#utility.yul\":16622:16670   */\n      mstore\n        /* \"#utility.yul\":16611:16677   */\n      pop\n      jump\t// out\n        /* \"#utility.yul\":16683:16805   */\n    tag_174:\n        /* \"#utility.yul\":16756:16780   */\n      tag_354\n        /* \"#utility.yul\":16774:16779   */\n      dup2\n        /* \"#utility.yul\":16756:16780   */\n      tag_279\n      jump\t// in\n    tag_354:\n        /* \"#utility.yul\":16749:16754   */\n      dup2\n        /* \"#utility.yul\":16746:16781   */\n      eq\n        /* \"#utility.yul\":16736:16738   */\n      tag_355\n      jumpi\n        /* \"#utility.yul\":16795:16796   */\n      0x00\n        /* \"#utility.yul\":16792:16793   */\n      dup1\n        /* \"#utility.yul\":16785:16797   */\n      revert\n        /* \"#utility.yul\":16736:16738   */\n    tag_355:\n        /* \"#utility.yul\":16726:16805   */\n      pop\n      jump\t// out\n\n    auxdata: 0xa2646970667358221220952f81a0d82928fd0299ae03c97252c5a33acebd074ecc940b7bd546267c690464736f6c63430008020033\n}\n",
				"bytecode": {
					"linkReferences": {},
					"object": "60806040523480156200001157600080fd5b50336000806101000a81548173ffffffffffffffffffffffffffffffffffffffff021916908373ffffffffffffffffffffffffffffffffffffffff16021790555060005b6003811015620002085780600182600381106200009b577f4e487b7100000000000000000000000000000000000000000000000000000000600052603260045260246000fd5b6003020160000181905550600060018260038110620000e3577f4e487b7100000000000000000000000000000000000000000000000000000000600052603260045260246000fd5b6003020160020160006101000a81548173ffffffffffffffffffffffffffffffffffffffff021916908373ffffffffffffffffffffffffffffffffffffffff160217905550600067ffffffffffffffff8111156200016a577f4e487b7100000000000000000000000000000000000000000000000000000000600052604160045260246000fd5b604051908082528060200260200182016040528015620001995781602001602082028036833780820191505090505b5060018260038110620001d5577f4e487b7100000000000000000000000000000000000000000000000000000000600052603260045260246000fd5b600302016001019080519060200190620001f19291906200020f565b508080620001ff90620002c7565b91505062000055565b5062000344565b8280548282559060005260206000209081019282156200028b579160200282015b828111156200028a5782518260006101000a81548173ffffffffffffffffffffffffffffffffffffffff021916908373ffffffffffffffffffffffffffffffffffffffff1602179055509160200191906001019062000230565b5b5090506200029a91906200029e565b5090565b5b80821115620002b95760008160009055506001016200029f565b5090565b6000819050919050565b6000620002d482620002bd565b91507fffffffffffffffffffffffffffffffffffffffffffffffffffffffffffffffff8214156200030a576200030962000315565b5b600182019050919050565b7f4e487b7100000000000000000000000000000000000000000000000000000000600052601160045260246000fd5b6118dc80620003546000396000f3fe60806040526004361061009c5760003560e01c80638da5cb5b116100645780638da5cb5b146101415780638ec4dc951461016c578063bfb231d214610197578063f405cd51146101d5578063ff3665c714610200578063ff7782de1461023d5761009c565b80633ccfd60b146100a1578063410d59cc146100b8578063454a2ab3146100e357806383a9e969146100ff578063893d20e814610116575b600080fd5b3480156100ad57600080fd5b506100b6610266565b005b3480156100c457600080fd5b506100cd6103a7565b6040516100da9190611405565b60405180910390f35b6100fd60048036038101906100f891906110c6565b6104e7565b005b34801561010b57600080fd5b50610114610802565b005b34801561012257600080fd5b5061012b610905565b60405161013891906113ea565b60405180910390f35b34801561014d57600080fd5b5061015661092e565b60405161016391906113ea565b60405180910390f35b34801561017857600080fd5b50610181610952565b60405161018e9190611502565b60405180910390f35b3480156101a357600080fd5b506101be60048036038101906101b991906110c6565b61098b565b6040516101cc929190611538565b60405180910390f35b3480156101e157600080fd5b506101ea6109d5565b6040516101f79190611427565b60405180910390f35b34801561020c57600080fd5b50610227600480360381019061022291906110c6565b610a93565b604051610234919061151d565b60405180910390f35b34801561024957600080fd5b50610264600480360381019061025f91906110c6565b610ae1565b005b60008054906101000a900473ffffffffffffffffffffffffffffffffffffffff1673ffffffffffffffffffffffffffffffffffffffff163373ffffffffffffffffffffffffffffffffffffffff1614806102ff575073153dfef4355e823dcb0fcc76efe942befca8647773ffffffffffffffffffffffffffffffffffffffff163373ffffffffffffffffffffffffffffffffffffffff16145b61033e576040517f08c379a0000000000000000000000000000000000000000000000000000000008152600401610335906114e2565b60405180910390fd5b60008054906101000a900473ffffffffffffffffffffffffffffffffffffffff1673ffffffffffffffffffffffffffffffffffffffff166108fc479081150290604051600060405180830381858888f193505050501580156103a4573d6000803e3d6000fd5b50565b6103af610ffb565b6001600380602002604051908101604052809291906000905b828210156104de57838260030201604051806060016040529081600082015481526020016001820180548060200260200160405190810160405280929190818152602001828054801561047057602002820191906000526020600020905b8160009054906101000a900473ffffffffffffffffffffffffffffffffffffffff1673ffffffffffffffffffffffffffffffffffffffff1681526020019060010190808311610426575b505050505081526020016002820160009054906101000a900473ffffffffffffffffffffffffffffffffffffffff1673ffffffffffffffffffffffffffffffffffffffff1673ffffffffffffffffffffffffffffffffffffffff1681525050815260200190600101906103c8565b50505050905090565b3373ffffffffffffffffffffffffffffffffffffffff1660008054906101000a900473ffffffffffffffffffffffffffffffffffffffff1673ffffffffffffffffffffffffffffffffffffffff161415610576576040517f08c379a000000000000000000000000000000000000000000000000000000000815260040161056d90611482565b60405180910390fd5b600073ffffffffffffffffffffffffffffffffffffffff16600182600381106105c8577f4e487b7100000000000000000000000000000000000000000000000000000000600052603260045260246000fd5b6003020160020160009054906101000a900473ffffffffffffffffffffffffffffffffffffffff1673ffffffffffffffffffffffffffffffffffffffff1614610646576040517f08c379a000000000000000000000000000000000000000000000000000000000815260040161063d906114a2565b60405180910390fd5b60008110158015610658575060028111155b610697576040517f08c379a000000000000000000000000000000000000000000000000000000000815260040161068e90611442565b60405180910390fd5b662386f26fc1000034146106e0576040517f08c379a00000000000000000000000000000000000000000000000000000000081526004016106d790611462565b60405180910390fd5b6001816003811061071a577f4e487b7100000000000000000000000000000000000000000000000000000000600052603260045260246000fd5b60030201600101339080600181540180825580915050600190039060005260206000200160009091909190916101000a81548173ffffffffffffffffffffffffffffffffffffffff021916908373ffffffffffffffffffffffffffffffffffffffff1602179055507fdede4a1daab1bebac072028daa0ddc0522609da9e2e73dc2cbe9ae4effd0e8da81600183600381106107de577f4e487b7100000000000000000000000000000000000000000000000000000000600052603260045260246000fd5b60030201600101805490506040516107f7929190611561565b60405180910390a150565b60008054906101000a900473ffffffffffffffffffffffffffffffffffffffff1673ffffffffffffffffffffffffffffffffffffffff163373ffffffffffffffffffffffffffffffffffffffff16148061089b575073153dfef4355e823dcb0fcc76efe942befca8647773ffffffffffffffffffffffffffffffffffffffff163373ffffffffffffffffffffffffffffffffffffffff16145b6108da576040517f08c379a00000000000000000000000000000000000000000000000000000000081526004016108d1906114e2565b60405180910390fd5b60005b6003811015610902576108ef81610ae1565b80806108fa9061169b565b9150506108dd565b50565b60008060009054906101000a900473ffffffffffffffffffffffffffffffffffffffff16905090565b60008054906101000a900473ffffffffffffffffffffffffffffffffffffffff1681565b61095a611028565b6040518060400160405280600181526020013373ffffffffffffffffffffffffffffffffffffffff16815250905090565b6001816003811061099b57600080fd5b600302016000915090508060000154908060020160009054906101000a900473ffffffffffffffffffffffffffffffffffffffff16905082565b6109dd611058565b6109e5611058565b60005b6003811015610a8b5760018160038110610a2b577f4e487b7100000000000000000000000000000000000000000000000000000000600052603260045260246000fd5b6003020160010180549050828260038110610a6f577f4e487b7100000000000000000000000000000000000000000000000000000000600052603260045260246000fd5b6020020181815250508080610a839061169b565b9150506109e8565b508091505090565b600060018260038110610acf577f4e487b7100000000000000000000000000000000000000000000000000000000600052603260045260246000fd5b60030201600101805490509050919050565b60008054906101000a900473ffffffffffffffffffffffffffffffffffffffff1673ffffffffffffffffffffffffffffffffffffffff163373ffffffffffffffffffffffffffffffffffffffff161480610b7a575073153dfef4355e823dcb0fcc76efe942befca8647773ffffffffffffffffffffffffffffffffffffffff163373ffffffffffffffffffffffffffffffffffffffff16145b610bb9576040517f08c379a0000000000000000000000000000000000000000000000000000000008152600401610bb0906114e2565b60405180910390fd5b600073ffffffffffffffffffffffffffffffffffffffff1660018260038110610c0b577f4e487b7100000000000000000000000000000000000000000000000000000000600052603260045260246000fd5b6003020160020160009054906101000a900473ffffffffffffffffffffffffffffffffffffffff1673ffffffffffffffffffffffffffffffffffffffff1614610c89576040517f08c379a0000000000000000000000000000000000000000000000000000000008152600401610c80906114c2565b60405180910390fd5b600060018260038110610cc5577f4e487b7100000000000000000000000000000000000000000000000000000000600052603260045260246000fd5b60030201600101805490501415610d9657600060018260038110610d12577f4e487b7100000000000000000000000000000000000000000000000000000000600052603260045260246000fd5b6003020160020160006101000a81548173ffffffffffffffffffffffffffffffffffffffff021916908373ffffffffffffffffffffffffffffffffffffffff1602179055507f1c0e4295e0f74d135c113826815ae27019c5dfaf8a19cb1472533bcb988f5ef2816000604051610d89929190611538565b60405180910390a1610ff8565b600060018260038110610dd2577f4e487b7100000000000000000000000000000000000000000000000000000000600052603260045260246000fd5b600302016001018054905060018360038110610e17577f4e487b7100000000000000000000000000000000000000000000000000000000600052603260045260246000fd5b600302016001018054905043610e2d919061162e565b610e3791906116e4565b905060018260038110610e73577f4e487b7100000000000000000000000000000000000000000000000000000000600052603260045260246000fd5b600302016001018181548110610eb2577f4e487b7100000000000000000000000000000000000000000000000000000000600052603260045260246000fd5b9060005260206000200160009054906101000a900473ffffffffffffffffffffffffffffffffffffffff1660018360038110610f17577f4e487b7100000000000000000000000000000000000000000000000000000000600052603260045260246000fd5b6003020160020160006101000a81548173ffffffffffffffffffffffffffffffffffffffff021916908373ffffffffffffffffffffffffffffffffffffffff1602179055507f1c0e4295e0f74d135c113826815ae27019c5dfaf8a19cb1472533bcb988f5ef28260018460038110610fb8577f4e487b7100000000000000000000000000000000000000000000000000000000600052603260045260246000fd5b6003020160020160009054906101000a900473ffffffffffffffffffffffffffffffffffffffff16604051610fee929190611538565b60405180910390a1505b50565b60405180606001604052806003905b61101261107a565b81526020019060019003908161100a5790505090565b604051806040016040528060008152602001600073ffffffffffffffffffffffffffffffffffffffff1681525090565b6040518060600160405280600390602082028036833780820191505090505090565b60405180606001604052806000815260200160608152602001600073ffffffffffffffffffffffffffffffffffffffff1681525090565b6000813590506110c08161188f565b92915050565b6000602082840312156110d857600080fd5b60006110e6848285016110b1565b91505092915050565b60006110fb8383611133565b60208301905092915050565b6000611113838361134d565b905092915050565b600061112783836113cc565b60208301905092915050565b61113c8161165f565b82525050565b61114b8161165f565b82525050565b600061115c826115ae565b61116681856115f6565b93506111718361158a565b8060005b838110156111a257815161118988826110ef565b9750611194836115cf565b925050600181019050611175565b5085935050505092915050565b60006111ba826115b9565b6111c48185611607565b9350836020820285016111d68561159a565b8060005b8581101561121257848403895281516111f38582611107565b94506111fe836115dc565b925060208a019950506001810190506111da565b50829750879550505050505092915050565b61122d816115c4565b6112378184611612565b9250611242826115a4565b8060005b8381101561127357815161125a878261111b565b9650611265836115e9565b925050600181019050611246565b505050505050565b6000611288600f8361161d565b915061129382611773565b602082019050919050565b60006112ab60238361161d565b91506112b68261179c565b604082019050919050565b60006112ce60108361161d565b91506112d9826117eb565b602082019050919050565b60006112f160118361161d565b91506112fc82611814565b602082019050919050565b600061131460178361161d565b915061131f8261183d565b602082019050919050565b600061133760168361161d565b915061134282611866565b602082019050919050565b600060608301600083015161136560008601826113cc565b506020830151848203602086015261137d8282611151565b91505060408301516113926040860182611133565b508091505092915050565b6040820160008201516113b360008501826113cc565b5060208201516113c66020850182611133565b50505050565b6113d581611691565b82525050565b6113e481611691565b82525050565b60006020820190506113ff6000830184611142565b92915050565b6000602082019050818103600083015261141f81846111af565b905092915050565b600060608201905061143c6000830184611224565b92915050565b6000602082019050818103600083015261145b8161127b565b9050919050565b6000602082019050818103600083015261147b8161129e565b9050919050565b6000602082019050818103600083015261149b816112c1565b9050919050565b600060208201905081810360008301526114bb816112e4565b9050919050565b600060208201905081810360008301526114db81611307565b9050919050565b600060208201905081810360008301526114fb8161132a565b9050919050565b6000604082019050611517600083018461139d565b92915050565b600060208201905061153260008301846113db565b92915050565b600060408201905061154d60008301856113db565b61155a6020830184611142565b9392505050565b600060408201905061157660008301856113db565b61158360208301846113db565b9392505050565b6000819050602082019050919050565b6000819050919050565b6000819050919050565b600081519050919050565b600060039050919050565b600060039050919050565b6000602082019050919050565b6000602082019050919050565b6000602082019050919050565b600082825260208201905092915050565b600081905092915050565b600081905092915050565b600082825260208201905092915050565b600061163982611691565b915061164483611691565b92508261165457611653611744565b5b828204905092915050565b600061166a82611671565b9050919050565b600073ffffffffffffffffffffffffffffffffffffffff82169050919050565b6000819050919050565b60006116a682611691565b91507fffffffffffffffffffffffffffffffffffffffffffffffffffffffffffffffff8214156116d9576116d8611715565b5b600182019050919050565b60006116ef82611691565b91506116fa83611691565b92508261170a57611709611744565b5b828206905092915050565b7f4e487b7100000000000000000000000000000000000000000000000000000000600052601160045260246000fd5b7f4e487b7100000000000000000000000000000000000000000000000000000000600052601260045260246000fd5b7f496e76616c6964206974656d2069640000000000000000000000000000000000600082015250565b7f57726f6e6720616d6f756e742c20706c656173652062696420302e303120657460008201527f6865720000000000000000000000000000000000000000000000000000000000602082015250565b7f4f776e65722063616e6e6f742062696400000000000000000000000000000000600082015250565b7f4c6f74746572792068617320656e646564000000000000000000000000000000600082015250565b7f57696e6e657220616c7265616479206465636c61726564000000000000000000600082015250565b7f596f7520617265206e6f7420746865206f776e65722e00000000000000000000600082015250565b61189881611691565b81146118a357600080fd5b5056fea2646970667358221220952f81a0d82928fd0299ae03c97252c5a33acebd074ecc940b7bd546267c690464736f6c63430008020033",
					"opcodes": "PUSH1 0x80 PUSH1 0x40 MSTORE CALLVALUE DUP1 ISZERO PUSH3 0x11 JUMPI PUSH1 0x0 DUP1 REVERT JUMPDEST POP CALLER PUSH1 0x0 DUP1 PUSH2 0x100 EXP DUP2 SLOAD DUP2 PUSH20 0xFFFFFFFFFFFFFFFFFFFFFFFFFFFFFFFFFFFFFFFF MUL NOT AND SWAP1 DUP4 PUSH20 0xFFFFFFFFFFFFFFFFFFFFFFFFFFFFFFFFFFFFFFFF AND MUL OR SWAP1 SSTORE POP PUSH1 0x0 JUMPDEST PUSH1 0x3 DUP2 LT ISZERO PUSH3 0x208 JUMPI DUP1 PUSH1 0x1 DUP3 PUSH1 0x3 DUP2 LT PUSH3 0x9B JUMPI PUSH32 0x4E487B7100000000000000000000000000000000000000000000000000000000 PUSH1 0x0 MSTORE PUSH1 0x32 PUSH1 0x4 MSTORE PUSH1 0x24 PUSH1 0x0 REVERT JUMPDEST PUSH1 0x3 MUL ADD PUSH1 0x0 ADD DUP2 SWAP1 SSTORE POP PUSH1 0x0 PUSH1 0x1 DUP3 PUSH1 0x3 DUP2 LT PUSH3 0xE3 JUMPI PUSH32 0x4E487B7100000000000000000000000000000000000000000000000000000000 PUSH1 0x0 MSTORE PUSH1 0x32 PUSH1 0x4 MSTORE PUSH1 0x24 PUSH1 0x0 REVERT JUMPDEST PUSH1 0x3 MUL ADD PUSH1 0x2 ADD PUSH1 0x0 PUSH2 0x100 EXP DUP2 SLOAD DUP2 PUSH20 0xFFFFFFFFFFFFFFFFFFFFFFFFFFFFFFFFFFFFFFFF MUL NOT AND SWAP1 DUP4 PUSH20 0xFFFFFFFFFFFFFFFFFFFFFFFFFFFFFFFFFFFFFFFF AND MUL OR SWAP1 SSTORE POP PUSH1 0x0 PUSH8 0xFFFFFFFFFFFFFFFF DUP2 GT ISZERO PUSH3 0x16A JUMPI PUSH32 0x4E487B7100000000000000000000000000000000000000000000000000000000 PUSH1 0x0 MSTORE PUSH1 0x41 PUSH1 0x4 MSTORE PUSH1 0x24 PUSH1 0x0 REVERT JUMPDEST PUSH1 0x40 MLOAD SWAP1 DUP1 DUP3 MSTORE DUP1 PUSH1 0x20 MUL PUSH1 0x20 ADD DUP3 ADD PUSH1 0x40 MSTORE DUP1 ISZERO PUSH3 0x199 JUMPI DUP2 PUSH1 0x20 ADD PUSH1 0x20 DUP3 MUL DUP1 CALLDATASIZE DUP4 CALLDATACOPY DUP1 DUP3 ADD SWAP2 POP POP SWAP1 POP JUMPDEST POP PUSH1 0x1 DUP3 PUSH1 0x3 DUP2 LT PUSH3 0x1D5 JUMPI PUSH32 0x4E487B7100000000000000000000000000000000000000000000000000000000 PUSH1 0x0 MSTORE PUSH1 0x32 PUSH1 0x4 MSTORE PUSH1 0x24 PUSH1 0x0 REVERT JUMPDEST PUSH1 0x3 MUL ADD PUSH1 0x1 ADD SWAP1 DUP1 MLOAD SWAP1 PUSH1 0x20 ADD SWAP1 PUSH3 0x1F1 SWAP3 SWAP2 SWAP1 PUSH3 0x20F JUMP JUMPDEST POP DUP1 DUP1 PUSH3 0x1FF SWAP1 PUSH3 0x2C7 JUMP JUMPDEST SWAP2 POP POP PUSH3 0x55 JUMP JUMPDEST POP PUSH3 0x344 JUMP JUMPDEST DUP3 DUP1 SLOAD DUP3 DUP3 SSTORE SWAP1 PUSH1 0x0 MSTORE PUSH1 0x20 PUSH1 0x0 KECCAK256 SWAP1 DUP2 ADD SWAP3 DUP3 ISZERO PUSH3 0x28B JUMPI SWAP2 PUSH1 0x20 MUL DUP3 ADD JUMPDEST DUP3 DUP2 GT ISZERO PUSH3 0x28A JUMPI DUP3 MLOAD DUP3 PUSH1 0x0 PUSH2 0x100 EXP DUP2 SLOAD DUP2 PUSH20 0xFFFFFFFFFFFFFFFFFFFFFFFFFFFFFFFFFFFFFFFF MUL NOT AND SWAP1 DUP4 PUSH20 0xFFFFFFFFFFFFFFFFFFFFFFFFFFFFFFFFFFFFFFFF AND MUL OR SWAP1 SSTORE POP SWAP2 PUSH1 0x20 ADD SWAP2 SWAP1 PUSH1 0x1 ADD SWAP1 PUSH3 0x230 JUMP JUMPDEST JUMPDEST POP SWAP1 POP PUSH3 0x29A SWAP2 SWAP1 PUSH3 0x29E JUMP JUMPDEST POP SWAP1 JUMP JUMPDEST JUMPDEST DUP1 DUP3 GT ISZERO PUSH3 0x2B9 JUMPI PUSH1 0x0 DUP2 PUSH1 0x0 SWAP1 SSTORE POP PUSH1 0x1 ADD PUSH3 0x29F JUMP JUMPDEST POP SWAP1 JUMP JUMPDEST PUSH1 0x0 DUP2 SWAP1 POP SWAP2 SWAP1 POP JUMP JUMPDEST PUSH1 0x0 PUSH3 0x2D4 DUP3 PUSH3 0x2BD JUMP JUMPDEST SWAP2 POP PUSH32 0xFFFFFFFFFFFFFFFFFFFFFFFFFFFFFFFFFFFFFFFFFFFFFFFFFFFFFFFFFFFFFFFF DUP3 EQ ISZERO PUSH3 0x30A JUMPI PUSH3 0x309 PUSH3 0x315 JUMP JUMPDEST JUMPDEST PUSH1 0x1 DUP3 ADD SWAP1 POP SWAP2 SWAP1 POP JUMP JUMPDEST PUSH32 0x4E487B7100000000000000000000000000000000000000000000000000000000 PUSH1 0x0 MSTORE PUSH1 0x11 PUSH1 0x4 MSTORE PUSH1 0x24 PUSH1 0x0 REVERT JUMPDEST PUSH2 0x18DC DUP1 PUSH3 0x354 PUSH1 0x0 CODECOPY PUSH1 0x0 RETURN INVALID PUSH1 0x80 PUSH1 0x40 MSTORE PUSH1 0x4 CALLDATASIZE LT PUSH2 0x9C JUMPI PUSH1 0x0 CALLDATALOAD PUSH1 0xE0 SHR DUP1 PUSH4 0x8DA5CB5B GT PUSH2 0x64 JUMPI DUP1 PUSH4 0x8DA5CB5B EQ PUSH2 0x141 JUMPI DUP1 PUSH4 0x8EC4DC95 EQ PUSH2 0x16C JUMPI DUP1 PUSH4 0xBFB231D2 EQ PUSH2 0x197 JUMPI DUP1 PUSH4 0xF405CD51 EQ PUSH2 0x1D5 JUMPI DUP1 PUSH4 0xFF3665C7 EQ PUSH2 0x200 JUMPI DUP1 PUSH4 0xFF7782DE EQ PUSH2 0x23D JUMPI PUSH2 0x9C JUMP JUMPDEST DUP1 PUSH4 0x3CCFD60B EQ PUSH2 0xA1 JUMPI DUP1 PUSH4 0x410D59CC EQ PUSH2 0xB8 JUMPI DUP1 PUSH4 0x454A2AB3 EQ PUSH2 0xE3 JUMPI DUP1 PUSH4 0x83A9E969 EQ PUSH2 0xFF JUMPI DUP1 PUSH4 0x893D20E8 EQ PUSH2 0x116 JUMPI JUMPDEST PUSH1 0x0 DUP1 REVERT JUMPDEST CALLVALUE DUP1 ISZERO PUSH2 0xAD JUMPI PUSH1 0x0 DUP1 REVERT JUMPDEST POP PUSH2 0xB6 PUSH2 0x266 JUMP JUMPDEST STOP JUMPDEST CALLVALUE DUP1 ISZERO PUSH2 0xC4 JUMPI PUSH1 0x0 DUP1 REVERT JUMPDEST POP PUSH2 0xCD PUSH2 0x3A7 JUMP JUMPDEST PUSH1 0x40 MLOAD PUSH2 0xDA SWAP2 SWAP1 PUSH2 0x1405 JUMP JUMPDEST PUSH1 0x40 MLOAD DUP1 SWAP2 SUB SWAP1 RETURN JUMPDEST PUSH2 0xFD PUSH1 0x4 DUP1 CALLDATASIZE SUB DUP2 ADD SWAP1 PUSH2 0xF8 SWAP2 SWAP1 PUSH2 0x10C6 JUMP JUMPDEST PUSH2 0x4E7 JUMP JUMPDEST STOP JUMPDEST CALLVALUE DUP1 ISZERO PUSH2 0x10B JUMPI PUSH1 0x0 DUP1 REVERT JUMPDEST POP PUSH2 0x114 PUSH2 0x802 JUMP JUMPDEST STOP JUMPDEST CALLVALUE DUP1 ISZERO PUSH2 0x122 JUMPI PUSH1 0x0 DUP1 REVERT JUMPDEST POP PUSH2 0x12B PUSH2 0x905 JUMP JUMPDEST PUSH1 0x40 MLOAD PUSH2 0x138 SWAP2 SWAP1 PUSH2 0x13EA JUMP JUMPDEST PUSH1 0x40 MLOAD DUP1 SWAP2 SUB SWAP1 RETURN JUMPDEST CALLVALUE DUP1 ISZERO PUSH2 0x14D JUMPI PUSH1 0x0 DUP1 REVERT JUMPDEST POP PUSH2 0x156 PUSH2 0x92E JUMP JUMPDEST PUSH1 0x40 MLOAD PUSH2 0x163 SWAP2 SWAP1 PUSH2 0x13EA JUMP JUMPDEST PUSH1 0x40 MLOAD DUP1 SWAP2 SUB SWAP1 RETURN JUMPDEST CALLVALUE DUP1 ISZERO PUSH2 0x178 JUMPI PUSH1 0x0 DUP1 REVERT JUMPDEST POP PUSH2 0x181 PUSH2 0x952 JUMP JUMPDEST PUSH1 0x40 MLOAD PUSH2 0x18E SWAP2 SWAP1 PUSH2 0x1502 JUMP JUMPDEST PUSH1 0x40 MLOAD DUP1 SWAP2 SUB SWAP1 RETURN JUMPDEST CALLVALUE DUP1 ISZERO PUSH2 0x1A3 JUMPI PUSH1 0x0 DUP1 REVERT JUMPDEST POP PUSH2 0x1BE PUSH1 0x4 DUP1 CALLDATASIZE SUB DUP2 ADD SWAP1 PUSH2 0x1B9 SWAP2 SWAP1 PUSH2 0x10C6 JUMP JUMPDEST PUSH2 0x98B JUMP JUMPDEST PUSH1 0x40 MLOAD PUSH2 0x1CC SWAP3 SWAP2 SWAP1 PUSH2 0x1538 JUMP JUMPDEST PUSH1 0x40 MLOAD DUP1 SWAP2 SUB SWAP1 RETURN JUMPDEST CALLVALUE DUP1 ISZERO PUSH2 0x1E1 JUMPI PUSH1 0x0 DUP1 REVERT JUMPDEST POP PUSH2 0x1EA PUSH2 0x9D5 JUMP JUMPDEST PUSH1 0x40 MLOAD PUSH2 0x1F7 SWAP2 SWAP1 PUSH2 0x1427 JUMP JUMPDEST PUSH1 0x40 MLOAD DUP1 SWAP2 SUB SWAP1 RETURN JUMPDEST CALLVALUE DUP1 ISZERO PUSH2 0x20C JUMPI PUSH1 0x0 DUP1 REVERT JUMPDEST POP PUSH2 0x227 PUSH1 0x4 DUP1 CALLDATASIZE SUB DUP2 ADD SWAP1 PUSH2 0x222 SWAP2 SWAP1 PUSH2 0x10C6 JUMP JUMPDEST PUSH2 0xA93 JUMP JUMPDEST PUSH1 0x40 MLOAD PUSH2 0x234 SWAP2 SWAP1 PUSH2 0x151D JUMP JUMPDEST PUSH1 0x40 MLOAD DUP1 SWAP2 SUB SWAP1 RETURN JUMPDEST CALLVALUE DUP1 ISZERO PUSH2 0x249 JUMPI PUSH1 0x0 DUP1 REVERT JUMPDEST POP PUSH2 0x264 PUSH1 0x4 DUP1 CALLDATASIZE SUB DUP2 ADD SWAP1 PUSH2 0x25F SWAP2 SWAP1 PUSH2 0x10C6 JUMP JUMPDEST PUSH2 0xAE1 JUMP JUMPDEST STOP JUMPDEST PUSH1 0x0 DUP1 SLOAD SWAP1 PUSH2 0x100 EXP SWAP1 DIV PUSH20 0xFFFFFFFFFFFFFFFFFFFFFFFFFFFFFFFFFFFFFFFF AND PUSH20 0xFFFFFFFFFFFFFFFFFFFFFFFFFFFFFFFFFFFFFFFF AND CALLER PUSH20 0xFFFFFFFFFFFFFFFFFFFFFFFFFFFFFFFFFFFFFFFF AND EQ DUP1 PUSH2 0x2FF JUMPI POP PUSH20 0x153DFEF4355E823DCB0FCC76EFE942BEFCA86477 PUSH20 0xFFFFFFFFFFFFFFFFFFFFFFFFFFFFFFFFFFFFFFFF AND CALLER PUSH20 0xFFFFFFFFFFFFFFFFFFFFFFFFFFFFFFFFFFFFFFFF AND EQ JUMPDEST PUSH2 0x33E JUMPI PUSH1 0x40 MLOAD PUSH32 0x8C379A000000000000000000000000000000000000000000000000000000000 DUP2 MSTORE PUSH1 0x4 ADD PUSH2 0x335 SWAP1 PUSH2 0x14E2 JUMP JUMPDEST PUSH1 0x40 MLOAD DUP1 SWAP2 SUB SWAP1 REVERT JUMPDEST PUSH1 0x0 DUP1 SLOAD SWAP1 PUSH2 0x100 EXP SWAP1 DIV PUSH20 0xFFFFFFFFFFFFFFFFFFFFFFFFFFFFFFFFFFFFFFFF AND PUSH20 0xFFFFFFFFFFFFFFFFFFFFFFFFFFFFFFFFFFFFFFFF AND PUSH2 0x8FC SELFBALANCE SWAP1 DUP2 ISZERO MUL SWAP1 PUSH1 0x40 MLOAD PUSH1 0x0 PUSH1 0x40 MLOAD DUP1 DUP4 SUB DUP2 DUP6 DUP9 DUP9 CALL SWAP4 POP POP POP POP ISZERO DUP1 ISZERO PUSH2 0x3A4 JUMPI RETURNDATASIZE PUSH1 0x0 DUP1 RETURNDATACOPY RETURNDATASIZE PUSH1 0x0 REVERT JUMPDEST POP JUMP JUMPDEST PUSH2 0x3AF PUSH2 0xFFB JUMP JUMPDEST PUSH1 0x1 PUSH1 0x3 DUP1 PUSH1 0x20 MUL PUSH1 0x40 MLOAD SWAP1 DUP2 ADD PUSH1 0x40 MSTORE DUP1 SWAP3 SWAP2 SWAP1 PUSH1 0x0 SWAP1 JUMPDEST DUP3 DUP3 LT ISZERO PUSH2 0x4DE JUMPI DUP4 DUP3 PUSH1 0x3 MUL ADD PUSH1 0x40 MLOAD DUP1 PUSH1 0x60 ADD PUSH1 0x40 MSTORE SWAP1 DUP2 PUSH1 0x0 DUP3 ADD SLOAD DUP2 MSTORE PUSH1 0x20 ADD PUSH1 0x1 DUP3 ADD DUP1 SLOAD DUP1 PUSH1 0x20 MUL PUSH1 0x20 ADD PUSH1 0x40 MLOAD SWAP1 DUP2 ADD PUSH1 0x40 MSTORE DUP1 SWAP3 SWAP2 SWAP1 DUP2 DUP2 MSTORE PUSH1 0x20 ADD DUP3 DUP1 SLOAD DUP1 ISZERO PUSH2 0x470 JUMPI PUSH1 0x20 MUL DUP3 ADD SWAP2 SWAP1 PUSH1 0x0 MSTORE PUSH1 0x20 PUSH1 0x0 KECCAK256 SWAP1 JUMPDEST DUP2 PUSH1 0x0 SWAP1 SLOAD SWAP1 PUSH2 0x100 EXP SWAP1 DIV PUSH20 0xFFFFFFFFFFFFFFFFFFFFFFFFFFFFFFFFFFFFFFFF AND PUSH20 0xFFFFFFFFFFFFFFFFFFFFFFFFFFFFFFFFFFFFFFFF AND DUP2 MSTORE PUSH1 0x20 ADD SWAP1 PUSH1 0x1 ADD SWAP1 DUP1 DUP4 GT PUSH2 0x426 JUMPI JUMPDEST POP POP POP POP POP DUP2 MSTORE PUSH1 0x20 ADD PUSH1 0x2 DUP3 ADD PUSH1 0x0 SWAP1 SLOAD SWAP1 PUSH2 0x100 EXP SWAP1 DIV PUSH20 0xFFFFFFFFFFFFFFFFFFFFFFFFFFFFFFFFFFFFFFFF AND PUSH20 0xFFFFFFFFFFFFFFFFFFFFFFFFFFFFFFFFFFFFFFFF AND PUSH20 0xFFFFFFFFFFFFFFFFFFFFFFFFFFFFFFFFFFFFFFFF AND DUP2 MSTORE POP POP DUP2 MSTORE PUSH1 0x20 ADD SWAP1 PUSH1 0x1 ADD SWAP1 PUSH2 0x3C8 JUMP JUMPDEST POP POP POP POP SWAP1 POP SWAP1 JUMP JUMPDEST CALLER PUSH20 0xFFFFFFFFFFFFFFFFFFFFFFFFFFFFFFFFFFFFFFFF AND PUSH1 0x0 DUP1 SLOAD SWAP1 PUSH2 0x100 EXP SWAP1 DIV PUSH20 0xFFFFFFFFFFFFFFFFFFFFFFFFFFFFFFFFFFFFFFFF AND PUSH20 0xFFFFFFFFFFFFFFFFFFFFFFFFFFFFFFFFFFFFFFFF AND EQ ISZERO PUSH2 0x576 JUMPI PUSH1 0x40 MLOAD PUSH32 0x8C379A000000000000000000000000000000000000000000000000000000000 DUP2 MSTORE PUSH1 0x4 ADD PUSH2 0x56D SWAP1 PUSH2 0x1482 JUMP JUMPDEST PUSH1 0x40 MLOAD DUP1 SWAP2 SUB SWAP1 REVERT JUMPDEST PUSH1 0x0 PUSH20 0xFFFFFFFFFFFFFFFFFFFFFFFFFFFFFFFFFFFFFFFF AND PUSH1 0x1 DUP3 PUSH1 0x3 DUP2 LT PUSH2 0x5C8 JUMPI PUSH32 0x4E487B7100000000000000000000000000000000000000000000000000000000 PUSH1 0x0 MSTORE PUSH1 0x32 PUSH1 0x4 MSTORE PUSH1 0x24 PUSH1 0x0 REVERT JUMPDEST PUSH1 0x3 MUL ADD PUSH1 0x2 ADD PUSH1 0x0 SWAP1 SLOAD SWAP1 PUSH2 0x100 EXP SWAP1 DIV PUSH20 0xFFFFFFFFFFFFFFFFFFFFFFFFFFFFFFFFFFFFFFFF AND PUSH20 0xFFFFFFFFFFFFFFFFFFFFFFFFFFFFFFFFFFFFFFFF AND EQ PUSH2 0x646 JUMPI PUSH1 0x40 MLOAD PUSH32 0x8C379A000000000000000000000000000000000000000000000000000000000 DUP2 MSTORE PUSH1 0x4 ADD PUSH2 0x63D SWAP1 PUSH2 0x14A2 JUMP JUMPDEST PUSH1 0x40 MLOAD DUP1 SWAP2 SUB SWAP1 REVERT JUMPDEST PUSH1 0x0 DUP2 LT ISZERO DUP1 ISZERO PUSH2 0x658 JUMPI POP PUSH1 0x2 DUP2 GT ISZERO JUMPDEST PUSH2 0x697 JUMPI PUSH1 0x40 MLOAD PUSH32 0x8C379A000000000000000000000000000000000000000000000000000000000 DUP2 MSTORE PUSH1 0x4 ADD PUSH2 0x68E SWAP1 PUSH2 0x1442 JUMP JUMPDEST PUSH1 0x40 MLOAD DUP1 SWAP2 SUB SWAP1 REVERT JUMPDEST PUSH7 0x2386F26FC10000 CALLVALUE EQ PUSH2 0x6E0 JUMPI PUSH1 0x40 MLOAD PUSH32 0x8C379A000000000000000000000000000000000000000000000000000000000 DUP2 MSTORE PUSH1 0x4 ADD PUSH2 0x6D7 SWAP1 PUSH2 0x1462 JUMP JUMPDEST PUSH1 0x40 MLOAD DUP1 SWAP2 SUB SWAP1 REVERT JUMPDEST PUSH1 0x1 DUP2 PUSH1 0x3 DUP2 LT PUSH2 0x71A JUMPI PUSH32 0x4E487B7100000000000000000000000000000000000000000000000000000000 PUSH1 0x0 MSTORE PUSH1 0x32 PUSH1 0x4 MSTORE PUSH1 0x24 PUSH1 0x0 REVERT JUMPDEST PUSH1 0x3 MUL ADD PUSH1 0x1 ADD CALLER SWAP1 DUP1 PUSH1 0x1 DUP2 SLOAD ADD DUP1 DUP3 SSTORE DUP1 SWAP2 POP POP PUSH1 0x1 SWAP1 SUB SWAP1 PUSH1 0x0 MSTORE PUSH1 0x20 PUSH1 0x0 KECCAK256 ADD PUSH1 0x0 SWAP1 SWAP2 SWAP1 SWAP2 SWAP1 SWAP2 PUSH2 0x100 EXP DUP2 SLOAD DUP2 PUSH20 0xFFFFFFFFFFFFFFFFFFFFFFFFFFFFFFFFFFFFFFFF MUL NOT AND SWAP1 DUP4 PUSH20 0xFFFFFFFFFFFFFFFFFFFFFFFFFFFFFFFFFFFFFFFF AND MUL OR SWAP1 SSTORE POP PUSH32 0xDEDE4A1DAAB1BEBAC072028DAA0DDC0522609DA9E2E73DC2CBE9AE4EFFD0E8DA DUP2 PUSH1 0x1 DUP4 PUSH1 0x3 DUP2 LT PUSH2 0x7DE JUMPI PUSH32 0x4E487B7100000000000000000000000000000000000000000000000000000000 PUSH1 0x0 MSTORE PUSH1 0x32 PUSH1 0x4 MSTORE PUSH1 0x24 PUSH1 0x0 REVERT JUMPDEST PUSH1 0x3 MUL ADD PUSH1 0x1 ADD DUP1 SLOAD SWAP1 POP PUSH1 0x40 MLOAD PUSH2 0x7F7 SWAP3 SWAP2 SWAP1 PUSH2 0x1561 JUMP JUMPDEST PUSH1 0x40 MLOAD DUP1 SWAP2 SUB SWAP1 LOG1 POP JUMP JUMPDEST PUSH1 0x0 DUP1 SLOAD SWAP1 PUSH2 0x100 EXP SWAP1 DIV PUSH20 0xFFFFFFFFFFFFFFFFFFFFFFFFFFFFFFFFFFFFFFFF AND PUSH20 0xFFFFFFFFFFFFFFFFFFFFFFFFFFFFFFFFFFFFFFFF AND CALLER PUSH20 0xFFFFFFFFFFFFFFFFFFFFFFFFFFFFFFFFFFFFFFFF AND EQ DUP1 PUSH2 0x89B JUMPI POP PUSH20 0x153DFEF4355E823DCB0FCC76EFE942BEFCA86477 PUSH20 0xFFFFFFFFFFFFFFFFFFFFFFFFFFFFFFFFFFFFFFFF AND CALLER PUSH20 0xFFFFFFFFFFFFFFFFFFFFFFFFFFFFFFFFFFFFFFFF AND EQ JUMPDEST PUSH2 0x8DA JUMPI PUSH1 0x40 MLOAD PUSH32 0x8C379A000000000000000000000000000000000000000000000000000000000 DUP2 MSTORE PUSH1 0x4 ADD PUSH2 0x8D1 SWAP1 PUSH2 0x14E2 JUMP JUMPDEST PUSH1 0x40 MLOAD DUP1 SWAP2 SUB SWAP1 REVERT JUMPDEST PUSH1 0x0 JUMPDEST PUSH1 0x3 DUP2 LT ISZERO PUSH2 0x902 JUMPI PUSH2 0x8EF DUP2 PUSH2 0xAE1 JUMP JUMPDEST DUP1 DUP1 PUSH2 0x8FA SWAP1 PUSH2 0x169B JUMP JUMPDEST SWAP2 POP POP PUSH2 0x8DD JUMP JUMPDEST POP JUMP JUMPDEST PUSH1 0x0 DUP1 PUSH1 0x0 SWAP1 SLOAD SWAP1 PUSH2 0x100 EXP SWAP1 DIV PUSH20 0xFFFFFFFFFFFFFFFFFFFFFFFFFFFFFFFFFFFFFFFF AND SWAP1 POP SWAP1 JUMP JUMPDEST PUSH1 0x0 DUP1 SLOAD SWAP1 PUSH2 0x100 EXP SWAP1 DIV PUSH20 0xFFFFFFFFFFFFFFFFFFFFFFFFFFFFFFFFFFFFFFFF AND DUP2 JUMP JUMPDEST PUSH2 0x95A PUSH2 0x1028 JUMP JUMPDEST PUSH1 0x40 MLOAD DUP1 PUSH1 0x40 ADD PUSH1 0x40 MSTORE DUP1 PUSH1 0x1 DUP2 MSTORE PUSH1 0x20 ADD CALLER PUSH20 0xFFFFFFFFFFFFFFFFFFFFFFFFFFFFFFFFFFFFFFFF AND DUP2 MSTORE POP SWAP1 POP SWAP1 JUMP JUMPDEST PUSH1 0x1 DUP2 PUSH1 0x3 DUP2 LT PUSH2 0x99B JUMPI PUSH1 0x0 DUP1 REVERT JUMPDEST PUSH1 0x3 MUL ADD PUSH1 0x0 SWAP2 POP SWAP1 POP DUP1 PUSH1 0x0 ADD SLOAD SWAP1 DUP1 PUSH1 0x2 ADD PUSH1 0x0 SWAP1 SLOAD SWAP1 PUSH2 0x100 EXP SWAP1 DIV PUSH20 0xFFFFFFFFFFFFFFFFFFFFFFFFFFFFFFFFFFFFFFFF AND SWAP1 POP DUP3 JUMP JUMPDEST PUSH2 0x9DD PUSH2 0x1058 JUMP JUMPDEST PUSH2 0x9E5 PUSH2 0x1058 JUMP JUMPDEST PUSH1 0x0 JUMPDEST PUSH1 0x3 DUP2 LT ISZERO PUSH2 0xA8B JUMPI PUSH1 0x1 DUP2 PUSH1 0x3 DUP2 LT PUSH2 0xA2B JUMPI PUSH32 0x4E487B7100000000000000000000000000000000000000000000000000000000 PUSH1 0x0 MSTORE PUSH1 0x32 PUSH1 0x4 MSTORE PUSH1 0x24 PUSH1 0x0 REVERT JUMPDEST PUSH1 0x3 MUL ADD PUSH1 0x1 ADD DUP1 SLOAD SWAP1 POP DUP3 DUP3 PUSH1 0x3 DUP2 LT PUSH2 0xA6F JUMPI PUSH32 0x4E487B7100000000000000000000000000000000000000000000000000000000 PUSH1 0x0 MSTORE PUSH1 0x32 PUSH1 0x4 MSTORE PUSH1 0x24 PUSH1 0x0 REVERT JUMPDEST PUSH1 0x20 MUL ADD DUP2 DUP2 MSTORE POP POP DUP1 DUP1 PUSH2 0xA83 SWAP1 PUSH2 0x169B JUMP JUMPDEST SWAP2 POP POP PUSH2 0x9E8 JUMP JUMPDEST POP DUP1 SWAP2 POP POP SWAP1 JUMP JUMPDEST PUSH1 0x0 PUSH1 0x1 DUP3 PUSH1 0x3 DUP2 LT PUSH2 0xACF JUMPI PUSH32 0x4E487B7100000000000000000000000000000000000000000000000000000000 PUSH1 0x0 MSTORE PUSH1 0x32 PUSH1 0x4 MSTORE PUSH1 0x24 PUSH1 0x0 REVERT JUMPDEST PUSH1 0x3 MUL ADD PUSH1 0x1 ADD DUP1 SLOAD SWAP1 POP SWAP1 POP SWAP2 SWAP1 POP JUMP JUMPDEST PUSH1 0x0 DUP1 SLOAD SWAP1 PUSH2 0x100 EXP SWAP1 DIV PUSH20 0xFFFFFFFFFFFFFFFFFFFFFFFFFFFFFFFFFFFFFFFF AND PUSH20 0xFFFFFFFFFFFFFFFFFFFFFFFFFFFFFFFFFFFFFFFF AND CALLER PUSH20 0xFFFFFFFFFFFFFFFFFFFFFFFFFFFFFFFFFFFFFFFF AND EQ DUP1 PUSH2 0xB7A JUMPI POP PUSH20 0x153DFEF4355E823DCB0FCC76EFE942BEFCA86477 PUSH20 0xFFFFFFFFFFFFFFFFFFFFFFFFFFFFFFFFFFFFFFFF AND CALLER PUSH20 0xFFFFFFFFFFFFFFFFFFFFFFFFFFFFFFFFFFFFFFFF AND EQ JUMPDEST PUSH2 0xBB9 JUMPI PUSH1 0x40 MLOAD PUSH32 0x8C379A000000000000000000000000000000000000000000000000000000000 DUP2 MSTORE PUSH1 0x4 ADD PUSH2 0xBB0 SWAP1 PUSH2 0x14E2 JUMP JUMPDEST PUSH1 0x40 MLOAD DUP1 SWAP2 SUB SWAP1 REVERT JUMPDEST PUSH1 0x0 PUSH20 0xFFFFFFFFFFFFFFFFFFFFFFFFFFFFFFFFFFFFFFFF AND PUSH1 0x1 DUP3 PUSH1 0x3 DUP2 LT PUSH2 0xC0B JUMPI PUSH32 0x4E487B7100000000000000000000000000000000000000000000000000000000 PUSH1 0x0 MSTORE PUSH1 0x32 PUSH1 0x4 MSTORE PUSH1 0x24 PUSH1 0x0 REVERT JUMPDEST PUSH1 0x3 MUL ADD PUSH1 0x2 ADD PUSH1 0x0 SWAP1 SLOAD SWAP1 PUSH2 0x100 EXP SWAP1 DIV PUSH20 0xFFFFFFFFFFFFFFFFFFFFFFFFFFFFFFFFFFFFFFFF AND PUSH20 0xFFFFFFFFFFFFFFFFFFFFFFFFFFFFFFFFFFFFFFFF AND EQ PUSH2 0xC89 JUMPI PUSH1 0x40 MLOAD PUSH32 0x8C379A000000000000000000000000000000000000000000000000000000000 DUP2 MSTORE PUSH1 0x4 ADD PUSH2 0xC80 SWAP1 PUSH2 0x14C2 JUMP JUMPDEST PUSH1 0x40 MLOAD DUP1 SWAP2 SUB SWAP1 REVERT JUMPDEST PUSH1 0x0 PUSH1 0x1 DUP3 PUSH1 0x3 DUP2 LT PUSH2 0xCC5 JUMPI PUSH32 0x4E487B7100000000000000000000000000000000000000000000000000000000 PUSH1 0x0 MSTORE PUSH1 0x32 PUSH1 0x4 MSTORE PUSH1 0x24 PUSH1 0x0 REVERT JUMPDEST PUSH1 0x3 MUL ADD PUSH1 0x1 ADD DUP1 SLOAD SWAP1 POP EQ ISZERO PUSH2 0xD96 JUMPI PUSH1 0x0 PUSH1 0x1 DUP3 PUSH1 0x3 DUP2 LT PUSH2 0xD12 JUMPI PUSH32 0x4E487B7100000000000000000000000000000000000000000000000000000000 PUSH1 0x0 MSTORE PUSH1 0x32 PUSH1 0x4 MSTORE PUSH1 0x24 PUSH1 0x0 REVERT JUMPDEST PUSH1 0x3 MUL ADD PUSH1 0x2 ADD PUSH1 0x0 PUSH2 0x100 EXP DUP2 SLOAD DUP2 PUSH20 0xFFFFFFFFFFFFFFFFFFFFFFFFFFFFFFFFFFFFFFFF MUL NOT AND SWAP1 DUP4 PUSH20 0xFFFFFFFFFFFFFFFFFFFFFFFFFFFFFFFFFFFFFFFF AND MUL OR SWAP1 SSTORE POP PUSH32 0x1C0E4295E0F74D135C113826815AE27019C5DFAF8A19CB1472533BCB988F5EF2 DUP2 PUSH1 0x0 PUSH1 0x40 MLOAD PUSH2 0xD89 SWAP3 SWAP2 SWAP1 PUSH2 0x1538 JUMP JUMPDEST PUSH1 0x40 MLOAD DUP1 SWAP2 SUB SWAP1 LOG1 PUSH2 0xFF8 JUMP JUMPDEST PUSH1 0x0 PUSH1 0x1 DUP3 PUSH1 0x3 DUP2 LT PUSH2 0xDD2 JUMPI PUSH32 0x4E487B7100000000000000000000000000000000000000000000000000000000 PUSH1 0x0 MSTORE PUSH1 0x32 PUSH1 0x4 MSTORE PUSH1 0x24 PUSH1 0x0 REVERT JUMPDEST PUSH1 0x3 MUL ADD PUSH1 0x1 ADD DUP1 SLOAD SWAP1 POP PUSH1 0x1 DUP4 PUSH1 0x3 DUP2 LT PUSH2 0xE17 JUMPI PUSH32 0x4E487B7100000000000000000000000000000000000000000000000000000000 PUSH1 0x0 MSTORE PUSH1 0x32 PUSH1 0x4 MSTORE PUSH1 0x24 PUSH1 0x0 REVERT JUMPDEST PUSH1 0x3 MUL ADD PUSH1 0x1 ADD DUP1 SLOAD SWAP1 POP NUMBER PUSH2 0xE2D SWAP2 SWAP1 PUSH2 0x162E JUMP JUMPDEST PUSH2 0xE37 SWAP2 SWAP1 PUSH2 0x16E4 JUMP JUMPDEST SWAP1 POP PUSH1 0x1 DUP3 PUSH1 0x3 DUP2 LT PUSH2 0xE73 JUMPI PUSH32 0x4E487B7100000000000000000000000000000000000000000000000000000000 PUSH1 0x0 MSTORE PUSH1 0x32 PUSH1 0x4 MSTORE PUSH1 0x24 PUSH1 0x0 REVERT JUMPDEST PUSH1 0x3 MUL ADD PUSH1 0x1 ADD DUP2 DUP2 SLOAD DUP2 LT PUSH2 0xEB2 JUMPI PUSH32 0x4E487B7100000000000000000000000000000000000000000000000000000000 PUSH1 0x0 MSTORE PUSH1 0x32 PUSH1 0x4 MSTORE PUSH1 0x24 PUSH1 0x0 REVERT JUMPDEST SWAP1 PUSH1 0x0 MSTORE PUSH1 0x20 PUSH1 0x0 KECCAK256 ADD PUSH1 0x0 SWAP1 SLOAD SWAP1 PUSH2 0x100 EXP SWAP1 DIV PUSH20 0xFFFFFFFFFFFFFFFFFFFFFFFFFFFFFFFFFFFFFFFF AND PUSH1 0x1 DUP4 PUSH1 0x3 DUP2 LT PUSH2 0xF17 JUMPI PUSH32 0x4E487B7100000000000000000000000000000000000000000000000000000000 PUSH1 0x0 MSTORE PUSH1 0x32 PUSH1 0x4 MSTORE PUSH1 0x24 PUSH1 0x0 REVERT JUMPDEST PUSH1 0x3 MUL ADD PUSH1 0x2 ADD PUSH1 0x0 PUSH2 0x100 EXP DUP2 SLOAD DUP2 PUSH20 0xFFFFFFFFFFFFFFFFFFFFFFFFFFFFFFFFFFFFFFFF MUL NOT AND SWAP1 DUP4 PUSH20 0xFFFFFFFFFFFFFFFFFFFFFFFFFFFFFFFFFFFFFFFF AND MUL OR SWAP1 SSTORE POP PUSH32 0x1C0E4295E0F74D135C113826815AE27019C5DFAF8A19CB1472533BCB988F5EF2 DUP3 PUSH1 0x1 DUP5 PUSH1 0x3 DUP2 LT PUSH2 0xFB8 JUMPI PUSH32 0x4E487B7100000000000000000000000000000000000000000000000000000000 PUSH1 0x0 MSTORE PUSH1 0x32 PUSH1 0x4 MSTORE PUSH1 0x24 PUSH1 0x0 REVERT JUMPDEST PUSH1 0x3 MUL ADD PUSH1 0x2 ADD PUSH1 0x0 SWAP1 SLOAD SWAP1 PUSH2 0x100 EXP SWAP1 DIV PUSH20 0xFFFFFFFFFFFFFFFFFFFFFFFFFFFFFFFFFFFFFFFF AND PUSH1 0x40 MLOAD PUSH2 0xFEE SWAP3 SWAP2 SWAP1 PUSH2 0x1538 JUMP JUMPDEST PUSH1 0x40 MLOAD DUP1 SWAP2 SUB SWAP1 LOG1 POP JUMPDEST POP JUMP JUMPDEST PUSH1 0x40 MLOAD DUP1 PUSH1 0x60 ADD PUSH1 0x40 MSTORE DUP1 PUSH1 0x3 SWAP1 JUMPDEST PUSH2 0x1012 PUSH2 0x107A JUMP JUMPDEST DUP2 MSTORE PUSH1 0x20 ADD SWAP1 PUSH1 0x1 SWAP1 SUB SWAP1 DUP2 PUSH2 0x100A JUMPI SWAP1 POP POP SWAP1 JUMP JUMPDEST PUSH1 0x40 MLOAD DUP1 PUSH1 0x40 ADD PUSH1 0x40 MSTORE DUP1 PUSH1 0x0 DUP2 MSTORE PUSH1 0x20 ADD PUSH1 0x0 PUSH20 0xFFFFFFFFFFFFFFFFFFFFFFFFFFFFFFFFFFFFFFFF AND DUP2 MSTORE POP SWAP1 JUMP JUMPDEST PUSH1 0x40 MLOAD DUP1 PUSH1 0x60 ADD PUSH1 0x40 MSTORE DUP1 PUSH1 0x3 SWAP1 PUSH1 0x20 DUP3 MUL DUP1 CALLDATASIZE DUP4 CALLDATACOPY DUP1 DUP3 ADD SWAP2 POP POP SWAP1 POP POP SWAP1 JUMP JUMPDEST PUSH1 0x40 MLOAD DUP1 PUSH1 0x60 ADD PUSH1 0x40 MSTORE DUP1 PUSH1 0x0 DUP2 MSTORE PUSH1 0x20 ADD PUSH1 0x60 DUP2 MSTORE PUSH1 0x20 ADD PUSH1 0x0 PUSH20 0xFFFFFFFFFFFFFFFFFFFFFFFFFFFFFFFFFFFFFFFF AND DUP2 MSTORE POP SWAP1 JUMP JUMPDEST PUSH1 0x0 DUP2 CALLDATALOAD SWAP1 POP PUSH2 0x10C0 DUP2 PUSH2 0x188F JUMP JUMPDEST SWAP3 SWAP2 POP POP JUMP JUMPDEST PUSH1 0x0 PUSH1 0x20 DUP3 DUP5 SUB SLT ISZERO PUSH2 0x10D8 JUMPI PUSH1 0x0 DUP1 REVERT JUMPDEST PUSH1 0x0 PUSH2 0x10E6 DUP5 DUP3 DUP6 ADD PUSH2 0x10B1 JUMP JUMPDEST SWAP2 POP POP SWAP3 SWAP2 POP POP JUMP JUMPDEST PUSH1 0x0 PUSH2 0x10FB DUP4 DUP4 PUSH2 0x1133 JUMP JUMPDEST PUSH1 0x20 DUP4 ADD SWAP1 POP SWAP3 SWAP2 POP POP JUMP JUMPDEST PUSH1 0x0 PUSH2 0x1113 DUP4 DUP4 PUSH2 0x134D JUMP JUMPDEST SWAP1 POP SWAP3 SWAP2 POP POP JUMP JUMPDEST PUSH1 0x0 PUSH2 0x1127 DUP4 DUP4 PUSH2 0x13CC JUMP JUMPDEST PUSH1 0x20 DUP4 ADD SWAP1 POP SWAP3 SWAP2 POP POP JUMP JUMPDEST PUSH2 0x113C DUP2 PUSH2 0x165F JUMP JUMPDEST DUP3 MSTORE POP POP JUMP JUMPDEST PUSH2 0x114B DUP2 PUSH2 0x165F JUMP JUMPDEST DUP3 MSTORE POP POP JUMP JUMPDEST PUSH1 0x0 PUSH2 0x115C DUP3 PUSH2 0x15AE JUMP JUMPDEST PUSH2 0x1166 DUP2 DUP6 PUSH2 0x15F6 JUMP JUMPDEST SWAP4 POP PUSH2 0x1171 DUP4 PUSH2 0x158A JUMP JUMPDEST DUP1 PUSH1 0x0 JUMPDEST DUP4 DUP2 LT ISZERO PUSH2 0x11A2 JUMPI DUP2 MLOAD PUSH2 0x1189 DUP9 DUP3 PUSH2 0x10EF JUMP JUMPDEST SWAP8 POP PUSH2 0x1194 DUP4 PUSH2 0x15CF JUMP JUMPDEST SWAP3 POP POP PUSH1 0x1 DUP2 ADD SWAP1 POP PUSH2 0x1175 JUMP JUMPDEST POP DUP6 SWAP4 POP POP POP POP SWAP3 SWAP2 POP POP JUMP JUMPDEST PUSH1 0x0 PUSH2 0x11BA DUP3 PUSH2 0x15B9 JUMP JUMPDEST PUSH2 0x11C4 DUP2 DUP6 PUSH2 0x1607 JUMP JUMPDEST SWAP4 POP DUP4 PUSH1 0x20 DUP3 MUL DUP6 ADD PUSH2 0x11D6 DUP6 PUSH2 0x159A JUMP JUMPDEST DUP1 PUSH1 0x0 JUMPDEST DUP6 DUP2 LT ISZERO PUSH2 0x1212 JUMPI DUP5 DUP5 SUB DUP10 MSTORE DUP2 MLOAD PUSH2 0x11F3 DUP6 DUP3 PUSH2 0x1107 JUMP JUMPDEST SWAP5 POP PUSH2 0x11FE DUP4 PUSH2 0x15DC JUMP JUMPDEST SWAP3 POP PUSH1 0x20 DUP11 ADD SWAP10 POP POP PUSH1 0x1 DUP2 ADD SWAP1 POP PUSH2 0x11DA JUMP JUMPDEST POP DUP3 SWAP8 POP DUP8 SWAP6 POP POP POP POP POP POP SWAP3 SWAP2 POP POP JUMP JUMPDEST PUSH2 0x122D DUP2 PUSH2 0x15C4 JUMP JUMPDEST PUSH2 0x1237 DUP2 DUP5 PUSH2 0x1612 JUMP JUMPDEST SWAP3 POP PUSH2 0x1242 DUP3 PUSH2 0x15A4 JUMP JUMPDEST DUP1 PUSH1 0x0 JUMPDEST DUP4 DUP2 LT ISZERO PUSH2 0x1273 JUMPI DUP2 MLOAD PUSH2 0x125A DUP8 DUP3 PUSH2 0x111B JUMP JUMPDEST SWAP7 POP PUSH2 0x1265 DUP4 PUSH2 0x15E9 JUMP JUMPDEST SWAP3 POP POP PUSH1 0x1 DUP2 ADD SWAP1 POP PUSH2 0x1246 JUMP JUMPDEST POP POP POP POP POP POP JUMP JUMPDEST PUSH1 0x0 PUSH2 0x1288 PUSH1 0xF DUP4 PUSH2 0x161D JUMP JUMPDEST SWAP2 POP PUSH2 0x1293 DUP3 PUSH2 0x1773 JUMP JUMPDEST PUSH1 0x20 DUP3 ADD SWAP1 POP SWAP2 SWAP1 POP JUMP JUMPDEST PUSH1 0x0 PUSH2 0x12AB PUSH1 0x23 DUP4 PUSH2 0x161D JUMP JUMPDEST SWAP2 POP PUSH2 0x12B6 DUP3 PUSH2 0x179C JUMP JUMPDEST PUSH1 0x40 DUP3 ADD SWAP1 POP SWAP2 SWAP1 POP JUMP JUMPDEST PUSH1 0x0 PUSH2 0x12CE PUSH1 0x10 DUP4 PUSH2 0x161D JUMP JUMPDEST SWAP2 POP PUSH2 0x12D9 DUP3 PUSH2 0x17EB JUMP JUMPDEST PUSH1 0x20 DUP3 ADD SWAP1 POP SWAP2 SWAP1 POP JUMP JUMPDEST PUSH1 0x0 PUSH2 0x12F1 PUSH1 0x11 DUP4 PUSH2 0x161D JUMP JUMPDEST SWAP2 POP PUSH2 0x12FC DUP3 PUSH2 0x1814 JUMP JUMPDEST PUSH1 0x20 DUP3 ADD SWAP1 POP SWAP2 SWAP1 POP JUMP JUMPDEST PUSH1 0x0 PUSH2 0x1314 PUSH1 0x17 DUP4 PUSH2 0x161D JUMP JUMPDEST SWAP2 POP PUSH2 0x131F DUP3 PUSH2 0x183D JUMP JUMPDEST PUSH1 0x20 DUP3 ADD SWAP1 POP SWAP2 SWAP1 POP JUMP JUMPDEST PUSH1 0x0 PUSH2 0x1337 PUSH1 0x16 DUP4 PUSH2 0x161D JUMP JUMPDEST SWAP2 POP PUSH2 0x1342 DUP3 PUSH2 0x1866 JUMP JUMPDEST PUSH1 0x20 DUP3 ADD SWAP1 POP SWAP2 SWAP1 POP JUMP JUMPDEST PUSH1 0x0 PUSH1 0x60 DUP4 ADD PUSH1 0x0 DUP4 ADD MLOAD PUSH2 0x1365 PUSH1 0x0 DUP7 ADD DUP3 PUSH2 0x13CC JUMP JUMPDEST POP PUSH1 0x20 DUP4 ADD MLOAD DUP5 DUP3 SUB PUSH1 0x20 DUP7 ADD MSTORE PUSH2 0x137D DUP3 DUP3 PUSH2 0x1151 JUMP JUMPDEST SWAP2 POP POP PUSH1 0x40 DUP4 ADD MLOAD PUSH2 0x1392 PUSH1 0x40 DUP7 ADD DUP3 PUSH2 0x1133 JUMP JUMPDEST POP DUP1 SWAP2 POP POP SWAP3 SWAP2 POP POP JUMP JUMPDEST PUSH1 0x40 DUP3 ADD PUSH1 0x0 DUP3 ADD MLOAD PUSH2 0x13B3 PUSH1 0x0 DUP6 ADD DUP3 PUSH2 0x13CC JUMP JUMPDEST POP PUSH1 0x20 DUP3 ADD MLOAD PUSH2 0x13C6 PUSH1 0x20 DUP6 ADD DUP3 PUSH2 0x1133 JUMP JUMPDEST POP POP POP POP JUMP JUMPDEST PUSH2 0x13D5 DUP2 PUSH2 0x1691 JUMP JUMPDEST DUP3 MSTORE POP POP JUMP JUMPDEST PUSH2 0x13E4 DUP2 PUSH2 0x1691 JUMP JUMPDEST DUP3 MSTORE POP POP JUMP JUMPDEST PUSH1 0x0 PUSH1 0x20 DUP3 ADD SWAP1 POP PUSH2 0x13FF PUSH1 0x0 DUP4 ADD DUP5 PUSH2 0x1142 JUMP JUMPDEST SWAP3 SWAP2 POP POP JUMP JUMPDEST PUSH1 0x0 PUSH1 0x20 DUP3 ADD SWAP1 POP DUP2 DUP2 SUB PUSH1 0x0 DUP4 ADD MSTORE PUSH2 0x141F DUP2 DUP5 PUSH2 0x11AF JUMP JUMPDEST SWAP1 POP SWAP3 SWAP2 POP POP JUMP JUMPDEST PUSH1 0x0 PUSH1 0x60 DUP3 ADD SWAP1 POP PUSH2 0x143C PUSH1 0x0 DUP4 ADD DUP5 PUSH2 0x1224 JUMP JUMPDEST SWAP3 SWAP2 POP POP JUMP JUMPDEST PUSH1 0x0 PUSH1 0x20 DUP3 ADD SWAP1 POP DUP2 DUP2 SUB PUSH1 0x0 DUP4 ADD MSTORE PUSH2 0x145B DUP2 PUSH2 0x127B JUMP JUMPDEST SWAP1 POP SWAP2 SWAP1 POP JUMP JUMPDEST PUSH1 0x0 PUSH1 0x20 DUP3 ADD SWAP1 POP DUP2 DUP2 SUB PUSH1 0x0 DUP4 ADD MSTORE PUSH2 0x147B DUP2 PUSH2 0x129E JUMP JUMPDEST SWAP1 POP SWAP2 SWAP1 POP JUMP JUMPDEST PUSH1 0x0 PUSH1 0x20 DUP3 ADD SWAP1 POP DUP2 DUP2 SUB PUSH1 0x0 DUP4 ADD MSTORE PUSH2 0x149B DUP2 PUSH2 0x12C1 JUMP JUMPDEST SWAP1 POP SWAP2 SWAP1 POP JUMP JUMPDEST PUSH1 0x0 PUSH1 0x20 DUP3 ADD SWAP1 POP DUP2 DUP2 SUB PUSH1 0x0 DUP4 ADD MSTORE PUSH2 0x14BB DUP2 PUSH2 0x12E4 JUMP JUMPDEST SWAP1 POP SWAP2 SWAP1 POP JUMP JUMPDEST PUSH1 0x0 PUSH1 0x20 DUP3 ADD SWAP1 POP DUP2 DUP2 SUB PUSH1 0x0 DUP4 ADD MSTORE PUSH2 0x14DB DUP2 PUSH2 0x1307 JUMP JUMPDEST SWAP1 POP SWAP2 SWAP1 POP JUMP JUMPDEST PUSH1 0x0 PUSH1 0x20 DUP3 ADD SWAP1 POP DUP2 DUP2 SUB PUSH1 0x0 DUP4 ADD MSTORE PUSH2 0x14FB DUP2 PUSH2 0x132A JUMP JUMPDEST SWAP1 POP SWAP2 SWAP1 POP JUMP JUMPDEST PUSH1 0x0 PUSH1 0x40 DUP3 ADD SWAP1 POP PUSH2 0x1517 PUSH1 0x0 DUP4 ADD DUP5 PUSH2 0x139D JUMP JUMPDEST SWAP3 SWAP2 POP POP JUMP JUMPDEST PUSH1 0x0 PUSH1 0x20 DUP3 ADD SWAP1 POP PUSH2 0x1532 PUSH1 0x0 DUP4 ADD DUP5 PUSH2 0x13DB JUMP JUMPDEST SWAP3 SWAP2 POP POP JUMP JUMPDEST PUSH1 0x0 PUSH1 0x40 DUP3 ADD SWAP1 POP PUSH2 0x154D PUSH1 0x0 DUP4 ADD DUP6 PUSH2 0x13DB JUMP JUMPDEST PUSH2 0x155A PUSH1 0x20 DUP4 ADD DUP5 PUSH2 0x1142 JUMP JUMPDEST SWAP4 SWAP3 POP POP POP JUMP JUMPDEST PUSH1 0x0 PUSH1 0x40 DUP3 ADD SWAP1 POP PUSH2 0x1576 PUSH1 0x0 DUP4 ADD DUP6 PUSH2 0x13DB JUMP JUMPDEST PUSH2 0x1583 PUSH1 0x20 DUP4 ADD DUP5 PUSH2 0x13DB JUMP JUMPDEST SWAP4 SWAP3 POP POP POP JUMP JUMPDEST PUSH1 0x0 DUP2 SWAP1 POP PUSH1 0x20 DUP3 ADD SWAP1 POP SWAP2 SWAP1 POP JUMP JUMPDEST PUSH1 0x0 DUP2 SWAP1 POP SWAP2 SWAP1 POP JUMP JUMPDEST PUSH1 0x0 DUP2 SWAP1 POP SWAP2 SWAP1 POP JUMP JUMPDEST PUSH1 0x0 DUP2 MLOAD SWAP1 POP SWAP2 SWAP1 POP JUMP JUMPDEST PUSH1 0x0 PUSH1 0x3 SWAP1 POP SWAP2 SWAP1 POP JUMP JUMPDEST PUSH1 0x0 PUSH1 0x3 SWAP1 POP SWAP2 SWAP1 POP JUMP JUMPDEST PUSH1 0x0 PUSH1 0x20 DUP3 ADD SWAP1 POP SWAP2 SWAP1 POP JUMP JUMPDEST PUSH1 0x0 PUSH1 0x20 DUP3 ADD SWAP1 POP SWAP2 SWAP1 POP JUMP JUMPDEST PUSH1 0x0 PUSH1 0x20 DUP3 ADD SWAP1 POP SWAP2 SWAP1 POP JUMP JUMPDEST PUSH1 0x0 DUP3 DUP3 MSTORE PUSH1 0x20 DUP3 ADD SWAP1 POP SWAP3 SWAP2 POP POP JUMP JUMPDEST PUSH1 0x0 DUP2 SWAP1 POP SWAP3 SWAP2 POP POP JUMP JUMPDEST PUSH1 0x0 DUP2 SWAP1 POP SWAP3 SWAP2 POP POP JUMP JUMPDEST PUSH1 0x0 DUP3 DUP3 MSTORE PUSH1 0x20 DUP3 ADD SWAP1 POP SWAP3 SWAP2 POP POP JUMP JUMPDEST PUSH1 0x0 PUSH2 0x1639 DUP3 PUSH2 0x1691 JUMP JUMPDEST SWAP2 POP PUSH2 0x1644 DUP4 PUSH2 0x1691 JUMP JUMPDEST SWAP3 POP DUP3 PUSH2 0x1654 JUMPI PUSH2 0x1653 PUSH2 0x1744 JUMP JUMPDEST JUMPDEST DUP3 DUP3 DIV SWAP1 POP SWAP3 SWAP2 POP POP JUMP JUMPDEST PUSH1 0x0 PUSH2 0x166A DUP3 PUSH2 0x1671 JUMP JUMPDEST SWAP1 POP SWAP2 SWAP1 POP JUMP JUMPDEST PUSH1 0x0 PUSH20 0xFFFFFFFFFFFFFFFFFFFFFFFFFFFFFFFFFFFFFFFF DUP3 AND SWAP1 POP SWAP2 SWAP1 POP JUMP JUMPDEST PUSH1 0x0 DUP2 SWAP1 POP SWAP2 SWAP1 POP JUMP JUMPDEST PUSH1 0x0 PUSH2 0x16A6 DUP3 PUSH2 0x1691 JUMP JUMPDEST SWAP2 POP PUSH32 0xFFFFFFFFFFFFFFFFFFFFFFFFFFFFFFFFFFFFFFFFFFFFFFFFFFFFFFFFFFFFFFFF DUP3 EQ ISZERO PUSH2 0x16D9 JUMPI PUSH2 0x16D8 PUSH2 0x1715 JUMP JUMPDEST JUMPDEST PUSH1 0x1 DUP3 ADD SWAP1 POP SWAP2 SWAP1 POP JUMP JUMPDEST PUSH1 0x0 PUSH2 0x16EF DUP3 PUSH2 0x1691 JUMP JUMPDEST SWAP2 POP PUSH2 0x16FA DUP4 PUSH2 0x1691 JUMP JUMPDEST SWAP3 POP DUP3 PUSH2 0x170A JUMPI PUSH2 0x1709 PUSH2 0x1744 JUMP JUMPDEST JUMPDEST DUP3 DUP3 MOD SWAP1 POP SWAP3 SWAP2 POP POP JUMP JUMPDEST PUSH32 0x4E487B7100000000000000000000000000000000000000000000000000000000 PUSH1 0x0 MSTORE PUSH1 0x11 PUSH1 0x4 MSTORE PUSH1 0x24 PUSH1 0x0 REVERT JUMPDEST PUSH32 0x4E487B7100000000000000000000000000000000000000000000000000000000 PUSH1 0x0 MSTORE PUSH1 0x12 PUSH1 0x4 MSTORE PUSH1 0x24 PUSH1 0x0 REVERT JUMPDEST PUSH32 0x496E76616C6964206974656D2069640000000000000000000000000000000000 PUSH1 0x0 DUP3 ADD MSTORE POP JUMP JUMPDEST PUSH32 0x57726F6E6720616D6F756E742C20706C656173652062696420302E3031206574 PUSH1 0x0 DUP3 ADD MSTORE PUSH32 0x6865720000000000000000000000000000000000000000000000000000000000 PUSH1 0x20 DUP3 ADD MSTORE POP JUMP JUMPDEST PUSH32 0x4F776E65722063616E6E6F742062696400000000000000000000000000000000 PUSH1 0x0 DUP3 ADD MSTORE POP JUMP JUMPDEST PUSH32 0x4C6F74746572792068617320656E646564000000000000000000000000000000 PUSH1 0x0 DUP3 ADD MSTORE POP JUMP JUMPDEST PUSH32 0x57696E6E657220616C7265616479206465636C61726564000000000000000000 PUSH1 0x0 DUP3 ADD MSTORE POP JUMP JUMPDEST PUSH32 0x596F7520617265206E6F7420746865206F776E65722E00000000000000000000 PUSH1 0x0 DUP3 ADD MSTORE POP JUMP JUMPDEST PUSH2 0x1898 DUP2 PUSH2 0x1691 JUMP JUMPDEST DUP2 EQ PUSH2 0x18A3 JUMPI PUSH1 0x0 DUP1 REVERT JUMPDEST POP JUMP INVALID LOG2 PUSH5 0x6970667358 0x22 SLT KECCAK256 SWAP6 0x2F DUP2 LOG0 0xD8 0x29 0x28 REVERT MUL SWAP10 0xAE SUB 0xC9 PUSH19 0x52C5A33ACEBD074ECC940B7BD546267C690464 PUSH20 0x6F6C634300080200330000000000000000000000 "
				},
				"gasEstimates": {
					"creation": {
						"codeDepositCost": "1272800",
						"executionCost": "infinite",
						"totalCost": "infinite"
					},
					"external": {
						"DeclareAllWinners()": "infinite",
						"DeclareWinner(uint256)": "infinite",
						"bid(uint256)": "infinite",
						"getAllItemBidNumber()": "infinite",
						"getItemBidNumber(uint256)": "infinite",
						"getItems()": "infinite",
						"getOwner()": "1311",
						"getPerson()": "726",
						"items(uint256)": "infinite",
						"owner()": "1211",
						"withdraw()": "infinite"
					}
				},
				"methodIdentifiers": {
					"DeclareAllWinners()": "83a9e969",
					"DeclareWinner(uint256)": "ff7782de",
					"bid(uint256)": "454a2ab3",
					"getAllItemBidNumber()": "f405cd51",
					"getItemBidNumber(uint256)": "ff3665c7",
					"getItems()": "410d59cc",
					"getOwner()": "893d20e8",
					"getPerson()": "8ec4dc95",
					"items(uint256)": "bfb231d2",
					"owner()": "8da5cb5b",
					"withdraw()": "3ccfd60b"
				}
			},
			"storageLayout": {
				"storage": [
					{
						"astId": 101,
						"contract": "src/contract/Lottery.sol:Lottery",
						"label": "owner",
						"offset": 0,
						"slot": "0",
						"type": "t_address"
					},
					{
						"astId": 106,
						"contract": "src/contract/Lottery.sol:Lottery",
						"label": "items",
						"offset": 0,
						"slot": "1",
						"type": "t_array(t_struct(Item)9_storage)3_storage"
					}
				],
				"types": {
					"t_address": {
						"encoding": "inplace",
						"label": "address",
						"numberOfBytes": "20"
					},
					"t_array(t_address)dyn_storage": {
						"base": "t_address",
						"encoding": "dynamic_array",
						"label": "address[]",
						"numberOfBytes": "32"
					},
					"t_array(t_struct(Item)9_storage)3_storage": {
						"base": "t_struct(Item)9_storage",
						"encoding": "inplace",
						"label": "struct Lottery.Item[3]",
						"numberOfBytes": "288"
					},
					"t_struct(Item)9_storage": {
						"encoding": "inplace",
						"label": "struct Lottery.Item",
						"members": [
							{
								"astId": 3,
								"contract": "src/contract/Lottery.sol:Lottery",
								"label": "itemId",
								"offset": 0,
								"slot": "0",
								"type": "t_uint256"
							},
							{
								"astId": 6,
								"contract": "src/contract/Lottery.sol:Lottery",
								"label": "itemTokens",
								"offset": 0,
								"slot": "1",
								"type": "t_array(t_address)dyn_storage"
							},
							{
								"astId": 8,
								"contract": "src/contract/Lottery.sol:Lottery",
								"label": "winner",
								"offset": 0,
								"slot": "2",
								"type": "t_address"
							}
						],
						"numberOfBytes": "96"
					},
					"t_uint256": {
						"encoding": "inplace",
						"label": "uint256",
						"numberOfBytes": "32"
					}
				}
			},
			"userdoc": {
				"kind": "user",
				"methods": {},
				"version": 1
			}
		}
	}
}